:020000040000FA
:10000000A8032020D5000000D9000000DB0000007C
:1000100000000000000000000000000000000000E0
:10002000000000000000000000000000DD000000F3
:100030000000000000000000DF000000E100000000
:10004000E3000000E3000000E3000000E300000024
:10005000E3000000E3000000E3000000E300000014
:1000600000000000E3000000E300000000000000CA
:1000700000000000E3000000E3000000A90D000004
:10008000E3000000E3000000910D0000E300000029
:10009000E3000000E300000000000000000000009A
:1000A000E3000000E300000000000000000000008A
:1000B000E300000000000000E3000000E300000097
:1000C0000348854600F0CCF900480047D50E0000F3
:1000D000A803202003480047FEE7FEE7FEE7FEE70F
:1000E000FEE7FEE7C1000000F8B502464A40D40F23
:1000F00042004B0052085B089A4202D20246084670
:1001000011464A0023D0C30D4A00DDB2120EAD1ACB
:10011000202D35DA49020126490AF6058A19002CF4
:1001200000D0524220214F1B1146B9402A411018DD
:10013000C20D9A4221D0002C17D0012D08DCDA051F
:10014000801AD20F8019D207DBB200F004F9F8BD93
:10015000DA05801A012340001B06C01880185A4295
:100160008018CA0F1043490007E04908C20711432D
:10017000DA05801A80194008801800F0E4F8F8BD0C
:1001800061000122511A001BF7E70122D2075140FA
:10019000AAE70122D2075040A6E7024670B54A40BE
:1001A000D30FDB0740002DD04A002AD0010E140ED9
:1001B000000212020919400A520A8418E501044695
:1001C0005443000A120A2E045043A4194219200C69
:1001D000C543AA18120C0125AD03521C5219120472
:1001E0007F39240400D0521C104301D44000491E22
:1001F000C2B20C06C0092018401C4008802A02D058
:1002000003E0002070BD40084000002900DA002013
:10021000184370BD70B502464A40D50F40004A00F1
:10022000ED0740085208002814D0002A12D0C40D4F
:10023000D30D41020120C0055202490A520AE41AB4
:10024000091812187D34914201D3641C00E0490062
:10025000002C01DA002070BD0023914201D3891ADD
:100260000343400849000028F7D100290AD09142F1
:1002700002D10121C90705E0914201D2012101E02B
:100280000121C943E005C018401900F05CF870BDB9
:100290000122D207002800DB101A002900DB511AC6
:1002A000814201D201207047002070470122D2070D
:1002B000002800DB101A002900DB511A814201D905
:1002C0000120704700207047C217C10F504010B581
:1002D0004018CA079623002100F03DF810BD10B564
:1002E00000229623114600F036F810BDC20F4100DF
:1002F00040020123400ADB05D207090EC0187F29FE
:1003000001DA00207047962903DC9623591AC84069
:1003100001E096398840002AF4D0404270474100FD
:1003200040020122400AD205090E80187F2901DA15
:1003300000207047962903DC9622511AC840704766
:10034000963988407047002904DA401C490001D1E1
:1003500040084000704770B40024050C05D11024FB
:10036000000402D1002921D01124050E01D1000280
:100370000834050F01D10001241D850F01D1800033
:10038000A41C002801DB4000641C002908D02025A3
:100390002E1B0D46F540A14000D001212943084302
:1003A00001061B1B000ADB1D02D5002070BC704734
:1003B000DB05181880180029F8DA401C4900F5D12F
:1003C00070BC40084000704770B5002801DC002078
:1003D00070BD410040020126400AF605090E801951
:1003E000CA0701D14000491E4D10002211463F3579
:1003F0003346CB409B18D418844201D8001B1A46C0
:100400004000491C1729F3DD5100814202D200212E
:10041000C94300E00021E8058018FFF794FF70BD94
:1004200010B541000DD04100090E962909DC7E2946
:100430000ADC07DB410205D0C00F7F21C007C905D8
:10044000401810BD002010BD9622541A20210A1B0E
:1004500001469140E040FFF776FFA04010BD00004C
:100460001CB5094800900948019005460126009CEA
:1004700005E0E36807CC33430C3C98471034AC42AA
:10048000F7D3FFF721FE0000D8170000F81700008F
:10049000420005D04200120E52428A4201DB002087
:1004A0007047C90508187047811E091F00BFFCD29C
:1004B00070470000B0B5536894681C439389234388
:1004C000146955691C43D3892B431B0123430C0139
:1004D000041909256D026351137852781A43BF231A
:1004E0001A4089004018034944589C43A2184250BE
:1004F000B0BDC0461011000070B582B00B794A79CA
:10050000002A24D0174A21242401202B00D0703443
:100510008218002B00D18824156C3F4E35402D19D0
:100520001564556C35402C1954641468774D2C4073
:10053000146054682C4054600024146254628F2468
:10054000E443156D25401565556D254055656A4692
:1005500013718B79537109680091114600F004F80A
:1005600002B070BD38180000F0B5664A8218294BF9
:10057000C318087920280DD000281DD10C68641EEE
:100580005460D56E244C25408835D56616467036A5
:1005900088251DE00C68641E5460D46E1E4D2C40EE
:1005A0001E4EA419D466146F2C40A419146701249C
:1005B00065071B4C16460BE00C6864085460D66E49
:1005C000154C26400525ED017619D666164670367F
:1005D000376827402F433760D46A4C4D2C40D46293
:1005E000146B2C4014630024D46414658F24E443FA
:1005F000D56F2540D5671D6825401D6049790143A9
:10060000BD2008401168074B0B40C018801C1060CB
:10061000F0BDC0468418000024F93FF0010400003A
:10062000FFFFFFCF4000FFCFB0B5364A80184A68C1
:1006300042600A78222A57D8930001A4E3589F46C3
:10064000DF060000E9060000DF060000E906000002
:10065000E9060000E9060000E9060000E9060000DE
:10066000E9060000E9060000E9060000E9060000CE
:10067000E9060000E9060000E9060000E9060000BE
:10068000CD060000E9060000CD060000E9060000E6
:10069000E9060000E9060000E9060000E90600009E
:1006A000E9060000E9060000E9060000E90600008E
:1006B000E9060000E9060000E9060000E90600007E
:1006C000CD060000E9060000CD06000003231B074D
:1006D00004689C4301235B07E318036004E00323E1
:1006E0001B0704689C4304600B69C360CB68064C1D
:1006F0001C40C36A054D1D402B19C362097A114382
:100700000160B0BD04180000777702008888FDFF03
:1007100010B507239B04194092008018024A8458A0
:100720009C436118815010BD3018000010B5029C28
:10073000A400001911431943014A815010BDC0465D
:100740005018000092008018014A81507047C0463E
:100750001018000010B50122120383180C789C6059
:100760004B7883508978014A815010BD0C110000EC
:10077000B0B51122120283580124A34383508B7811
:100780000C881C438B882343094C1C408358094D1B
:100790001D402B1983508B79CC791C43097A214356
:1007A0007E231940801842689A4351184160B0BDB9
:1007B00018670000E798FDFF10B5012212038318A7
:1007C0000C789C604978815010BD0000F0B585B070
:1007D0007D208000049000274A4C3846009717E09F
:1007E0004B49FFF7DAFC2146FFF714FDFFF77EFDCA
:1007F0000499401881B20122B648FFF7A3FF1E20DA
:1008000000F022FB0398401C2D21C900884270D0C3
:100810000390FFF759FD3849FFF7BFFC3749FFF751
:10082000F9FC054600F004FEFF2189050291FFF75F
:10083000B4FC0646284600F0B7FE01903046304929
:1008400000F0A8FC2146FFF7A8FC2F49FFF7E2FCC7
:100850002E49FFF749FC05463946FFF719FD0028E8
:1008600000D12F4638462146FFF720FD00282046BC
:1008700000D138462649FFF790FC2146FFF7CAFC15
:10088000FFF734FD0499471801980299FFF785FC9A
:10089000054630463146FFF780FC1E49FFF724FC31
:1008A00000F044FF0146284600F074FC0546B9B24A
:1008B0007248009F3A46FFF745FF28462146FFF75A
:1008C0006CFC1149FFF7A6FC1049FFF70DFC06462A
:1008D0003946FFF7DDFC00283D4600D13546284665
:1008E0002146FFF7E3FC0028204600D078E72846A1
:1008F00076E705B0F0BDC046DA0FC9400000B4434A
:100900000000604100003443DA0F49400000B44267
:100910000000FA4400004443F0B581B002460846A6
:100920001146FFF732FC06460F4807680660244868
:1009300001683046FFF731FC224C2146FFF76AFC84
:10094000054630463946FFF720FC01461E48006840
:10095000FFF723FC2146FFF75DFC01462846FFF721
:10096000C3FB01B0F0BDC04628002020F0B581B027
:10097000024608461146FFF708FC06460F4807687E
:1009800006600F4801683046FFF707FC0D4C214612
:10099000FFF740FC054630463946FFF7F6FB0146B7
:1009A00009480068FFF7F9FB2146FFF733FC0146D1
:1009B0002846FFF799FB01B0F0BDC0462C0020206F
:1009C000100020200000C8420C00202080B5034801
:1009D0000021034AFFF76EFD80BDC04600A04240E3
:1009E0007817000080B5FFF7F1FF80BD0C48852126
:1009F000816501214A040B4B1A60862202630904B7
:100A0000196082210160084A42608160C260074922
:100A1000C1640748016810220A4302607047C0465B
:100A200054804240D0320A40820004008100050018
:100A3000A0130A40B0B582B0D34C11492046FFF74D
:100A400089FE10492046FFF757FD0025204629461C
:100A50002A46FFF777FE0095204629462A462B4670
:100A6000FFF764FE204629462A46FFF751FE064856
:100A700001218160016002B0B0BDC0460020864007
:100A800090170000941700000031864070B582B0C6
:100A9000BE4C11492046FFF75DFE10492046FFF786
:100AA00063FD00260125204631462A46FFF74AFE0F
:100AB00000952046314632463346FFF737FE204642
:100AC00031462A46FFF724FE054885600221016071
:100AD00002B070BD00A086409C170000A017000067
:100AE00000B186400C48002101600320C1430B483F
:100AF0000246083A13680B401360016801229143D3
:100B00000160110203688B4303601103001F026838
:100B10000A4302607047C04608030B4008010B40BF
:100B20000548042101601F214160002181600168A6
:100B300005220A430260704710E000E010B5084C3F
:100B400008492046FFF706FE07492046FFF76CFDDF
:100B5000064801680122114301600548026010BD8A
:100B600000008640A8170000AC170000281086403F
:100B70000811864010B5144C14492046FFF71CFE9E
:100B800013492046FFF7F4FD0321CA031148036807
:100B90009343036002692E4B13401A330361426989
:100BA0000A433C218A434261416801221140436863
:100BB0009343591841609102074B1C680C431C6019
:100BC00001681143016010BD00801040C017000093
:100BD000C21700000091104028901040B0B5184C8A
:100BE00018492046FFF7E8FD17492046FFF7C0FDEA
:100BF0000320C103154802688A4302600269144950
:100C00000A40D03202614269152313432A229343DA
:100C1000436143680122134044689443E3184360EE
:100C200093020C4C25681D432560FF310A4B1C685C
:100C30000C40910361181960016811430160B0BD57
:100C400000001040CC170000CE170000001110402B
:100C50000000FFFF281010400CE400E080B500F019
:100C600023F8FFF7C3FEFFF73DFFFFF7E3FEFFF7B3
:100C70000DFFFFF763FFFFF77DFFFFF7AFFFFFF704
:100C8000B1FEFFF74DFF7420044900220A54B8203A
:100C900003490A5403490A5480BDC046EC00202091
:100CA0003000202064012020F0B581B00D480E49AD
:100CB00041600E4A51600E4B59600E4C61600E4D02
:100CC00069600E4E71600E4F79600E4901601160CF
:100CD000196021602960316039601020FFF7E4FB62
:100CE00001B0F0BD00080A40030000B100280A402E
:100CF0000028864000A886400008864000881040F2
:100D00000008104001000026F0B581B00D46FFF745
:100D1000DBFA01468C480068FFF7E6F9FFF7E6FAD0
:100D20000446184EB04200D334464120C700BC42AE
:100D300000D83C462046FFF7D2FA8349086028468F
:100D4000FFF7C2FA0146834D2868FFF7CDF9FFF798
:100D5000CDFAB04200D33046B84200D83846FFF74B
:100D6000BEFA2860084800222146FFF7EBFC2868FD
:100D7000FFF7D5FA014605480122FFF7E3FC01B071
:100D8000F0BDC046C40900000020864000A0864097
:100D900080B504480068000603D000F035F8FFF77E
:100DA00015FD80BD2010864010B512480068C0B205
:100DB0000B281ED11048C169104A13887E2B13D806
:100DC00013885C1C14800E4AD1540268D20708D0E4
:100DD0000268D20705D00268D20702D00268D207A3
:100DE000F3D1C9B2816101E00020108005480121E2
:100DF000017010BD2090104008911040A2022020E8
:100E000020022020A002202070B50E4D286840034B
:100E100001D4002070BD012086040124204600F08A
:100E200035F82868304208D02868304205D0286854
:100E3000304202D028683042F3D1204600F026F834
:100E4000204670BD80130A40B0B57D2109024143A0
:100E50001F480368262206E0E41A051F2D6864195E
:100E6000A2188A4210D21C460368A34208D1036824
:100E7000A34205D10368A34202D10368A342F3D081
:100E80009C42E9D9E41AEBE7B0BDC046B0B57D217C
:100E9000090241430E480368262206E0E41A051FB2
:100EA0002D686419A2188A4210D21C460368A34216
:100EB00008D10368A34205D10368A34202D10368A5
:100EC000A342F3D09C42E9D9E41AEBE7B0BDC04697
:100ED00018E000E0FFF7C2FE164801680122114346
:100EE00001601548016811430160D003134908608F
:100EF00053030B6092040A60114908600A600B609A
:100F00001048016810480068FFF706FDFFF7EEF98A
:100F10000E4C20600E4801680E480068FFF726FD61
:100F2000FFF7E4F901460C4801602068FFF7ECFE8A
:100F3000FEE7C0460438864004B8864080E200E000
:100F400000E100E0140020200400202020002020E8
:100F5000180020200800202024002020F0B4040CD9
:100F60008BB2264682B25E430D0C1046370C5843B6
:100F7000360480190021794116466E43370C360439
:100F80008019794126466E438919F0BC70474100AB
:100F9000080200D004200A0E01D001221043090EDD
:100FA000FF2901D102210843012800D10520704703
:100FB00010B50121FFF76CFA10BD10B5FFF794F8DA
:100FC00010BD10B500210846FFF724F910BD5E21C1
:100FD00010B5C9430807FFF75BFA10BDF0B50E4620
:100FE00014465100FF22120687B0914203D3111616
:100FF000316007B0F0BD01202502C0070543E00DB8
:101000007838C206D20E2020871A6000000E783889
:10101000401181004D4878440B189C464358002AE3
:1010200014D06046406893400146F8400343604650
:10103000806891408646F8400143039160467146BE
:10104000C0689140F84001430F4603E060464168A4
:101050000391876818462946FFF780FF02910490A4
:1010600029460398FFF77AFF0391069038462946F0
:10107000FFF774FF0F460698029B3D18049A0399E8
:10108000BD4201D2012700E000278818C019002FB7
:1010900002D0884202D903E0884201D2012100E057
:1010A000002159180A4620329709C20C89065203BA
:1010B00040033760114301900846FFF705F902909D
:1010C0000198FFF70CF91221C943FFF7E1F90190EC
:1010D0002846FFF704F92521C943FFF7D9F9009005
:1010E00001990298FFF700F80099FEF7FDFF012132
:1010F000C9024018050B2D0328460299FFF745F851
:101100000199FFF742F80099FFF743F81049FFF7FC
:1011100044F800900F492846FFF73FF80099FEF782
:10112000E3FF00900C492846FFF737F80099FEF7D7
:10113000DBFF002C00DB5CE701210907C91B3160E4
:101140000121C907484007B0F0BD00003E0700007C
:10115000DB0FC92F22AAFD290000C92F00000000C3
:1011600002E008C8121F08C1002AFAD17047000027
:101170007047000000000000002001E001C1121FC4
:10118000002AFBD170470000014908607047000049
:1011900000002020F0B50C4601461D224B00D2066F
:1011A0009F18E52605463606620087B02046B742FE
:1011B0007BD21D27FF06D719B74276D24F004300D6
:1011C0003E0E1A0EB21A1B2A07DD002902DA8548E4
:1011D00007B0F0BD844807B0F0BD1A26F2422FDAFE
:1011E000002807DA002902DA804807B0F0BD8048FD
:1011F00007B0F0BD21462846FFF70CF80646FFF77A
:10120000C6FE042801D1FFF7E2FE2846FFF7BFFE25
:1012100005462046FFF7BBFE04463046FFF7B7FE03
:10122000042D01D0052D08D1042C01D0052C04D1AA
:10123000002802D10220FFF7A7FF304607B0F0BD1B
:101240009F4211D9002902DA6A4F6B4E01E06B4FC1
:101250006B4E23462C461D4601220346D207084604
:101260005440504019460BE0002807DA002902DA02
:10127000644F654E04E0654F654E01E00026374639
:10128000421A012352001B069A422FD2484061495C
:101290000CD5BF20000602903846FEF776FF0746C1
:1012A0005D493046FEF771FF0BE053E03F2000063A
:1012B00002903846FEF718FF074657493046FEF7BA
:1012C00013FF064628460299FEF767FF2146FEF700
:1012D0000BFF009021460298FEF75FFF2946FEF7BC
:1012E00058FF0099FEF796FF044604E02146284681
:1012F000FEF790FF04460146FEF74FFF4749009076
:10130000FEF74BFF4649FEF7EFFE0099FEF745FF5B
:101310004449FEF7E9FE0099FEF73FFF4249FEF718
:10132000E3FE0099FEF739FF4049FEF7DDFE054672
:1013300020460099FEF731FF2946FEF72EFF314681
:10134000FEF7D2FE2146FEF7CFFE3946FEF7CCFE71
:1013500007B0F0BDFF263606B34201D8B24205D928
:1013600001462846FFF729FE07B0F0BD2F46074388
:101370007F000AD0B3420CD1B2420AD101229207B7
:10138000904391430D46044618E7FF22D2051043CF
:10139000F9E7B3420CD047000AD0B2420ED04E005B
:1013A0000CD05340F0D4002A0EDB9F26F6050DE04A
:1013B000FF22D2051143E00FC007FFE6C90FC9079E
:1013C000FF22D2051043F9E65F26F605314628468E
:1013D000FEF7E3FE054631462046FEF7DEFE0446F4
:1013E0002946EBE6DB0FC9BFDB0FC93FDB0F49C066
:1013F000DB0F49400000C9BF22AAFDB90000C93F68
:1014000022AAFD39000049C022AA7DBA0000494045
:1014100022AA7D3A0060ED3EC30ACE372DAD65BDF0
:101420008FB8D53D0FB511BE61C84C3EA8AAAABE63
:10143000F0B5024604464E4B83B0400069469842E0
:1014400009D273210906884202D20020C04300E07D
:101450000020009030E05000464B400898426CD28B
:1014600045491046FEF799FEFEF7DAFF0746FEF7FC
:101470003DFF8007800F009040493846FEF78DFE03
:1014800001903F493846FEF788FE06463D493846FA
:10149000FEF783FE05463C493846FEF77EFE2146B0
:1014A000FEF777FE2946FEF770FE3146FEF76DFE29
:1014B0000199FEF76AFE044625467F27009CFF053A
:1014C000002C3EDBE007314E294608461BD0FEF7D4
:1014D00064FE07462E49FEF760FE2E49FEF704FE25
:1014E0003946FEF75AFE2C49FEF7FEFD3946FEF757
:1014F00054FE2946FEF751FE2946FEF7F5FDA107E9
:1015000018D503B0F0BDFEF748FE05462349FEF7A7
:1015100044FE2349FEF7E8FD2946FEF73EFE214939
:10152000FEF7E2FD2946FEF738FE3946FEF7DCFD00
:10153000A107E6D5704003B0F0BD1046FFF74EFDA1
:10154000B9E7FF2168000906884202D2384603B095
:10155000F0BD884206D10120FFF716FEFFF731FDEE
:1015600003B0F0BD2846FFF723FD03B0F0BD000037
:10157000B61F927E490E494683F9223F1A61342CE8
:101580000020A23300A0FD390000C93F0000008008
:10159000336D4CB9DA82083CA0AA2ABEB93AB2BA75
:1015A000CA9F2A3DDDFFFFBEF0B502460446514BFF
:1015B00083B040006946984209D2732109068842E7
:1015C00002D20020C04300E00020009030E0500034
:1015D000494B400898426BD248491046FEF7DDFD62
:1015E000FEF71EFF0746FEF781FE8007800F009082
:1015F00043493846FEF7D1FD019042493846FEF78F
:10160000CCFD064640493846FEF7C7FD05463F4932
:101610003846FEF7C2FD2146FEF7BBFD2946FEF720
:10162000B4FD3146FEF7B1FD0199FEF7AEFD04466B
:101630002546009C002C3FDBE007354E2946084636
:101640001AD0FEF7AAFD05463249FEF7A6FD32493B
:10165000FEF74AFD2946FEF7A0FD3049FEF744FD9E
:101660002946FEF79AFD7F21C905FEF73DFDA1073A
:1016700000D5704003B0F0BDFEF78FFD0746284946
:10168000FEF78BFD2749FEF72FFD3946FEF785FD56
:101690002549FEF729FD3946FEF77FFD2946FEF76D
:1016A0007CFD2946FEF720FDA107E2D403B0F0BD82
:1016B0001046FFF793FCBAE7FF216800090688424D
:1016C00009D22846FFF763FC042801D1FFF77FFC0D
:1016D000284603B0F0BD884206D10120FFF754FD33
:1016E000FFF76FFC03B0F0BD2846FFF761FC03B0C5
:1016F000F0BD0000B61F927E490E494683F9223F95
:101700001A61342C0020A23300A0FD390000C93F2B
:1017100000000080B93AB2BACA9F2A3DDDFFFFBE81
:10172000336D4CB9DA82083CA0AA2ABE70B50546D2
:10173000FEF74AFE41000446FF204908C005411A51
:10174000C90F07D069004908401AC00F02D1012013
:10175000FFF71AFD204670BD000000006E83F9A25D
:101760002915444ED15727FCC0DD34F5999562DB2D
:101770004190433CAB6351FE1300000000000000A9
:101780000000000000020002000000000000000055
:1017900008001F00204E00002001010008001F006B
:1017A000204E0000200100000807C70002000000D2
:1017B00063000000010000000000000000000000C5
:1017C00004000000180000000030000008000000C5
:1017D0001800000000300000F81700000000202072
:1017E00020000000601100001818000020002020D8
:1017F0008803000078110000000000000080BB4456
:101800000080BB44000040400000C0400080BB445A
:081810000080BB440000000051
:04000005000000C136
:00000001FF
