:020000040000FA
:1000000018162020D5000000D9000000DB000000F9
:1000100000000000000000000000000000000000E0
:10002000000000000000000000000000DD000000F3
:100030000000000000000000DF000000E100000000
:10004000E3000000851D0000E3000000E300000065
:10005000E3000000E3000000E3000000E300000014
:1000600000000000E3000000E300000000000000CA
:1000700000000000E3000000E3000000E3000000D7
:1000800025390000E3000000E3000000E300000069
:10009000E3000000E300000000000000000000009A
:1000A000E3000000E300000000000000000000008A
:1000B000E300000000000000E3000000E300000097
:1000C0000348854600F0F0FC00480047F954000062
:1000D0001816202003480047FEE7FEE7FEE7FEE78C
:1000E000FEE7FEE7C1000000F8B500242546002920
:1000F00004DA0E46012400214042B141002B04DA0B
:100100001E46002352420125B34100F001FB8C46FC
:1001100017461E46AC4203D0002540428D41AC46F6
:10012000002C02D0002657429E4161463A46334693
:1001300001B0F0BD30B5434351435C18010C130CC2
:100140000D465D432C1980B292B20546554351438A
:100150000A0C09044D1962415843010C000440196E
:10016000514130BD30B504460020034600E05B1C21
:10017000934203D2E05CCD5C401BF8D030BDF8B5B3
:1001800002464A40D40F42004B0052085B089A4294
:1001900002D20246084611464A0023D0C30D4A0047
:1001A000DDB2120EAD1A202D35DA49020126490AB8
:1001B000F6058A19002C00D0524220214F1B11460F
:1001C000B9402A411018C20D9A4221D0002C17D0F4
:1001D000012D08DCDA05801AD20F8019D207DBB2B4
:1001E00000F0F1FAF8BDDA05801A012340001B0681
:1001F000C01880185A428018CA0F1043490007E0FF
:100200004908C2071143DA05801A8019400880188E
:1002100000F0D1FAF8BD61000122511A001BF7E786
:100220000122D2075140AAE70122D2075040A6E797
:10023000024670B54A40D30FDB0740002DD04A007C
:100240002AD0010E140E000212020919400A520AA5
:100250008418E50104465443000A120A2E04504350
:10026000A4194219200CC543AA18120C0125AD038C
:10027000521C521912047F39240400D0521C10431E
:1002800001D44000491EC2B20C06C0092018401C0F
:100290004008802A02D003E0002070BD40084000E2
:1002A000002900DA0020184370BD70B502464A40AC
:1002B000D50F40004A00ED0740085208002814D02E
:1002C000002A12D0C40DD30D41020120C0055202F4
:1002D000490A520AE41A091812187D34914201D3CE
:1002E000641C00E04900002C01DA002070BD0023EE
:1002F000914201D3891A0343400849000028F7D1ED
:1003000000290AD0914202D10121C90705E091429A
:1003100001D2012101E00121C943E005C0184019C3
:1003200000F049FA70BD0000F0B507460846584095
:1003300087B0C00F049048000E4659004008490895
:10034000BC1A884105D2384631461E4617460B4630
:1003500002465800400810434CD0300D0390400531
:100360005900400D490D0590401A0290402872DA5C
:1003700018030121000B090508430190049800921D
:10038000002805D001995242002088410092019036
:10039000029840210A1A0199009800F0E9F90546EF
:1003A0000C466B4607CB00F0F3F9C0197141039A74
:1003B0000E0D0023D71756401A467A40164344D0F4
:1003C000049A002A2DD0029A012A039A15DC1205FC
:1003D000C01A914101263605001C7141D20F059EBD
:1003E000D2070093019202962A46234600F031FA82
:1003F00007B0F0BD38463146FAE71605224A0F46E7
:10040000B218C01AB74101210905001C4F4100185C
:100410007F41114618187941E20F10436D1964416C
:1004200013E0E2076D0815436408C2071443039AFA
:1004300001261205C01A91413605001C7141CE07F4
:10044000400830434908C01851412A46234600F06D
:10045000F3F9CDE7FFE7049801224000C117121A13
:1004600000238B4104983146C417381AA141EEE7A6
:1004700030B40124E407634030BC55E730B40124B4
:10048000E407614030BC4FE70000E0FFF0B51FB467
:1004900088B00B990998002448400999C00F490079
:1004A00049080991C0070B990090490049080B9130
:1004B00009990898A64608431CD00B990A98084346
:1004C00018D0099801244000420D4800410D0998B8
:1004D00024050003000B204309900B980003000B38
:1004E00020430B9050181C494018002201901446DC
:1004F000104605E0002001460DB0F0BD032801DAEA
:10050000034600E003239C46C11A0AAE0AE05F00DE
:1005100008ADED5B4F00F75B7D430027AA187C41D7
:10052000491C5B1E6145F2DD410004AB5A522104B7
:10053000120C0A43240C401C0828DFDB01980290AF
:100540000099704601910090059B049A07990698BE
:1005500000F07FF9D0E700000DFCFFFF0122D20779
:10056000002800DB101A002900DB511A814201D853
:1005700001207047002070470122D207002800DBCD
:10058000101A002900DB511A814201D20120704764
:10059000002070470122D207002800DB101A002932
:1005A00000DB511A814201D30120704700207047BF
:1005B0000122D207002800DB101A002900DB511AA3
:1005C000814201D10120704700207047C217C10F3E
:1005D000504010B54018CA079623002100F0F3F8E8
:1005E00010BD10B500229623114600F0ECF810BDA6
:1005F000C20F410040020123400ADB05D207090E69
:10060000C0187F2901DA00207047962903DC962361
:10061000591AC84001E096398840002AF4D0404277
:100620007047C20FD207400040080BD0C10D07230E
:10063000DB01C91840020905400A1143C2084007FE
:1006400011437047002001467047CB0FDB0749007C
:1006500010B5490802460A4307D00A0D07240903CA
:10066000E401090B121B002A01DC002010BDC900A7
:10067000440F0C43C100E018D205801800F09BF82D
:1006800010BD70B50446002903D0002020220123AC
:1006900010E0002801D00020C043C046C0460DE055
:1006A0002546D5408D4205D30D469540641B1D4619
:1006B000954040191546521E002DF1DC214670BDB3
:1006C00070B5002504462E46002911D0002C01DA11
:1006D00001254442002901DA012649422046FFF75C
:1006E000D0FFB54200D04042002D00D0494270BD3D
:1006F000002C02DA0121C90702E0002C00DD0349C9
:100700000846C046C046214670BD0000FFFFFF7F7F
:10071000F0B51FB40646002082B005464024019182
:1007200000901BE0019922460F46304600F0D4F9B4
:10073000049A059B801A994110D310461946224607
:1007400000F016F8361A8F41019722460120002149
:10075000009F00F00DF838184D4100902046641EAF
:100760000028DFDC019B00982946324607B0F0BD27
:1007700010B5202A04DB0146203A9140002010BD2C
:10078000914020239C1A0346E3401943904010BD3A
:1007900010B5202A06DBCB170846203A1041C117B6
:1007A0000B4306E00B461341D0402024A21A91408F
:1007B0000843194610BD002904DA401C490001D144
:1007C00040084000704770B40024050C05D1102487
:1007D000000402D1002921D01124050E01D100020C
:1007E0000834050F01D10001241D850F01D18000BF
:1007F000A41C002801DB4000641C002908D020252F
:100800002E1B0D46F540A14000D00121294308438D
:1008100001061B1B000ADB1D02D5002070BC7047BF
:10082000DB05181880180029F8DA401C4900F5D1BA
:1008300070BC40084000704710B5002B08DA002457
:10084000401C614192185B411A4301D140084000AD
:1008500010BDF0B51FB482B005460C0003D00846A9
:1008600006F08AFB02E006F087FB2030024600908B
:1008700021462846FFF77CFF049B059A04460F4655
:1008800018431143084314D0184610431BD0009856
:1008900040210A1A1846059900F01EF905460E4631
:1008A000009A05990498FFF763FF084305D00120DB
:1008B00004E02046394607B0F0BD0020C1170543CB
:1008C0000E432C43374300990E986305401A79056F
:1008D000E40A00220C43FD0A0A3002D5002001463A
:1008E000E9E70105101969410C9C0D9D001969414A
:1008F000FFF7A2FFDFE70000F0B50C465C4085B0D3
:10090000E40FE40703944C00002664085900944661
:10091000490802460296224321D062460A431ED06D
:100920006200570D4A000E032303550D01240246B1
:100930002C492405781B1B0B360B401823432643F8
:10094000614600901C46501AB44103D30098401CE5
:10095000009002E0921800985B41002803DA002022
:10096000014605B0F0BD0020012109050746864675
:1009700011E064461D46141BB54106D36546521B63
:10098000B341744607430C43A646CD0740084908C7
:10099000284392185B4105460D43EAD1104618439F
:1009A00013D06046194650407140084306D0604657
:1009B000101AB34106D20122002306E000220123CF
:1009C000DB0702E00122D243531000987446010570
:1009D000381C6141029C039D00196941FFF72CFFFF
:1009E000BFE70000FD03000070B54B005B08034348
:1009F0000BD04B005C0D002633466542B341D41743
:100A0000AD1AA34102DB0020014670BD120530186B
:100A1000514170BD4A0009030123090B1B0519430D
:100A20000A4B10B5520D9A4202DA0020014610BD61
:100A3000064B34339A4203DC9A1A00F04DF810BD8D
:100A4000034BD218FFF794FE10BD0000FF03000017
:100A5000CDFBFFFF10B5002904DB0124E407404271
:100A60008C412146002B04DB1C460123DB0752424C
:100A7000A3418B4200D1824210BD000010B5002975
:100A800004DB0124E40740428C412146002B04DBB7
:100A90001C460123DB075242A341994200D19042F8
:100AA00010BD0000000000001CB509480090094876
:100AB000019005460126009C05E0E36807CC33431E
:100AC0000C3C98471034AC42F7D3FFF7FDFA000016
:100AD0007C9A00009C9A000010B5202A04DB08468E
:100AE000203AD040002110BD0B46D340D0402024F6
:100AF000A21A91400843194610BDFEB500231A46BC
:100B00001B1A8A4103DB0020014603B0F0BD4A00F6
:100B10000D0301212D0B0905520D0D43D10702D103
:100B200000186D41521E5110FF31FF310131002775
:100B300004463E46384600970191024601210020B6
:100B40000905FFF7C9FFC3197141F81832468446F9
:100B50008E464A4161462846611A904104D3604658
:100B6000241A954176461F46241900986D41401C71
:100B700000903428E1DDF91930467041091BA84185
:100B800003D20022D243134601E00022134601980B
:100B90000105381C7141FFF74FFEB6E780B586B0FE
:100BA000114800680590059802F0ECFE01900F488E
:100BB000016864204843FFF709FD01460198FFF7EB
:100BC000DEFA049004980290FFF712FD01460298A5
:100BD00003910121C9074840FFF70AFD0146039828
:100BE00002F0F0FD06B080BDC404202040002020AB
:100BF00082B001900199881E001F00BFFCD20090B6
:100C000002B0704784B0039002910192039800688B
:100C10000090009801998843009000980299019AE9
:100C2000114008430399086004B0704784B00390F2
:100C300002910192039800680090009801998843FE
:100C4000009000980299019A1140084303990860A6
:100C500004B0704784B00390029101920398006839
:100C60000090009801998843009000980299019A99
:100C7000114008430399086004B0704784B00390A2
:100C800002910192039800680090009801998843AE
:100C9000009000980299019A114008430399086056
:100CA00004B0704784B003900291019203980068E9
:100CB0000090009801998843009000980299019A49
:100CC000114008430399086004B0704782B0019056
:100CD0000091009B0199C44A88581843885002B07B
:100CE0007047C04682B001900091009B0199BE4AB6
:100CF00088581843885002B07047C04682B00190AF
:100D000000910098019995225201885002B07047D5
:100D100082B001900091009801999522520188506B
:100D200002B0704782B0019000910098019995221D
:100D30005201885002B0704782B001900091009833
:100D4000019995225201885002B0704781B00090FD
:100D500000988100734A885801235B061843885025
:100D600001B0704781B00090009881006D4A8858AA
:100D700001235B061843885001B0704782B0019090
:100D80000091009B0199034A88581843885002B08B
:100D90007047C0462810000082B001900091009872
:100DA0000199074A885002B07047C04682B001904E
:100DB000009100980199024A885002B07047C046DD
:100DC000D012000081B0009000990120C202A24818
:100DD000885001B07047C04682B0019000910198E0
:100DE000024940580099084002B07047381000008E
:100DF00081B00090009881004A4A1848885001B09C
:100E00007047C04610B584B0069C039002910192D1
:100E100000930298019908430099084306990843F2
:100E20000E490843039989003E4A885004B010BD1A
:100E300010B584B0069C0390029101920093029831
:100E40000199084300990843069908430349084358
:100E500003998900334A885004B010BD8100040012
:100E600081B00090009881002E4A8120885001B006
:100E70007047C04681B0009000988100294A8120C7
:100E8000885001B07047C04682B001900091009830
:100E90001D49084301998900224A885002B07047D1
:100EA00010B584B0079C069C0390029101920093B8
:100EB0000298019908430099084306990843079945
:100EC00008431149084303998900164A885004B021
:100ED00010BDC04610B584B0079C069C03900291DB
:100EE00001920093029801990843009908430699DA
:100EF0000843079908430449084303998900094AAC
:100F0000885004B010BDC0468000040082B001903B
:100F1000009100988021084301998900014A885076
:100F200002B070470480424082B001900091019865
:100F30002721C90140580099084002B0704782B08B
:100F40000190009101982721C9014058009908405B
:100F500002B0704782B00190009101982721C90129
:100F600040580099084002B07047000081B00090DE
:100F700000998D4A8D48885001B0704782B0019029
:100F80000091009801990C4A885002B07047C04601
:100F900082B00190009100980199074A885002B0F0
:100FA0007047C04682B00190009100980199024AB2
:100FB000885002B07047C0469012000082B0019085
:100FC0000091009B01999D20420188581843885048
:100FD00002B0704782B00190009100980199024AD6
:100FE000885002B07047C0464810000081B00090A1
:100FF000009909204202885801231B021843885097
:1010000001B0704781B000900099084A88580123C8
:101010001843885001B0704781B000900099034A8E
:10102000885804231843885001B0704728120000E4
:1010300081B0009000990120C2020748885001B099
:101040007047C04681B0009000990120C20202485A
:10105000885001B07047C0460100002680B584B0BA
:101060000390029101A80280694600200880FFE7F2
:101070006846008801A90988884215DAFFE70398C5
:1010800000F06AF8002808D1FFE7039802996A4641
:101090001288895C00F030F900E005E0FFE7009875
:1010A000401C69460880E3E76846008804B080BDBC
:1010B00080B582B00190019800F008F9FFE701982F
:1010C00000F03AF8002801D1FFE7F8E7019800F0B6
:1010D00007F902B080BD000081B00090009802497D
:1010E000405801B07047C0461812000082B001900D
:1010F00000910198024940580099084002B0704799
:101100003010000082B0019001980449405802213B
:10111000084000906846007802B070473412000022
:1011200081B000900098124940580F210840414278
:10113000484101B07047C04681B0009000980C490A
:1011400040580F21090208400249401841424841D5
:1011500001B0704700F8FFFF81B00090009804498B
:1011600040580F21090208404142484101B07047F0
:101170003C12000081B00090009802494058C0B273
:1011800001B070471C12000081B000900099064A1F
:101190000648885001B0704781B000900099024A1B
:1011A0000248885001B0704704080000030000B1F5
:1011B00081B000900099434A0020885001B07047E8
:1011C00080B584B0019101460198039102A908807D
:1011D0000398092252028018098803225202FFF75D
:1011E00011FD04B080BD000080B582B00190009177
:1011F000019809494018009909780C22FFF73EFD33
:101200000198012109034018009949780722FFF746
:1012100035FD02B080BDC0460410000080B584B02A
:10122000019101460198039102A908800398314A6F
:101230008018098807221202FFF7E4FC04B080BD81
:1012400080B584B0019101460198039102A908700C
:101250000398284A801809780722FFF7D3FC04B0C6
:1012600080BDC04682B00190684601700078019947
:10127000014A885002B070472412000010B586B0B1
:101280000192024601980592049103AA107002A8E7
:1012900003800598094940180499490012781143C0
:1012A000074AFFF7FFFC0598064940180299090410
:1012B000C91D054AFFF7F6FC06B010BD101200006C
:1012C000FF070000141200000700FF0F81B000901C
:1012D0000099084A885880231843885001B0704705
:1012E00081B000900099034A885880239843885021
:1012F00001B070473812000082B00190684601705A
:101300000078019991225201885002B0704782B052
:10131000019068460170007801999122520188502D
:1013200002B07047F0B584B001242202344B196832
:1013300003929143196062490D686D04FCD5457EA6
:1013400025409E69A64374199C612024045D0325F1
:101350002C40DE69AE433419DC611F4C256805263C
:101360002660466A37681F6276685E6207262E40EE
:101370002660C4697F252D02DE69AE436406640CD5
:101380003419DC610768456882680092C6680269A2
:101390000192426902929A69104C14403A07120B6A
:1013A0002D03ADB2AA183243009D2D072D0D154314
:1013B000019A1543029A1543007E2843084A0240C9
:1013C000101998611868039A10431860086880051E
:1013D000FCD504B0F0BDC046001340408D00F0FFC6
:1013E00072FF0F00064908680122904308607047A9
:1013F0000349086801221202904308607047C04602
:1014000008010B402D4908680122120310430860AF
:101410007047C04681B000900098034908600349B6
:101420000348086001B0704700030B4004030B4001
:10143000010000E481B0014668460170007802496D
:10144000086001B07047C04608030B4080B582B009
:10145000014601A8018001880F2002021748FFF70A
:10146000D1FB02B080BDC04680B582B0014601A864
:101470000170017802480322FFF7C4FB02B080BD6F
:1014800000010B4080B582B0014601A801700178CF
:101490000A483022FFF7B6FB02B080BD07498860DA
:1014A000074802689202FCD5012212040B6813431C
:1014B0000B600168C906FCD57047C04604010B40AB
:1014C00004020B4009490868052210430860704770
:1014D00081B000900549042008600098401E04492E
:1014E000086004490020086001B0704710E000E087
:1014F00014E000E018E000E080B58CB00B900A9199
:101500000A984079C00700285CD0FFE70A98007964
:101510000790002804D0FFE7079820280CD018E097
:101520000B9888210691022200F0B8F906990B98D1
:10153000032200F0B3F919E00B982121090105916C
:10154000022200F0ABF905990B98032200F0A6F9EE
:101550000CE00B980521C9010491022200F09EF9CC
:1015600004990B98032200F099F9FFE70B980022E9
:10157000029202230193114600F0AAF9029A0B98F5
:1015800003230393114600F0A3F90199029B0B98E2
:10159000009119461A4600F0D3F9029B03990B9863
:1015A000009119461A4600F0CBF9019B029A0B985C
:1015B000114600F0ABF9029A039B0B98114600F01C
:1015C000A5F9FFE70A98006808900A98007908A929
:1015D00008710A98807948710B9800F031F80CB0C6
:1015E00080BD000081B000900099024A012088501F
:1015F00001B070470811000082B001900091009B7B
:101600000199034A88581843885002B07047C04671
:101610002810000081B0009000990120C202024809
:10162000885001B07047C0460100002681B000908C
:101630000098812149014058C0B201B070470000B4
:1016400080B58AB009900891089800790790002821
:1016500004D0FFE70798202812D029E009980899BC
:101660000968491E00F0C6F90998882106910022F0
:1016700000F014F906990998012200F00FF92AE008
:10168000099808990968491E00F0B4F909982D498C
:101690000491002200F002F90499099801220592B0
:1016A00000F0FCF805990998490700F095F912E057
:1016B000099808990968490800F09CF909980521DA
:1016C000C9010391002200F0E9F803990998012269
:1016D00000F0E4F8FFE709980023019319461A4641
:1016E00000F0F6F8019A099801230293114600F0E0
:1016F000EFF8019B0998009319461A4600F020F96B
:10170000019B02990998009119461A4600F018F9B0
:10171000019B099819461A4600F0F8F8019A029BB5
:101720000998114600F0F2F80998BD494018089A46
:1017300011795279114302221143034AFFF78AFAC1
:101740000AB080BD01040000BFFF003080B584B046
:101750000390029103980299496800F04BF90298AE
:1017600000780190222856D80198810001A04058A5
:101770008746C0460D180000171800000D1800001D
:10178000171800001718000017180000171800009D
:10179000171800001718000017180000171800008D
:1017A000171800001718000017180000171800007D
:1017B0001718000001180000171800000118000099
:1017C000171800001718000017180000171800005D
:1017D000171800001718000017180000171800004D
:1017E000171800001718000017180000171800003D
:1017F0001718000001180000171800000118000059
:1018000003980121490700F0E7F805E0039800215B
:1018100000F0E2F800E0FFE703980299096900226E
:10182000009200F0ADF8009B03980299C9681A462F
:1018300000F04EF802990878097A08430399784A2B
:10184000885004B080BDC04681B000900099B54A70
:10185000B548885001B0704782B00190009100985F
:10186000019911221202885002B0704780B584B0ED
:101870000390029101A802700399224A89180091ED
:10188000017800988900401800900098029907227A
:101890009204FFF7DFF904B080BDC04680B584B084
:1018A0000390029101A802700399074A89180091D8
:1018B0000178009889004018009000980299034A26
:1018C000FFF7C8F904B080BD70180000DB06C00F38
:1018D00010B586B005900491039202A80370059993
:1018E000084A8918019101780198890040180190EF
:1018F00001980499039A1143034AFFF7ABF906B024
:1019000010BDC046301800007777020010B586B0D1
:1019100005900491039202A8037005993122D20127
:101920008918019101780198890040180190019867
:101930000499039A11438F22FFF78CF906B010BD6A
:1019400010B587B000910446009809990694059057
:101950000492039302A801700699084A891801911C
:10196000017801988900401801900598049908436E
:10197000039908430199086007B010BD5018000092
:1019800084B00390029101A802700399064A891855
:101990000091017800988900401800900298009901
:1019A000086004B07047C0461018000082B0019073
:1019B0000091009800780199774A88500098407803
:1019C00001990122120388500098807801998D4A6C
:1019D000885002B07047C04680B582B00190009137
:1019E00001980F494018009903221207FFF732F9B6
:1019F00002B080BD82B00190009100980199024A26
:101A0000885002B07047C0460818000081B00090AE
:101A10000099034A885801231843885001B0704741
:101A20000418000081B0009000991120020288582B
:101A300001239843885001B0704781B0009000990D
:101A400011200202885801231843885001B07047C2
:101A500081B00090009911200202885801235B0494
:101A60001843885001B0704782B001900091009BEC
:101A70000199034A88581843885002B07047C046FD
:101A80002810000081B000900099112002028858AF
:101A900004231843885001B07047000081B00090C3
:101AA00000990120C2020248885001B07047C04628
:101AB0000100002680B582B0019000910198FFF7E7
:101AC000B1FF0198112109024018009A11889378FA
:101AD000194392881143084AFFF7A8F8019825494D
:101AE0004018009A9179D3791943127A11437E22D2
:101AF000FFF79CF802B080BD1867020081B000902B
:101B00000098034940580121084001B07047C04681
:101B10000811000081B000900099024A02488850E4
:101B200001B0704704080000030000B180B584B024
:101B300003900291019203980B49401802990B4AB5
:101B4000FFF760F803980A49401801993F22FFF710
:101B500059F80399074A8818895801221140FFF75C
:101B600051F804B080BDC04610110000FFFF000016
:101B7000141100000411000082B00190009100983F
:101B800000780199044A8850009840780199012210
:101B90001203885002B070470810000080B582B070
:101BA0000190009101981121090240180099032227
:101BB000D203FFF727F802B080BD000080B584B0E3
:101BC000019101460198039102A9087003980D4AFA
:101BD000801809787022FFF715F804B080BDC04660
:101BE00080B584B0019101460198039102A9087063
:101BF0000398044A801809780722FFF703F804B015
:101C000080BDC0460C11000082B001906846017092
:101C10000078019989225201885002B07047000073
:101C200080B584B003A90020087002AB019318703E
:101C300068207521012203F0D7FB494805F078F9A7
:101C400001980078682804D0FFE70320FFF7E2FB43
:101C5000FFE703F059FE002871D1FFE7782004F078
:101C600045FE002804D1FFE73D4805F061F903E097
:101C700003A901200870FFE7782003F0ADFC0028DD
:101C800004D1FFE7374805F053F903E003A9012029
:101C90000870FFE7C82004F0B3FD002804D1FFE777
:101CA000314805F045F903E003A901200870FFE77A
:101CB00002F0FEFA002804D1FFE72C4805F038F9BD
:101CC00003E003A901200870FFE7294803F0AAFBFD
:101CD00002F062FD002804D1FFE7264805F028F94C
:101CE00003E003A901200870FFE7FF20743002F031
:101CF0004FF9002804D1FFE71F4805F019F903E068
:101D000003A901200870FFE7C82002F05DFC00284D
:101D100004D1FFE7194805F00BF903E003A90120FE
:101D20000870FFE705F056F8012004F0F5FB0028E5
:101D300004D1FFE7124805F0FBF8FFE703E00320BA
:101D4000FFF768FBFFE703A80078002806D0FFE74D
:101D500003F012FC0320FFF75DFBFFE704B080BD3A
:101D6000309A00000B9A000077990000209900003B
:101D700044002020E5990000529900009D99000040
:101D8000C199000080B582B0032041063F48FFF7AB
:101D900023F83F4901910860112001053D48FFF7F4
:101DA0001BF8014601983C4A1160C0788007002862
:101DB00013D5FFE7012081063448FFF7C0F800285B
:101DC00005D1FFE735490868401E086004E0334943
:101DD0000868401C0860FFE719E02D48C0784007FC
:101DE000002813D5FFE7012041062848FFF7A7F890
:101DF000002805D1FFE729490868401C086004E075
:101E000026490868401E0860FFE7FFE7FFE7224811
:101E10008078C006002813D5FFE7012001061D4881
:101E2000FFF78DF8002805D1FFE71D490868401E1F
:101E3000086004E01A490868401C0860FFE719E0E0
:101E40001548C078C007002813D0FFE7012001051E
:101E50001048FFF774F8002805D1FFE7104908681B
:101E6000401C086004E00E490868401E0860FFE757
:101E7000FFE7FFE7032041060448FEF733FF112088
:101E800001050448FEF72EFF02B080BD00000A40A5
:101E9000BC05202000200A40C005202094002020FE
:101EA0009000202010B584B003AC2080029101A8DE
:101EB00002800093002004B010BD10B584B003ACC4
:101EC0002080029101A802800093002004B010BD80
:101ED00010B588B00191014601980A9C06AC21809A
:101EE00005A90880049203AA138001200290069895
:101EF000400809781278049BC0B204F035FE0290C5
:101F00000298002804D1FFE707A90020087003E029
:101F100007A901200870FFE707A8007808B010BDE6
:101F200010B588B00091014600980A9C06AC21804B
:101F300005A90880049203AA138002AB0193012033
:101F400018700698400809781278049BC0B204F013
:101F500095FE0146019801700078002804D1FFE742
:101F600007A90020087003E007A901200870FFE717
:101F700007A8007808B010BD80B582B0014601A85E
:101F80000180008801F080FF02B080BD80B5054867
:101F9000FFF7B8F8002803D1FFE703F0EDFAFFE7F9
:101FA00080BDC04600000F40B0B586B00193144616
:101FB000019A0B46014605A8017004A90B7003ABFA
:101FC0001C700292534A1268146900784000097824
:101FD000029A1B78C8250095A04706B0B0BDC04640
:101FE00010B588B00C46014607A8017006A90C7010
:101FF00005AC227004AA02921370464A1268146952
:10200000007840000978C822009203AA0123A04763
:1020100002980078002809D0FFE703A8007805A9F6
:102020000A78012191400843019008E003A8007854
:1020300005A90A780121914088430190FFE70198A2
:1020400003AA107033480068C46807A800784000ED
:1020500006A90978C82300930123A04708B010BD42
:10206000B0B58AB014460D4601460E9A08A8017014
:1020700007A90D7006AD2C7005AC237004AB1A7067
:10208000244A12681469007840000978C822009236
:1020900003AA0123A047002833D1FFE706A805784B
:1020A000691CFF231A468A4005A90C78641BE41DAD
:1020B000E3401A4302AB1A700A780821891A049A7D
:1020C0008A4004A90A7002780720821A0878D04052
:1020D000087002990398084003AA107004990398A5
:1020E000084310700B480068C46808A800784000D6
:1020F00007A90978C82300930123A04709A90870FC
:1021000003E009A901200870FFE709A800780AB0D8
:10211000B0BDC0465800202080B5A8B00A20249049
:1021200001F094FD0146249827AA2592117001F030
:10213000EFFD0146259826AA11700078012827D1C5
:10214000FFE7FE480068002806D1FFE7FC49086861
:102150004242504108601AE0F848006801280FD058
:10216000FFE7F648006802280AD0FFE7F348006856
:10217000032805D0FFE7F1480068042806D1FFE7EF
:10218000F0490878424250410870FFE7FFE712E04B
:1021900027A8007802280DD1FFE7E8480168491C0C
:1021A00001600068052804DBFFE7E44900200860BF
:1021B000FFE7FFE7FFE726A80078012800D0DBE172
:1021C000DE48006801284AD1FFE7DF480078002890
:1021D00013D1FFE7DB480178DC48DD4A2292002971
:1021E000239001D1229823902399DA482190006806
:1021F000FDF7C5FF2199086018E0D3480078022850
:1022000013D1FFE7CF480178D348D44A1F92002961
:10221000209001D11F9820902099D1481E900068ED
:10222000FDF7ADFF1E990860FFE7FFE7C9480068AA
:102230000021FEF7AFF9002804D1FFE7C5490020CF
:102240000860FFE7C64800680021FEF7A3F90028F0
:1022500004D1FFE7C24900200860FFE78BE1F348A3
:10226000006802286FD1FFE7F2480078002813D1F8
:10227000FFE7EF480178F848F84A1C9200291D90C2
:1022800001D11C981D901D99F5481B900068FDF721
:1022900076FF1B99086031E0E6480078012813D1E9
:1022A000FFE7E3480178E448E44A199200291A90CC
:1022B00001D119981A901A99E64818900068FDF70C
:1022C0005EFF1899086018E0DA480078022813D1F8
:1022D000FFE7D7480178D848D84A169200291790C6
:1022E00001D1169817901799D94815900068FDF7F5
:1022F00046FF15990860FFE7FFE7FFE7D848006849
:102300000021FEF747F9002804D1FFE7D449002057
:102310000860FFE7CF4800680021FEF73BF900287E
:1023200004D1FFE7CB4900200860FFE7C8480068F8
:102330000021FEF72FF9002804D1FFE7C44900204F
:102340000860FFE716E1B9480068002811D1FFE7EF
:10235000B74801780020C043139001200029149051
:1023600001D113981490149AB8490868801808602D
:10237000FFE0AE480068032870D1FFE7AD48007861
:10238000002814D1FFE7AA480178FF208005AD4A54
:1023900011920029129001D1119812901299AA4815
:1023A00010900068FDF7EBFE1099086031E0A1483D
:1023B0000078012813D1FFE79D4801789E489F4A85
:1023C0000E9200290F9001D10E980F900F999E4800
:1023D0000D904068FDF7D3FE0D99486018E09548D0
:1023E0000078022813D1FFE7914801789248934A78
:1023F0000B9200290C9001D10B980C900C999248EB
:102400000A908068FDF7BBFE0A998860FFE7FFE746
:10241000FFE78D4800680021FEF7BCF8002804D1D2
:10242000FFE7894900200860FFE7874840680021EE
:10243000FEF7B0F8002804D1FFE783490020486088
:10244000FFE7814880680021FEF7A4F8002804D146
:10245000FFE77D4900208860FFE789E0D0480068F9
:10246000042800D083E073480078002814D1FFE7E7
:102470006F480178FF208005724A08920029099070
:1024800001D10898099009996D4807900068FDF7F7
:1024900076FE0799086031E066480078012813D17C
:1024A000FFE7634801786448644A05920029069072
:1024B00001D1059806900699614804904068FDF79F
:1024C0005EFE0499486018E05A480078022813D14B
:1024D000FFE7574801785848584A0292002903906C
:1024E00001D1029803900399554801908068FDF747
:1024F00046FE01998860FFE7FFE7FFE75048006864
:102500000021FEF747F8002804D1FFE74C490020DE
:102510000860FFE74A4840680021FEF73BF80028C2
:1025200004D1FFE7464900204860FFE7444880683F
:102530000021FEF72FF8002818D113E09800202082
:102540001400202088002020E4042020CDCCCC3DA5
:10255000CDCCCCBD1C0020200AD7233C0AD723BCFD
:1025600018002020364900208860FFE7FFE7FFE7DA
:10257000FFE7FFE7FFE757E026A80078022852D1DF
:10258000FFE787480068012807D1FFE72949087855
:10259000424250414000087044E0814800680228EF
:1025A0000DD1FFE723480178491C0170007803280A
:1025B00004DBFFE71F4900200870FFE731E078489F
:1025C0000068002806D1FFE71949087842425041C7
:1025D000087025E07248006803280DD1FFE7154810
:1025E0000178491C01700078032804DBFFE71149DA
:1025F00000200870FFE712E06948006804280DD148
:10260000FFE70C480178491C01700078032804DBBF
:10261000FFE7084900200870FFE7FFE7FFE7FFE753
:10262000FFE7FFE7FFE7FFE728B080BD9800202025
:1026300088002020E40420200AD7233C0AD723BCAA
:10264000A80420200000C0BF080020204000202057
:10265000C004202038002020CDCCCC3DCDCCCCBD3A
:102660003C00202080B582B0054B01936820752185
:102670000122FFF799FC0198007802B080BDC046A6
:10268000CE04202080B582B0FFF7ECFF682804D08C
:10269000FFE70320FEF7BEFEFFE7022000F012F87E
:1026A000032000F02DF80020019000F01AF80198A6
:1026B00000F04FF8019800F03FF8019800F02FF873
:1026C00002B080BD80B582B0014601A801700078DB
:1026D000009068206B2102220323FFF7C1FC02B0A7
:1026E00080BD80B582B0014601A8017000780090DD
:1026F00068201C2104220223FFF7B2FC02B080BD37
:1027000080B582B0014601A8017000780090682071
:102710001B2104220223FFF7A3FC02B080BD80B579
:1027200082B0014601A80170037868203721012298
:10273000FFF756FC02B080BD80B582B0014601A80B
:102740000170037868206A210522FFF749FC02B076
:1027500080BD80B582B0014601A801700378682071
:102760006B210622FFF73CFC02B080BD80B5C6B0ED
:1027700000F082FA0A4800684590042800D94BE22C
:102780004598810001A040588746C046A527000013
:102790005728000007290000F12900002D2B000018
:1027A00098002020CD480268CD480368CD4840906D
:1027B000CD4904F0CDFB409A00214191084600F03C
:1027C0004DFCCA480068FDF72CFF024640980B46B6
:1027D000C74904F0BDFB4199409A462000F03EFCF9
:1027E0004098C4490A68C4490B68C44904F0B0FB66
:1027F000409A4198102100F031FC4098C0490A6885
:10280000C0490B68C04904F0A3FB409A41982021BD
:1028100000F024FC4098BD490A68BD4904F098FBCB
:10282000409A41983021429100F018FCB948017853
:10283000B948BA4A43920029449001D14398449040
:102840004098449AB64904F083FB4299409A642028
:1028500000F004FCE0E1B34A00213991084600F0A1
:10286000FDFBB1480068FDF7DCFE3A903B91EE4875
:102870003C900178ED483D90ED4A3E9200293F9012
:1028800001D03E983F903B9B3A9A3F980090E94890
:102890003590F64904F05CFB359A3998102100F028
:1028A000DDFBF3480068FDF7BCFE02463D9836921A
:1028B0000A463C99379209780229389001D03E980F
:1028C00038903598379B369A38990091E94904F049
:1028D0003FFB359A3998202100F0C0FBD948017898
:1028E000D948DA4A33920029349001D13398349090
:1028F0003598349AD64904F02BFB3999359A6420DF
:1029000000F0ACFB88E1D54A00212C91084600F08C
:10291000A5FBD3480068FDF784FE2D902E91C24898
:102920002F900178C1483090C14A319200293290ED
:1029300001D0319832902E9B2D9A32980090BD484C
:102940002890BD4904F004FB289A2C98102100F02F
:1029500085FBC4480068FDF764FE02463098299262
:102960000A462F992A92097801292B9001D0319893
:102970002B9028982A9B299A2B990091AF4904F013
:10298000E7FA289A2C98202100F068FBB6480068E6
:10299000FDF747FE0246309825920A462F99269267
:1029A00009780229279001D0319827902898269BF2
:1029B000259A27990091A24904F0CAFA289A2C98DE
:1029C000302100F04BFB9F4801789F489F4A23929B
:1029D0000029249001D1239824902898249A9C4976
:1029E00004F0B6FA2C99289A642000F037FB13E122
:1029F000984A00211B91084600F030FB96481C9035
:102A00000068FDF70EFE1D901E9187481F9001780B
:102A100086482090864A21920029229001D0219850
:102A200022901E9B1D9A22980090824817908249FE
:102A300004F08EFA179A1B98102100F00FFB1C98D7
:102A40004068FDF7EEFD0246209818920A461F994D
:102A50001992097801291A9001D021981A90179893
:102A6000199B189A1A990091744904F071FA179AEF
:102A70001B98202100F0F2FA1C988068FDF7D1FD28
:102A80000246209814920A461F9915920978022945
:102A9000169001D0219816901798159B149A1699A4
:102AA0000091674904F054FA179A1B98302100F0FE
:102AB000D5FA644801786448644A12920029139058
:102AC00001D1129813901798139A614904F040FAB3
:102AD0001B99179A642000F0C1FA9DE0F8042020A9
:102AE000FC042020EA05202034980000C4042020A3
:102AF0004B980000CC052020D0052020189800001D
:102B0000D4052020D8052020269800004000202051
:102B10003E98000088002020F1970000F397000005
:102B20006A980000129800001C0020203C4A0021F6
:102B30000A91084600F092FA3A480B900068FDF7B7
:102B400070FD0C900D9138480E90017837480F9029
:102B5000374A10920029119001D0109811900D9BC6
:102B60000C9A1198009033480690334904F0F0F91C
:102B7000069A0A98102100F071FA0B984068FDF748
:102B800050FD02460F9807920A460E99089209785E
:102B90000129099001D0109809900698089B079A7E
:102BA00009990091254904F0D3F9069A0A98202141
:102BB00000F054FA0B988068FDF733FD02460F9839
:102BC00003920A460E99049209780229059001D0D1
:102BD000109805900698049B039A0599009118494E
:102BE00004F0B6F9069A0A98302100F037FA154831
:102BF00001781548154A01920029029001D10198E7
:102C000002900698029A124904F0A2F90A99069ACB
:102C1000642000F023FAFFE700F036F946B080BDEB
:102C200001980000A8042020E4042020F59700006B
:102C3000EF970000EA0520208398000079980000B3
:102C40006F98000088002020F1970000F3970000A3
:102C50006A980000F7970000080020200A980000FA
:102C60003C00202038002020C00420205298000082
:102C7000180020205E98000080B582B001A90020D5
:102C80000870FFE701A8007807281EDCFFE7694607
:102C900000200870FFE7684600787F280FDCFFE718
:102CA00068460078C1009648411801A802780020C3
:102CB0008854FFE70098401C69460870EBE7FFE77F
:102CC0000198401C01A90870DCE700F0DDF802B0B3
:102CD00080BDC04686B0034605A8037004AB1970DA
:102CE00003A90A706A460021117000787F2805DC6C
:102CF000FFE704A80078402801DBFFE72DE004A9E6
:102D00000878C2080720821A02AB1A700A780240BB
:102D100001A90A700978411A0120884069460870A3
:102D200003A8007800280CD0FFE7009B05A80078D6
:102D3000C1007348411802A80278885C184388547F
:102D40000BE0009B05A80078C1006D48411802A85F
:102D50000278885C98438854FFE706B07047C04605
:102D600080B582B000F06EF8782001F08DF800F0A8
:102D700071F8AE200021019100F0ADF90199D52044
:102D800000F0A9F90199502000F0A5F90199A820B7
:102D900000F0A1F901993F2000F09DF90199D3209D
:102DA00000F099F90199084600F095F90199402041
:102DB00000F091F901998D2000F08DF9019914200E
:102DC00000F089F90199202000F085F9019902208D
:102DD00000F081F90199A12000F07DF90199C0204E
:102DE00000F079F90199DA2000F075F901991220C3
:102DF00000F071F90199812000F06DF90199EF203F
:102E000000F069F90199D92000F065F90199F120E4
:102E100000F061F90199DB2000F05DF901993020A3
:102E200000F059F90199A42000F055F90199A62064
:102E300000F051F90199AF2000F04DF9FFF71CFFA8
:102E400002B080BD80B5012081030E48FDF76AFF06
:102E500080BDC04680B5012081030A48FEF798F87E
:102E600080BDC04680B50120C1030648FDF75AFF6A
:102E700080BDC04680B50120C1030248FEF788F836
:102E800080BDC04600200A4080B584B003A9002060
:102E90000870FFE703A8007807282FDCFFE70398F6
:102EA000B030C0B20021019100F015F90199084637
:102EB00000F011F90199102000F00DF9019802A914
:102EC0000870FFE702A800787F2811DCFFE702A85E
:102ED0000078C1000A48401803A90978405C012124
:102EE00000F0F9F8FFE70298401C02A90870E9E732
:102EF000FFE70398401C03A90870CBE704B080BD2E
:102F0000A000202080B5012001070E48FDF70AFF30
:102F100080BDC04680B5012001070A48FEF738F899
:102F200080BDC04680B50120C1070648FDF7FAFE06
:102F300080BDC04680B50120C1070248FEF728F8D1
:102F400080BDC04600000A40B0B58AB004460E9865
:102F500009AD2C7008AC217007A90A7006AA13707D
:102F600005AA1070089801AA1070079820380870F8
:102F700003A900200870FFE703A8007806A90978D4
:102F8000884264DAFFE706A800780C280CD1FFE736
:102F900007A800780C2141432F48401803A909785D
:102FA000405C04A908700AE007A8007801012948DC
:102FB000401803A90978405C04A90870FFE702A93A
:102FC00000200870FFE702A80078072839DCFFE737
:102FD00004A800780006002809D5FFE709A80078B2
:102FE00008A9097805AA1278FFF774FE0AE009A873
:102FF000007808A9097805AA127853425A41FFF7C8
:1030000069FEFFE70498400004A908700898411C75
:1030100008A80170007801A90978401A06A9097862
:10302000884208D1FFE7019808A908700998401C58
:1030300009A9087005E0FFE70298401C02A9087082
:10304000C1E7FFE70398401C03A9087094E70AB0A2
:10305000B0BDC046E4910000708D000080B586B020
:1030600005AB187004A801700392FFE7039800787D
:1030700000282ED0FFE705A800787B2808DBFFE7B3
:1030800005A9002008700498103004A90870FFE713
:1030900004A800783B2808DBFFE705A9002008709A
:1030A00004A90870FFF7E8FDFFE705A80290007883
:1030B00004A90978039A1278012300930C23FFF7DF
:1030C00043FF02990598083008700398401C03904C
:1030D000CCE706B080BD80B584B003AA107002A80A
:1030E00001700078002803D0FFE7FFF7C3FE02E07D
:1030F000FFF7B8FEFFE701A900200870FFE701A86D
:10310000007807281ADCFFE7FFF7FCFE03A8007829
:103110000006002803D5FFE7FFF70CFF02E0FFF7EA
:1031200001FFFFE7FFF7F6FE0398400003A90870D0
:10313000FFE70198401C01A90870E0E7FFF79AFE3D
:1031400004B080BDB0B5A8B026A8019081482190F8
:1031500000908148814922AA27AB01F0B7F8219855
:103160000088C005002800D4F2E02298FDF72EFA6E
:103170009D21C9050391FDF798F8794914910860DC
:103180002398FDF723FA0399FDF78FF875491191FC
:1031900008602498FDF71AFA0399FDF786F872493A
:1031A000129108602598FDF711FA0399FDF77DF853
:1031B000014611986D4A1392116000680321890736
:1031C0000991FDF735F8139902461498059209689C
:1031D000049101680846FCF7D2FF12990968FDF7CF
:1031E00027F80499024605980692FDF721F80699FA
:1031F000FCF7C5FFFDF715FA04F0D4FB5C4A1F92FB
:103200005C4B2093FDF742F9FDF71FFA0146129837
:10321000594A116001680A910846FCF7B0FF1399FA
:10322000024614980B920968079101680846FCF75A
:10323000A6FF119909680C91FCF7FAFF079902465D
:103240000B980892FCF7F4FF0899FCF798FFFDF73C
:10325000E8F902460C980F920A4609991092FCF779
:10326000E7FF0A9902460B980D92FCF7E1FF0C99D3
:1032700002460D980E92FCF7DBFF0E99FCF7D0FF8B
:103280007F21C905FCF77BFFFDF7CBF902460F98BC
:103290000B46109904F0CEFD1F9A209BFDF7F6F81F
:1032A000FDF7D3F9119B129A139904461498334DE4
:1032B0002C601B68169312681992006817900968B1
:1032C0001B91FCF7B5FF1999024616981592FCF769
:1032D000AFFF1599FCF753FF01460846FCF74FFF77
:1032E000FDF79FF91D90084616991E900846FCF7B9
:1032F0009FFF179918900846FCF79AFF1899FCF75A
:103300003EFF19991A900846FCF792FF01461A9859
:10331000FCF786FF1B991C900846FCF789FF0146C5
:103320001C98FCF77DFFFDF77CF902461D980B46C3
:103330001E9904F07FFD1F9A209BFDF7A7F8104A05
:10334000104BFCF7F1FFFDF780F90F490860FFE72C
:1033500028B0B0BDE8052020C4052020C8042020E6
:1033600050002020DC052020E0052020E40520205E
:103370006666666666A64C40A4042020A004202051
:10338000CDCCCCCCCC4C3540C404202080B58EB004
:103390000E2008210291FDF7B9FD54480C9004213C
:1033A000FDF7FAFC02990F20FDF7B0FD02990C9889
:1033B000FDF7F2FC0023059301930093032108918C
:1033C00018461A46FDF76CFD059B0899019300937A
:1033D000012004901A46FDF763FD0598FDF7B6FC41
:1033E0000498FDF7B3FC142002210391FDF78EFD34
:1033F00003991520FDF748FD03991620FDF786FD7A
:1034000003991720FDF740FD2720FDF7F1FC192057
:10341000FDF726FD1E20FDF723FD1F20FDF720FDF3
:103420000398FDF71DFD05200790FDF719FD2A20E3
:10343000FDF7DEFC2020FDF7DBFC2120FDF7D8FCAA
:103440003B20FDF7D5FC0498059B0093420418200F
:103450001946FDF7D7FC2520FDF702FD2620FDF7D4
:10346000FFFC2320FDF7FCFC2220FDF7F9FC3620B1
:10347000FDF7BEFC3A20FDF7BBFC2F20FDF7B8FCA2
:103480003320FDF7B5FCCA48099019490691FDF7AC
:1034900035FC06990998FDF77FFC0799099889047E
:1034A000FDF78CFD0899099849060A91FDF70EFC75
:1034B00009980A99FDF762FC0C98612149020B9169
:1034C000FDF71CFC0B990C98FDF766FC0C9809495C
:1034D000FDF774FD0C98112109050D91FDF7F6FB20
:1034E0000C980D99FDF74AFC0EB080BD00200A40F3
:1034F000006003900001010080B582B01249AE481F
:103500000190FDF771FE019803214902FDF758FE75
:103510000198FDF76BFD0198FDF74AFE019809211E
:10352000FDF7A0FE019800210091FDF789FE0099AA
:103530000198FDF773FE0198FDF76EFD0198FDF708
:1035400061FD02B080BDC046FE8C000080B584B035
:103550001B49DE480390FEF729FA03981949FDF745
:10356000CBFF0398002201921146FEF709FA019B56
:103570000398009319461A46FEF7E2F9019A039858
:103580001146FEF773F90199039801220292FEF7A2
:10359000F7F9019B02990398009119461A46FEF724
:1035A000CFF90199029A0398FEF760F90398FEF7A4
:1035B00019F803980321FEF74FF904B080BDC04607
:1035C000008D0000048D000080B582B000200190C5
:1035D000FDF730FF012000904002FDF737FF019812
:1035E000FDF742FFFDF7FEFEFDF702FF0848FDF77D
:1035F00099FE1020FDF746FFFDF704FF0198FDF747
:103600004DFF0098019900F071FA02B080BDC046EC
:103610000C8D000080B501200006FDF759FFFDF775
:1036200051FF80BD80B582B00849D0480190FEF7B7
:10363000BDF901980649FEF789F801980121FDF7C7
:10364000DBFF0198FDF7CEFF02B080BD348D000096
:10365000388D000080B582B0124958480190FEF7BD
:103660008BFA01981049FEF725FA01980021FEF720
:1036700095FA019815212D22FEF758FA0198FEF7C8
:10368000E7F901987021FEF799FA01980221FEF7F7
:10369000A7FA0198FEF7F6F90198FEF7CEF902B005
:1036A00080BDC0464C8D00004E8D000080B582B0BC
:1036B000144943480190FEF75FFA01981249FEF75A
:1036C000F9F901980021FEF769FA019815212D22D8
:1036D000FEF72CFA019801218902FEF7C5F901983D
:1036E000FEF7B6F901987021FEF768FA01980221F9
:1036F000FEF776FA0198FEF7C5F90198FEF79DF9F5
:1037000002B080BD588D00005A8D000080B500F0D9
:1037100017F8FFF73BFEFFF757FFFFF717FFFFF71D
:1037200081FFFFF7E9FEFFF795FFFFF7BFFFFFF708
:1037300071FF0249B8220020885480BD0005202076
:1037400080B588B060480190FDF710FC19480290E0
:10375000FDF70CFC5D480390FEF776F88348049073
:10376000FEF772F814480590FDF70EFD1348069019
:10377000FEF7D0F912480790FEF7CCF90198FDF753
:1037800021FB0298FDF71EFB0398FDF743FF049809
:10379000FDF740FF0598FDF74BFC0698FEF77EF914
:1037A0000798FEF77BF91020FDF722FA08B080BDDC
:1037B00000000A4000200A4000000F400080104036
:1037C0000000104080B58EB00D900C910C9801282F
:1037D0001DDBFFE701200A9001043B480B90FDF739
:1037E000CDFB0A990B984904FDF792FA0C98012831
:1037F00003DBFFE70C98099003E00C984042099026
:10380000FFE7099931480022FEF7BAF81CE00120D1
:10381000079041042C480890FDF7B0FB07990898E1
:103820000904FDF775FA0C98012803DBFFE70C98F3
:10383000069003E00C9840420690FFE70699234863
:103840000022FEF79DF8FFE70D9801281DDBFFE73A
:103850000120049081031C480590FDF78FFB04991B
:1038600005984903FDF754FA0D98012803DBFFE79B
:103870000D98039003E00D9840420390FFE70399F1
:1038800012480122FEF77CF81CE001200190410360
:103890000D480290FDF772FB019902988903FDF72C
:1038A00037FA0D98012803DBFFE70D98009003E03D
:1038B0000D9840420090FFE7009904480122FEF76E
:1038C0005FF8FFE70EB080BD00000A400020864090
:1038D00080B582B00190FFE701986049FCF73EFE99
:1038E000002806D1FFE701985F49FCF748FC0190EA
:1038F000F2E7FFE701985A49FCF74CFE002806D191
:10390000FFE701985749FCF73AFC0190F2E701986C
:103910005E49486102B080BD014800687047C046FA
:1039200018E000E080B51148FDF780FE00281CD0AB
:10393000FFE7FEF7F1FB0E49086840420D4A1060B0
:103940000D4A10680D4B18600020106008600C488C
:103950000068002803D1FFE7FDF720F904E000210B
:103960000846FFF72FFFFFE7FFE780BD0040084054
:1039700090002020F804202094002020FC04202027
:103980001400202080B588B007904048406907990E
:10399000FCF746FC069006983049FCF7DFFD00284E
:1039A00006D1FFE706983049FCF7E9FB06900DE0E9
:1039B00006982B49FCF7EEFD002806D1FFE7069894
:1039C0002849FCF7DCFB0690FFE7FFE72F48029051
:1039D00000680699FCF72CFC0146029805910699AF
:1039E000C068FCF7CCFB01460298C160C0681F4963
:1039F000FCF7B4FD002804D1FFE724491B48C86048
:103A00000CE02248C0681A49FCF7C4FD002804D124
:103A1000FFE71E491648C860FFE7FFE71B49019111
:103A20004868C968FCF704FC019904908868009014
:103A300006980969FCF7F4FB01460098FCF7F8FBCF
:103A4000019903900698086105980499FCF797FB83
:103A50000399FCF794FB08B080BDC04600003443D6
:103A6000000034C30000B4430000B4C30000C842E7
:103A70000000C8C205497F20C005086000204860DA
:103A8000034A8A60C860086148617047A804202022
:103A9000CDCC4C3E81B001466846017000214056B5
:103AA000002809D4FFE7684601781F200140012063
:103AB000884002490860FFE701B0704780E200E0FB
:103AC00081B001466846017000214056002809D4A3
:103AD000FFE7684601781F20014001208840024925
:103AE0000860FFE701B0704700E100E070B582B008
:103AF000024601A80270009100214056002816D409
:103B0000FFE7002401A908570322D3431840174AAE
:103B1000805809578C07E50EFF24AC40A043009C59
:103B2000A401E4B2AC402043194088501AE001A936
:103B300008780F24204008380322D34318400A4A4B
:103B40008058002549578D07EE0EFF25B540A84344
:103B5000009DAD01EDB2B540284321400839194020
:103B60008850FFE702B070BD1CED00E000E400E00B
:103B700080B58AB00990089100200090069003A8B3
:103B800001F0D2F800980790FFE70798022856DC6A
:103B9000FFE7099807998A00805808998958401AC0
:103BA000C1174840401AFCF711FD8F21C905FCF7E9
:103BB0007CFB02900798810003A840580021FCF785
:103BC000F7FC00281ED1FFE7029807998A0003A995
:103BD0008958FCF76AFB1C49FCF7D1FA019001985F
:103BE0000121C90788431749496AFCF7B7FC002837
:103BF00007D1FFE707980121814006980843069006
:103C0000FFE717E002980F49C969FCF7B5FC0028E7
:103C100008D1FFE702980B49096AFCF79FFC0028CE
:103C200007D1FFE7079801218140069808430690D5
:103C3000FFE7FFE7FFE70798401C0790A5E7069816
:103C40000AB080BD549A0000000080BF80B584B0E7
:103C500002A90870012081042A48FDF765F9411E78
:103C6000884101A90870284800780090002808D0F1
:103C7000FFE70098012811D0FFE7009802281AD02A
:103C800037E001A80078002807D0FFE71E4901208F
:103C900008701E4900200880FFE72AE001A800788C
:103CA000002807D1FFE718490220087017490020B3
:103CB0000880FFE71DE001A80078002807D0FFE793
:103CC00011490020087003A90220087015E00F496F
:103CD0000888401C088080B202A90978884207DD64
:103CE000FFE709490020087003A90120087004E0DB
:103CF000FFE703A900200870FFE703A8007804B0DD
:103D000080BDC04600000A40DC042020DE042020E4
:103D100080B584B002A90880012001023048FDF777
:103D200003F94142484101A908702E4800780090EB
:103D3000002808D0FFE70098012813D0FFE700987B
:103D400002281CD044E001A80078002809D0FFE731
:103D5000244901200870244A002111802349087059
:103D6000FFE735E001A80078002807D1FFE71D49EB
:103D7000022008701C4900200880FFE728E001A805
:103D80000078002809D0FFE716490020087017497D
:103D9000087003A9022008701EE013480188491C1E
:103DA0000180008802A90988884210DDFFE70D49DB
:103DB000002008700D480078002807D0FFE70B4965
:103DC0000020087003A90120087005E0FFE7FFE765
:103DD00003A900200870FFE703A8007804B080BDA5
:103DE00000200A40E1042020E2042020E0042020FA
:103DF00080B586B005900598C078C021084003A919
:103E000008700598C0783F21084004A908700598FB
:103E10004078C007002819D0FFE704A80178C90836
:103E200002AA1170007807210840401C01A90870FF
:103E3000F4480068002808D0FFE7F248026802A8AA
:103E4000007801A909789047FFE7FFE705984078D7
:103E5000000700280DD5FFE7EA484068002807D092
:103E6000FFE7E848416803A8007880098847FFE732
:103E7000FFE7002006B080BD80B582B001900198B8
:103E800000F002F802B080BD80B582B00190002041
:103E90000090FFE700980749884208DCFFE7019897
:103EA00000F00AF8FFE70098401C0090F2E702B02B
:103EB00080BDC046E703000080B586B00590059838
:103EC0001E49884203D3FFE71D480590FFE7059987
:103ED000502048430590002000900490FFF71CFDFF
:103EE000014600980391029001A90870FFE7FFF7CF
:103EF00013FD029002980399884204D9FFE701A9B3
:103F000001200870FFE701A80078002807D0FFE72C
:103F100003980299401A0B494018049004E0039852
:103F20000299401A0490FFE704980599884201D34A
:103F3000FFE700E0DBE706B080BDC0463433030096
:103F400033330300FFFFFF0080B582B0014601A8B4
:103F50000170007800280AD0FFE769462020087029
:103F600028204870302088703820C87002E0064849
:103F70000090FFE7054804216A4602F04FFD01F07A
:103F8000BFFF02B080BDC046A3A3A3A39E0A00004A
:103F900080B58AB009A90591088006AA049202207A
:103FA0001070CA205070E32090700920D0706820F3
:103FB000042102F033FD049A0598A32111700088B2
:103FC0004006002808D5FFE706A9C0204870C82091
:103FD0008870C220C87005E006A9A32048708870C8
:103FE000C870FFE709A80088C005800F002808D026
:103FF000FFE706A9C4200871CC204871C62088714B
:1040000005E006A9A320087148718871FFE706AA98
:10401000A320D0711072507275480A2102F0FEFC84
:1040200009A800888007002804D0FFE706A92020FF
:10403000087003E006A9D8200870FFE76D48012149
:1040400006AA02F0EBFC09A800888006002804D527
:10405000FFE7012000F0D8F803E0002000F0D4F8DA
:10406000FFE709A80088C005800F002820D0FFE7DF
:1040700009A80088C00500280AD5FFE706A9B220D4
:1040800008708B204870B62088709B20C87009E0AB
:1040900006A9B020087080204870B4208870902055
:1040A000C870FFE75448042106AA02F0B7FCFFE7F6
:1040B00009A80088C007002826D0FFE706AAF82034
:1040C00010708B2000010121039102F0A7FC072052
:1040D0000290FA2100F0C6FC029800F06DFC0398F3
:1040E00000F09DFC642000F0D9FD7D20800000F0F0
:1040F000EDFD4248C82100F00BFC282000F02AFC0E
:104100000A2000F040FC08E006AAD82010708B209E
:104110000001012102F082FCFFE709A80088800766
:10412000002804D5FFE706A9D920087003E006A9F6
:10413000D8200870FFE73248012106AA02F06EFC81
:1041400009A800884007002804D5FFE7012000F0F7
:104150008BF803E0002000F087F8FFE709A800884B
:10416000C006002804D5FFE70120FFF7EDFE03E0BD
:104170000020FFF7E9FEFFE7099808210843CE4930
:104180000191488101F0BCFE01990020887309A8C3
:1041900000884006002805D5FFE7C749887B801DB9
:1041A0008873FFE709A80088C005800F002805D0A4
:1041B000FFE7C149887B801D8873FFE709A8008855
:1041C0001421084205D0FFE7FE49887B1030887330
:1041D000FFE709A800888007002805D0FFE7F94914
:1041E000887B001D8873FFE700200AB080BDC046B1
:1041F000A70A0000B60A0000A20A000009E3CA02EA
:104200003D070000E804202080B588B0014606A8DC
:104210000170007800280ED0FFE703AA5D2010721D
:104220000F4804900F4803909720C000092102F026
:10423000F5FB07900DE06A46C72010720648019012
:10424000064800909720C000092102F0E7FB079084
:10425000FFE7079808B080BDB088C3C5B8AAAAAA6E
:10426000B4980D35B8AAB38D80B582B0014601A8C7
:104270000170007800280AD0FFE76946C020087066
:10428000C2204870C4208870C620C87002E006486A
:104290000090FFE7054804216A4602F0BFFB01F0E9
:1042A0002FFE02B080BDC0468B8B8B8B980A00001E
:1042B00080B50449012082020348C82301F02EFC86
:1042C00080BDC04608810000F60B000010B594B018
:1042D000179C169C1290119110920F9306A9002022
:1042E000087016990880DD48807B179A07A901F0AD
:1042F0002FFD002804D0FFE70020C0431390D7E033
:10430000D6484089142108426CD0FFE70798000680
:1043100007A900914A78120480188A78120280183E
:10432000CA788018109A1060089800064A7912041A
:1043300080188A7912028018CA798018109A506001
:10434000099800064A7A120480188A7A12028018A4
:10435000CA7A8018109A90600A9800064A7B120464
:1043600080188A7B12028018C97B40181099C86097
:104370000698103006A9087010980221405E02903D
:1043800010980621405E039010980A21405E049028
:1043900010980E21405E05900298404303994943CE
:1043A0004018049949434018059949434018019021
:1043B00001980F210906884205DBFFE701983F4974
:1043C000884208DBFFE701F09BFD1699002008807A
:1043D000C04313906CE01699088801221202104322
:1043E0000880FFE7EA4840894006002823D5FFE718
:1043F00006A9087807AA1318105C00025B78C01899
:10440000119B18800878831898780002DB78C01810
:10441000119B588008788218107900025279801810
:10442000119A90800698801D0870169908880822B5
:1044300010430880FFE7D6484089C005800F002858
:1044400023D0FFE706A9087807AA1318105C00021A
:104450005B78C018129B188008788318987800023F
:10446000DB78C018129B58800878821810790002F7
:1044700052798018129A90800698801D08701699BB
:104480000888702210430880FFE7C14840898007F0
:10449000002807D0FFE706A8017807A84018FFF713
:1044A000A7FCFFE70F9802F057FC00201390FFE7EE
:1044B000139814B010BDC046E8042020010000117C
:1044C00080B58CB00B9001A8009001F01BF900980A
:1044D0000088C0030021039102900B99AC48028927
:1044E0009207120F8958089100894007002804D5C7
:1044F000FFE7089840420890FFE70B99A44802891B
:1045000052080C231A408958099100898006002816
:1045100004D5FFE7099840420990FFE70B99FB4853
:10452000028912090C231A4089580A910089C00592
:10453000002804D5FFE70A9840420A90FFE7089850
:10454000C117029A039BFBF7F5FD8900800F401805
:1045500008900998C117029A039BFBF7EBFD8900AD
:10456000800F401809900A98C117029A039BFBF725
:10457000E1FD8900800F40180A9008A8C17805AABB
:104580001170418851700899090A91700899D17089
:10459000C1791171C18851710999090A91710999FB
:1045A000D171C17A1172408950720A98000A9072D2
:1045B0000A98D072A52080000C2102F02FFA0CB0CE
:1045C00080BDC046E804202080B588B0014606A81A
:1045D00001801D4905911D4904911D4903910088E1
:1045E000C92804DBFFE70020C043079029E006A8A4
:1045F0000188C820FCF745F8411E02A801804078D8
:104600006A461070029850701248022102F006FAB1
:10461000002804D0FFE70020C043079011E00E48B7
:104620000C2103AA02F0FAF9002804D0FFE70020C9
:10463000C043079005E00698B449888100200790A0
:10464000FFE7079808B080BDBBAFDFDFAAF1DFDF6F
:10465000FEF2ABC416020000C10A0000E8042020EC
:1046600080B588B006900699A84802899207120F73
:104670008958039100894007002804D5FFE7039873
:1046800040420390FFE70699A048028952080C2394
:104690001A408958049100898006002804D5FFE754
:1046A000049840420490FFE706999848028912094D
:1046B0000C231A40895805910089C005002804D5AB
:1046C000FFE7059840420590FFE70398C117314A7C
:1046D000009200230193FBF72DFD009A019B8900B6
:1046E000800F401803900498C117FBF723FD009A30
:1046F000019B8900800F401804900598C117FBF7B3
:1047000019FD8900800F4018059003A8C17802AAFE
:104710001170408850700398000A90700398D07010
:104720003D200001042102F079F9002804D0FFE7C0
:104730000020C043079028E003A8C17902AA1170A5
:10474000C08850700498000A90700498D070F520CA
:104750008000042102F062F9002804D0FFE7002065
:10476000C043079011E003A8C17A02AA11704089E2
:1047700050700598000A90700598D0707B20C0009A
:10478000042102F04BF90790FFE7079808B080BDBD
:10479000E804202009E3CA02B0B588B006AB18804F
:1047A00003AC6C20A0705248208002A82C2181709C
:1047B0005049018001AA762191704F4911806A46C3
:1047C000662191704D4911801A8803210A40A55C29
:1047D00005AA1570069DED06AD0F655D5570069D29
:1047E0002D06AD0F645D94701B880B40C45C04AB58
:1047F0001C70069CE406A40F045D5C70069C2406F5
:10480000A40F005D98703E4802F008F9002804D01B
:10481000FFE70020C043079066E03A48032104AA5E
:1048200002F0FCF8002804D0FFE70020C043079006
:104830005AE0019805A9088001A880788870684628
:10484000807804A988700098088006A8008840072E
:1048500000280AD5FFE705980121084305AA107032
:104860000498084304A90870FFE706A8008880069A
:1048700000280AD5FFE705A94878012210434870AF
:1048800004A9487810434870FFE706A80088C005CF
:1048900000280AD5FFE705A988780122104388700F
:1048A00004A9887810438870FFE711208001032154
:1048B00005AA02F0B3F8002804D0FFE70020C043A7
:1048C000079011E01048032104AA02F0A7F800287D
:1048D00004D0FFE70020C043079005E006980B498D
:1048E000088100200790FFE7079808B0B0BDC046D8
:1048F0004CCD00000CC900003656000026460000D2
:10490000260400002A04000031040000E8042020EE
:1049100080B586B0059004A80190018005987D219E
:10492000C900FBF7CDFE014601980088484302907C
:1049300002A8C17803AA1170408850700298000A3A
:1049400090700298D07057208000042102F066F821
:1049500006B080BD80B584B0014603A801900180F7
:1049600000880521FBF78DFE014601980180407803
:1049700002AA107003985070AD204000022102F08E
:104980004DF804B080BD80B584B0014603A8019005
:10499000018000880521FBF774FE01460198018023
:1049A000407802AA1070039850702B20C00002219A
:1049B00002F034F804B080BD80B582B0014601A891
:1049C00001706A46002111700078C007002806D0E7
:1049D000FFE700983021084369460870FFE701A807
:1049E00000788007002806D5FFE700980C210843CF
:1049F00069460870FFE701A800784007002806D53F
:104A0000FFE700980321084369460870FFE7292063
:104A1000C00001216A4602F001F802B080BD80B5F5
:104A200082B0014601A801700078002804DCFFE78D
:104A300001A90120087009E001A80078052804DB1D
:104A4000FFE701A904200870FFE7FFE70198401E77
:104A50006A461070FF205030012101F0DFFF02B0E4
:104A600080BD000080B58AB0024608A8027007AA7F
:104A7000118000784007002806D0FFE707A80088CB
:104A80008049884204DBFFE70020C0430990F5E03D
:104A900007A80088FBF7A5FD7B49FBF706FC0490FF
:104AA00005A8009000F0F6FD00980078801E0190A7
:104AB0000E286BD80198810001A040588746C04657
:104AC000FD4A00008D4B0000214B00008D4B000083
:104AD0008D4B00008D4B0000454B00008D4B0000BE
:104AE0008D4B00008D4B00008D4B00008D4B000066
:104AF0008D4B00008D4B0000694B000004988D2108
:104B0000C905FBF795FBFBF773FD03A90880049823
:104B10006149FBF78DFBFBF76BFD02A9088039E0CB
:104B2000049823214906FBF783FBFBF761FD03A9EA
:104B3000088004985749FBF77BFBFBF759FD02A956
:104B4000088027E004988B21C905FBF771FBFBF770
:104B50004FFD03A9088004984D49FBF769FBFBF75B
:104B600047FD02A9088015E0049845210906FBF7D6
:104B70005FFBFBF73DFD03A9088004984349FBF761
:104B800057FBFBF735FD02A9088003E00020C04376
:104B9000099073E003A8407806A90870039848704C
:104BA00002A8407888700298C87008A80078C007EA
:104BB00000281CD0FFE775208000022106AA01F022
:104BC0002DFF002804D0FFE70020C043099055E0E6
:104BD00006A8821C49208000022101F01FFF002846
:104BE00004D0FFE70020C043099047E0FFE708A892
:104BF0000078800700281CD5FFE73B20C000022179
:104C000006AA01F00BFF002804D0FFE70020C043F4
:104C1000099033E006A8821C2520C000022101F083
:104C2000FDFE002804D0FFE70020C043099025E0E6
:104C3000FFE708A80078400700281CD5FFE7772089
:104C40008000022106AA01F0E9FE002804D0FFE757
:104C50000020C043099011E006A8821C4B20800070
:104C6000022101F0DBFE002804D0FFE70020C04352
:104C7000099003E0FFE700200990FFE709980AB0D8
:104C800080BDC04641060000000048430000C0440B
:104C9000000040450000C0450000404680B584B09B
:104CA000014603A8018000880521FBF7EAFC0146C4
:104CB00002A80180407801AA107002985070EF207D
:104CC0004000022101F0AAFE04B080BD80B584B08E
:104CD000014603A8018000880521FBF7D2FC0146AC
:104CE00002A80180407801AA107002985070ED204F
:104CF0004000022101F092FE04B080BD80B582B078
:104D000001900091FFE70748FCF7F8FE002801D06A
:104D1000FFE7F8E701A801780248FCF775FF019862
:104D200002B080BD00801040B0B588B00690364813
:104D3000406800780D21042205AB02F011F800282C
:104D400003D0FFE7072007905BE005AA1078E02377
:104D50001840C008D178302421400909401804A91E
:104D6000087050781840C008D4780C252C40A4084E
:104D70000019487090781840C008D27803231A4070
:104D80008018887003A900200870FFE703A8007846
:104D9000022833DCFFE703A8017804A8405C002860
:104DA00007D1FFE7069903A8007882000020885009
:104DB0001FE0069903A80078820014488850FFE796
:104DC00003A8027804A9885C401E885400060028C5
:104DD0000ED0FFE70698029003A909788900019197
:104DE00040580B49FBF724FA019A02998850E7E7EB
:104DF000FFE70398401C03A90870C7E7002007904D
:104E0000FFE7079808B0B0BD5C0020207B14AE3EE1
:104E10001D5A843F70B598B01690159114A8027071
:104E200011AB0120187000205870D94948680078EB
:104E30000968897C022201F0AFFF002804D0FFE757
:104E40000020C04317902FE2C82001F079FF11AB7A
:104E500000201870CE49486800780968C97B012293
:104E600001F09AFF002804D0FFE70020C04317900C
:104E70001AE2C7494868007809684979012211ABEC
:104E800001F08AFF002804D0FFE70020C0431790FC
:104E90000AE2BF49486800780968897C012211ABA1
:104EA00001F07AFF002804D0FFE70020C0431790EC
:104EB000FAE1B749486800780968C97D012211AB59
:104EC00001F06AFF002804D0FFE70020C0431790DC
:104ED000EAE1F7494868007809680979012211ABCD
:104EE00001F05AFF002804D0FFE70020C0431790CC
:104EF000DAE111AB0C201870ED49486800780968B8
:104F00000979012201F048FF002804D0FFE70020C2
:104F1000C0431790C8E10F2001F012FFE449886AEE
:104F2000407A11AB187048680078096889780122C6
:104F300001F032FF002804D0FFE70020C0431790A3
:104F4000B2E1DB49886A007A11AB187048680078D2
:104F500009684978012201F01FFF002804D0FFE70B
:104F60000020C04317909FE114A80078002808D0C3
:104F7000FFE7CF48806A807AE021084311A90870D2
:104F800005E0CB48806A807A11A90870FFE7C8491C
:104F90004868007809688979012211AB01F0FCFEAC
:104FA000002804D0FFE70020C04317907CE114A83C
:104FB0000078002808D0FFE7BD48806AC07AE02169
:104FC000084311A9087003E011A918200870FFE731
:104FD000B749486800780968C979012211AB01F026
:104FE000DBFE002804D0FFE70020C04317905BE100
:104FF00014A80078002804D0FFE7C82001F0A0FE24
:10500000FFE711AB40201870F24948680078096842
:105010000979012201F0C0FE002804D0FFE700203A
:10502000C043179040E111AB78201870E9494868F7
:10503000007809684979012201F0AEFE002804D009
:10504000FFE70020C04317902EE1322001F078FEE8
:1050500011AB00201870DF49486800780968497969
:10506000012201F099FE002804D0FFE70020C04390
:10507000179019E1D749486800780968897A0222AF
:1050800011AB01F06DFE002804D0FFE70020C04303
:10509000179009E11198000211A9497841180EA84A
:1050A000018000880C21FBF7ECFA10A90870169912
:1050B00000208860169948601699086015998860E4
:1050C00015994860159908600FA90870FFE70FA8A7
:1050D000007810A9097888425CDAFFE7BD49486882
:1050E00000780968C97A0C2211AB01F039FE00285A
:1050F00004D0FFE70020C0431790D5E011980002CC
:1051000011AD0995697841180CA80180A9780902A8
:10511000EA7889184180129909026A798918818090
:105120000023C45E159A1168091911600222865E77
:10513000159C6168891961600421465E159CA06810
:105140008019A060A8790002EC7904190AA80480EB
:10515000139C24026E7AA4194480AC7A2402ED7A5E
:1051600064198480C55E169C23685B192360845E85
:10517000169B5A6812195A60425E16998868801800
:105180008860FFE70F98401C0FA908709FE7C04692
:105190005C002020169800900068C117020C0904DA
:1051A000891800048322029200230793FAF79CFFD8
:1051B000079B10AA06921278FAF796FF0099029AB6
:1051C000079B0860169801904068C117040C0904F9
:1051D00009190004FAF788FF069A079B1278FAF774
:1051E00083FF0199029A079B486016980390806894
:1051F000C117040C090409190004FAF775FF069A8F
:10520000079B1278FAF770FF0399069A079B88604C
:10521000159804900068C117040C090409190004CA
:105220006405C00A0019C9121278FAF75DFF0499E3
:10523000069A079B0860159805904068C117040CF2
:105240000904091900046405C00A0019C91212787A
:10525000FAF74AFF0599069A079B48601598089047
:105260008068C117040C0904091900046405C00A08
:105270000019C9121278FAF737FF08998860159853
:105280008068012806DBFFE715998868094A8018BD
:10529000886006E0159988680122120480188860E9
:1052A000FFE700201790FFE7179818B070BDC046C1
:1052B0005C0020200000FFFF80B58AB008900791B5
:1052C00000200590F248406800780D21032204ABCD
:1052D00001F046FD002803D0FFE70720099075E0A4
:1052E00004A908781F2210400870487810404870C0
:1052F00088781040887000200690FFE70698022802
:1053000061DCFFE7089806998A0080580799895858
:10531000401AC1174840401AFBF758F98F21C905B8
:10532000FAF7C3FF0290069904A8405C00282DD02C
:10533000FFE72A480390FFE7069A04A9885C401E0D
:1053400088540006002806D0FFE703982549FAF79D
:105350006FFF0390F0E702980399FAF7A6FF204940
:10536000FAF70DFF019001980121C90788431A49F6
:105370008969FBF7F3F8002807D1FFE706980121B8
:105380008140059808430590FFE717E0029812490D
:105390000969FBF7F1F8002808D1FFE702980E49E8
:1053A0004969FBF7DBF8002807D1FFE706980121E0
:1053B0008140059808430590FFE7FFE7FFE706985F
:1053C000401C06909AE705980990FFE709980AB0F3
:1053D00080BDC0465C002020549A00000000C841F7
:1053E000000080BF54E3853FB0B586B001931446FA
:1053F000019A0B46014605A8017004A90B7003AB86
:105400001C700292064A12681469007840000978FC
:10541000029A1B78C8250095A04706B0B0BDC046CB
:105420005800202080B584B00390039800F019F84C
:1054300002A9019108800398C01C00F012F801999C
:10544000C2000298104308800398801D00F009F8FC
:10545000014601988A01029911430180008804B035
:1054600080BD82B00190019800214056012804DBE4
:10547000FFE76946002008803AE001980021405685
:10548000002804D5FFE76946042008802FE0019832
:1054900001214056012804DBFFE76946012008800E
:1054A00024E0019801214056002804D5FFE7694611
:1054B0000520088019E0019802214056012804DBEC
:1054C000FFE76946022008800EE00198022140565D
:1054D000002804D5FFE769460620088003E06946F6
:1054E00007200880FFE7FFE7FFE7FFE7FFE7FFE7A9
:1054F0006846008802B0704780B586B000200590ED
:105500000490FEF703F91948FCF780FA0120019096
:10551000FEF7C0FA0198FEF7BDFA0198FEF7D0FA3F
:105520000198FEF7CDFA10200290FEF7B3FA029828
:10553000FEF7C6FA0D200390FEF7ACFA0398FEF7CB
:10554000BFFAFEF797FA0A48FEF7C2F9FDF708FC22
:10555000FDF798F8FCF764FB0648FEF78DFCFFE7C3
:10556000FDF7F0FDFDF702F9FAE7C046002086409E
:10557000000034C2983A000080B584B003A900202E
:10558000087001F0A9FAFFE712480190022100918A
:10559000FBF7D2FB01200290FEF776FC0099019800
:1055A000FBF700FD0298FEF76FFC01980299FBF7EC
:1055B000D1FC002801D0FFE708E0FFE70398401C7A
:1055C00003A90870C0B26428DEDBFFE701F0A4FA8B
:1055D00004B080BD00000A4080B584B002A9087004
:1055E000002000900878FE2210400870C548242151
:1055F000405C002803D0FFE70020039045E0C1484D
:10560000807A002804D1FFE70020C04303903CE0EB
:10561000BC48017C01AA11700299827A1140017480
:10562000007C02A90978884204D0FFE70020C0432B
:10563000009002E000200090FFE702A80078002818
:1056400005D1FFE7AF48007D002804D0FFE7012027
:1056500001F004FC03E0002001F000FCFFE702A8D9
:10566000007800280DD0FFE700F04AFC002807D0A2
:10567000FFE70198A34908740020C043039004E0A9
:10568000FFE7FFE700980390FFE7039804B080BDB1
:105690005C00202083B001909A48407A0090032853
:1056A0001CD80098810001A040588746BD560000D4
:1056B000C5560000CD560000D556000001990220C5
:1056C00008700FE00199042008700BE00199082090
:1056D000087007E001991020087003E00020C04323
:1056E00002900CE08748C07C002805D0FFE70199B4
:1056F000087840000870FFE700200290FFE702985A
:1057000003B0704783B001907E48407A0090032830
:105710001FD80098810001A0405887462D570000EF
:10572000375700003F5700004957000001990120FA
:105730008003088011E00199104808800DE001996C
:1057400001200003088008E001990120C0020880C0
:1057500003E00020C04302900CE0EB48C07C00282E
:1057600005D0FFE70199088840080880FFE700207E
:105770000290FFE7029803B07047C0469C1F0000EC
:1057800081B00090E048007C00990870002001B0D2
:105790007047C04682B00190DB48007A0090032831
:1057A0001FD80098810001A040588746BD570000CF
:1057B000C5570000CF570000D95700000199FA20C3
:1057C000088012E001997D20800008800DE0019999
:1057D0007D20C000088008E001997D20000108803C
:1057E00003E0019900200880FFE7002002B0704725
:1057F00083B00190C448007A009003281CD8009818
:10580000810001A040588746195800002158000027
:10581000295800003158000001990F4808600FE036
:1058200001990C4808600BE001990948086007E0FD
:1058300001990648086003E00020C043029002E09E
:1058400000200290FFE7029803B070473333834192
:1058500033330342000083420000034382B00190CF
:10586000F648C07A009007282DD80098810001A042
:1058700040588746C5580000955800009D580000C4
:10588000A5580000AD580000B5580000BD580000F4
:10589000C55800000199BC20088018E001996220D9
:1058A000088014E001992A20088010E00199142052
:1058B00008800CE001990A20088008E00199052081
:1058C000088004E0FFE7019900200880FFE700203E
:1058D00002B0704782B00090D8482421405C002874
:1058E00004D0FFE70020C043019007E0D348C089FF
:1058F00000990880FFE700200190FFE7019802B0BF
:105900007047C0465C00202080B588B005AB802081
:105910001870CA49486800780968897C012201F03A
:105920003BFA002804D0FFE70020C0430790E8E0DE
:10593000642001F005FA05AB00201870BF494868E3
:1059400000780968897C012201F026FA002804D039
:10595000FFE70020C0430790D3E0FC494868007887
:105960000968897D062205AB01F0FAF9002804D008
:10597000FFE70020C0430790C3E005A94879C007AE
:10598000400FCA78D207920F80184978012211403F
:10599000411804A80170007800281DD0FFE704A872
:1059A0000078012804D1FFE7E8490120C87412E01B
:1059B00004A80078022804D1FFE7E4490020C87455
:1059C00008E004A80178534801F0B2FA0020C0436F
:1059D000079096E0FFE732E0DC4948680078096804
:1059E000C978012205AB01F0BBF9002804D0FFE71C
:1059F0000020C043079084E005A801780F200140F3
:105A000004A801700078002807D1FFE73F4801F0A3
:105A10008FFA0020C043079073E004A800780428A0
:105A200007D1FFE73A4801F083FAC8490120C8745A
:105A300003E0C6490020C874FFE7FFE7FFE7C3495A
:105A40000291FF2088720A46083208724872C872B2
:105A5000314BCB8108748874012008739076002044
:105A60000390D076487508750884C8838883488376
:105A70000883C88210775077C8847D20000100F029
:105A8000A7FD002804D0FFE70020C043079038E0BE
:105A9000022000F0FFFB002804D0FFE70020C043F5
:105AA00007902EE02A2000F043FE002804D0FFE7F4
:105AB0000020C043079024E0322000F0A1FE00281F
:105AC00004D0FFE70020C04307901AE00020FFF752
:105AD00083FD002804D0FFE70020C043079010E0BA
