:020000040000FA
:1000000080152020D5000000D9000000DB00000092
:1000100000000000000000000000000000000000E0
:10002000000000000000000000000000DD000000F3
:100030000000000000000000DF000000E100000000
:10004000E30000005D170000E3000000E300000093
:10005000E3000000E3000000E3000000E300000014
:1000600000000000E3000000E300000000000000CA
:1000700000000000E3000000E3000000E3000000D7
:1000800085300000E3000000E3000000E300000012
:10009000E3000000E300000000000000000000009A
:1000A000E3000000E300000000000000000000008A
:1000B000E300000000000000E3000000E300000097
:1000C0000348854600F024FC004800471D38000026
:1000D0008015202003480047FEE7FEE7FEE7FEE725
:1000E000FEE7FEE7C1000000F8B502464A40D40F23
:1000F00042004B0052085B089A4202D20246084670
:1001000011464A0023D0C30D4A00DDB2120EAD1ACB
:10011000202D35DA49020126490AF6058A19002CF4
:1001200000D0524220214F1B1146B9402A411018DD
:10013000C20D9A4221D0002C17D0012D08DCDA051F
:10014000801AD20F8019D207DBB200F014FBF8BD81
:10015000DA05801A012340001B06C01880185A4295
:100160008018CA0F1043490007E04908C20711432D
:10017000DA05801A80194008801800F0F4FAF8BDFA
:1001800061000122511A001BF7E70122D2075140FA
:10019000AAE70122D2075040A6E7024670B54A40BE
:1001A000D30FDB0740002DD04A002AD0010E140ED9
:1001B000000212020919400A520A8418E501044695
:1001C0005443000A120A2E045043A4194219200C69
:1001D000C543AA18120C0125AD03521C5219120472
:1001E0007F39240400D0521C104301D44000491E22
:1001F000C2B20C06C0092018401C4008802A02D058
:1002000003E0002070BD40084000002900DA002013
:10021000184370BDF0B507460846584087B0C00F78
:10022000049048000E46590040084908BC1A88410D
:1002300005D2384631461E4617460B460246580040
:10024000400810434CD0300D039040055900400D3C
:10025000490D0590401A0290402872DA18030121D6
:10026000000B09050843019004980092002805D06E
:100270000199524200208841009201900298402149
:100280000A1A0199009800F04BFA05460C466B4695
:1002900007CB00F055FAC0197141039A0E0D0023E7
:1002A000D71756401A467A40164344D0049A002A7B
:1002B0002DD0029A012A039A15DC1205C01A914129
:1002C00001263605001C7141D20F059ED20700930E
:1002D000019202962A46234600F093FA07B0F0BD39
:1002E00038463146FAE71605224A0F46B218C01AB8
:1002F000B74101210905001C4F4100187F411146FB
:1003000018187941E20F10436D19644113E0E207B8
:100310006D0815436408C2071443039A01261205A9
:10032000C01A91413605001C7141CE074008304388
:100330004908C01851412A46234600F055FACDE736
:10034000FFE7049801224000C117121A00238B41D5
:1003500004983146C417381AA141EEE730B401249D
:10036000E407634030BC55E730B40124E407614042
:1003700030BC4FE70000E0FFF0B51FB488B00B9928
:100380000998002448400999C00F4900490809917B
:10039000C0070B990090490049080B9109990898EA
:1003A000A64608431CD00B990A98084318D0099810
:1003B00001244000420D4800410D09982405000326
:1003C000000B204309900B980003000B20430B9077
:1003D00050181C494018002201901446104605E0B0
:1003E000002001460DB0F0BD032801DA034600E00D
:1003F00003239C46C11A0AAE0AE05F0008ADED5B1C
:100400004F00F75B7D430027AA187C41491C5B1E07
:100410006145F2DD410004AB5A522104120C0A433B
:10042000240C401C0828DFDB0198029000997046DC
:1004300001910090059B049A0799069800F0E1F954
:10044000D0E700000DFCFFFFF0B50C465C4085B026
:10045000E40FE40703944C00002664085900944616
:10046000490802460296224321D062460A431ED022
:100470006200570D4A000E032303550D0124024666
:100480002C492405781B1B0B360B401823432643AD
:10049000614600901C46501AB44103D30098401C9A
:1004A000009002E0921800985B41002803DA0020D7
:1004B000014605B0F0BD002001210905074686462A
:1004C00011E064461D46141BB54106D36546521B18
:1004D000B341744607430C43A646CD07400849087C
:1004E000284392185B4105460D43EAD11046184354
:1004F00013D06046194650407140084306D060460C
:10050000101AB34106D20122002306E00022012383
:10051000DB0702E00122D243531000987446010524
:10052000381C6141029C039D0019694100F05CF98F
:10053000BFE70000FD0300000122D207002800DB16
:10054000101A002900DB511A814201D8012070479E
:10055000002070470122D207002800DB101A002972
:1005600000DB511A814201D30120704700207047FF
:1005700010B5002904DB0C460121C9074042A14106
:10058000002B04DB1C460123DB075242A341801AE7
:10059000994101D3012010BD002010BD10B50029E4
:1005A00004DB0C460121C9074042A141002B04DBBA
:1005B0001C460123DB075242A341101A8B4101D391
:1005C000012010BD002010BD0EB5C217C10F504054
:1005D000CA0740180021054B0293019200910A4678
:1005E0000B4600F00EF903B000BD0000330400001C
:1005F000C20F410040020123400ADB05D207090E69
:10060000C0187F2901DA00207047962903DC962361
:10061000591AC84001E096398840002AF4D0404277
:100620007047C20FD207400040080BD0C10D07230E
:10063000DB01C91840020905400A1143C2084007FE
:1006400011437047002001467047CB0FDB0749007C
:1006500010B5490802460A4307D00A0D07240903CA
:10066000E401090B121B002A01DC002010BDC900A7
:10067000440F0C43C100E018D205801800F073F855
:1006800010BD70B50446002903D0002020220123AC
:1006900010E0002801D00020C043C046C0460DE055
:1006A0002546D5408D4205D30D469540641B1D4619
:1006B000954040191546521E002DF1DC214670BDB3
:1006C000F0B51FB40646002082B0054640240191D3
:1006D00000901BE0019922460F46304600F030F9A9
:1006E000049A059B801A994110D310461946224658
:1006F00000F016F8361A8F4101972246012000219A
:10070000009F00F00DF838184D4100902046641EFF
:100710000028DFDC019B00982946324607B0F0BD77
:1007200010B5202A04DB0146203A9140002010BD7C
:10073000914020239C1A0346E3401943904010BD8A
:1007400010B5202A06DBCB170846203A1041C11706
:100750000B4306E00B461341D0402024A21A9140DF
:100760000843194610BD002904DA401C490001D194
:1007700040084000704770B40024050C05D11024D7
:10078000000402D1002921D01124050E01D100025C
:100790000834050F01D10001241D850F01D180000F
:1007A000A41C002801DB4000641C002908D020257F
:1007B0002E1B0D46F540A14000D0012129430843DE
:1007C00001061B1B000ADB1D02D5002070BC704710
:1007D000DB05181880180029F8DA401C4900F5D10B
:1007E00070BC40084000704710B5002B08DA0024A8
:1007F000401C614192185B411A4301D140084000FE
:1008000010BDF0B51FB482B005460C0003D00846F9
:1008100003F01AF902E003F017F9203002460090C5
:1008200021462846FFF77CFF049B059A04460F46A5
:1008300018431143084314D0184610431BD00098A6
:1008400040210A1A1846059900F07AF805460E4626
:10085000009A05990498FFF763FF084305D001202B
:1008600004E02046394607B0F0BD0020C11705431B
:100870000E432C43374300990E986305401A7905BF
:10088000E40A00220C43FD0A0A3002D5002001468A
:10089000E9E70105101969410C9C0D9D001969419A
:1008A000FFF7A2FFDFE700004A0009030123090B5D
:1008B0001B0519430A4B10B5520D9A4202DA00206B
:1008C000014610BD064B34339A4203DC9A1A00F0FD
:1008D00037F810BD034BD218FFF722FF10BD000000
:1008E000FF030000CDFBFFFF10B5002904DB01244E
:1008F000E40740428C412146002B04DB1C460123C7
:10090000DB075242A341994200D1904210BD000042
:100910001CB5094800900948019005460126009C35
:1009200005E0E36807CC33430C3C98471034AC42F5
:10093000F7D3FFF7C9FB0000CC4E0000EC4E0000DF
:1009400010B5202A04DB0846203AD040002110BD13
:100950000B46D340D0402024A21A914008431946A8
:1009600010BD000080B582B0114800680190019868
:1009700002F0B8FB0F49FFF710FCFFF739FE0090BB
:1009800000980D49884203DBFFE70E48009008E01D
:1009900000980A49884203DCFFE709480090FFE716
:1009A000FFE70098414202F0BDFA02B080BDC046A8
:1009B000680420200000C842C50900003BF6FFFF84
:1009C0003CF6FFFFC409000082B001900199881E27
:1009D000001F00BFFCD2009002B0704784B00390AB
:1009E0000291019203980068009000980199884351
:1009F000009000980299019A1140084303990860F9
:100A000004B0704784B0039002910192039800688B
:100A10000090009801998843009000980299019AEB
:100A2000114008430399086004B0704784B00390F4
:100A30000291019203980068009000980199884300
:100A4000009000980299019A1140084303990860A8
:100A500004B0704784B0039002910192039800683B
:100A60000090009801998843009000980299019A9B
:100A7000114008430399086004B0704782B00190A8
:100A80000091009B0199094A88581843885002B088
:100A90007047C04682B001900091009B0199034AC3
:100AA00088581843885002B07047C046481000006C
:100AB00082B00190009100980199952252018850CE
:100AC00002B0704782B00190009100980199952280
:100AD0005201885002B0704782B001900091009896
:100AE000019995225201885002B0704782B001905E
:100AF00000910098019995225201885002B07047E8
:100B000081B00090009881005A4A885801235B0602
:100B10001843885001B0704782B001900091009B4B
:100B20000199034A88581843885002B07047C0465C
:100B30002810000082B00190009100980199074AA6
:100B4000885002B07047C04682B001900091009872
:100B50000199024A885002B07047C046D012000086
:100B600081B0009000990120C2028948885001B0EC
:100B70007047C04682B001900091019802494058E8
:100B80000099084002B070473810000081B0009012
:100B900000988100374A1248885001B07047C0461B
:100BA00081B0009000988100324A0D48885001B011
:100BB0007047C04610B584B0069C03900291019224
:100BC0000093029801990843009908430699084345
:100BD0000349084303998900264A885004B010BD90
:100BE0008100040081B0009000988100214A81209A
:100BF000885001B07047C04681B0009000988100D5
:100C00001C4A8120885001B07047C04682B00190D4
:100C1000009100981049084301998900154A8850AD
:100C200002B0704710B584B0079C069C03900291F7
:100C3000019200930298019908430099084306998C
:100C40000843079908430449084303998900094A5E
:100C5000885004B010BDC0468000040082B00190EE
:100C6000009100988021084301998900014A885029
:100C700002B070470480424082B001900091019818
:100C80002721C90140580099084002B0704782B03E
:100C90000190009101982721C9014058009908400E
:100CA00002B0704782B00190009101982721C901DC
:100CB00040580099084002B07047000081B0009091
:100CC0000099384A3848885001B0704782B0019086
:100CD000009100980199114A885002B07047C046AF
:100CE00082B001900091009801990C4A885002B09E
:100CF0007047C04682B00190009100980199074A60
:100D0000885002B07047C04682B0019000910098B0
:100D10000199024A885002B07047C0469012000004
:100D200082B001900091009B01999D20420188585A
:100D30001843885002B0704781B000900099092094
:100D40004202885801231B021843885001B07047A3
:100D500081B000900099084A8858012318438850B0
:100D600001B0704781B000900099034A885804236D
:100D70001843885001B070472812000081B00090DD
:100D800000990120C202F748885001B07047C04660
:100D90000100002681B000900099024A0248885064
:100DA00001B0704704080000030000B181B000905A
:100DB0000099024A0020885001B0704714120000C8
:100DC00080B584B0019101460198039102A9088081
:100DD0000398092252028018098803225202FFF761
:100DE000FDFD04B080BD000080B582B0019000918F
:100DF000019809494018009909780C22FFF72AFE4A
:100E00000198012109034018009949780722FFF74A
:100E100021FE02B080BDC0460410000080B584B041
:100E2000019101460198039102A9088003980D4A97
:100E30008018098807221202FFF7D0FD04B080BD98
:100E400080B584B0019101460198039102A9087010
:100E50000398044A801809780722FFF7BFFD04B001
:100E600080BDC0463812000082B001906846017013
:100E700000780199014A885002B07047241200009E
:100E8000F0B584B001242202344B196803929143D7
:100E900019605A490D686D04FCD5457E25409E6950
:100EA000A64374199C612024045D03252C40DE694F
:100EB000AE433419DC611F4C256805262660466A5E
:100EC00037681F6276685E6207262E402660C46916
:100ED0007F252D02DE69AE436406640C3419DC61A3
:100EE0000768456882680092C66802690192426993
:100EF00002929A69104C14403A07120B2D03ADB2BE
:100F0000AA183243009D2D072D0D1543019A154354
:100F1000029A1543007E2843084A0240101998613E
:100F20001868039A1043186008688005FCD504B05F
:100F3000F0BDC046001340408D00F0FF72FF0F006F
:100F40000649086801229043086070470349086811
:100F500001221202904308607047C04608010B400E
:100F60002549086801221203104308607047C046F3
:100F700081B001466846017000780249086001B0FE
:100F80007047C04608030B4080B582B0014601A8F7
:100F9000018001880F2002021748FFF71FFD02B0F1
:100FA00080BDC04680B582B0014601A801700178BD
:100FB00002480322FFF712FD02B080BD00010B4082
:100FC00080B582B0014601A8017001780A4830223C
:100FD000FFF704FD02B080BD07498860074802683A
:100FE0009202FCD5012212040B6813430B600168C6
:100FF000C906FCD57047C04604010B4004020B40F3
:1010000009490868052210430860704781B00090C4
:101010000549042008600098401E044908600449FE
:101020000020086001B0704710E000E014E000E02C
:1010300018E000E080B58CB00B900A910A984079D6
:10104000C00700285CD0FFE70A98007907900028C5
:1010500004D0FFE7079820280CD018E00B988821CF
:101060000691022200F0B8F906990B98032200F0CD
:10107000B3F919E00B98212109010591022200F032
:10108000ABF905990B98032200F0A6F90CE00B9838
:101090000521C9010491022200F09EF904990B98E0
:1010A000032200F099F9FFE70B9800220292022335
:1010B0000193114600F0AAF9029A0B9803230393B7
:1010C000114600F0A3F90199029B0B980091194673
:1010D0001A4600F0D3F9029B03990B980091194628
:1010E0001A4600F0CBF9019B029A0B98114600F0CA
:1010F000ABF9029A039B0B98114600F0A5F9FFE7A4
:101100000A98006808900A98007908A908710A9856
:10111000807948710B9800F031F80CB080BD000068
:1011200081B000900099024A0120885001B07047B8
:101130000811000082B001900091009B0199034AC0
:1011400088581843885002B07047C04628100000E5
:1011500081B0009000990120C2020248885001B07D
:101160007047C0460100002681B0009000988121A0
:1011700049014058C0B201B07047000080B58AB044
:1011800009900891089800790790002804D0FFE79B
:101190000798202812D029E0099808990968491E63
:1011A00000F0C6F9099888210691002200F014F990
:1011B00006990998012200F00FF92AE00998089988
:1011C0000968491E00F0B4F909982D4904910022DC
:1011D00000F002F9049909980122059200F0FCF848
:1011E00005990998490700F095F912E009980899BE
:1011F0000968490800F09CF909980521C901039183
:10120000002200F0E9F803990998012200F0E4F8BF
:10121000FFE709980023019319461A4600F0F6F8F3
:10122000019A099801230293114600F0EFF8019BFF
:101230000998009319461A4600F020F9019B02997B
:101240000998009119461A4600F018F9019B09986F
:1012500019461A4600F0F8F8019A029B09981146BF
:1012600000F0F2F80998BD494018089A11795279AE
:10127000114302221143034AFFF7D8FB0AB080BD95
:1012800001040000BFFF003080B584B003900291DC
:1012900003980299496800F04BF902980078019090
:1012A000222856D80198810001A040588746C046A0
:1012B00049130000531300004913000053130000AA
:1012C0005313000053130000531300005313000086
:1012D0005313000053130000531300005313000076
:1012E0005313000053130000531300005313000066
:1012F0003D130000531300003D1300005313000082
:101300005313000053130000531300005313000045
:101310005313000053130000531300005313000035
:101320005313000053130000531300005313000025
:101330003D130000531300003D13000003980121EA
:10134000490700F0E7F805E00398002100F0E2F813
:1013500000E0FFE70398029909690022009200F07B
:10136000ADF8009B03980299C9681A4600F04EF840
:1013700002990878097A08430399784A885004B09A
:1013800080BDC04681B000900099B54AB5488850EC
:1013900001B0704782B0019000910098019911222C
:1013A0001202885002B0704780B584B00390029159
:1013B00001A802700399224A8918009101780098C7
:1013C0008900401800900098029907229204FFF7C4
:1013D0002DFB04B080BDC04680B584B0039002915F
:1013E00001A802700399074A8918009101780098B2
:1013F00089004018009000980299034AFFF716FBF5
:1014000004B080BD70180000DB06C00F10B586B0B8
:1014100005900491039202A803700599084A89185F
:101420000191017801988900401801900198049970
:10143000039A1143034AFFF7F9FA06B010BDC046FC
:10144000301800007777020010B586B0059004913F
:10145000039202A8037005993122D20189180191E3
:101460000178019889004018019001980499039A25
:1014700011438F22FFF7DAFA06B010BD10B587B01E
:1014800000910446009809990694059004920393EC
:1014900002A801700699084A8918019101780198FB
:1014A000890040180190059804990843039908435E
:1014B0000199086007B010BD5018000084B0039077
:1014C000029101A802700399064A891800910178D7
:1014D000009889004018009002980099086004B0B4
:1014E0007047C0461018000082B00190009100982B
:1014F00000780199774A8850009840780199012234
:10150000120388500098807801998D4A885002B063
:101510007047C04680B582B00190009101980F4994
:101520004018009903221207FFF780FA02B080BD2D
:1015300082B00190009100980199024A885002B04F
:101540007047C0460818000081B000900099034A17
:10155000885801231843885001B0704704180000D0
:1015600081B000900099112002028858012398430D
:10157000885001B0704781B000900099112002029C
:10158000885801231843885001B0704781B00090FB
:10159000009911200202885801235B0418438850E7
:1015A00001B0704782B001900091009B0199034AFD
:1015B00088581843885002B07047C0462810000071
:1015C00081B000900099112002028858042318432A
:1015D000885001B07047000081B000900099012050
:1015E000C2020248885001B07047C0460100002680
:1015F00080B582B0019000910198FFF7B1FF01988A
:10160000112109024018009A118893781943928891
:101610001143084AFFF7F6F9019825494018009A46
:101620009179D3791943127A11437E22FFF7EAF9AF
:1016300002B080BD1867020081B000900098034995
:1016400040580121084001B07047C0460811000011
:1016500081B000900099024A0248885001B070475A
:1016600004080000030000B180B584B0039002912B
:10167000019203980B49401802990B4AFFF7AEF903
:1016800003980A49401801993F22FFF7A7F90399E7
:10169000074A8818895801221140FFF79FF904B0C2
:1016A00080BDC04610110000FFFF000014110000B3
:1016B0000411000082B00190009100980078019917
:1016C000044A8850009840780199012212038850FA
:1016D00002B070470810000080B582B00190009100
:1016E000019811210902401800990322D203FFF743
:1016F00075F902B080BD000080B584B0019101464B
:101700000198039102A9087003980D4A801809787E
:101710007022FFF763F904B080BDC04680B584B085
:10172000019101460198039102A908700398044AA7
:10173000801809780722FFF751F904B080BDC04630
:101740000C11000082B00190684601700078019988
:1017500089225201885002B07047000080B582B0E3
:1017600003204106C048FFF705FA3E490191086091
:10177000112001053C48FFF7FDF9014601983B4A5D
:101780001160C0788007002813D5FFE7012081068B
:10179000B548FFF77CFA002805D1FFE7344908680F
:1017A000401E086004E032490868401C0860FFE7FA
:1017B00019E02C48C0784007002813D5FFE7012026
:1017C0004106A948FFF763FA002805D1FFE7284939
:1017D0000868401C086004E025490868401E08604D
:1017E000FFE7FFE7FFE721488078C006002813D510
:1017F000FFE7012001061C48FFF749FA002805D140
:10180000FFE71C490868401E086004E019490868A1
:10181000401C0860FFE719E01448C078C0070028A2
:1018200013D0FFE7012001050F48FFF730FA002829
:1018300005D1FFE70F490868401C086004E00D4926
:101840000868401E0860FFE7FFE7FFE70320410646
:101850008548FFF71FF9112001050348FFF71AF922
:1018600002B080BD3C05202000200A404005202019
:10187000340020203000202080B588B006A9002048
:10188000087005A9322008700120FFF789F9764811
:101890000221FFF739FAFFE7734802210391FFF7AE
:1018A00001FA03990840410800200129049006D15B
:1018B000FFE705A80078411E88410490FFE70498DF
:1018C000C007002808D0FFE70598401E05A908704A
:1018D000052001F009FEDFE705A80078002806D101
:1018E000FFE700F097F807A9012008701DE05E48A7
:1018F000019001210091FFF707FA052001F0F4FDA6
:1019000000990198FFF7F2F80098FFF775F9019830
:1019100002210291FFF7F8F901980299FFF714F9F3
:10192000FFE7069807A90870FFE707A8007808B046
:1019300080BDC04680B588B007A906910870012017
:101940000390FFF759F94848049002210591FFF7E9
:10195000DBF904980599FFF7F7F803990498FFF766
:10196000C5F804980599FFF7C1F8052001F0BCFD02
:1019700006980078002805D1FFE73B480221FFF7D1
:10198000B5F804E038480221FFF7BEF9FFE7364812
:10199000029001210191FFF7B7F9052001F0A4FDA4
:1019A00001990298FFF7A2F802980221FFF7ACF91B
:1019B00008B080BD80B584B001200290FFF71CF90B
:1019C0002948019002210091FFF79EF900990198A2
:1019D000FFF7BAF801980299FFF788F80099019883
:1019E000FFF792F901980299FFF78EF9052003900D
:1019F00001F07AFD00990198FFF778F8039801F05B
:101A000073FD01980299FFF771F8039801F06CFDDE
:101A100004B080BD80B584B001200090FFF7ECF8E1
:101A20001148019002210291FFF76EF90198029985
:101A3000FFF78AF800990198FFF758F80198029982
:101A4000FFF754F800990198FFF75EF9052003901D
:101A500001F04AFD01980299FFF756F9039801F049
:101A600043FD04B080BDC04600000A4080B5A8B068
:101A70000A20249001F04EFC0146249827AA2592C2
:101A8000117001F0A9FC0146259826AA1170007872
:101A9000012827D1FFE7FE480068002806D1FFE7AC
:101AA000FC4908684242504108601AE0F848006862
:101AB00001280FD0FFE7F648006802280AD0FFE7A8
:101AC000F3480068032805D0FFE7F14800680428C0
:101AD00006D1FFE7F0490878424250410870FFE71D
:101AE000FFE712E027A8007802280DD1FFE7E848B9
:101AF0000168491C01600068052804DBFFE7E44930
:101B000000200860FFE7FFE7FFE726A8007801282C
:101B100000D0DBE1DE48006801284AD1FFE7DF485A
:101B20000078002813D1FFE7DB480178DC48DD4A64
:101B300022920029239001D1229823902399DA48F8
:101B400021900068FEF7D0FA2199086018E0D34888
:101B50000078022813D1FFE7CF480178D348D44A50
:101B60001F920029209001D11F9820902099D148E0
:101B70001E900068FEF7B8FA1E990860FFE7FFE7BD
:101B8000C94800680021FEF7E5FC002804D1FFE702
:101B9000C54900200860FFE7C64800680021FEF73D
:101BA000D9FC002804D1FFE7C24900200860FFE704
:101BB0008BE1F348006802286FD1FFE7F248007814
:101BC000002813D1FFE7EF480178F848F84A1C9243
:101BD00000291D9001D11C981D901D99F5481B905E
:101BE0000068FEF781FA1B99086031E0E64800784A
:101BF000012813D1FFE7E3480178E448E44A199249
:101C000000291A9001D119981A901A99E64818904B
:101C10000068FEF769FA1899086018E0DA48007859
:101C2000022813D1FFE7D7480178D848D84A16923E
:101C30000029179001D1169817901799D948159037
:101C40000068FEF751FA15990860FFE7FFE7FFE724
:101C5000D84800680021FEF77DFC002804D1FFE78A
:101C6000D44900200860FFE7CF4800680021FEF754
:101C700071FC002804D1FFE7CB4900200860FFE792
:101C8000C84800680021FEF765FC002804D1FFE782
:101C9000C44900200860FFE716E1D4480068002826
:101CA00011D1FFE7B74801780020C043139001200D
:101CB0000029149001D113981490149AB849086817
:101CC00080180860FFE0C9480068032870D1FFE76A
:101CD000AD480078002814D1FFE7AA480178FF201A
:101CE0008005AD4A11920029129001D111981290ED
:101CF0001299AA4810900068FEF7F6F9109908604A
:101D000031E0A1480078012813D1FFE79D48017810
:101D10009E489F4A0E9200290F9001D10E980F9075
:101D20000F999E480D904068FEF7DEF90D994860C6
:101D300018E095480078022813D1FFE79148017810
:101D40009248934A0B9200290C9001D10B980C9069
:101D50000C9992480A908068FEF7C6F90A99886043
:101D6000FFE7FFE7FFE78D4800680021FEF7F2FB81
:101D7000002804D1FFE7894900200860FFE7874871
:101D800040680021FEF7E6FB002804D1FFE7834905
:101D900000204860FFE7814880680021FEF7DAFBF9
:101DA000002804D1FFE77D4900208860FFE789E033
:101DB0008E480068042800D083E07348007800282B
:101DC00014D1FFE76F480178FF208005724A08921E
:101DD0000029099001D10898099009996D48079048
:101DE0000068FEF781F90799086031E066480078DD
:101DF000012813D1FFE7634801786448644A0592DB
:101E00000029069001D10598069006996148049032
:101E10004068FEF769F90499486018E05A4800786C
:101E2000022813D1FFE7574801785848584A0292D0
:101E30000029039001D1029803900399554801901D
:101E40008068FEF751F901998860FFE7FFE7FFE737
:101E5000504800680021FEF77DFB002804D1FFE711
:101E60004C4900200860FFE74A4840680021FEF71F
:101E700071FB002804D1FFE7464900204860FFE7D6
:101E8000444880680021FEF765FB002818D113E064
:101E9000440020201000202028002020740420204E
:101EA000CDCCCC3DCDCCCCBD180020200AD7233CD6
:101EB0000AD723BC14002020364900208860FFE7A1
:101EC000FFE7FFE7FFE7FFE7FFE757E026A8007817
:101ED000022852D1FFE745480068012807D1FFE7F3
:101EE00029490878424250414000087044E03F4888
:101EF000006802280DD1FFE723480178491C0170D2
:101F00000078032804DBFFE71F4900200870FFE783
:101F100031E036480068002806D1FFE71949087803
:101F200042425041087025E03048006803280DD136
:101F3000FFE715480178491C01700078032804DB8D
:101F4000FFE7114900200870FFE712E0274800680A
:101F500004280DD1FFE70C480178491C0170007876
:101F6000032804DBFFE7084900200870FFE7FFE7CC
:101F7000FFE7FFE7FFE7FFE7FFE7FFE728B080BDE8
:101F80004400202028002020740420200AD7233C6D
:101F90000AD723BC4C0420200000C0BF040020202E
:101FA00024002020640420201C002020CDCCCC3D27
:101FB000CDCCCCBD2000202080B5C6B000F082FA88
:101FC0000A4800684590042800D94BE245988100F2
:101FD00001A040588746C046F11F0000A320000022
:101FE000532100003D2200007923000044002020FE
:101FF000CD480268CD480368CD484090CD4901F0F6
:102000000FFD409A00214191084600F04BFCCA4860
:102010000068FEF706FB024640980B46C74901F0F0
:10202000FFFC4199409A462000F03CFC4098C4498E
:102030000A68C4490B68C44901F0F2FC409A41980F
:10204000102100F02FFC4098C0490A68C0490B6875
:10205000C04901F0E5FC409A4198202100F022FCA3
:102060004098BD490A68BD4901F0DAFC409A4198A0
:102070003021429100F016FCB9480178B948BA4ABB
:1020800043920029449001D1439844904098449A47
:10209000B64901F0C5FC4299409A642000F002FC68
:1020A000E0E1B34A00213991084600F0FBFBB1485A
:1020B0000068FEF7B6FA3A903B91EE483C90017802
:1020C000ED483D90ED4A3E9200293F9001D03E9868
:1020D0003F903B9B3A9A3F980090E9483590F649EB
:1020E00001F09EFC359A3998102100F0DBFBF34893
:1020F0000068FEF796FA02463D9836920A463C99E9
:10210000379209780229389001D03E983890359856
:10211000379B369A38990091E94901F081FC359A4C
:102120003998202100F0BEFBD9480178D948DA4A15
:1021300033920029349001D1339834903598349AF1
:10214000D64901F06DFC3999359A642000F0AAFB5C
:1021500088E1D54A00212C91084600F0A3FBD34822
:102160000068FEF75EFA2D902E91C2482F900178FC
:10217000C1483090C14A31920029329001D0319843
:1021800032902E9B2D9A32980090BD482890BD49E0
:1021900001F046FC289A2C98102100F083FBC448DB
:1021A0000068FEF73EFA0246309829920A462F99B7
:1021B0002A92097801292B9001D031982B902898E8
:1021C0002A9B299A2B990091AF4901F029FC289A62
:1021D0002C98202100F066FBB6480068FEF721FA33
:1021E0000246309825920A462F99269209780229AC
:1021F000279001D0319827902898269B259A2799D7
:102200000091A24901F00CFC289A2C98302100F092
:1022100049FB9F4801789F489F4A239200292490B8
:1022200001D1239824902898249A9C4901F0F8FB26
:102230002C99289A642000F035FB13E1984A00217C
:102240001B91084600F02EFB96481C900068FEF794
:10225000E8F91D901E9187481F90017886482090CC
:10226000864A21920029229001D0219822901E9B1B
:102270001D9A2298009082481790824901F0D0FB65
:10228000179A1B98102100F00DFB1C984068FEF770
:10229000C8F90246209818920A461F99199209789F
:1022A00001291A9001D021981A901798199B189A11
:1022B0001A990091744901F0B3FB179A1B982021D9
:1022C00000F0F0FA1C988068FEF7ABF902462098FF
:1022D00014920A461F99159209780229169001D086
:1022E000219816901798159B149A16990091674992
:1022F00001F096FB179A1B98302100F0D3FA64483E
:1023000001786448644A12920029139001D112980E
:1023100013901798139A614901F082FB1B99179A41
:10232000642000F0BFFA9DE0780420207C04202087
:1023300054052020654E0000680420207C4E0000DB
:102340004405202048052020494E00004C0520204F
:1023500050052020574E0000240020206F4E000022
:1023600028002020224E0000244E00009B4E00003A
:10237000434E0000180020203C4A00210A910846E4
:1023800000F090FA3A480B900068FEF74AF90C907A
:102390000D9138480E90017837480F90374A1092C7
:1023A0000029119001D0109811900D9B0C9A119852
:1023B000009033480690334901F032FB069A0A98A0
:1023C000102100F06FFA0B984068FEF72AF90246D8
:1023D0000F9807920A460E990892097801290990E8
:1023E00001D0109809900698089B079A09990091C6
:1023F000254901F015FB069A0A98202100F052FAAF
:102400000B988068FEF70DF902460F9803920A4672
:102410000E99049209780229059001D01098059030
:102420000698049B039A05990091184901F0F8FA5F
:10243000069A0A98302100F035FA154801781548B7
:10244000154A01920029029001D101980290069844
:10245000029A124901F0E4FA0A99069A642000F0FF
:1024600021FAFFE700F036F946B080BD324E000099
:102470004C04202074042020264E0000204E000032
:1024800054052020B44E0000AA4E0000A04E0000CB
:1024900028002020224E0000244E00009B4E000009
:1024A000284E0000040020203B4E00002000202089
:1024B0001C00202064042020834E000014002020F3
:1024C0008F4E000080B582B001A900200870FFE7A0
:1024D00001A8007807281EDCFFE769460020087085
:1024E000FFE7684600787F280FDCFFE76846007842
:1024F000C1009648411801A8027800208854FFE7DF
:102500000098401C69460870EBE7FFE70198401C03
:1025100001A90870DCE700F0DDF802B080BDC0461C
:1025200086B0034605A8037004AB197003A90A70AE
:102530006A460021117000787F2805DCFFE704A8B7
:102540000078402801DBFFE72DE004A90878C208E5
:102550000720821A02AB1A700A78024001A90A7099
:102560000978411A012088406946087003A800785C
:1025700000280CD0FFE7009B05A80078C100734835
:10258000411802A80278885C184388540BE0009B2D
:1025900005A80078C1006D48411802A80278885C3F
:1025A00098438854FFE706B07047C04680B582B0B4
:1025B00000F06EF8782000F07FFF00F071F8AE2098
:1025C0000021019100F0ABF90199D52000F0A7F9A5
:1025D0000199502000F0A3F90199A82000F09FF97B
:1025E00001993F2000F09BF90199D32000F097F961
:1025F0000199084600F093F90199402000F08FF905
:1026000001998D2000F08BF90199142000F087F9D1
:102610000199202000F083F90199022000F07FF950
:102620000199A12000F07BF90199C02000F077F911
:102630000199DA2000F073F90199122000F06FF986
:102640000199812000F06BF90199EF2000F067F902
:102650000199D92000F063F90199F12000F05FF9A8
:102660000199DB2000F05BF90199302000F057F967
:102670000199A42000F053F90199A62000F04FF928
:102680000199AF2000F04BF9FFF71CFF02B080BDAD
:1026900080B5012081030E48FEF71EFA80BDC046BA
:1026A00080B5012081030A48FEF724FB80BDC046A7
:1026B00080B50120C1030648FEF70EFA80BDC04672
:1026C00080B50120C1030248FEF714FB80BDC0465F
:1026D00000200A4080B584B003A900200870FFE7FD
:1026E00003A8007807282FDCFFE70398B030C0B2BA
:1026F0000021019100F013F90199084600F00FF94B
:102700000199102000F00BF9019802A90870FFE769
:1027100002A800787F2811DCFFE702A80078C1003A
:102720000A48401803A90978405C012100F0F7F835
:10273000FFE70298401C02A90870E9E7FFE7039849
:10274000401C03A90870CBE704B080BD4C002020DA
:1027500080B501200107B248FEF7BEF980BDC04632
:1027600080B501200107AE48FEF7C4FA80BDC0461F
:1027700080B50120C107AA48FEF7AEF980BDC0466A
:1027800080B50120C107A648FEF7B4FA80BDC04657
:10279000B0B58AB004460E9809AD2C7008AC217013
:1027A00007A90A7006AA137005AA1070089801AA52
:1027B000107007982038087003A900200870FFE700
:1027C00003A8007806A90978884264DAFFE706A81A
:1027D00000780C280CD1FFE707A800780C214143B2
:1027E0002F48401803A90978405C04A908700AE042
:1027F00007A8007801012948401803A90978405C1E
:1028000004A90870FFE702A900200870FFE702A8EA
:102810000078072839DCFFE704A8007800060028C4
:1028200009D5FFE709A8007808A9097805AA127850
:10283000FFF776FE0AE009A8007808A9097805AA3A
:10284000127853425A41FFF76BFEFFE704984000AD
:1028500004A908700898411C08A80170007801A913
:102860000978401A06A90978884208D1FFE701983B
:1028700008A908700998401C09A9087005E0FFE73D
:102880000298401C02A90870C1E7FFE70398401CAA
:1028900003A9087094E70AB0B0BDC04630480000F4
:1028A000BC43000080B586B005AB187004A8017069
:1028B0000392FFE70398007800282ED0FFE705A8D1
:1028C00000787B2808DBFFE705A900200870049842
:1028D000103004A90870FFE704A800783B2808DB43
:1028E000FFE705A90020087004A90870FFF7EAFDBA
:1028F000FFE705A80290007804A90978039A1278E6
:10290000012300930C23FFF743FF02990598083039
:1029100008700398401C0390CCE706B080BD80B5DA
:1029200084B003AA107002A801700078002803D0B8
:10293000FFE7FFF7C5FE02E0FFF7BAFEFFE701A9D8
:1029400000200870FFE701A8007807281ADCFFE7DD
:10295000FFF7FEFE03A800780006002803D5FFE776
:10296000FFF70EFF02E0FFF703FFFFE7FFF7F8FEB8
:102970000398400003A90870FFE70198401C01A9D3
:102980000870E0E7FFF79CFE04B080BD80B586B01C
:1029900004A90020039008700120FEF701F90398B4
:1029A00005A90870FFE705A80078072834DCFFE7D1
:1029B0007B48029001210091FEF798F805200190D4
:1029C00000F092FD00990298FEF79EF9019800F040
:1029D0008BFD02980499490004AA11700221FEF7A8
:1029E00061F98007002804D5FFE70120002804D101
:1029F00009E00120002806D1FFE7049801210843DF
:102A000004A90870FFE7052000F06EFDFFE70598B8
:102A1000401C05A90870C6E704A8007806B080BD70
:102A200000000A4080B590B00E2008210291FEF708
:102A300015F95A480E9004210391FEF77BF802998C
:102A40000F20FEF70BF902990E98FEF773F800239A
:102A50000793019300930720049009211A46FEF77B
:102A6000E1F80399079B01930093242005901A46EF
:102A7000FEF7D8F80498FEF743F80598FEF740F8FB
:102A8000142002210691FEF7E9F806991520FEF7B9
:102A9000BDF806991620FEF7E1F806991720FEF713
:102AA000B5F82720FEF772F81920FEF79BF81E20D4
:102AB000FEF798F81F20FEF795F80698FEF792F8B3
:102AC00005200990FEF78EF82A20FEF75FF82020F7
:102AD000FEF75CF82120FEF759F83B20FEF756F888
:102AE000079B009301200890420418201946FEF726
:102AF00061F82520FEF776F82620FEF773F82320EC
:102B0000FEF770F82220FEF76DF83620FEF73EF84B
:102B10003A20FEF73BF82F20FEF738F83320FEF777
:102B200035F80798FEF75EF80898FEF75BF8CE4890
:102B30000B901C49FDF7BCFF0B9803210A91FEF78F
:102B4000C5F80B981849FDF7F5FF09990B9889040A
:102B5000FEF7E6F80A990B9849060C91FDF78EFFEF
:102B60000B980C99FDF7D8FF0E98612149020D9141
:102B7000FDF79EFF0D990E98FDF7DCFF0E980B49AF
:102B8000FEF7CEF80E98112109050F91FDF776FF9B
:102B90000E980F99FDF7C0FF10B080BD00200A40CD
:102BA00000000A40006003900360039000010100F0
:102BB00080B582B01249B0480190FEF715F901982E
:102BC00003214902FEF7FCF80198FEF7B5F80198D9
:102BD000FEF7ECF801980921FEF746F9019800216B
:102BE0000091FEF72DF900990198FEF717F9019869
:102BF000FEF7B8F80198FEF7ABF802B080BDC0460A
:102C00005643000080B584B01B4999480390FEF7F5
:102C10006BFC03981949FEF70DFA03980022019204
:102C20001146FEF74BFC019B0398009319461A4688
:102C3000FEF724FC019A03981146FEF7B5FB0199B3
:102C4000039801220292FEF739FC019B0299039836
:102C5000009119461A46FEF711FC0199029A039851
:102C6000FEF7A2FB0398FEF75BFA03980321FEF739
:102C700091FB04B080BDC046584300005C43000097
:102C800080B582B000200190FEF772F9012000901B
:102C90004002FEF779F90198FEF784F9FEF750F942
:102CA000FEF754F90848FEF7EBF81020FEF788F914
:102CB000FEF756F90198FEF78FF90098019900F098
:102CC000E7FA02B080BDC0466443000080B5012031
:102CD0000006FEF79BF9FEF793F980BD80B582B040
:102CE000084964480190FEF7FFFB01980649FEF78A
:102CF000CBFA01980121FEF71DFA0198FEF710FAB0
:102D000002B080BD8C4300009043000080B582B0CB
:102D100012495A480190FEF7CDFC01981049FEF780
:102D200067FC01980021FEF7D7FC019815212D22A0
:102D3000FEF79AFC0198FEF729FC01987021FEF736
:102D4000DBFC01980221FEF7E9FC0198FEF738FC54
:102D50000198FEF710FC02B080BDC046A4430000FD
:102D6000A643000080B582B0144945480190FEF7A3
:102D7000A1FC01981249FEF73BFC01980021FEF7E7
:102D8000ABFC019815212D22FEF76EFC0198012164
:102D90008902FEF707FC0198FEF7F8FB0198702105
:102DA000FEF7AAFC01980221FEF7B8FC0198FEF795
:102DB00007FC0198FEF7DFFB02B080BDB0430000C6
:102DC000B243000080B500F017F8FFF72BFEFFF7C5
:102DD00057FFFFF717FFFFF781FFFFF7E9FEFFF748
:102DE00095FFFFF7BFFFFFF771FF0249B8220020F0
:102DF000885480BD8004202080B588B08A48019026
:102E0000FDF75CFF19480290FDF758FF87480390D3
:102E1000FEF7B8FAAD480490FEF7B4FA16480590EC
:102E2000FDF7B8FF15480690FEF712FC144807900E
:102E3000FEF70EFC0198FDF793FE0298FDF790FE59
:102E40000398FEF785F90498FEF782F90598FDF7D7
:102E500095FF0698FEF7C0FB0798FEF7BDFB102014
:102E6000FDF7B2FD08B080BD00000A4000200A4016
:102E7000002086400040084000200F4000801040A5
:102E80000000104080B58AB009A9087000200790A2
:102E9000089001200690FDF7AFFE634805900221DF
:102EA0000491FDF731FF04990598FDF74DFE059853
:102EB0000699FDF71BFE07980890FFE7089807287A
:102EC0002DDCFFE709A80078C009002805D0FFE73E
:102ED00055480221FDF718FF04E053480221FDF791
:102EE00005FEFFE7022000F0FFFA4F4801900121A4
:102EF0000291FDF709FF0520039000F0F5FA019813
:102F00000299FDF7F3FD039800F0EEFA09984000EE
:102F100009A90870FFE70898401C0890CEE70AB09E
:102F200080BDC04680B58EB00D900C910C980128E4
:102F30001DDBFFE701200A9001043B480B90FDF7E1
:102F4000CFFE0A990B984904FDF7BCFD0C980128A7
:102F500003DBFFE70C98099003E00C9840420990CE
:102F6000FFE7099931480022FEF7A8FA1CE001208A
:102F7000079041042C480890FDF7B2FE0799089885
:102F80000904FDF79FFD0C98012803DBFFE70C986F
:102F9000069003E00C9840420690FFE7069923480C
:102FA0000022FEF78BFAFFE70D9801281DDBFFE7F3
:102FB0000120049081031C480590FDF791FE0499BF
:102FC00005984903FDF77EFD0D98012803DBFFE717
:102FD0000D98039003E00D9840420390FFE703999A
:102FE00012480122FEF76AFA1CE001200190410319
:102FF000F6480290FDF774FE019902988903FDF7E7
:1030000061FD0D98012803DBFFE70D98009003E0B8
:103010000D9840420090FFE7009904480122FEF716
:103020004DFAFFE70EB080BD00000A400020864048
:1030300080B582B00190FFE701986F49FDF77CFAF7
:10304000002806D1FFE701986E49FDF74DF8019081
:10305000F2E7FFE701986949FDF77CFA002806D1FD
:10306000FFE701986649FDF73FF80190F2E7019804
:103070006E49486102B080BD014800687047C04693
:1030800018E000E080B51148FEF76EF800281CD06B
:10309000FFE7FEF7EBFC0E49086840420D4A10605E
:1030A0000D4A10680D4B18600020106008600C4835
:1030B0000068002803D1FFE7FDF754FC04E000217D
:1030C0000846FFF72FFFFFE7FFE780BD00400840FD
:1030D0003000202078042020340020207C04202090
:1030E0001000202080B58CB00A90504840690A99A1
:1030F000FDF74BF8099009983F49FDF71DFA0028A4
:1031000006D1FFE709983F49FCF7EEFF09900DE073
:1031100009983A49FDF71EFA002806D1FFE70998F9
:103120003749FCF7E1FF0990FFE7FFE77F20C00583
:1031300008900998FDF775FA03900120C0078143B4
:1031400004910898FDF76DFA024603980B4604991E
:10315000FDF724FA002805D1FFE734490020C860B4
:103160000B9046E03148029000680999FDF715F888
:103170000146029807910999C068FCF7B5FF01461E
:103180000298C160C0682049FDF7D6F9002804D133
:10319000FFE726491C48C8600CE02448C0681B496A
:1031A000FDF7D8F9002804D1FFE720491748C86087
:1031B000FFE7FFE71D4901914868C968FCF7EDFF8B
:1031C000019906908868009009980969FCF7DDFF6D
:1031D00001460098FCF7E1FF019905900998086104
:1031E00007980699FCF780FF0599FCF77DFF0B9087
:1031F000FFE70B980CB080BD00003443000034C3DF
:103200000000B4430000B4C30000C8420000C8C2BC
:1032100006497F20C0050860054848600548886069
:103220000020C860086148617047C0464C042020F7
:103230000AD7233CCDCCCC3E81B001466846017014
:1032400000214056002809D4FFE7684601781F2076
:1032500001400120884002490860FFE701B0704743
:1032600080E200E081B001466846017000214056CE
:10327000002809D4FFE7684601781F20014001209B
:10328000884002490860FFE701B0704700E100E0B4
:1032900070B582B0024601A802700091002140562C
:1032A000002816D4FFE7002401A908570322D343BE
:1032B0001840174A805809578C07E50EFF24AC4088
:1032C000A043009CA401E4B2AC40204319408850C4
:1032D0001AE001A908780F24204008380322D343BC
:1032E00018400A4A8058002549578D07EE0EFF25E1
:1032F000B540A843009DAD01EDB2B5402843214043
:10330000083919408850FFE702B070BD1CED00E09D
:1033100000E400E080B584B002A9087001208104B7
:103320002A48FDF7A9FC411E884101A908702848D8
:1033300000780090002808D0FFE70098012811D0FD
:10334000FFE7009802281AD037E001A8007800288B
:1033500007D0FFE71E49012008701E4900200880A1
:10336000FFE72AE001A80078002807D1FFE7184905
:1033700002200870174900200880FFE71DE001A81F
:103380000078002807D0FFE711490020087003A942
:103390000220087015E00F490888401C088080B2A0
:1033A00002A90978884207DDFFE709490020087073
:1033B00003A90120087004E0FFE703A900200870BA
:1033C000FFE703A8007804B080BDC04600000A40B3
:1033D0006C0420206E04202080B584B002A90880EF
:1033E000012001023048FDF747FC4142484101A954
:1033F00008702E4800780090002808D0FFE7009859
:10340000012813D0FFE7009802281CD044E001A84F
:103410000078002809D0FFE7244901200870244AD9
:103420000021118023490870FFE735E001A80078EA
:10343000002807D1FFE71D49022008701C49002021
:103440000880FFE728E001A80078002809D0FFE7FE
:103450001649002008701749087003A90220087057
:103460001EE013480188491C0180008802A90988D0
:10347000884210DDFFE70D49002008700D480078F4
:10348000002807D0FFE70B490020087003A901209E
:10349000087005E0FFE7FFE703A900200870FFE7D9
:1034A00003A8007804B080BD00200A4071042020E9
:1034B000720420207004202080B582B0019000208A
:1034C0000090FFE700980749884208DCFFE7019871
:1034D00000F00AF8FFE70098401C0090F2E702B005
:1034E00080BDC046E703000080B586B00590059812
:1034F0001E49884203D3FFE71D480590FFE7059961
:10350000502048430590002000900490FFF7B4FD40
:10351000014600980391029001A90870FFE7FFF7A8
:10352000ABFD029002980399884204D9FFE701A9F4
:1035300001200870FFE701A80078002807D0FFE706
:1035400003980299401A0B494018049004E003982C
:103550000299401A0490FFE704980599884201D324
:10356000FFE700E0DBE706B080BDC0463433030070
:1035700033330300FFFFFF0080B582B0019000915C
:10358000FFE70748FEF758F8002801D0FFE7F8E703
:1035900001A801780248FEF7D5F8019802B080BD75
:1035A0000080104080B58CB00AAA002090800A905C
:1035B000099090800A9050203D21062300F06AF97E
:1035C00009900998002804D1FFE7654800F018FA2F
:1035D000FFE70AA94878000209784018FCF7F4FFD1
:1035E000002204925F4BFCF72FFF049A5E4B059379
:1035F000FCF7C2FEFDF729F808900898FDF711F8CE
:10360000049A059BFCF7B4FF00280BD1FFE708984C
:10361000FDF707F80022574BFCF7FCFDFDF715F806
:10362000089015E00898FCF7FCFF00224F4BFCF7D0
:10363000B5FF00280BD1FFE70898FCF7F2FF002246
:103640004B4BFCF7E7FDFDF700F80890FFE7FFE7BD
:103650000AA9C878000289784018FCF7B5FF002253
:103660000292404BFCF7F0FE029A3F4B0393FCF7AB
:1036700083FEFCF7EAFF07900798FCF7D2FF029A57
:10368000039BFCF775FF00280BD1FFE70798FCF7B9
:10369000C8FF0022374BFCF7BDFDFCF7D6FF0790B3
:1036A00015E00798FCF7BDFF0022304BFCF776FFD2
:1036B00000280BD1FFE70798FCF7B3FF00222C4B43
:1036C000FCF7A8FDFCF7C1FF0790FFE7FFE70AA999
:1036D0004879000209794018FCF776FF0022009231
:1036E000204BFCF7B1FE009A1F4B0193FCF744FE00
:1036F000FCF7ABFF06900698FCF793FF009A019B3E
:10370000FCF736FF00280BD1FFE70698FCF789FF8E
:103710000022184BFCF77EFDFCF797FF069015E0A2
:103720000698FCF77EFF0022104BFCF737FF0028BD
:103730000BD1FFE70698FCF774FF00220C4BFCF757
:1037400069FDFCF782FF0690FFE7FFE70898324922
:103750000860079848600698886006980CB080BD9D
:10376000BE4E00000000E04000806640008066C061
:1037700000807640008076C010B58CB00BAA254C36
:10378000148050200290692100910223039300F0DD
:10379000EBF8C8200490FFF78FFE0298039B0AAA5B
:1037A000042111800121019100F0DEF80498FFF757
:1037B00083FE0298039B09AA00210591118000F065
:1037C000D3F80498FFF778FE00990298039B08AAA3
:1037D000148000F0C9F80498FFF76EFE0199029872
:1037E000039B07AA0824148000F0BEF80498FFF792
:1037F00063FE0298039B059906AA118000F0B4F8B5
:103800000498FFF759FE05980349886048600860EE
:103810000CB010BD88B500003800202080B586B0FF
:10382000002005900490FFF7CDFA1748FDF78CFEB5
:1038300001200190FFF700FD0198FFF7FDFC0198C2
:10384000FFF710FD0198FFF70DFD10200290FFF724
:10385000F3FC0298FFF706FD0D200390FFF7ECFC48
:103860000398FFF7FFFCFFF7D3FC0848FFF7E0FBE6
:10387000FEF79CFEFFF780FFFFE7FFF793FE04498A
:103880000860FEF799FBF8E7002086400000B4428C
:103890006804202010B586B004AC207003A8017025
:1038A0000292019300200090FEF784F804984006ED
:1038B000000EFFF7E7FAFDF7DFFF012804D1FFE76D
:1038C00005A9002008704BE003A80078FFF7DAFA9A
:1038D000FDF7D2FF012804D1FFE705A900200870F9
:1038E0003EE00520FFF700FEFEF764F80498400074
:1038F000401CC0B2FFF7C6FAFDF7BEFF012804D195
:10390000FFE705A9002008702AE000200090FFE7EB
:103910000098019988421DD2FFE700980199491E3D
:10392000884209D0FFE7FFF731F80299009A8854DE
:103930000020FDF7FFFF08E0FFF728F80299009A42
:1039400088540120FDF7F6FFFFE7FFE70098401CD1
:103950000090DDE7FEF75EF805A901200870FFE79B
:1039600005A8007806B010BD10B586B004AC207074
:1039700003A801700292019300200090FEF71AF84C
:1039800004984006000EFFF77DFAFDF775FF012849
:1039900004D1FFE705A9002008702DE003A80078F6
:1039A000FFF770FAFDF768FF012804D1FFE705A9CA
:1039B0000020087020E000200090FFE700980199A7
:1039C000884213D2FFE702980099405CFFF75AFA49
:1039D000FDF752FF012804D1FFE705A90020087078
:1039E0000AE0FFE70098401C0090E7E7FEF712F8B6
:1039F00005A901200870FFE705A8007806B010BDF2
:103A00000FB410B503A9044B044A029800F002F960
:103A100010BC08BC04B01847793500000000202015
:103A20000FB410B504A9074B02AA039800F0F2F8EE
:103A3000044602A9002000F089FC204610BC08BC06
:103A400004B018474D4300002021020C01D0102182
:103A50001046020A01D010460839020901D010466A
:103A6000091F820801D01046891E420801D0881E15
:103A70007047081A7047000002E008C8121F08C10A
:103A8000002AFAD1704700007047000000000000D3
:103A9000002001E001C1121F002AFBD17047000085
:103AA000F0B51FB486B00998089A030D00210243AF
:103AB00014D05148514A1818504305141198012840
:103AC00010981AD0281A401C00264D4F4D490096D8
:103AD00001910490002812DA444211E01198012467
:103AE00049A3012801D11098C1430698119A846016
:103AF0000360C26041600BB0F0BD4042E4E70446A1
:103B0000210500203F4A001C51410391029012E020
:103B1000E00707D032463B4601990098FCF72CFCA1
:103B20000191009032463B4610461946FCF724FCB2
:103B300006460F466410002CEAD10498039B002827
:103B4000029A0999089806DAFCF716FC019B009A7C
:103B5000FCF712FC05E0FCF777FC019B009AFCF7F0
:103B600073FC04460E460022284BFCF7BDFE03D82A
:103B70000020C043014607E00022254B2046314685
:103B8000FCF748FBFCF790FE102409E0002C0ADB50
:103B90000A220023FCF794FD079B30321A55641E5D
:103BA00002460A43F2D11122641C079B121B1C1906
:103BB000119B012B03D0012308430ED10AE00843D7
:103BC00004D0112010900020119077E71098151A5A
:103BD0006D1E0BE01098824202DD00236D1C03E095
:103BE000824201DA00236D1E002BEED00698119957
:103BF0008260C16030C07EE701FCFFFF104D000015
:103C0000000014400000F03F300000000000F043CE
:103C10000000E03FFFB597B00646002518E22528D2
:103C200077D100242746FD49049400E00443761C24
:103C300032780120203A90400842F7D130782A2883
:103C40000ED00222307801463039092916D804995D
:103C50000A235943303940181443761C0490F1E785
:103C6000189802C804911890002904DA0120400332
:103C700004434842049002200443761C30782E28E6
:103C800014D1042004437078761C2A2809D118988E
:103C9000761C80C8189009E00A214F43303FC719AD
:103CA000761C3078014630390929F5D930786C28EE
:103CB00010D006DC4C281AD068280ED06A2817D1FC
:103CC00004E0742813D07A2812D110E001204005B6
:103CD00004430CE00121090501E0032109050C431F
:103CE0007178814203D1012000052418761C761CCE
:103CF0003078119066280BD013DC58287DD009DC71
:103D000000287BD04528F6D04628F4D047281AD181
:103D1000A5E118E0632835D0642870D0652812D159
:103D20009DE170286CD008DC6728F1D069287BD031
:103D30006E280DD06F2806D1BAE073282ED07528D2
:103D400071D0782859D01A9A199990476D1C7EE144
:103D50006002400F022809D003280DD004281898CB
:103D600001680DD00D60001D189070E11898EA17D9
:103D700001680D604A60F6E7189801680D80F2E767
:103D80000D70F0E718986A4601781172001D1890BE
:103D90000020507202A80090012005E0189802C887
:103DA000189000200091C04361070DD5002101E06B
:103DB0000199491C0191B94212DA8142F8DB009A5B
:103DC000515C0029F4D10BE0002101E00199491C6C
:103DD00001918142FADB019A0099895C0029F5D1B1
:103DE000019904981A9B471A21463846199A00F0FF
:103DF00097FA0199401945180BE04FE02CE113E0C8
:103E00004EE0009800990078491C00911A9A19997F
:103E100090470198401E0190401CF2D1214638463F
:103E20001A9B199A10E137E00A20002100900191B5
:103E30006002410F022907D0189A01CA1892C217CE
:103E40009446032908D00AE01898C01DC108C9008B
:103E500005C91891944607E000B2C2179446042998
:103E600002D140B2C1178C4600226146944506DA61
:103E70000A460021404291418C462D2102E0210555
:103E800004D52B216A461173012103E0E10701D01B
:103E90002021F7E7029155E00A200AE0102008E00F
:103EA000102000900021042004430191082703E022
:103EB00008200021019100906002410F022907D0E3
:103EC000189A01CA189200229446032908D008E0E3
:103ED0001898C01DC108C90005C91891944603E08F
:103EE00080B2042900D1C0B200210291210729D556
:103EF0001199702906D0009A1021019B4A401A435B
:103F000005D00EE040216A461173012108E06146A8
:103F1000014306D030216A46117311995173022171
:103F20000291009A0821019B4A401A430AD1614636
:103F3000014301D1610705D530216A461173012182
:103F40007F1E02911199582904D035A10E910DA917
:103F50000D910DE037A1F9E76146019B009AFCF74E
:103F6000AFFB0E9B8C469B5C0D9A521E0D921370FC
:103F700061460143F0D10D9805A9081A203001903F
:103F8000600703D501200004844300E00127019865
:103F9000874201DD381A00E00020019900904118A5
:103FA000029809180498401A0490E00306D42146A8
:103FB0001A9B199A049800F0B3F94519002706E0F6
:103FC00003A81A9AC05D199990476D1C7F1C02982E
:103FD0008742F5DBE0030CD521461A9B199A049819
:103FE00000F09EF9451904E01A9A3020199990477B
:103FF0006D1C0099481E00900029F5DC08E00D9822
:104000000D990078491C0D911A9A199990476D1CC9
:104010000199481E01900029F1DC63E109280100A3
:10402000303132333435363738396162636465662E
:1040300000000000303132333435363738394142F0
:10404000434445460000000000F05AF94519761C2B
:104050003078002800D0E2E528461BB0F0BD6007AC
:1040600000D406271898C01DC108C90048680A680E
:104070000831C30FDB071891190001D09CA108E09B
:10408000210501D59BA104E0E10701D09AA100E040
:104090009AA1430011985B08109165280CD006DCAA
:1040A000452809D046281DD0472841D141E066283F
:1040B00018D067283CD13CE00021112F01DB1120F2
:1040C00000E0781C0191009008A911A8FFF7E8FC16
:1040D000139905910021119A15927F1C129801974E
:1040E000009150E00120C00703900120019008A931
:1040F000009711A8FFF7D4FC139A14990592002297
:10410000119B009212981593059A0192002901D0F3
:10411000104602E0791C40180190381A01D5019828
:1041200004E04042401E0090781C0190C01B0290A9
:1041300043E0012F00DA01270021112F01DD1120BA
:1041400000E038460191009008A911A8FFF7A8FCEB
:1041500013990591119A00211298159200910197D7
:1041600021070CD40599B94201DB019900E00191C6
:10417000012904DD159A491E515C302906D0B84248
:1041800001DA011D05DA0121029115E00199491EAC
:10419000EDE7002805DC0099411800910199091A02
:1041A00003E0019A411C914200DD01910099401AFF
:1041B000401C02900120C0070390200706D40299FA
:1041C0000198814202DB0020C04302900020694632
:1041D000C87707AF012103980337C907884224D065
:1041E000022011902B201290039800280CDA4042F4
:1041F00003902D20129007E00A210398FCF741FA62
:1042000030317F1E039039701199481E119000299A
:10421000F2DC03980028EFD1791E129808703078EC
:10422000202108404530BF1E387006A8C01BC01DA5
:10423000039010980078002800D0012001994118BF
:104240000298C0170918039809180498401A401ECC
:104250000490E00306D421461A9B199A049800F0B2
:104260005FF8451910980078002803D01A9A199918
:1042700090476D1CE00324D521461A9B199A049897
:1042800000F04EF845191CE00098002807DB009963
:104290000598884203DD1598405C199901E0199949
:1042A00030201A9A904700986D1C401C009002988C
:1042B000401E0290002804D11A9A2E201999904786
:1042C0006D1C0199481E01900029DDDC05E038785D
:1042D0001A9A7F1C199990476D1C0399481E0390E8
:1042E0000029F4DC21461A9B199A0498ACE60000D8
:1042F0002D0000002B000000200000000000000046
:10430000F8B5044600251E461746880404D405E087
:1043100039462020B0476D1C641EF9D52846F8BDEB
:10432000FFB50446002581B01E46C80301D53027DD
:1043300000E02027880404D505E038460399B047FB
:104340006D1C641EF9D5284605B0F0BD0A68531CE3
:104350000B6010707047080008000000401F00004C
:10436000200001000100000000000000000000002B
:1043700040000000000000000000000002000000FB
:1043800004000000010000002C00C44108001F00D0
:1043900002000000D3300000010000000000000017
:1043A00000000000080000001800000000300000BD
:1043B00008000000180000000030000000000000AD
:1043C0000000000000000000000000003F4000006E
:1043D00000000000000030004000300040000000FD
:1043E00009000BC03D000BC03D00090018C024406F
:1043F0007FE0224031800000180024C01B000D80A7
:104400003240018003801C4027401C800740004050
:10441000100060000000000000000000000000002C
:1044200000001F80204040200000402020401F80CE
:1044300000000000090006001F80060009000000BF
:10444000040004003F80040004000000001000602D
:10445000000000000000000004000400040004004C
:104460000400000000000040000000000000000008
:10447000002001C006003800400000001F802040DE
:10448000204020401F800000000010403FC000403E
:104490000000000018C021402240244018400000C5
:1044A00010802040244024401B80000002000D00AA
:1044B00011003FC0014000003C80244024402440C3
:1044C000238000001F8024402440344003800000EB
:1044D0003000200027C03800200000001B8024404E
:1044E000244024401B8000001C0022C022402240A7
:1044F0001F800000000000000840000000000000D5
:104500000000000004600000000000000000040043
:104510000A0011002080404009000900090009003C
:104520000900000000004040208011000A00040043
:104530001800200023402400180000001F802040A5
:10454000274029401F400000004007C039000F00ED
:1045500001C0004020403FC0244024401B80000098
:104560001F802040204020403080000020403FC07D
:10457000204020401F80000020403FC024402E40AB
:1045800030C0000020403FC024402E00300000001A
:104590000F001080204022403380020020403FC0A6
:1045A000040004003FC02040204020403FC0204085
:1045B000204000000060202020203FC0200020007C
:1045C00020403FC024400B0030C0204020403FC06E
:1045D00020400040004000C03FC03C0003C03C0001
:1045E0003FC0000020403FC00C4023003FC02000DF
:1045F0001F802040204020401F80000020403FC0FE
:1046000024402400180000001F802140214020E0A9
:104610001FA0000020403FC02440260019C00040D9
:1046200018C0244024402240318000003000204047
:104630003FC020403000000020003F80004000408C
:104640003F80200020003E0001C00700380020000D
:10465000380007C03C0007C038000000204039C0C7
:10466000060039C0204000002000384007C0384014
:1046700020000000304021C02640384020C000000B
:10468000000000007FE0402040200000000070009B
:104690000C000380004000000000402040207FE02C
:1046A000000000000000200040002000000000008A
:1046B000001000100010001000100010000000009A
:1046C000400000000000000000000280054005409E
:1046D00003C0004020003FC00440044003800000AD
:1046E00000000380044004400640000000000380F6
:1046F000044024403FC000400000038005400540C6
:1047000003400000000004401FC02440244020005B
:10471000000002E0055005500650042020403FC034
:104720000440040003C000400000044027C00040D3
:104730000000000000100010041027E0000000003E
:1047400020403FC00140070004C0044020402040FA
:104750003FC000400040000007C0040007C0040044
:1047600003C00000044007C00440040003C0004030
:10477000000003800440044003800000041007F0A0
:1047800004500440038000000000038004400450F3
:1047900007F00010044007C00240040004000000BD
:1047A000000006400540054004C000000000040071
:1047B0001F800440004000000400078000400440C7
:1047C00007C000400400070004C001800600040088
:1047D000060001C0070001C006000000044006C03A
:1047E000010006C0044000000410071004E001802E
:1047F000060004000000044005C00640044000001C
:104800000000000004007BE04020000000000000E9
:104810000000FFF000000000000040207BE00400EA
:104820000000000040008000400020002000400008
:104830000000000000000000000000000000000078
:104840000000000000001FCC000C00000000000071
:104850000000080030006000080030006000000028
:10486000022003FC1E20022003FC1E200220000068
:1048700000000E1811043FFF10840C7800000000A7
:104880000F0010840F3800C00778188400780000EB
:1048900000780F8410C411240E9800E400840008EE
:1048A0000800680070000000000000000000000028
:1048B00000000000000007E018182004400200007B
:1048C000000040022004181807E00000000000006B
:1048D0000240024001800FF00180024002400000CF
:1048E0000080008000800FF80080008000800000C1
:1048F0000001000D000E000000000000000000009C
:104900000000008000800080008000800080008027
:104910000000000C000C000000000000000000007F
:10492000000000060018006001800600180020004A
:10493000000007F0080810041004080807F0000041
:104940000000080408041FFC00040004000000002C
:1049500000000E0C10141024104411840E0C0000E2
:1049600000000C1810041104110412880C700000CF
:10497000000000E00320042408241FFC00240000A1
:1049800000001F981084110411041088107000009A
:10499000000007F008881104110418880070000056
:1049A00000001C00100010FC13001C001000000090
:1049B00000000E3811441084108411440E38000099
:1049C00000000700088C10441044088807F000001D
:1049D000000000000000030C030C000000000000B9
:1049E00000000000000101060000000000000000BF
:1049F000000000800140022004100808100400009C
:104A000002200220022002200220022002200000B8
:104A1000000010040808041002200140008000007B
:104A200000000E001200100C106C10800F0000002F
:104A300003E00C1813E4142417C4082807D000005E
:104A40000004003C03C41C40074000E4001C0004B8
:104A500010041FFC1104110411040E8800700000E2
:104A600003E00C1810041004100410081C100000BF
:104A700010041FFC100410041004080807F00000C4
:104A800010041FFC1104110417C4100408180000BE
:104A900010041FFC1104110017C0100008000000D2
:104AA00003E00C181004100410441C7800400000AF
:104AB00010041FFC10840080008010841FFC100470
:104AC0000000100410041FFC10041004000000007B
:104AD00000030001100110011FFE10001000000073
:104AE00010041FFC110403801464181C100400003F
:104AF00010041FFC1004000400040004000C00005B
:104B000010041FFC1F0000FC1F001FFC100400000D
:104B100010041FFC0C04030000E010181FFC100020
:104B200007F00808100410041004080807F000003B
:104B300010041FFC10841080108010800F000000F3
:104B400007F0081810241024101C080A07F20000AF
:104B500010041FFC1104110011C011300E0C0004D0
:104B600000000E1C11041084108410441C38000036
:104B70001800100010041FFC1004100018000000A2
:104B800010001FF810040004000410041FF81000A7
:104B900010001E0011E0001C007013801C001000AB
:104BA0001FC0103C00E01F0000E0103C1FC00000D0
:104BB0001004180C163401C001C01634180C10046F
:104BC00010001C00130400FC13041C001000000063
:104BD0000804101C1064108413041C041018000036
:104BE0000000000000007FFE400240024002000082
:104BF000000030000C0003800060001C0003000077
:104C000000004002400240027FFE00000000000061
:104C10000000000020004000400040002000000094
:104C2000000100010001000100010001000100017C
:104C300000004000400020000000000000000000D4
:104C400000000098012401440144014400FC0004D8
:104C500010001FFC0088010401040088007000009F
:104C600000000070008801040104010400880000B5
:104C70000000007000880104010411081FFC0004FA
:104C8000000000F8014401440144014400C8000050
:104C90000000010401040FFC1104110411001800AC
:104CA000000000D601290129012901C901060000DF
:104CB00010041FFC008401000100010400FC00043A
:104CC00000000104190419FC0004000400000000A5
:104CD0000000000300010101190119FE000000009D
:104CE00010041FFC0024004001B4010C010400006A
:104CF0000000100410041FFC000400040000000069
:104D0000010401FC0104010001FC0104010000FC9C
:104D1000010401FC008401000100010400FC000406
:104D2000000000F8010401040104010400F800007F
:104D3000010101FF008501040104008800700000EA
:104D400000000070008801040104010501FF00015A
:104D50000104010401FC0084010401000180000041
:104D6000000000CC0124012401240124019800004A
:104D700000000100010007F8010401040000000028
:104D8000010001F8000400040004010801FC000413
:104D9000010001800170000C001001600180010021
:104DA00001F0010C003001C00030010C01F00100E5
:104DB00000000104018C00740170018C01040000EA
:104DC000010101810171000E0018016001800100E4
:104DD00000000184010C013401440184010C000035
:104DE000000000000000000001003EFC4002400204
:104DF0000000000000000000FFFF000000000000B5
:104E00000000400240023EFC0100000000000000E3
:104E10000000600080008000400040002000200072
:104E200020002B002D003C00416E676C652050492E
:104E300044005475726E2050494400436172205002
:104E40004944004952205044004952313A25642CCB
:104E50004952323A2564004952333A25642C49526A
:104E6000343A2564004C3A25642C523A25640042B9
:104E700061736553706565643A256400593A252E5F
:104E80003166004B503A252E316620202573004BA9
:104E9000443A252E32662020257300443A257300BB
:104EA0004B643A252E32662573004B693A252E3223
:104EB000662573004B703A252E32662573005265C5
:104EC0006164204572726F720D0A0000F04E00009E
:104ED0000000202030000000783A0000204F000041
:104EE0003000202050150000903A00000000000023
:104EF0000000000000006042000000009A99193F85
:104F0000010000000AD7A33C000000400AD7233C60
:104F1000000000400A000000010000000000000046
:04000005000000C136
:00000001FF
