:020000040000FA
:1000000008162020D5000000D9000000DB00000009
:1000100000000000000000000000000000000000E0
:10002000000000000000000000000000DD000000F3
:100030000000000000000000DF000000E100000000
:10004000E3000000D51D0000E3000000E300000015
:10005000E3000000E3000000E3000000E300000014
:1000600000000000E3000000E300000000000000CA
:1000700000000000E3000000E3000000E3000000D7
:100080002D360000E3000000E3000000E300000064
:10009000E3000000E300000000000000000000009A
:1000A000E3000000E300000000000000000000008A
:1000B000E300000000000000E3000000E300000097
:1000C0000348854600F014FD004800472152000017
:1000D0000816202003480047FEE7FEE7FEE7FEE79C
:1000E000FEE7FEE7C1000000F8B500242546002920
:1000F00004DA0E46012400214042B141002B04DA0B
:100100001E46002352420125B34100F025FB8C46D8
:1001100017461E46AC4203D0002540428D41AC46F6
:10012000002C02D0002657429E4161463A46334693
:1001300001B0F0BD30B5434351435C18010C130CC2
:100140000D465D432C1980B292B20546554351438A
:100150000A0C09044D1962415843010C000440196E
:10016000514130BD30B504460020034600E05B1C21
:10017000934203D2E05CCD5C401BF8D030BDF8B5B3
:1001800002464A40D40F42004B0052085B089A4294
:1001900002D20246084611464A0023D0C30D4A0047
:1001A000DDB2120EAD1A202D35DA49020126490AB8
:1001B000F6058A19002C00D0524220214F1B11460F
:1001C000B9402A411018C20D9A4221D0002C17D0F4
:1001D000012D08DCDA05801AD20F8019D207DBB2B4
:1001E00000F015FBF8BDDA05801A012340001B065C
:1001F000C01880185A428018CA0F1043490007E0FF
:100200004908C2071143DA05801A8019400880188E
:1002100000F0F5FAF8BD61000122511A001BF7E762
:100220000122D2075140AAE70122D2075040A6E797
:10023000024670B54A40D30FDB0740002DD04A007C
:100240002AD0010E140E000212020919400A520AA5
:100250008418E50104465443000A120A2E04504350
:10026000A4194219200CC543AA18120C0125AD038C
:10027000521C521912047F39240400D0521C10431E
:1002800001D44000491EC2B20C06C0092018401C0F
:100290004008802A02D003E0002070BD40084000E2
:1002A000002900DA0020184370BD70B502464A40AC
:1002B000D50F40004A00ED0740085208002814D02E
:1002C000002A12D0C40DD30D41020120C0055202F4
:1002D000490A520AE41A091812187D34914201D3CE
:1002E000641C00E04900002C01DA002070BD0023EE
:1002F000914201D3891A0343400849000028F7D1ED
:1003000000290AD0914202D10121C90705E091429A
:1003100001D2012101E00121C943E005C0184019C3
:1003200000F06DFA70BD0000F0B507460846584071
:1003300087B0C00F049048000E4659004008490895
:10034000BC1A884105D2384631461E4617460B4630
:1003500002465800400810434CD0300D0390400531
:100360005900400D490D0590401A0290402872DA5C
:1003700018030121000B090508430190049800921D
:10038000002805D001995242002088410092019036
:10039000029840210A1A0199009800F00DFA0546CA
:1003A0000C466B4607CB00F017FAC0197141039A4F
:1003B0000E0D0023D71756401A467A40164344D0F4
:1003C000049A002A2DD0029A012A039A15DC1205FC
:1003D000C01A914101263605001C7141D20F059EBD
:1003E000D2070093019202962A46234600F055FA5E
:1003F00007B0F0BD38463146FAE71605224A0F46E7
:10040000B218C01AB74101210905001C4F4100185C
:100410007F41114618187941E20F10436D1964416C
:1004200013E0E2076D0815436408C2071443039AFA
:1004300001261205C01A91413605001C7141CE07F4
:10044000400830434908C01851412A46234600F06D
:1004500017FACDE7FFE7049801224000C117121AEE
:1004600000238B4104983146C417381AA141EEE7A6
:1004700030B40124E407634030BC55E730B40124B4
:10048000E407614030BC4FE70000E0FFF0B51FB467
:1004900088B00B990998002448400999C00F490079
:1004A00049080991C0070B990090490049080B9130
:1004B00009990898A64608431CD00B990A98084346
:1004C00018D0099801244000420D4800410D0998B8
:1004D00024050003000B204309900B980003000B38
:1004E00020430B9050181C494018002201901446DC
:1004F000104605E0002001460DB0F0BD032801DAEA
:10050000034600E003239C46C11A0AAE0AE05F00DE
:1005100008ADED5B4F00F75B7D430027AA187C41D7
:10052000491C5B1E6145F2DD410004AB5A522104B7
:10053000120C0A43240C401C0828DFDB01980290AF
:100540000099704601910090059B049A07990698BE
:1005500000F0A3F9D0E700000DFCFFFF0122D20755
:10056000002800DB101A002900DB511A814201D853
:1005700001207047002070470122D207002800DBCD
:10058000101A002900DB511A814201D20120704764
:10059000002070470122D207002800DB101A002932
:1005A00000DB511A814201D30120704700207047BF
:1005B0000122D207002800DB101A002900DB511AA3
:1005C000814201D901207047002070470122D207E3
:1005D000002800DB101A002900DB511A814201D1EA
:1005E000012070470020704710B5002904DB0C463D
:1005F0000121C9074042A141002B04DB1C46012315
:10060000DB075242A341801A994101D3012010BD5A
:10061000002010BDC217C10F504010B54018CA07C6
:100620009623002100F0F3F810BD10B500229623A8
:10063000114600F0ECF810BDC20F4100400201234A
:10064000400ADB05D207090EC0187F2901DA002015
:100650007047962903DC9623591AC84001E0963961
:100660008840002AF4D040427047C20FD2074000B1
:1006700040080BD0C10D0723DB01C9184002090552
:10068000400A1143C2084007114370470020014649
:100690007047CB0FDB07490010B5490802460A43F3
:1006A00007D00A0D07240903E401090B121B002AD5
:1006B00001DC002010BDC900440F0C43C100E0184C
:1006C000D205801800F09BF810BD70B504460029D3
:1006D00003D000202022012310E0002801D00020B8
:1006E000C043C046C0460DE02546D5408D4205D3E7
:1006F0000D469540641B1D46954040191546521EF7
:10070000002DF1DC214670BD70B5002504462E4653
:10071000002911D0002C01DA01254442002901DA18
:10072000012649422046FFF7D0FFB54200D04042A3
:10073000002D00D0494270BD002C02DA0121C9070A
:1007400002E0002C00DD03490846C046C0462146B1
:1007500070BD0000FFFFFF7FF0B51FB4064600200C
:1007600082B005464024019100901BE00199224689
:100770000F46304600F0D4F9049A059B801A99413F
:1007800010D310461946224600F016F8361A8F414B
:100790000197224601200021009F00F00DF8381833
:1007A0004D4100902046641E0028DFDC019B00982C
:1007B0002946324607B0F0BD10B5202A04DB0146B9
:1007C000203A9140002010BD914020239C1A0346FE
:1007D000E3401943904010BD10B5202A06DBCB172B
:1007E0000846203A1041C1170B4306E00B4613415F
:1007F000D0402024A21A91400843194610BD002978
:1008000004DA401C490001D140084000704770B430
:100810000024050C05D11024000402D1002921D0A8
:100820001124050E01D100020834050F01D1000189
:10083000241D850F01D18000A41C002801DB40008D
:10084000641C002908D020252E1B0D46F540A14030
:1008500000D001212943084301061B1B000ADB1DB0
:1008600002D5002070BC7047DB05181880180029DD
:10087000F8DA401C4900F5D170BC400840007047D0
:1008800010B5002B08DA0024401C614192185B412E
:100890001A4301D14008400010BDF0B51FB482B02A
:1008A00005460C0003D0084606F0F2F902E006F017
:1008B000EFF920300246009021462846FFF77CFFE2
:1008C000049B059A04460F4618431143084314D06D
:1008D000184610431BD0009840210A1A1846059963
:1008E00000F01EF905460E46009A05990498FFF798
:1008F00063FF084305D0012004E02046394607B0D5
:10090000F0BD0020C11705430E432C433743009927
:100910000E986305401A7905E40A00220C43FD0A8B
:100920000A3002D500200146E9E7010510196941A6
:100930000C9C0D9D00196941FFF7A2FFDFE7000045
:10094000F0B50C465C4085B0E40FE40703944C001E
:10095000002664085900944649080246029622433C
:1009600021D062460A431ED06200570D4A000E0392
:100970002303550D012402462C492405781B1B0B2B
:10098000360B401823432643614600901C46501AFC
:10099000B44103D30098401C009002E092180098E4
:1009A0005B41002803DA0020014605B0F0BD0020BD
:1009B000012109050746864611E064461D46141BC1
:1009C000B54106D36546521BB341744607430C43F9
:1009D000A646CD0740084908284392185B410546C2
:1009E0000D43EAD11046184313D0604619465040D3
:1009F0007140084306D06046101AB34106D2012266
:100A0000002306E000220123DB0702E00122D2439B
:100A10005310009874460105381C6141029C039DE7
:100A200000196941FFF72CFFBFE70000FD0300003C
:100A300070B54B005B0803430BD04B005C0D0026E8
:100A400033466542B341D417AD1AA34102DB0020FF
:100A5000014670BD12053018514170BD4A000903AE
:100A60000123090B1B0519430A4B10B5520D9A427D
:100A700002DA0020014610BD064B34339A4203DCF3
:100A80009A1A00F04DF810BD034BD218FFF794FEF0
:100A900010BD0000FF030000CDFBFFFF10B50029D3
:100AA00004DB0124E40740428C412146002B04DB97
:100AB0001C460123DB075242A3418B4200D18242F4
:100AC00010BD000010B5002904DB0124E4074042FA
:100AD0008C412146002B04DB1C460123DB075242DC
:100AE000A341994200D1904210BD000000000000D7
:100AF0001CB5094800900948019005460126009C54
:100B000005E0E36807CC33430C3C98471034AC4213
:100B1000F7D3FFF7D9FA0000589700007897000044
:100B200010B5202A04DB0846203AD040002110BD31
:100B30000B46D340D0402024A21A914008431946C6
:100B400010BDFEB500231A461B1A8A4103DB0020A4
:100B5000014603B0F0BD4A000D0301212D0B09052C
:100B6000520D0D43D10702D100186D41521E511094
:100B7000FF31FF310131002704463E4638460097D9
:100B800001910246012100200905FFF7C9FFC319A1
:100B90007141F818324684468E464A4161462846DD
:100BA000611A904104D36046241A954176461F4647
:100BB000241900986D41401C00903428E1DDF9199A
:100BC00030467041091BA84103D20022D24313468C
:100BD00001E00022134601980105381C7141FFF71E
:100BE0004FFEB6E780B586B013480168002002F0DA
:100BF0004DFD059011480190016864200290484322
:100C0000FFF708FD0599FFF70BFBFFF715FD0199AD
:100C100002460298049209684843FFF7FBFC0599D5
:100C2000FFF7ADFAFFF708FD03900498039902F06F
:100C300071FC06B080BDC046AC04202040002020DE
:100C400082B001900199881E001F00BFFCD2009065
:100C500002B0704784B0039002910192039800683B
:100C60000090009801998843009000980299019A99
:100C7000114008430399086004B0704784B00390A2
:100C800002910192039800680090009801998843AE
:100C9000009000980299019A114008430399086056
:100CA00004B0704784B003900291019203980068E9
:100CB0000090009801998843009000980299019A49
:100CC000114008430399086004B0704784B0039052
:100CD000029101920398006800900098019988435E
:100CE000009000980299019A114008430399086006
:100CF00004B0704784B00390029101920398006899
:100D00000090009801998843009000980299019AF8
:100D1000114008430399086004B0704782B0019005
:100D20000091009B0199C44A88581843885002B02A
:100D30007047C04682B001900091009B0199BE4A65
:100D400088581843885002B07047C04682B001905E
:100D500000910098019995225201885002B0704785
:100D600082B001900091009801999522520188501B
:100D700002B0704782B001900091009801999522CD
:100D80005201885002B0704782B0019000910098E3
:100D9000019995225201885002B0704781B00090AD
:100DA00000988100734A885801235B0618438850D5
:100DB00001B0704781B00090009881006D4A88585A
:100DC00001235B061843885001B0704782B0019040
:100DD0000091009B0199034A88581843885002B03B
:100DE0007047C0462810000082B001900091009822
:100DF0000199074A885002B07047C04682B00190FE
:100E0000009100980199024A885002B07047C0468C
:100E1000D012000081B0009000990120C202A248C7
:100E2000885001B07047C04682B00190009101988F
:100E3000024940580099084002B07047381000003D
:100E400081B00090009881004A4A1848885001B04B
:100E50007047C04610B584B0069C03900291019281
:100E600000930298019908430099084306990843A2
:100E70000E490843039989003E4A885004B010BDCA
:100E800010B584B0069C03900291019200930298E1
:100E90000199084300990843069908430349084308
:100EA00003998900334A885004B010BD81000400C2
:100EB00081B00090009881002E4A8120885001B0B6
:100EC0007047C04681B0009000988100294A812077
:100ED000885001B07047C04682B0019000910098E0
:100EE0001D49084301998900224A885002B0704781
:100EF00010B584B0079C069C039002910192009368
:100F000002980199084300990843069908430799F4
:100F100008431149084303998900164A885004B0D0
:100F200010BDC04610B584B0079C069C039002918A
:100F30000192009302980199084300990843069989
:100F40000843079908430449084303998900094A5B
:100F5000885004B010BDC0468000040082B00190EB
:100F6000009100988021084301998900014A885026
:100F700002B070470480424082B001900091019815
:100F80002721C90140580099084002B0704782B03B
:100F90000190009101982721C9014058009908400B
:100FA00002B0704782B00190009101982721C901D9
:100FB00040580099084002B07047000081B000908E
:100FC00000998D4A8D48885001B0704782B00190D9
:100FD0000091009801990C4A885002B07047C046B1
:100FE00082B00190009100980199074A885002B0A0
:100FF0007047C04682B00190009100980199024A62
:10100000885002B07047C0469012000082B0019034
:101010000091009B01999D204201885818438850F7
:1010200002B0704782B00190009100980199024A85
:10103000885002B07047C0464810000081B0009050
:10104000009909204202885801231B021843885046
:1010500001B0704781B000900099084A8858012378
:101060001843885001B0704781B000900099034A3E
:10107000885804231843885001B070472812000094
:1010800081B0009000990120C2020748885001B049
:101090007047C04681B0009000990120C20202480A
:1010A000885001B07047C0460100002680B584B06A
:1010B0000390029101A80280694600200880FFE7A2
:1010C0006846008801A90988884215DAFFE7039875
:1010D00000F06AF8002808D1FFE7039802996A46F1
:1010E0001288895C00F030F900E005E0FFE7009825
:1010F000401C69460880E3E76846008804B080BD6C
:1011000080B582B00190019800F008F9FFE70198DE
:1011100000F03AF8002801D1FFE7F8E7019800F065
:1011200007F902B080BD000081B00090009802492C
:10113000405801B07047C0461812000082B00190BC
:1011400000910198024940580099084002B0704748
:101150003010000082B001900198044940580221EB
:10116000084000906846007802B0704734120000D2
:1011700081B000900098124940580F210840414228
:10118000484101B07047C04681B0009000980C49BA
:1011900040580F2109020840024940184142484185
:1011A00001B0704700F8FFFF81B00090009804493B
:1011B00040580F21090208404142484101B07047A0
:1011C0003C12000081B00090009802494058C0B223
:1011D00001B070471C12000081B000900099064ACF
:1011E0000648885001B0704781B000900099024ACB
:1011F0000248885001B0704704080000030000B1A5
:1012000081B000900099434A0020885001B0704797
:1012100080B584B0019101460198039102A908802C
:101220000398092252028018098803225202FFF70C
:1012300011FD04B080BD000080B582B00190009126
:10124000019809494018009909780C22FFF73EFDE2
:101250000198012109034018009949780722FFF7F6
:1012600035FD02B080BDC0460410000080B584B0DA
:10127000019101460198039102A908800398314A1F
:101280008018098807221202FFF7E4FC04B080BD31
:1012900080B584B0019101460198039102A90870BC
:1012A0000398284A801809780722FFF7D3FC04B076
:1012B00080BDC04682B001906846017000780199F7
:1012C000014A885002B070472412000010B586B061
:1012D0000192024601980592049103AA107002A897
:1012E0000380059809494018049949001278114370
:1012F000074AFFF7FFFC05980649401802990904C0
:10130000C91D054AFFF7F6FC06B010BD101200001B
:10131000FF070000141200000700FF0F81B00090CB
:101320000099084A885880231843885001B07047B4
:1013300081B000900099034A8858802398438850D0
:1013400001B070473812000082B001906846017009
:101350000078019991225201885002B0704782B002
:1013600001906846017000780199912252018850DD
:1013700002B07047F0B584B001242202344B1968E2
:1013800003929143196062490D686D04FCD5457E56
:1013900025409E69A64374199C612024045D0325A1
:1013A0002C40DE69AE433419DC611F4C25680526EC
:1013B0002660466A37681F6276685E6207262E409E
:1013C0002660C4697F252D02DE69AE436406640C85
:1013D0003419DC610768456882680092C668026952
:1013E0000192426902929A69104C14403A07120B1A
:1013F0002D03ADB2AA183243009D2D072D0D1543C4
:10140000019A1543029A1543007E2843084A024078
:10141000101998611868039A1043186008688005CD
:10142000FCD504B0F0BDC046001340408D00F0FF75
:1014300072FF0F0006490868012290430860704758
:101440000349086801221202904308607047C046B1
:1014500008010B402D49086801221203104308605F
:101460007047C04681B00090009803490860034966
:101470000348086001B0704700030B4004030B40B1
:10148000010000E481B0014668460170007802491D
:10149000086001B07047C04608030B4080B582B0B9
:1014A000014601A8018001880F2002021748FFF7BA
:1014B000D1FB02B080BDC04680B582B0014601A814
:1014C0000170017802480322FFF7C4FB02B080BD1F
:1014D00000010B4080B582B0014601A8017001787F
:1014E0000A483022FFF7B6FB02B080BD074988608A
:1014F000074802689202FCD5012212040B681343CC
:101500000B600168C906FCD57047C04604010B405A
:1015100004020B400949086805221043086070471F
:1015200081B000900549042008600098401E0449DD
:10153000086004490020086001B0704710E000E036
:1015400014E000E018E000E080B58CB00B900A9148
:101550000A984079C00700285CD0FFE70A98007914
:101560000790002804D0FFE7079820280CD018E047
:101570000B9888210691022200F0B8F906990B9881
:10158000032200F0B3F919E00B982121090105911C
:10159000022200F0ABF905990B98032200F0A6F99E
:1015A0000CE00B980521C9010491022200F09EF97C
:1015B00004990B98032200F099F9FFE70B98002299
:1015C000029202230193114600F0AAF9029A0B98A5
:1015D00003230393114600F0A3F90199029B0B9892
:1015E000009119461A4600F0D3F9029B03990B9813
:1015F000009119461A4600F0CBF9019B029A0B980C
:10160000114600F0ABF9029A039B0B98114600F0CB
:10161000A5F9FFE70A98006808900A98007908A9D8
:1016200008710A98807948710B9800F031F80CB075
:1016300080BD000081B000900099024A01208850CE
:1016400001B070470811000082B001900091009B2A
:101650000199034A88581843885002B07047C04621
:101660002810000081B0009000990120C2020248B9
:10167000885001B07047C0460100002681B000903C
:101680000098812149014058C0B201B07047000064
:1016900080B58AB0099008910898007907900028D1
:1016A00004D0FFE70798202812D029E0099808996C
:1016B0000968491E00F0C6F90998882106910022A0
:1016C00000F014F906990998012200F00FF92AE0B8
:1016D000099808990968491E00F0B4F909982D493C
:1016E0000491002200F002F9049909980122059260
:1016F00000F0FCF805990998490700F095F912E007
:10170000099808990968490800F09CF90998052189
:10171000C9010391002200F0E9F803990998012218
:1017200000F0E4F8FFE709980023019319461A46F0
:1017300000F0F6F8019A099801230293114600F08F
:10174000EFF8019B0998009319461A4600F020F91A
:10175000019B02990998009119461A4600F018F960
:10176000019B099819461A4600F0F8F8019A029B65
:101770000998114600F0F2F80998BD494018089AF6
:1017800011795279114302221143034AFFF78AFA71
:101790000AB080BD01040000BFFF003080B584B0F6
:1017A0000390029103980299496800F04BF902985E
:1017B00000780190222856D80198810001A0405855
:1017C0008746C0465D180000671800005D180000DD
:1017D000671800006718000067180000671800000D
:1017E00067180000671800006718000067180000FD
:1017F00067180000671800006718000067180000ED
:101800006718000051180000671800005118000008
:1018100067180000671800006718000067180000CC
:1018200067180000671800006718000067180000BC
:1018300067180000671800006718000067180000AC
:1018400067180000511800006718000051180000C8
:1018500003980121490700F0E7F805E0039800210B
:1018600000F0E2F800E0FFE703980299096900221E
:10187000009200F0ADF8009B03980299C9681A46DF
:1018800000F04EF802990878097A08430399784ADB
:10189000885004B080BDC04681B000900099B54A20
:1018A000B548885001B0704782B00190009100980F
:1018B000019911221202885002B0704780B584B09D
:1018C0000390029101A802700399224A891800919D
:1018D000017800988900401800900098029907222A
:1018E0009204FFF7DFF904B080BDC04680B584B034
:1018F0000390029101A802700399074A8918009188
:101900000178009889004018009000980299034AD5
:10191000FFF7C8F904B080BD70180000DB06C00FE7
:1019200010B586B005900491039202A80370059942
:10193000084A89180191017801988900401801909E
:1019400001980499039A1143034AFFF7ABF906B0D3
:1019500010BDC046301800007777020010B586B081
:1019600005900491039202A8037005993122D201D7
:101970008918019101780198890040180190019817
:101980000499039A11438F22FFF78CF906B010BD1A
:1019900010B587B000910446009809990694059007
:1019A0000492039302A801700699084A89180191CC
:1019B000017801988900401801900598049908431E
:1019C000039908430199086007B010BD5018000042
:1019D00084B00390029101A802700399064A891805
:1019E00000910178009889004018009002980099B1
:1019F000086004B07047C0461018000082B0019023
:101A00000091009800780199774A885000984078B2
:101A100001990122120388500098807801998D4A1B
:101A2000885002B07047C04680B582B001900091E6
:101A300001980F494018009903221207FFF732F965
:101A400002B080BD82B00190009100980199024AD5
:101A5000885002B07047C0460818000081B000905E
:101A60000099034A885801231843885001B07047F1
:101A70000418000081B000900099112002028858DB
:101A800001239843885001B0704781B000900099BD
:101A900011200202885801231843885001B0704772
:101AA00081B00090009911200202885801235B0444
:101AB0001843885001B0704782B001900091009B9C
:101AC0000199034A88581843885002B07047C046AD
:101AD0002810000081B0009000991120020288585F
:101AE00004231843885001B07047000081B0009073
:101AF00000990120C2020248885001B07047C046D8
:101B00000100002680B582B0019000910198FFF796
:101B1000B1FF0198112109024018009A11889378A9
:101B2000194392881143084AFFF7A8F801982549FC
:101B30004018009A9179D3791943127A11437E2281
:101B4000FFF79CF802B080BD1867020081B00090DA
:101B50000098034940580121084001B07047C04631
:101B60000811000081B000900099024A0248885094
:101B700001B0704704080000030000B180B584B0D4
:101B800003900291019203980B49401802990B4A65
:101B9000FFF760F803980A49401801993F22FFF7C0
:101BA00059F80399074A8818895801221140FFF70C
:101BB00051F804B080BDC04610110000FFFF0000C6
:101BC000141100000411000082B0019000910098EF
:101BD00000780199044A88500098407801990122C0
:101BE0001203885002B070470810000080B582B020
:101BF00001900091019811210902401800990322D7
:101C0000D203FFF727F802B080BD000080B584B092
:101C1000019101460198039102A9087003980D4AA9
:101C2000801809787022FFF715F804B080BDC0460F
:101C300080B584B0019101460198039102A9087012
:101C40000398044A801809780722FFF703F804B0C4
:101C500080BDC0460C11000082B001906846017042
:101C60000078019989225201885002B07047000023
:101C700080B584B003A90020087002AB01931870EE
:101C800068207521012203F043FA494804F0DCFF83
:101C900001980078682804D0FFE70320FFF7E2FBF3
:101CA000FFE703F0BDFC002871D1FFE7782004F0C6
:101CB000A9FC002804D1FFE73D4804F0C5FF03E07C
:101CC00003A901200870FFE7782003F011FB00282A
:101CD00004D1FFE7374804F0B7FF03E003A9012070
:101CE0000870FFE7C82004F017FC002804D1FFE7C4
:101CF000314804F0A9FF03E003A901200870FFE7C1
:101D000002F06AF9002804D1FFE72C4804F09CFF98
:101D100003E003A901200870FFE7294803F016FA41
:101D200002F0CEFB002804D1FFE7264804F08CFF28
:101D300003E003A901200870FFE7FF20743001F0E1
:101D4000BBFF002804D1FFE71F4804F07DFF03E03C
:101D500003A901200870FFE7C82002F0C9FA002893
:101D600004D1FFE7194804F06FFF03E003A9012045
:101D70000870FFE704F0BAFE012004F059FA0028C9
:101D800004D1FFE7124804F05FFFFFE703E0032000
:101D9000FFF768FBFFE703A80078002806D0FFE7FD
:101DA00003F076FA0320FFF75DFBFFE704B080BD88
:101DB0000F970000EA96000056960000FF9500007D
:101DC00044002020C4960000319600007C9600005C
:101DD000A096000080B582B0032041063F48FFF77F
:101DE00023F83F4901910860112001053D48FFF7A4
:101DF0001BF8014601983C4A1160C0788007002812
:101E000013D5FFE7012081063448FFF7C0F800280A
:101E100005D1FFE735490868401E086004E03349F2
:101E20000868401C0860FFE719E02D48C0784007AB
:101E3000002813D5FFE7012041062848FFF7A7F83F
:101E4000002805D1FFE729490868401C086004E024
:101E500026490868401E0860FFE7FFE7FFE72248C1
:101E60008078C006002813D5FFE7012001061D4831
:101E7000FFF78DF8002805D1FFE71D490868401ECF
:101E8000086004E01A490868401C0860FFE719E090
:101E90001548C078C007002813D0FFE701200105CE
:101EA0001048FFF774F8002805D1FFE710490868CB
:101EB000401C086004E00E490868401E0860FFE707
:101EC000FFE7FFE7032041060448FEF733FF112038
:101ED00001050448FEF72EFF02B080BD00000A4055
:101EE000B405202000200A40B805202094002020BE
:101EF0009000202010B584B003AC2080029101A88E
:101F000002800093002004B010BD10B584B003AC73
:101F10002080029101A802800093002004B010BD2F
:101F200010B588B00191014601980A9C06AC218049
:101F300005A90880049203AA138001200290069844
:101F4000400809781278049BC0B204F099FC029012
:101F50000298002804D1FFE707A90020087003E0D9
:101F600007A901200870FFE707A8007808B010BD96
:101F700010B588B00091014600980A9C06AC2180FB
:101F800005A90880049203AA138002AB01930120E3
:101F900018700698400809781278049BC0B204F0C3
:101FA000F9FC0146019801700078002804D1FFE790
:101FB00007A90020087003E007A901200870FFE7C7
:101FC00007A8007808B010BD80B582B0014601A80E
:101FD0000180008801F0ECFD02B080BD80B50548AD
:101FE000FFF7B8F8002803D1FFE703F051F9FFE746
:101FF00080BDC04600000F40B0B586B001931446C6
:10200000019A0B46014605A8017004A90B7003ABA9
:102010001C700292534A12681469007840000978D3
:10202000029A1B78C8250095A04706B0B0BDC046EF
:1020300010B588B00C46014607A8017006A90C70BF
:1020400005AC227004AA02921370464A1268146901
:10205000007840000978C822009203AA0123A04713
:1020600002980078002809D0FFE703A8007805A9A6
:102070000A78012191400843019008E003A8007804
:1020800005A90A780121914088430190FFE7019852
:1020900003AA107033480068C46807A8007840009D
:1020A00006A90978C82300930123A04708B010BDF2
:1020B000B0B58AB014460D4601460E9A08A80170C4
:1020C00007A90D7006AD2C7005AC237004AB1A7017
:1020D000244A12681469007840000978C8220092E6
:1020E00003AA0123A047002833D1FFE706A80578FB
:1020F000691CFF231A468A4005A90C78641BE41D5D
:10210000E3401A4302AB1A700A780821891A049A2C
:102110008A4004A90A7002780720821A0878D04001
:10212000087002990398084003AA10700499039854
:10213000084310700B480068C46808A80078400085
:1021400007A90978C82300930123A04709A90870AB
:1021500003E009A901200870FFE709A800780AB088
:10216000B0BDC0465800202080B59EB00A201A900D
:1021700001F000FC01461A981DAA1B92117001F093
:102180005BFC01461B981CAA11700078012822D123
:10219000FFE7E9480068002806D1FFE7E84908683A
:1021A00042425041086015E0E348006801280AD027
:1021B000FFE7E1480068022805D0FFE7DE48006835
:1021C000032806D1FFE7DD490878424250410870F4
:1021D000FFE7FFE712E01DA8007802280DD1FFE716
:1021E000D5480168491C01600068042804DBFFE74A
:1021F000D14900200860FFE7FFE7FFE71CA800784F
:10220000012800D051E1CC48006801284AD1FFE7FD
:10221000CC480078002813D1FFE7C8480178D1489E
:10222000D14A18920029199001D11898199019993A
:10223000D04817900068FDF7A2FF1799086018E0D2
:10224000C0480078022813D1FFE7BC480178BE4897
:10225000BE4A15920029169001D11598169016992C
:10226000C34814900068FDF78AFF14990860FFE7DF
:10227000FFE7C04800680021FEF78CF9002804D170
:10228000FFE7BC4900200860FFE7B948006800216B
:10229000FEF780F9002804D1FFE7B5490020086067
:1022A000FFE701E1A448006802286FD1FFE7A548D5
:1022B0000078002813D1FFE7A0480178A948AA4A6E
:1022C00012920029139001D1129813901399A748E4
:1022D00011900068FDF753FF1199086031E09948AB
:1022E0000078012813D1FFE7944801789648974A6F
:1022F0000F920029109001D10F98109010999848D2
:102300000E900068FDF73BFF0E99086018E08D48BD
:102310000078022813D1FFE7884801788A488B4A61
:102320000C9200290D9001D10C980D900D998B48BD
:102330000B900068FDF723FF0B990860FFE7FFE7AC
:10234000FFE78A4800680021FEF724F9002804D13D
:10235000FFE7864900200860FFE781480068002108
:10236000FEF718F9002804D1FFE77D490020086036
:10237000FFE77A4800680021FEF70CF9002804D135
:10238000FFE7764900200860FFE78CE06A480068B4
:10239000002811D1FFE7694801780020C043099067
:1023A000012000290A9001D109980A900A9A6A49E5
:1023B00008688018086075E05F480068032870D1DD
:1023C000FFE760480078002814D1FFE75B480178F8
:1023D000FF2080055F4A07920029089001D10798E5
:1023E000089008995A4806900068FDF7C8FE0699BB
:1023F000086031E053480078012813D1FFE74F48C7
:1024000001785148514A04920029059001D104985D
:10241000059005994E4803904068FDF7B0FE03997A
:10242000486018E047480078022813D1FFE7434886
:1024300001784548454A01920029029001D101984E
:1024400002900299424800908068FDF798FE00993A
:102450008860FFE7FFE7FFE73D4800680021FEF7DF
:1024600099F8002804D1FFE7394900200860FFE708
:10247000374840680021FEF78DF8002804D1FFE7B7
:10248000334900204860FFE7314880680021FEF7AB
:1024900081F8002804D1FFE72D4900208860FFE77C
:1024A000FFE7FFE7FFE7FFE744E01CA8007802280A
:1024B0003FD1FFE720480068012807D1FFE7214905
:1024C0000878424250414000087031E01A480068E4
:1024D00002280DD1FFE71B480178491C01700078E4
:1024E000032804DBFFE7174900200870FFE71EE020
:1024F00011480068002806D1FFE7104908784242D9
:102500005041087012E00C48006803280DD1FFE725
:102510000C480178491C01700078032804DBFFE7B0
:10252000084900200870FFE7FFE7FFE7FFE7FFE744
:10253000FFE7FFE71EB080BD980020208800202024
:1025400014002020DC0420200AD7233C0AD723BC17
:10255000080020200000C0BF40002020A804202048
:1025600038002020CDCCCC3DCDCCCCBD3C002020B3
:10257000180020201C00202080B582B0054B01935C
:10258000682075210122FFF737FD0198007802B01D
:1025900080BDC046C604202080B582B0FFF7ECFFA6
:1025A000682804D0FFE70320FEF75CFFFFE7022066
:1025B00000F012F8032000F02DF80020019000F048
:1025C0001AF8019800F04FF8019800F03FF80198D0
:1025D00000F02FF802B080BD80B582B0014601A89E
:1025E00001700078009068206B2102220323FFF71E
:1025F0005FFD02B080BD80B582B0014601A80170C8
:102600000078009068201C2104220223FFF750FD6F
:1026100002B080BD80B582B0014601A8017000788B
:10262000009068201B2104220223FFF741FD02B025
:1026300080BD80B582B0014601A801700378682092
:1026400037210122FFF7F4FC02B080BD80B582B0D3
:10265000014601A80170037868206A210522FFF76E
:10266000E7FC02B080BD80B582B0014601A80170D0
:10267000037868206B210622FFF7DAFC02B080BDE8
:1026800080B5B2B000F0A2F9B748006831900328D5
:1026900000D964E13198810001A040588746C046C6
:1026A000B1260000D9260000892700007328000009
:1026B000C4484278817809028A18C17800790002FA
:1026C0004318AF483090C04904F0CEFA309A002148
:1026D000084600F06DFB42E1B54A00212991084609
:1026E00000F066FBB3480068FDF7BFFF2A902B910E
:1026F000A0482C900178A0482D90A04A2E92002945
:102700002F9001D02E982F902B9B2A9A2F980090D3
:102710009B482590A84904F0A7FA259A29981021EA
:1027200000F046FBA5480068FDF79FFF02462D9884
:1027300026920A462C99279209780229289001D0DE
:102740002E9828902598279B269A289900919C4995
:1027500004F08AFA259A2998202100F029FB8C4858
:1027600001788C488C4A23920029249001D1239827
:1027700024902598249A894904F076FA2999259A73
:10278000642000F015FBEAE0854A00211C91084610
:1027900000F00EFB83480068FDF767FF1D901E9157
:1027A00074481F90017874482090744A219200293F
:1027B000229001D0219822901E9B1D9A2298009071
:1027C0006F4818906F4904F04FFA189A1C9810211E
:1027D00000F0EEFA74480068FDF747FF02462098C3
:1027E00019920A461F991A92097801291B9001D063
:1027F00021981B9018981A9B199A1B99009162496D
:1028000004F032FA189A1C98202100F0D1FA674897
:102810000068FDF72AFF0246209815920A461F9984
:10282000169209780229179001D0219817901898CC
:10283000169B159A17990091544904F015FA189AA5
:102840001C98302100F0B4FA514801785148524A9E
:1028500013920029149001D1139814901898149A87
:102860004E4904F001FA1C99189A642000F0A0FA6D
:1028700075E03E4A00210B91084600F099FA3C4869
:102880000C900068FDF7F1FE0D900E9139480F9005
:10289000017839481090394A11920029129001D0DC
:1028A000119812900E9B0D9A129800903448079040
:1028B000344904F0D9F9079A0B98102100F078FAFE
:1028C0000C984068FDF7D1FE0246109808920A461F
:1028D0000F990992097801290A9001D011980A905C
:1028E0000798099B089A0A990091274904F0BCF9B6
:1028F000079A0B98202100F05BFA0C988068FDF78E
:10290000B4FE0246109804920A460F99059209787F
:102910000229069001D0119806900798059B049A09
:1029200006990091194904F09FF9079A0B983021F4
:1029300000F03EFA164801781648174A029200291C
:10294000039001D1029803900798039A134904F069
:102950008BF90B99079A642000F02AFAFFE700F040
:102960003DF932B080BDC046980020200F95000090
:1029700008002020DC0420200D95000007950000B1
:10298000DA05202062950000589500004E95000061
:1029900088002020099500000B9500004995000053
:1029A000199500003C00202038002020A804202099
:1029B000219500001C0020203195000018002020E7
:1029C0003D950000C20520202795000080B582B00B
:1029D00001A900200870FFE701A8007807281EDC85
:1029E000FFE7694600200870FFE7684600787F2807
:1029F0000FDCFFE768460078C1009648411801A83F
:102A0000027800208854FFE70098401C694608704F
:102A1000EBE7FFE70198401C01A90870DCE700F034
:102A2000DDF802B080BDC04686B0034605A803703D
:102A300004AB197003A90A706A460021117000786E
:102A40007F2805DCFFE704A80078402801DBFFE7CA
:102A50002DE004A90878C2080720821A02AB1A7078
:102A60000A78024001A90A700978411A01208840B9
:102A70006946087003A8007800280CD0FFE7009B87
:102A800005A80078C1007348411802A80278885C44
:102A9000184388540BE0009B05A80078C1006D48DE
:102AA000411802A80278885C98438854FFE706B072
:102AB0007047C04680B582B000F06EF8782001F013
:102AC00077F800F071F8AE200021019100F0ADF927
:102AD0000199D52000F0A9F90199502000F0A5F93D
:102AE0000199A82000F0A1F901993F2000F09DF97B
:102AF0000199D32000F099F90199084600F095F961
:102B00000199402000F091F901998D2000F08DF994
:102B10000199142000F089F90199202000F085F92D
:102B20000199022000F081F90199A12000F07DF9BE
:102B30000199C02000F079F90199DA2000F075F9C7
:102B40000199122000F071F90199812000F06DF9CE
:102B50000199EF2000F069F90199D92000F065F999
:102B60000199F12000F061F90199DB2000F05DF995
:102B70000199302000F059F90199A42000F055F98D
:102B80000199A62000F051F90199AF2000F04DF90C
:102B9000FFF71CFF02B080BD80B5012081030E4805
:102BA000FEF7E8F880BDC04680B5012081030A48E1
:102BB000FEF716FA80BDC04680B50120C103064865
:102BC000FEF7D8F880BDC04680B50120C103024899
:102BD000FEF706FA80BDC04600200A4080B584B0EA
:102BE00003A900200870FFE703A8007807282FDC5E
:102BF000FFE70398B030C0B20021019100F015F951
:102C00000199084600F011F90199102000F00DF922
:102C1000019802A90870FFE702A800787F2811DC5C
:102C2000FFE702A80078C1000A48401803A9097804
:102C3000405C012100F0F9F8FFE70298401C02A96E
:102C40000870E9E7FFE70398401C03A90870CBE789
:102C500004B080BDA000202080B5012001070E48EF
:102C6000FEF788F880BDC04680B5012001070A48FC
:102C7000FEF7B6F980BDC04680B50120C107064801
:102C8000FEF778F880BDC04680B50120C107024834
:102C9000FEF7A6F980BDC04600000A40B0B58AB074
:102CA00004460E9809AD2C7008AC217007A90A7073
:102CB00006AA137005AA1070089801AA1070079848
:102CC0002038087003A900200870FFE703A80078E7
:102CD00006A90978884264DAFFE706A800780C287C
:102CE0000CD1FFE707A800780C2141432F4840187A
:102CF00003A90978405C04A908700AE007A80078D5
:102D000001012948401803A90978405C04A908700A
:102D1000FFE702A900200870FFE702A80078072853
:102D200039DCFFE704A800780006002809D5FFE792
:102D300009A8007808A9097805AA1278FFF774FE97
:102D40000AE009A8007808A9097805AA1278534270
:102D50005A41FFF769FEFFE70498400004A9087094
:102D60000898411C08A80170007801A90978401A48
:102D700006A90978884208D1FFE7019808A90870D8
:102D80000998401C09A9087005E0FFE70298401C5B
:102D900002A90870C1E7FFE70398401C03A9087067
:102DA00094E70AB0B0BDC046FC8E0000888A0000DF
:102DB00080B586B005AB187004A801700392FFE7D8
:102DC0000398007800282ED0FFE705A800787B281C
:102DD00008DBFFE705A9002008700498103004A95B
:102DE0000870FFE704A800783B2808DBFFE705A987
:102DF0000020087004A90870FFF7E8FDFFE705A8A8
:102E00000290007804A90978039A127801230093AC
:102E10000C23FFF743FF02990598083008700398C8
:102E2000401C0390CCE706B080BD80B584B003AAF7
:102E3000107002A801700078002803D0FFE7FFF7A8
:102E4000C3FE02E0FFF7B8FEFFE701A9002008700B
:102E5000FFE701A8007807281ADCFFE7FFF7FCFE70
:102E600003A800780006002803D5FFE7FFF70CFF52
:102E700002E0FFF701FFFFE7FFF7F6FE03984000CF
:102E800003A90870FFE70198401C01A90870E0E75A
:102E9000FFF79AFE04B080BDB0B5A8B026A8019097
:102EA0008148219000908148814922AA27AB01F0F6
:102EB000A1F821980088C005002800D4F2E02298EB
:102EC000FDF7A8FB9D21C9050391FDF7EEF97949AE
:102ED000149108602398FDF79DFB0399FDF7E5F930
:102EE0007549119108602498FDF794FB0399FDF74B
:102EF000DCF97249129108602598FDF78BFB039964
:102F0000FDF7D3F9014611986D4A139211600068DC
:102F1000032189070991FDF78BF91399024614984B
:102F200005920968049101680846FDF728F912998D
:102F30000968FDF77DF90499024605980692FDF7A8
:102F400077F90699FDF71BF9FDF78FFB04F0B6FB47
:102F50005C4A20925C4B1F93FDF798FAFDF799FBB2
:102F600001461298594A116001680A910846FDF716
:102F700006F91399024614980B92096807910168A3
:102F80000846FDF7FCF8119909680C91FDF750F916
:102F9000079902460B980892FDF74AF90899FDF740
:102FA000EEF8FDF762FB02460C980F920A4609996B
:102FB0001092FDF73DF90A9902460B980D92FDF724
:102FC00037F90C9902460D980E92FDF731F90E99DA
:102FD000FDF726F97F21C905FDF7D1F8FDF745FB7F
:102FE00002460F980B46109904F0B0FD1F9B209AE3
:102FF000FDF74CFAFDF74DFB119B129A139904460D
:103000001498334D2C601B6816931268199200684F
:10301000179009681B91FDF70BF91999024616984C
:103020001592FDF705F91599FDF7A9F8014608462F
:10303000FDF7A5F8FDF719FB1D90084616991E909F
:103040000846FDF7F5F8179918900846FDF7F0F8CF
:103050001899FDF794F819991A900846FDF7E8F8C1
:1030600001461A98FDF7DCF81B991C900846FDF7FD
:10307000DFF801461C98FDF7D3F8FDF7F6FA024693
:103080001D980B461E9904F061FD1F9B209AFDF7C9
:10309000FDF9209A0F4BFDF747F9FDF7FAFA0E49B3
:1030A0000860FFE728B0B0BDD8052020BC0520206F
:1030B000C004202050002020CC052020D005202056
:1030C000D40520206666666666A64C40A4042020CF
:1030D000A004202066663340AC04202080B58EB06A
:1030E0000E2008210291FDF739FF54480C9004216D
:1030F000FDF77AFE02990F20FDF730FF02990C9838
:10310000FDF772FE002305930193009303210891BC
:1031100018461A46FDF7ECFE059B089901930093AB
:10312000012004901A46FDF7E3FE0598FDF736FEF0
:103130000498FDF733FE142002210391FDF70EFFE2
:1031400003991520FDF7C8FE03991620FDF706FF29
:1031500003991720FDF7C0FE2720FDF771FE192007
:10316000FDF7A6FE1E20FDF7A3FE1F20FDF7A0FE23
:103170000398FDF79DFE05200790FDF799FE2A2094
:10318000FDF75EFE2020FDF75BFE2120FDF758FED7
:103190003B20FDF755FE0498059B00934204182040
:1031A0001946FDF757FE2520FDF782FE2620FDF784
:1031B0007FFE2320FDF77CFE2220FDF779FE3620DE
:1031C000FDF73EFE3A20FDF73BFE2F20FDF738FECF
:1031D0003320FDF735FECA48099019490691FDF7DD
:1031E000B5FD06990998FDF7FFFD0799099889042F
:1031F000FDF70CFF0899099849060A91FDF78EFD25
:1032000009980A99FDF7E2FD0C98612149020B919A
:10321000FDF79CFD0B990C98FDF7E6FD0C9809490C
:10322000FDF7F4FE0C98112109050D91FDF776FDCF
:103230000C980D99FDF7CAFD0EB080BD00200A4024
:10324000006003900001010080B582B01249AE48D1
:103250000190FDF7F1FF019803214902FDF7D8FF26
:103260000198FDF7EBFE0198FDF7CAFF01980921CF
:10327000FEF720F8019800210091FEF709F8009967
:103280000198FDF7F3FF0198FDF7EEFE0198FDF7B9
:10329000E1FE02B080BDC046168A000080B584B051
:1032A0001B49DE480390FEF7A9FB03981949FEF776
:1032B0004BF90398002201921146FEF789FB019B0E
:1032C0000398009319461A46FEF762FB019A039889
:1032D0001146FEF7F3FA0199039801220292FEF7D4
:1032E00077FB019B02990398009119461A46FEF755
:1032F0004FFB0199029A0398FEF7E0FA0398FEF754
:1033000099F903980321FEF7CFFA04B080BDC046B7
:10331000188A00001C8A000080B582B0002001904D
:10332000FEF7B0F8012000904002FEF7B7F80198D0
:10333000FEF7C2F8FEF77EF8FEF782F80848FEF7BF
:1033400019F81020FEF7C6F8FEF784F80198FEF78A
:10335000CDF80098019900F05DFA02B080BDC0463A
:10336000248A000080B501200006FEF7D9F8FEF798
:10337000D1F880BD80B582B00849BE480190FEF703
:103380003DFB01980649FEF709FA01980121FEF775
:103390005BF90198FEF74EF902B080BD4C8A00003F
:1033A000508A000080B582B0124958480190FEF75B
:1033B0000BFC01981049FEF7A5FB01980021FEF7D0
:1033C00015FC019815212D22FEF7D8FB0198FEF778
:1033D00067FB01987021FEF719FC01980221FEF7A6
:1033E00027FC0198FEF776FB0198FEF74EFB02B032
:1033F00080BDC046648A0000668A000080B582B045
:10340000144943480190FEF7DFFB01981249FEF78B
:1034100079FB01980021FEF7E9FB019815212D2287
:10342000FEF7ACFB019801218902FEF745FB0198EC
:10343000FEF736FB01987021FEF7E8FB01980221A8
:10344000FEF7F6FB0198FEF745FB0198FEF71DFB22
:1034500002B080BD708A0000728A000080B500F062
:1034600017F8FFF73BFEFFF757FFFFF717FFFFF7D0
:1034700081FFFFF7E9FEFFF795FFFFF7BFFFFFF7BB
:1034800071FF0249B8220020885480BDF804202032
:1034900080B588B060480190FDF790FD1948029012
:1034A000FDF78CFD5D480390FEF7F6F97148049036
:1034B000FEF7F2F914480590FDF78EFE13480690CA
:1034C000FEF750FB12480790FEF74CFB0198FDF702
:1034D000A1FC0298FDF79EFC0398FEF7C3F8049840
:1034E000FEF7C0F80598FDF7CBFD0698FEF7FEFA4B
:1034F0000798FEF7FBFA1020FDF7A2FB08B080BD8D
:1035000000000A4000200A4000000F4000801040E8
:103510000000104080B58EB00D900C910C980128E1
:103520001DDBFFE701200A9001043B480B90FDF7EB
:103530004DFD0A990B984904FDF712FC0C980128DF
:1035400003DBFFE70C98099003E00C9840420990D8
:10355000FFE7099931480022FEF73AFA1CE0012002
:10356000079041042C480890FDF730FD0799089812
:103570000904FDF7F5FB0C98012803DBFFE70C9825
:10358000069003E00C9840420690FFE70699234816
:103590000022FEF71DFAFFE70D9801281DDBFFE76B
:1035A0000120049081031C480590FDF70FFD04994C
:1035B00005984903FDF7D4FB0D98012803DBFFE7CD
:1035C0000D98039003E00D9840420390FFE70399A4
:1035D00012480122FEF7FCF91CE001200190410392
:1035E0000D480290FDF7F2FC019902988903FDF75E
:1035F000B7FB0D98012803DBFFE70D98009003E06F
:103600000D9840420090FFE7009904480122FEF720
:10361000DFF9FFE70EB080BD00000A4000208640C1
:10362000014800687047C04618E000E080B51148C6
:10363000FEF724F800281CD0FFE7FEF795FD0E49A1
:10364000086840420D4A10600D4A10680D4B186022
:103650000020106008600C480068002803D1FFE7D4
:10366000FDF7C0FA04E000210846FFF753FFFFE72B
:10367000FFE780BD0040084090002020F00420209B
:1036800094002020F40420201400202080B592B063
:103690001190109101200B9080070C900F901098C2
:1036A0003F490968FCF7BCFD0D900D98FCF7DDFF64
:1036B0000B9A0C9BD20791430022FCF795FF002840
:1036C00012D1FFE70D980021FCF772FF014601209F
:1036D000800703229207099200290A9001D10998D4
:1036E0000A900A980D90FFE710992D480160006834
:1036F0000D99FCF744FD109011981099FCF790FD7E
:103700000E900E99274808900068FCF738FD014696
:103710000898016000682449FCF720FF002804D1C4
:10372000FFE72049204808600CE01E4800681F4958
:10373000FCF730FF002804D1FFE71A491B48086056
:10374000FFE7FFE70E981A4901910968FCF768FD49
:103750000199184A059210600E9808601648069064
:10376000016803910E99029140680E490968FCF7BF
:103770005FFD0299024603980492FCF759FD0499F3
:10378000FCF7FDFC059902460698079280680968D7
:10379000FCF74EFD0799FCF7F2FC12B080BDC04665
:1037A000BC042020B40420200000FA430000FAC327
:1037B000B8042020B00420200800202081B0014659
:1037C0006846017000214056002809D4FFE768468A
:1037D00001781F2001400120884002490860FFE76E
:1037E00001B0704780E200E081B001466846017098
:1037F00000214056002809D4FFE7684601781F20C1
:1038000001400120884002490860FFE701B070478D
:1038100000E100E070B582B0024601A8027000919C
:1038200000214056002816D4FFE7002401A90857BC
:103830000322D3431840174A805809578C07E50ED6
:10384000FF24AC40A043009CA401E4B2AC40204360
:10385000194088501AE001A908780F242040083840
:103860000322D34318400A4A8058002549578D0740
:10387000EE0EFF25B540A843009DAD01EDB2B54069
:1038800028432140083919408850FFE702B070BD35
:103890001CED00E000E400E080B58AB009900891DA
:1038A00000200090069003A801F0D2F8009807903D
:1038B000FFE70798022856DCFFE7099807998A0076
:1038C000805808998958401AC1174840401AFCF797
:1038D000A1FE8F21C905FCF7E8FC02900798810042
:1038E00003A840580021FCF771FE00281ED1FFE715
:1038F000029807998A0003A98958FCF7D6FC1C494D
:10390000FCF73DFC019001980121C9078843174944
:10391000496AFCF723FE002807D1FFE70798012139
:103920008140069808430690FFE717E002980F4988
:10393000C969FCF721FE002808D1FFE702980B496E
:10394000096AFCF70BFE002807D1FFE70798012161
:103950008140069808430690FFE7FFE7FFE70798D6
:10396000401C0790A5E706980AB080BD309700007C
:10397000000080BF80B584B002A9087001208104D6
:103980002A48FDF7F9FA411E884101A90870284824
:1039900000780090002808D0FFE70098012811D097
:1039A000FFE7009802281AD037E001A80078002825
:1039B00007D0FFE71E49012008701E49002008803B
:1039C000FFE72AE001A80078002807D1FFE718499F
:1039D00002200870174900200880FFE71DE001A8B9
:1039E0000078002807D0FFE711490020087003A9DC
:1039F0000220087015E00F490888401C088080B23A
:103A000002A90978884207DDFFE70949002008700C
:103A100003A90120087004E0FFE703A90020087053
:103A2000FFE703A8007804B080BDC04600000A404C
:103A3000D4042020D604202080B584B002A90880B8
:103A4000012001023048FDF797FA4142484101A99F
:103A500008702E4800780090002808D0FFE70098F2
:103A6000012813D0FFE7009802281CD044E001A8E9
:103A70000078002809D0FFE7244901200870244A73
:103A80000021118023490870FFE735E001A8007884
:103A9000002807D1FFE71D49022008701C490020BB
:103AA0000880FFE728E001A80078002809D0FFE798
:103AB0001649002008701749087003A902200870F1
:103AC0001EE013480188491C0180008802A909886A
:103AD000884210DDFFE70D49002008700D4800788E
:103AE000002807D0FFE70B490020087003A9012038
:103AF000087005E0FFE7FFE703A900200870FFE773
:103B000003A8007804B080BD00200A40D90420201A
:103B1000DA042020D804202080B586B005900598CE
:103B2000C078C021084003A908700598C0783F21DB
:103B3000084004A9087005984078C007002819D0EB
:103B4000FFE704A80178C90802AA117000780721CC
:103B50000840401C01A90870F4480068002808D0FB
:103B6000FFE7F248026802A8007801A909789047A7
:103B7000FFE7FFE705984078000700280DD5FFE72D
:103B8000EA484068002807D0FFE7E848416803A8F2
:103B9000007880098847FFE7FFE7002006B080BD76
:103BA00080B582B00190019800F002F802B080BDAB
:103BB00080B582B0019000200090FFE7009807498F
:103BC000884208DCFFE7019800F00AF8FFE7009858
:103BD000401C0090F2E702B080BDC046E703000041
:103BE00080B586B0059005981E49884203D3FFE74B
:103BF0001D480590FFE70599502048430590002097
:103C000000900490FFF70CFD01460098039102908C
:103C100001A90870FFE7FFF703FD029002980399DE
:103C2000884204D9FFE701A901200870FFE701A835
:103C30000078002807D0FFE703980299401A0B4943
:103C40004018049004E003980299401A0490FFE79A
:103C500004980599884201D3FFE700E0DBE706B04E
:103C600080BDC0463433030033330300FFFFFF0041
:103C700080B582B0014601A80170007800280AD002
:103C8000FFE769462020087028204870302088709F
:103C90003820C87002E006480090FFE7054804217C
:103CA0006A4602F047FD01F0B7FF02B080BDC04692
:103CB000A3A3A3A39E0A000080B58AB009A9059119
:103CC000088006AA049202201070CA205070E320D7
:103CD00090700920D0706820042102F02BFD049A16
:103CE0000598A321117000884006002808D5FFE739
:103CF00006A9C0204870C8208870C220C87005E09E
:103D000006A9A32048708870C870FFE709A800883A
:103D1000C005800F002808D0FFE706A9C42008715D
:103D2000CC204871C620887105E006A9A32008713F
:103D300048718871FFE706AAA320D07110725072F3
:103D400075480A2102F0F6FC09A8008880070028BF
:103D500004D0FFE706A92020087003E006A9D820B8
:103D60000870FFE76D48012106AA02F0E3FC09A8EC
:103D700000888006002804D5FFE7012000F0D8F86D
:103D800003E0002000F0D4F8FFE709A80088C00590
:103D9000800F002820D0FFE709A80088C005002870
:103DA0000AD5FFE706A9B22008708B204870B6201C
:103DB00088709B20C87009E006A9B0200870802098
:103DC0004870B42088709020C870FFE754480421E0
:103DD00006AA02F0AFFCFFE709A80088C007002888
:103DE00026D0FFE706AAF82010708B2000010121E1
:103DF000039102F09FFC07200290FA2100F0C6FC1C
:103E0000029800F06DFC039800F09DFC642000F027
:103E1000D9FD7D20800000F0EDFD4248C82100F072
:103E20000BFC282000F02AFC0A2000F040FC08E0EF
:103E300006AAD82010708B200001012102F07AFC24
:103E4000FFE709A800888007002804D5FFE706A936
:103E5000D920087003E006A9D8200870FFE732488F
:103E6000012106AA02F066FC09A800884007002884
:103E700004D5FFE7012000F08BF803E0002000F0FC
:103E800087F8FFE709A80088C006002804D5FFE7E7
:103E90000120FFF7EDFE03E00020FFF7E9FEFFE75A
:103EA000099808210843CE490191488101F0B4FEE8
:103EB00001990020887309A800884006002805D5CC
:103EC000FFE7C749887B801D8873FFE709A8008842
:103ED000C005800F002805D0FFE7C149887B801D01
:103EE0008873FFE709A800881421084205D0FFE77E
:103EF000FE49887B10308873FFE709A80088800797
:103F0000002805D0FFE7F949887B001D8873FFE78B
:103F100000200AB080BDC046A70A0000B60A000013
:103F2000A20A000009E3CA023D070000E0042020C5
:103F300080B588B0014606A80170007800280ED030
:103F4000FFE703AA5D2010720F4804900F4803900A
:103F50009720C000092102F0EDFB07900DE06A46B2
:103F6000C720107206480190064800909720C000B4
:103F7000092102F0DFFB0790FFE7079808B080BD3A
:103F8000B088C3C5B8AAAAAAB4980D35B8AAB38D8B
:103F900080B582B0014601A80170007800280AD0DF
:103FA000FFE76946C0200870C2204870C4208870AE
:103FB000C620C87002E006480090FFE705480421CB
:103FC0006A4602F0B7FB01F027FE02B080BDC04692
:103FD0008B8B8B8B980A000080B5044901208202EC
:103FE0000348C82301F026FC80BDC046207E0000A7
:103FF000F60B000010B594B0179C169C129011910E
:1040000010920F9306A90020087016990880DD48C9
:10401000807B179A07A901F027FD002804D0FFE74D
:104020000020C0431390D7E0D648408914210842AD
:104030006CD0FFE70798000607A900914A781204A0
:1040400080188A7812028018CA788018109A106036
:10405000089800064A79120480188A79120280189A
:10406000CA798018109A5060099800064A7A12049A
:1040700080188A7A12028018CA7A8018109A906082
:104080000A9800064A7B120480188A7B1202801864
:10409000C97B40181099C8600698103006A90870AE
:1040A00010980221405E029010980621405E039015
:1040B00010980A21405E049010980E21405E0590F1
:1040C00002984043039949434018049949434018D2
:1040D000059949434018019001980F21090688422B
:1040E00005DBFFE701983F49884208DBFFE701F065
:1040F00093FD169900200880C04313906CE0169938
:1041000008880122120210430880FFE7EA4840892C
:104110004006002823D5FFE706A9087807AA131848
:10412000105C00025B78C018119B18800878831817
:1041300098780002DB78C018119B588008788218A4
:104140001079000252798018119A90800698801D8B
:10415000087016990888082210430880FFE7D6489F
:104160004089C005800F002823D0FFE706A9087802
:1041700007AA1318105C00025B78C018129B188005
:104180000878831898780002DB78C018129B588052
:10419000087882181079000252798018129A90805B
:1041A0000698801D087016990888702210430880B0
:1041B000FFE7C14840898007002807D0FFE706A82D
:1041C000017807A84018FFF7A7FCFFE70F9802F057
:1041D0004FFC00201390FFE7139814B010BDC046A9
:1041E000E00420200100001180B58CB00B9001A8E4
:1041F000009001F013F900980088C003002103919A
:1042000002900B99AC4802899207120F89580891C5
:1042100000894007002804D5FFE70898404208902D
:10422000FFE70B99A448028952080C231A408958C9
:10423000099100898006002804D5FFE709984042CB
:104240000990FFE70B99FB48028912090C231A40D9
:1042500089580A910089C005002804D5FFE70A980B
:1042600040420A90FFE70898C117029A039BFBF7A8
:1042700061FF8900800F401808900998C117029AC1
:10428000039BFBF757FF8900800F401809900A989D
:10429000C117029A039BFBF74DFF8900800F40185E
:1042A0000A9008A8C17805AA117041885170089930
:1042B000090A91700899D170C1791171C188517141
:1042C0000999090A91710999D171C17A11724089CC
:1042D00050720A98000A90720A98D072A520800045
:1042E0000C2102F027FA0CB080BDC046E00420206B
:1042F00080B588B0014606A801801D4905911D4979
:1043000004911D4903910088C92804DBFFE70020C0
:10431000C043079029E006A80188C820FCF7D5F91A
:10432000411E02A8018040786A46107002985070C1
:104330001248022102F0FEF9002804D0FFE7002015
:10434000C043079011E00E480C2103AA02F0F2F9D5
:10435000002804D0FFE70020C043079005E006983E
:10436000B449888100200790FFE7079808B080BD16
:10437000BBAFDFDFAAF1DFDFFEF2ABC41602000045
:10438000C10A0000E004202080B588B0069006999C
:10439000A84802899207120F8958039100894007A3
:1043A000002804D5FFE7039840420390FFE70699F1
:1043B000A048028952080C231A40895804910089A8
:1043C0008006002804D5FFE7049840420490FFE7E8
:1043D00006999848028912090C231A4089580591B8
:1043E0000089C005002804D5FFE7059840420590E4
:1043F000FFE70398C117314A009200230193FBF7AE
:1044000099FE009A019B8900800F40180390049840
:10441000C117FBF78FFE009A019B8900800F40189F
:1044200004900598C117FBF785FE8900800F40189E
:10443000059003A8C17802AA1170408850700398B3
:10444000000A90700398D0703D200001042102F012
:1044500071F9002804D0FFE70020C043079028E04E
:1044600003A8C17902AA1170C08850700498000A8C
:1044700090700498D070F5208000042102F05AF961
:10448000002804D0FFE70020C043079011E003A8F4
:10449000C17A02AA1170408950700598000A907084
:1044A0000598D0707B20C000042102F043F90790EA
:1044B000FFE7079808B080BDE004202009E3CA02A6
:1044C000B0B588B006AB188003AC6C20A070524821
:1044D000208002A82C2181705049018001AA7621F8
:1044E00091704F4911806A46662191704D49118043
:1044F0001A8803210A40A55C05AA1570069DED06E1
:10450000AD0F655D5570069D2D06AD0F645D947011
:104510001B880B40C45C04AB1C70069CE406A40F13
:10452000045D5C70069C2406A40F005D98703E48F4
:1045300002F000F9002804D0FFE70020C0430790F4
:1045400066E03A48032104AA02F0F4F8002804D0F7
:10455000FFE70020C04307905AE0019805A90880B2
:1045600001A8807888706846807804A988700098CF
:10457000088006A80088400700280AD5FFE70598AC
:104580000121084305AA10700498084304A9087083
:10459000FFE706A80088800600280AD5FFE705A9DE
:1045A000487801221043487004A9487810434870A5
:1045B000FFE706A80088C00500280AD5FFE705A97F
:1045C000887801221043887004A988781043887085
:1045D000FFE711208001032105AA02F0ABF80028B3
:1045E00004D0FFE70020C043079011E010480321EA
:1045F00004AA02F09FF8002804D0FFE70020C0437F
:10460000079005E006980B49088100200790FFE716
:10461000079808B0B0BDC0464CCD00000CC90000E2
:104620003656000026460000260400002A0400003A
:1046300031040000E004202080B586B0059004A875
:104640000190018005987D21C900FCF75DF80146C5
:10465000019800884843029002A8C17803AA11700B
:10466000408850700298000A90700298D0705720CD
:104670008000042102F05EF806B080BD80B584B0F1
:10468000014603A80190018000880521FCF71DF870
:10469000014601980180407802AA1070039850707A
:1046A000AD204000022102F045F804B080BD80B585
:1046B00084B0014603A80190018000880521FCF721
:1046C00004F8014601980180407802AA107003980E
:1046D00050702B20C000022102F02CF804B080BDE5
:1046E00080B582B0014601A801706A4600211170B0
:1046F0000078C007002806D0FFE700983021084363
:1047000069460870FFE701A800788007002806D5F1
:10471000FFE700980C21084369460870FFE701A8ED
:1047200000784007002806D5FFE7009803210843DA
:1047300069460870FFE72920C00001216A4601F0A0
:10474000F9FF02B080BD80B582B0014601A80170BA
:104750000078002804DCFFE701A90120087009E0C7
:1047600001A80078052804DBFFE701A904200870F0
:10477000FFE7FFE70198401E6A461070FF205030A7
:10478000012101F0D7FF02B080BD000080B58AB0E2
:10479000024608A8027007AA118000784007002886
:1047A00006D0FFE707A800888049884204DBFFE7BE
:1047B0000020C0430990F5E007A80088FBF735FF0B
:1047C0007B49FBF772FD049005A8009000F0EEFD18
:1047D00000980078801E01900E286BD80198810007
:1047E00001A040588746C04625480000B548000053
:1047F00049480000B5480000B5480000B548000031
:104800006D480000B5480000B5480000B5480000FC
:10481000B5480000B5480000B5480000B5480000A4
:104820009148000004988D21C905FBF701FDFBF7B5
:1048300003FF03A9088004986149FBF7F9FCFBF723
:10484000FBFE02A9088039E0049823214906FBF702
:10485000EFFCFBF7F1FE03A9088004985749FBF72A
:10486000E7FCFBF7E9FE02A9088027E004988B210A
:10487000C905FBF7DDFCFBF7DFFE03A90880049800
:104880004D49FBF7D5FCFBF7D7FE02A9088015E0E0
:10489000049845210906FBF7CBFCFBF7CDFE03A9E5
:1048A000088004984349FBF7C3FCFBF7C5FE02A947
:1048B000088003E00020C043099073E003A840781B
:1048C00006A908700398487002A84078887002987A
:1048D000C87008A80078C00700281CD0FFE7752022
:1048E0008000022106AA01F025FF002804D0FFE77E
:1048F0000020C043099055E006A8821C4920800092
:10490000022101F017FF002804D0FFE70020C04378
:10491000099047E0FFE708A80078800700281CD529
:10492000FFE73B20C000022106AA01F003FF002898
:1049300004D0FFE70020C043099033E006A8821CA2
:104940002520C000022101F0F5FE002804D0FFE779
:104950000020C043099025E0FFE708A80078400741
:1049600000281CD5FFE777208000022106AA01F06D
:10497000E1FE002804D0FFE70020C043099011E0C9
:1049800006A8821C4B208000022101F0D3FE0028E3
:1049900004D0FFE70020C043099003E0FFE70020B8
:1049A0000990FFE709980AB080BDC04641060000A3
:1049B000000048430000C044000040450000C045DE
:1049C0000000404680B584B0014603A801800088FD
:1049D0000521FBF77AFE014602A80180407801AA72
:1049E000107002985070EF204000022101F0A2FEEA
:1049F00004B080BD80B584B0014603A80180008862
:104A00000521FBF762FE014602A80180407801AA59
:104A1000107002985070ED204000022101F08AFED3
:104A200004B080BD80B582B001900091FFE70748D7
:104A3000FDF78CF8002801D0FFE7F8E701A801781E
:104A40000248FDF709F9019802B080BD00801040CE
:104A5000B0B588B006903648406800780D21042231
:104A600005AB02F009F8002803D0FFE70720079004
:104A70005BE005AA1078E0231840C008D178302404
:104A800021400909401804A9087050781840C0084E
:104A9000D4780C252C40A408001948709078184050
:104AA000C008D27803231A408018887003A9002018
:104AB0000870FFE703A80078022833DCFFE703A8AB
:104AC000017804A8405C002807D1FFE7069903A8F5
:104AD00000788200002088501FE0069903A8007823
:104AE000820014488850FFE703A8027804A9885C74
:104AF000401E8854000600280ED0FFE7069802905A
:104B000003A909788900019140580B49FBF790FBF4
:104B1000019A02998850E7E7FFE70398401C03A930
:104B20000870C7E700200790FFE7079808B0B0BDFE
:104B30005C0020207B14AE3E1D5A843F70B598B0B7
:104B40001690159114A8027011AB01201870002066
:104B50005870D949486800780968897C022201F0B8
:104B6000A7FF002804D0FFE70020C04317902FE2E2
:104B7000C82001F071FF11AB00201870CE494868C1
:104B800000780968C97B012201F092FF002804D057
:104B9000FFE70020C04317901AE2C7494868007831
:104BA00009684979012211AB01F082FF002804D085
:104BB000FFE70020C04317900AE2BF494868007829
:104BC0000968897C012211AB01F072FF002804D032
:104BD000FFE70020C0431790FAE1B7494868007822
:104BE0000968C97D012211AB01F062FF002804D0E1
:104BF000FFE70020C0431790EAE1F74948680078D2
:104C000009680979012211AB01F052FF002804D094
:104C1000FFE70020C0431790DAE111AB0C201870B9
:104C2000ED494868007809680979012201F040FFE0
:104C3000002804D0FFE70020C0431790C8E10F20F0
:104C400001F00AFFE449886A407A11AB187048689D
:104C5000007809688978012201F02AFF002804D031
:104C6000FFE70020C0431790B2E1DB49886A007A71
:104C700011AB18704868007809684978012201F082
:104C800017FF002804D0FFE70020C04317909FE1E2
:104C900014A80078002808D0FFE7CF48806A807AFF
:104CA000E021084311A9087005E0CB48806A807AAA
:104CB00011A90870FFE7C849486800780968897930
:104CC000012211AB01F0F4FE002804D0FFE7002020
:104CD000C04317907CE114A80078002808D0FFE7B3
:104CE000BD48806AC07AE021084311A9087003E03A
:104CF00011A918200870FFE7B749486800780968CB
:104D0000C979012211AB01F0D3FE002804D0FFE7DE
:104D10000020C04317905BE114A80078002804D05D
:104D2000FFE7C82001F098FEFFE711AB40201870A4
:104D3000F2494868007809680979012201F0B8FE53
:104D4000002804D0FFE70020C043179040E111ABDA
:104D500078201870E9494868007809684979012283
:104D600001F0A6FE002804D0FFE70020C043179002
:104D70002EE1322001F070FE11AB00201870DF49E7
:104D80004868007809684979012201F091FE0028FD
:104D900004D0FFE70020C043179019E1D7494868C5
:104DA00000780968897A022211AB01F065FE0028BB
:104DB00004D0FFE70020C043179009E111980002DA
:104DC00011A9497841180EA8018000880C21FBF731
:104DD0007CFC10A90870169900208860169948601C
:104DE00016990860159988601599486015990860AA
:104DF0000FA90870FFE70FA8007810A9097888426A
:104E00005CDAFFE7BD49486800780968C97A0C2276
:104E100011AB01F031FE002804D0FFE70020C043B1
:104E20001790D5E01198000211AD099569784118E5
:104E30000CA80180A9780902EA78891841801299A2
:104E400009026A79891881800023C45E159A116865
:104E5000091911600222865E159C616889196160DA
:104E60000421465E159CA0688019A060A879000204
:104E7000EC7904190AA80480139C24026E7AA41900
:104E80004480AC7A2402ED7A64198480C55E169C55
:104E900023685B192360845E169B5A6812195A6056
:104EA000425E1699886880188860FFE70F98401C5A
:104EB0000FA908709FE7C0465C002020169800905C
:104EC0000068C117020C09048918000483220292A9
:104ED00000230793FBF708F9079B10AA06921278A4
:104EE000FBF702F90099029A079B08601698019057
:104EF0004068C117040C090409190004FBF7F4F811
:104F0000069A079B1278FBF7EFF80199029A079B24
:104F10004860169803908068C117040C09040919A9
:104F20000004FBF7E1F8069A079B1278FBF7DCF820
:104F30000399069A079B8860159804900068C1172A
:104F4000040C0904091900046405C00A0019C912F7
:104F50001278FBF7C9F80499069A079B0860159820
:104F600005904068C117040C090409190004640580
:104F7000C00A0019C9121278FBF7B6F80599069A0B
:104F8000079B4860159808908068C117040C0904B5
:104F9000091900046405C00A0019C9121278FBF748
:104FA000A3F80899886015988068012806DBFFE758
:104FB00015998868094A8018886006E015998868FC
:104FC0000122120480188860FFE700201790FFE795
:104FD000179818B070BDC0465C0020200000FFFF8D
:104FE00080B58AB00890079100200590EE4840688F
:104FF00000780D21032204AB01F03EFD002803D010
:10500000FFE70720099075E004A908781F221040E7
:1050100008704878104048708878104088700020E8
:105020000690FFE70698022861DCFFE708980699DA
:105030008A00805807998958401AC1174840401A79
:10504000FBF7E8FA8F21C905FBF72FF902900699C3
:1050500004A8405C00282DD0FFE72A480390FFE712
:10506000069A04A9885C401E88540006002806D0D1
:10507000FFE703982549FBF7DBF80390F0E7029878
:105080000399FBF712F92049FBF779F80190019891
:105090000121C90788431A498969FBF75FFA00288B
:1050A00007D1FFE706980121814005980843059044
:1050B000FFE717E0029812490969FBF75DFA00283B
:1050C00008D1FFE702980E494969FBF747FA002823
:1050D00007D1FFE706980121814005980843059014
:1050E000FFE7FFE7FFE70698401C06909AE7059860
:1050F0000990FFE709980AB080BDC0465C002020F7
:10510000309700000000C841000080BF54E3853F95
:10511000B0B586B001931446019A0B46014605A826
:10512000017004A90B7003AB1C700292064A12684E
:105130001469007840000978029A1B78C825009508
:10514000A04706B0B0BDC0465800202080B584B04E
:105150000390039800F019F802A9019108800398C0
:10516000C01C00F012F80199C20002981043088098
:105170000398801D00F009F8014601988A01029900
:1051800011430180008804B080BD82B00190019875
:1051900000214056012804DBFFE769460020088013
:1051A0003AE0019800214056002804D5FFE76946FF
:1051B000042008802FE0019801214056012804DBDB
:1051C000FFE769460120088024E00198012140564C
:1051D000002804D5FFE769460520088019E00198FA
:1051E00002214056012804DBFFE7694602200880BF
:1051F0000EE0019802214056002804D5FFE76946D9
:105200000620088003E0694607200880FFE7FFE7E3
:10521000FFE7FFE7FFE7FFE76846008802B0704757
:1052200080B586B0002005900490FEF717F9164867
:10523000FCF714FC01200190FEF7C0FA0198FEF77C
:10524000BDFA0198FEF7D0FA0198FEF7CDFA1020CA
:105250000290FEF7B3FA0298FEF7C6FA0D2003900B
:10526000FEF7ACFA0398FEF7BFFAFDF723FCFDF753
:1052700093F9FCF7FDFC0548FEF792FCFFE7FDF70C
:105280000BFEFDF7FDF9FAE700208640983A000092
:1052900080B584B003A90020087001F0A9FAFFE7E7
:1052A0001248019002210091FBF76EFD012002904F
:1052B000FEF77EFC00990198FBF79CFE0298FEF732
:1052C00077FC01980299FBF76DFE002801D0FFE7FB
:1052D00008E0FFE70398401C03A90870C0B26428E7
:1052E000DEDBFFE701F0A4FA04B080BD00000A4055
:1052F00080B584B002A90870002000900878FE22D2
:1053000010400870C5482421405C002803D0FFE706
:105310000020039045E0C148807A002804D1FFE7CF
:105320000020C04303903CE0BC48017C01AA1170FE
:105330000299827A11400174007C02A9097888429E
:1053400004D0FFE70020C043009002E0002000905E
:10535000FFE702A80078002805D1FFE7AF48007DED
:10536000002804D0FFE7012001F004FC03E0002046
:1053700001F000FCFFE702A8007800280DD0FFE74D
:1053800000F04AFC002807D0FFE70198A349087401
:105390000020C043039004E0FFE7FFE7009803907C
:1053A000FFE7039804B080BD5C00202083B001902B
:1053B0009A48407A009003281CD80098810001A0E8
:1053C00040588746D5530000DD530000E5530000E8
:1053D000ED5300000199022008700FE001990420AC
:1053E00008700BE001990820087007E0019910206F
:1053F000087003E00020C04302900CE08748C07CA6
:10540000002805D0FFE70199087840000870FFE701
:1054100000200290FFE7029803B0704783B001902C
:105420007E48407A009003281FD80098810001A090
:1054300040588746455400004F5400005754000020
:1054400061540000019901208003088011E0019956
:10545000104808800DE0019901200003088008E051
:1054600001990120C002088003E00020C04302909F
:105470000CE0EB48C07C002805D0FFE701990888C4
:1054800040080880FFE700200290FFE7029803B081
:105490007047C0469C1F000081B00090E048007C2F
:1054A00000990870002001B07047C04682B001909A
:1054B000DB48007A009003281FD80098810001A0E3
:1054C00040588746D5540000DD540000E7540000E2
:1054D000F15400000199FA20088012E001997D2022
:1054E000800008800DE001997D20C000088008E060
:1054F00001997D200001088003E0019900200880C7
:10550000FFE7002002B0704783B00190C448007AE2
:10551000009003281CD80098810001A040588746BD
:105520003155000039550000415500004955000033
:1055300001990F4808600FE001990C4808600BE0E2
:1055400001990948086007E001990648086003E0EE
:105550000020C043029002E000200290FFE7029882
:1055600003B0704733338341333303420000834237
:105570000000034382B00190F648C07A00900728EB
:105580002DD80098810001A040588746DD550000C5
:10559000AD550000B5550000BD550000C5550000D3
:1055A000CD550000D5550000DD5500000199BC2007
:1055B000088018E001996220088014E001992A20EF
:1055C000088010E00199142008800CE001990A205D
:1055D000088008E001990520088004E0FFE70199B0
:1055E00000200880FFE7002002B0704782B00090E2
:1055F000D8482421405C002804D0FFE70020C043A5
:10560000019007E0D348C08900990880FFE7002097
:105610000190FFE7019802B07047C0465C0020206F
:1056200080B588B005AB80201870CA4948680078FA
:105630000968897C012201F03BFA002804D0FFE7C9
:105640000020C0430790E8E0642001F005FA05ABB4
:1056500000201870BF49486800780968897C0122D9
:1056600001F026FA002804D0FFE70020C04307908D
:10567000D3E0FC49486800780968897D062205ABBB
:1056800001F0FAF9002804D0FFE70020C04307909A
:10569000C3E005A94879C007400FCA78D207920F26
:1056A0008018497801221140411804A8017000783F
:1056B00000281DD0FFE704A80078012804D1FFE7E7
:1056C000E8490120C87412E004A80078022804D137
:1056D000FFE7E4490020C87408E004A801785348B3
:1056E00001F0B2FA0020C043079096E0FFE732E0F5
:1056F000DC49486800780968C978012205AB01F0E7
:10570000BBF9002804D0FFE70020C043079084E0E5
:1057100005A801780F20014004A801700078002836
:1057200007D1FFE73F4801F08FFA0020C043079000
:1057300073E004A80078042807D1FFE73A4801F095
:1057400083FAC8490120C87403E0C6490020C87420
:10575000FFE7FFE7FFE7C3490291FF2088720A468F
:10576000083208724872C872314BCB810874887451
:1057700001200873907600200390D0764875087554
:105780000884C883888348830883C8821077507749
:10579000C8847D20000100F0A7FD002804D0FFE7A9
:1057A0000020C043079038E0022000F0FFFB0028F3
:1057B00004D0FFE70020C04307902EE02A2000F02D
:1057C00043FE002804D0FFE70020C043079024E0F8
:1057D000322000F0A1FE002804D0FFE70020C043E3
:1057E00007901AE00020FFF783FD002804D0FFE7B0
:1057F0000020C043079010E0002000F049FC002882
:1058000004D0FFE70020C043079006E0002001908D
:1058100000F0F8FE01980790FFE7079808B080BDF8
:105820005C0020206C950000BA950000D99500001E
:10583000FFFF000010B58EB00CAC20800B910AA8C1
:10584000028009A80380F3482521405C002804D089
:10585000FFE70020C0430D9079E00B98002804D1A9
:10586000FFE70120C0430D9071E00020019008A9DE
:105870000880FFE708A800880CA90988884248DA50
:10588000FFE70CA8008808A90988401A112803DB43
:10589000FFE71020009006E00CA8008808A90988FE
:1058A000401A0090FFE7009807A9088008A8008820
:1058B00009880B9A121800F03DFF002804D0FFE77A
:1058C0000220C0430D9042E008A8008807A909887B
:1058D00003AA00F04BF9002804D0FFE70320C043DF
:1058E0000D9034E00B9808A90988401807A90A8888
:1058F00003A9FAF737FC002804D0FFE70420C043CF
:105900000D9024E0FFE707990898401808A908803F
:10591000B0E70AA8407802AB18700A985870BD49E1
:10592000486800780968897E022201F0C1F80028E1
:1059300004D0FFE70520C0430D9008E0B5492522BB
:10594000012088540998C88400200D90FFE70D9825
:105950000EB010BD5C00202080B586B0014604A8C2
:1059600001700078292804DBFFE70020C043059080
:1059700075E004A8007800281DD1FFE70020029000
:1059800000F014FD029803AB187007205870A1496D
:10599000486800780968897C022201F089F80028AB
:1059A00004D0FFE70020C043059058E0994900204B
:1059B0000875059053E0012000F0F8FC03A92020B1
:1059C000087004A80078012807D1FFE703A9002088
:1059D0004870052000F038FD20E004A80078052874
:1059E00007DCFFE703A901204870052000F02CFD2B
:1059F00013E004A80078142807DCFFE703A90220BD
:105A000048700A2000F020FD06E003A9032048703A
:105A1000142000F019FDFFE7FFE7FFE703AB58781C
:105A20008001C01D58707B49486800780968897CEE
:105A3000022201F03DF8002804D0FFE70020C04317
:105A400005900CE0FB4A0820907200200190107332
:105A500001211175FFF74CFC01980590FFE70598AF
:105A600006B080BD5C00202080B586B004AB1880F5
:105A700003910292EF482421405C002804D1FFE703
:105A80000020C04305906EE0EA48807A002804D1E7
:105A9000FFE70020C043059065E0E64948680078CC
:105AA0000968897A022201AB00F0E6FF002804D0E1
:105AB000FFE70020C043059055E00198000201A9CE
:105AC0004978411868460180008804A909888842FD
:105AD00006DAFFE7029900200870C043059042E013
