:020000040000FA
:1000000028022020D5000000D9000000DB000000FD
:1000100000000000000000000000000000000000E0
:10002000000000000000000000000000DD000000F3
:100030000000000000000000DF000000E100000000
:10004000E3000000E3000000E3000000E300000024
:10005000E3000000E3000000E3000000E300000014
:1000600000000000E3000000E300000000000000CA
:1000700000000000E3000000E30000003D16000067
:10008000E3000000E3000000E3000000E3000000E4
:10009000E3000000E300000000000000000000009A
:1000A000E3000000E300000000000000000000008A
:1000B000E300000000000000E3000000E300000097
:1000C0000348854600F0C8FC00480047DD230000D7
:1000D0002802202003480047FEE7FEE7FEE7FEE790
:1000E000FEE7FEE7C1000000F8B500242546002920
:1000F00004DA0E46012400214042B141002B04DA0B
:100100001E46002352420125B34100F0D9FA8C4625
:1001100017461E46AC4203D0002540428D41AC46F6
:10012000002C02D0002657429E4161463A46334693
:1001300001B0F0BD30B5434351435C18010C130CC2
:100140000D465D432C1980B292B20546554351438A
:100150000A0C09044D1962415843010C000440196E
:10016000514130BD30B504460020034600E05B1C21
:10017000934203D2E05CCD5C401BF8D030BDF8B5B3
:1001800002464A40D40F42004B0052085B089A4294
:1001900002D20246084611464A0023D0C30D4A0047
:1001A000DDB2120EAD1A202D35DA49020126490AB8
:1001B000F6058A19002C00D0524220214F1B11460F
:1001C000B9402A411018C20D9A4221D0002C17D0F4
:1001D000012D08DCDA05801AD20F8019D207DBB2B4
:1001E00000F0C9FAF8BDDA05801A012340001B06A9
:1001F000C01880185A428018CA0F1043490007E0FF
:100200004908C2071143DA05801A8019400880188E
:1002100000F0A9FAF8BD61000122511A001BF7E7AE
:100220000122D2075140AAE70122D2075040A6E797
:10023000024670B54A40D30FDB0740002DD04A007C
:100240002AD0010E140E000212020919400A520AA5
:100250008418E50104465443000A120A2E04504350
:10026000A4194219200CC543AA18120C0125AD038C
:10027000521C521912047F39240400D0521C10431E
:1002800001D44000491EC2B20C06C0092018401C0F
:100290004008802A02D003E0002070BD40084000E2
:1002A000002900DA0020184370BD70B502464A40AC
:1002B000D50F40004A00ED0740085208002814D02E
:1002C000002A12D0C40DD30D41020120C0055202F4
:1002D000490A520AE41A091812187D34914201D3CE
:1002E000641C00E04900002C01DA002070BD0023EE
:1002F000914201D3891A0343400849000028F7D1ED
:1003000000290AD0914202D10121C90705E091429A
:1003100001D2012101E00121C943E005C0184019C3
:1003200000F021FA70BD0000F0B5074608465840BD
:1003300087B0C00F049048000E4659004008490895
:10034000BC1A884105D2384631461E4617460B4630
:1003500002465800400810434CD0300D0390400531
:100360005900400D490D0590401A0290402872DA5C
:1003700018030121000B090508430190049800921D
:10038000002805D001995242002088410092019036
:10039000029840210A1A0199009800F0C1F9054617
:1003A0000C466B4607CB00F0CBF9C0197141039A9C
:1003B0000E0D0023D71756401A467A40164344D0F4
:1003C000049A002A2DD0029A012A039A15DC1205FC
:1003D000C01A914101263605001C7141D20F059EBD
:1003E000D2070093019202962A46234600F009FAAA
:1003F00007B0F0BD38463146FAE71605224A0F46E7
:10040000B218C01AB74101210905001C4F4100185C
:100410007F41114618187941E20F10436D1964416C
:1004200013E0E2076D0815436408C2071443039AFA
:1004300001261205C01A91413605001C7141CE07F4
:10044000400830434908C01851412A46234600F06D
:10045000CBF9CDE7FFE7049801224000C117121A3B
:1004600000238B4104983146C417381AA141EEE7A6
:1004700030B40124E407634030BC55E730B40124B4
:10048000E407614030BC4FE70000E0FFF0B51FB467
:1004900088B00B990998002448400999C00F490079
:1004A00049080991C0070B990090490049080B9130
:1004B00009990898A64608431CD00B990A98084346
:1004C00018D0099801244000420D4800410D0998B8
:1004D00024050003000B204309900B980003000B38
:1004E00020430B9050181C494018002201901446DC
:1004F000104605E0002001460DB0F0BD032801DAEA
:10050000034600E003239C46C11A0AAE0AE05F00DE
:1005100008ADED5B4F00F75B7D430027AA187C41D7
:10052000491C5B1E6145F2DD410004AB5A522104B7
:10053000120C0A43240C401C0828DFDB01980290AF
:100540000099704601910090059B049A07990698BE
:1005500000F057F9D0E700000DFCFFFF0122D207A1
:10056000002800DB101A002900DB511A814201D853
:1005700001207047002070470122D207002800DBCD
:10058000101A002900DB511A814201D20120704764
:10059000002070470122D207002800DB101A002932
:1005A00000DB511A814201D90120704700207047B9
:1005B0000122D207002800DB101A002900DB511AA3
:1005C000814201D10120704700207047C217C10F3E
:1005D000504010B54018CA079623002100F0CBF810
:1005E00010BD10B500229623114600F0C4F810BDCE
:1005F000C20F410040020123400ADB05D207090E69
:10060000C0187F2901DA00207047962903DC962361
:10061000591AC84001E096398840002AF4D0404277
:100620007047C20FD207400040080BD0C10D07230E
:10063000DB01C91840020905400A1143C2084007FE
:1006400011437047002001467047CB0FDB0749007C
:1006500010B5490802460A4307D00A0D07240903CA
:10066000E401090B121B002A01DC002010BDC900A7
:10067000440F0C43C100E018D205801800F073F855
:1006800010BD70B50446002903D0002020220123AC
:1006900010E0002801D00020C043C046C0460DE055
:1006A0002546D5408D4205D30D469540641B1D4619
:1006B000954040191546521E002DF1DC214670BDB3
:1006C000F0B51FB40646002082B0054640240191D3
:1006D00000901BE0019922460F46304600F0D4F905
:1006E000049A059B801A994110D310461946224658
:1006F00000F016F8361A8F4101972246012000219A
:10070000009F00F00DF838184D4100902046641EFF
:100710000028DFDC019B00982946324607B0F0BD77
:1007200010B5202A04DB0146203A9140002010BD7C
:10073000914020239C1A0346E3401943904010BD8A
:1007400010B5202A06DBCB170846203A1041C11706
:100750000B4306E00B461341D0402024A21A9140DF
:100760000843194610BD002904DA401C490001D194
:1007700040084000704770B40024050C05D11024D7
:10078000000402D1002921D01124050E01D100025C
:100790000834050F01D10001241D850F01D180000F
:1007A000A41C002801DB4000641C002908D020257F
:1007B0002E1B0D46F540A14000D0012129430843DE
:1007C00001061B1B000ADB1D02D5002070BC704710
:1007D000DB05181880180029F8DA401C4900F5D10B
:1007E00070BC40084000704710B5002B08DA0024A8
:1007F000401C614192185B411A4301D140084000FE
:1008000010BDF0B51FB482B005460C0003D00846F9
:1008100003F0E4FA02E003F0E1FA2030024600902F
:1008200021462846FFF77CFF049B059A04460F46A5
:1008300018431143084314D0184610431BD00098A6
:1008400040210A1A1846059900F01EF905460E4681
:10085000009A05990498FFF763FF084305D001202B
:1008600004E02046394607B0F0BD0020C11705431B
:100870000E432C43374300990E986305401A7905BF
:10088000E40A00220C43FD0A0A3002D5002001468A
:10089000E9E70105101969410C9C0D9D001969419A
:1008A000FFF7A2FFDFE70000F0B50C465C4085B023
:1008B000E40FE40703944C000026640859009446B2
:1008C000490802460296224321D062460A431ED0BE
:1008D0006200570D4A000E032303550D0124024602
:1008E0002C492405781B1B0B360B40182343264349
:1008F000614600901C46501AB44103D30098401C36
:10090000009002E0921800985B41002803DA002072
:10091000014605B0F0BD00200121090507468646C5
:1009200011E064461D46141BB54106D36546521BB3
:10093000B341744607430C43A646CD074008490817
:10094000284392185B4105460D43EAD110461843EF
:1009500013D06046194650407140084306D06046A7
:10096000101AB34106D20122002306E0002201231F
:10097000DB0702E00122D2435310009874460105C0
:10098000381C6141029C039D00196941FFF72CFF4F
:10099000BFE70000FD03000070B54B005B08034398
:1009A0000BD04B005C0D002633466542B341D41793
:1009B000AD1AA34102DB0020014670BD12053018BC
:1009C000514170BD4A0009030123090B1B0519435E
:1009D0000A4B10B5520D9A4202DA0020014610BDB2
:1009E000064B34339A4203DC9A1A00F04DF810BDDE
:1009F000034BD218FFF794FE10BD0000FF03000068
:100A0000CDFBFFFF10B5002904DB0124E4074042C1
:100A10008C412146002B04DB1C460123DB0752429C
:100A2000A3418B4200D1824210BD000010B50029C5
:100A300004DB0124E40740428C412146002B04DB07
:100A40001C460123DB075242A341994200D1904248
:100A500010BD0000000000001CB5094800900948C6
:100A6000019005460126009C05E0E36807CC33436E
:100A70000C3C98471034AC42F7D3FFF725FB00003D
:100A8000105D0000305D000010B5202A04DB084630
:100A9000203AD040002110BD0B46D340D040202446
:100AA000A21A91400843194610BDFEB500231A460C
:100AB0001B1A8A4103DB0020014603B0F0BD4A0047
:100AC0000D0301212D0B0905520D0D43D10702D154
:100AD00000186D41521E5110FF31FF3101310027C6
:100AE00004463E4638460097019102460121002007
:100AF0000905FFF7C9FFC3197141F818324684464A
:100B00008E464A4161462846611A904104D36046A8
:100B1000241A954176461F46241900986D41401CC1
:100B200000903428E1DDF91930467041091BA841D5
:100B300003D20022D243134601E00022134601985B
:100B40000105381C7141FFF74FFEB6E7811E091FF2
:100B500000BFFCD27047F0B582B0002A31D091239B
:100B60005B01C3180220801A0190009255420F20A9
:100B700006020320DC69344227D00F18FC1E2478BB
:100B80001C602C18022C1AD0DA6932421FD0BA1E0F
:100B900012781A60019A1218032A10D0DA693242C8
:100BA00017D07A1E12781A60002C08D0DA69324207
:100BB00008D00A5C1A60001D2A18032ADAD10098AE
:100BC00000E0002080B202B0F0BDC01EFAE7801E37
:100BD000F8E7401EF6E7000010B50F4A8358802161
:100BE0000B43835080180122D2020F231B0244685A
:100BF0001C4094420BD044681C40944207D0446887
:100C00001C40944203D044681C409442EFD10268D7
:100C10008A43026010BDC0463812000070B50A78E1
:100C20000C231A400124240305196E689E43B21850
:100C30006A604978072211400359934359180151BA
:100C400070BD0000F0B584B0012422022A4B19685F
:100C500003929143196035490D686D04FCD5457EBA
:100C600025409E69A64374199C612024045D0325D8
:100C70002C40DE69AE433419DC61204C2568052622
:100C80002660466A37681F6276685E6207262E40D5
:100C90002660C4697F252D02DE69AE436406640CBC
:100CA0003419DC610768456882680092C668026989
:100CB0000192426902929A69114C14403A07120B50
:100CC0002D03ADB2AA183243009D2D072D0D1543FB
:100CD000019A1543029A1543007E2843094A0240AF
:100CE000101998611868039A104318600868800505
:100CF000FCD504B0F0BDC04608010B4000134040D5
:100D00008D00F0FF72FF0F000749886007480268F6
:100D10009202FCD5012212040B6813430B60016898
:100D2000C906FCD57047C04604010B4004020B40C5
:100D3000B0B51122120283580124A34383508B784B
:100D40000C881C438B882343094C1C408358094D55
:100D50001D402B1983508B79CC791C43097A214390
:100D60007E231940801842689A4351184160B0BDF3
:100D700018670000E798FDFF10B5012212038318E1
:100D80000C789C604978815010BD0000F0B58BB0A4
:100D900002AD00272F7057480669C8200090D02068
:100DA000752101242A462346B047534804F03EF8F3
:100DB0002878524E524D682802D00320306075606A
:100DC00001F050FC002800D08EE0782002F0BAFE3E
:100DD0000028254603D1484804F028F83D467820ED
:100DE00001F08CFB0028274603D146A004F01EF832
:100DF0002F46C82002F02AFE0028254603D14AA02B
:100E000004F014F83D4600F009FE0028274603D1FF
:100E10004FA004F00BF82F46AC2000F0F1FF0028A3
:100E2000254603D1574804F001F83D46FF207430B1
:100E300000F0B2FC0028274603D1534803F0F6FF28
:100E40002F46C82000F032FF002803D14F4803F09E
:100E5000EDFF3C4608A805A902F02CF80728284D0C
:100E600036D104A801F0DCFB0898FFF7AFFB014680
:100E7000049D2846FFF7DCF9FFF7BAFB08900998B4
:100E8000FFF7A4FB01462846FFF7D2F9FFF7B0FBB6
:100E900009900A98FFF79AFB01462846FFF7C8F920
:100EA000FFF7A6FB0A9008A800F036FF03AD28461E
:100EB00001F096FB2888124D05994143059106994A
:100EC0004143069107994143079105A800F08CFE24
:100ED000012002F0FBFC002802D12D4803F0A6FF00
:100EE000002C04D001F0C4FA0320306075600BB010
:100EF000F0BDC04608002020C75C000000030B4086
:100F0000010000E46D70755F636F6E6669677572EE
:100F1000655F6669666F20636F6D706C65746520D0
:100F20002E2E2E2E2E2E0D006D70755F7365745F44
:100F300073616D706C655F7261746520636F6D7055
:100F40006C657465202E2E2E2E2E2E0D00000000B6
:100F5000646D705F6C6F61645F6D6F74696F6E5FFD
:100F60006472697665725F6669726D776172652019
:100F7000636F6D706C657465202E2E2E2E2E2E0DD7
:100F800000000000A25C0000385C00005C5C000017
:100F90007F5C0000002070470020704710B51446A9
:100FA000C9B2DAB24008C0B2234602F089FE411E3F
:100FB000884110BDF0B581B0DEB2002E2FD01446AE
:100FC000CAB218498A60184F0222BA610A689206AA
:100FD00008D40A68920605D40A68920602D40A6800
:100FE0009206F3D5FF22520010400A1F08390B6801
:100FF0000E4D1D402818086010680D49014030044E
:1010000040180C49401810600B4DB2B228462146DA
:10101000FFF7A1FD2418361A38688007F5D500209F
:1010200001B0F0BD18120F4030100F4000F8FFFF64
:10103000F8FF00F00700010000000F4080B500F04D
:101040002DFB80BDF0B581B01C480068800733D40B
:101050001B481C4901601C49812048601B48801EB8
:1010600008601B4D02272F602F6300262F6001248C
:10107000204600F013FB284610380760204600F099
:101080000DFB14480068C00703D1701C632E064690
:10109000ECD30B4A0B481060FD4BFE4818605860BB
:1010A0006006196801431960596801435960101FAF
:1010B0000949016000F0F4F901B0F0BD34120F40AD
:1010C00004080F40030000B1048042408300040084
:1010D000A0120A4080130A400100002600280DD00B
:1010E00009490A88521C0A8092B2824205D1002026
:1010F000088001204002E949086170470120400250
:10110000E64908607047C04650002020F0B58BB01B
:10111000504E3569C8270097D02075214E4C0123C9
:101120002246A8472078682804D04C480321016053
:101130004B49416034690097D0206B2105AA0123F7
:10114000A04700280BD105AA1078F8210140881C7F
:101150001070F4680097D0206B210123A0473469F8
:101160000097D0201B2106AA0123A04700280AD1FE
:1011700018200699014306AA1170F4680097D02040
:101180001B210123A04734690097D0201C2107AA06
:101190000123A04700280AD107AA1078E7210140BF
:1011A0001170F4680097D0201C210123A0473069FA
:1011B00001900097D02004906B210291039708AF13
:1011C00001253A462B46019CA0473878BF210140B3
:1011D0003970F0680190039E0096049C20460299A5
:1011E0003A462B46019FB8471A480069019000967D
:1011F0006A21029109AF20463A462B46019CA0473E
:101200003878DF21014039701248C068019000969B
:10121000049C204602993A462B46019FB8470D4848
:1012200000690290009637260AAF204631463A46BA
:101230002B46029CA0473878FD21014039700548B3
:10124000C46803980090049831463A462B46A0475C
:101250000BB0F0BD080020206600202000030B40EA
:10126000010000E4F0B58BB009A80190704C009427
:101270007048714905AA0AAB00F0DEFB2088C00562
:1012800000D4D3E00598FFF7A1F96121CD052946E7
:10129000FEF7CEFF0446694804600698FFF796F90A
:1012A0002946FEF7C5FF0646654806600798FFF722
:1012B0008DF92946FEF7BCFF07466248076008988B
:1012C000FFF784F92946FEF7B3FF05465E4805603F
:1012D0000320810704913046FEF7AAFF0646204608
:1012E0002146FEF74CFF3946FEF7A2FF0446304682
:1012F0002946FEF79DFF2146FEF741FFFFF791F9D2
:1013000003F07EFA514A524BFFF7C0F8FFF79DF900
:10131000504908604B48046820462146FEF72FFFDD
:101320000546464800680146FEF729FF44490E6815
:101330003146FEF77DFF0746434801682846FEF721
:1013400077FF3946FEF71BFFFFF76BF90390029119
:1013500030460499FEF76CFF074620462946FEF703
:1013600067FF044638463146FEF762FF2146FEF726
:1013700057FF7F21C905FEF702FFFFF752F902462A
:101380000B460398029903F083FC304A304BFFF779
:101390007DF8FFF75AF930490860284804682A4860
:1013A000016804912046FEF743FF0646244807687B
:1013B0002448056838462946FEF73AFF3146FEF7CD
:1013C000DEFE0146FEF7DBFEFFF72BF903900291EC
:1013D00038463946FEF72CFF064620462146FEF7E2
:1013E00027FF3146FEF7CBFE044628462946FEF786
:1013F0001FFF01462046FEF713FF044604980146EE
:10140000FEF716FF01462046FEF70AFFFFF709F92F
:1014100002460B460398029903F03AFC0B4A0C4B28
:10142000FFF734F8FFF711F90C4908600BB0F0BD75
:101430002001202088002020600020202000202083
:101440009000202094002020980020206666666688
:1014500066A64C4058002020540020205C0020202C
:1014600010B50B480B490160416001225306046826
:101470001C43046044681C43446082230365491E86
:10148000416505494166500204490860086310BD82
:10149000048042408300040081000100A0320A4021
:1014A00080B511481149FFF7B9FB032041021048EC
:1014B00002680A43026001210A02036813430360C1
:1014C0000022426109224262826B07239A438263AF
:1014D0001A02836B93438363826A042313438362F8
:1014E000826A0A43826280BD00000F408C5B00006C
:1014F00000120F4070B51548002404600F20000250
:10150000134D2968814301267002081828600320C2
:10151000C043291F0A6802400A606868B0436860D7
:1015200030026968814369600A48FFF78BFB2868CD
:1015300010210143202081432960300329680143A1
:1015400029602046FFF7E0FB70BDC04608030B4052
:1015500004010B40905B00000548042101608C49A8
:10156000416000218160016805220A4302607047E2
:1015700010E000E010B5144C14492046FFF7FCFBC6
:1015800013492046FFF7D4FB0321CA03114803681F
:10159000934303600269104B13401A33036142699D
:1015A0000A433C218A434261416801221140436859
:1015B0009343591841609102084B1C680C431C600E
:1015C00001681143016010BD00801040B85B00004D
:1015D000BA5B0000009110400000FFFF289010400F
:1015E00080B500F00BF8FFF73BFFFFF783FFFFF735
:1015F00057FFFFF7BFFFFFF7AFFF80BD10B50948EA
:1016000009494160094A5160094B5960094C6160C0
:10161000094901601160196021601020FFF796FAF6
:1016200010BDC04600080A40030000B100280A406F
:1016300000080F40008810400100002610B5124835
:101640000068C0B20B281ED11048C169104A138827
:101650007E2B13D813885C1C14800E4AD154026868
:10166000D20708D00268D20705D00268D20702D09C
:101670000268D207F3D1C9B2816101E00020108075
:1016800005480121017010BD2090104008911040C4
:101690001E0120209C0020201C012020F0B581B0DC
:1016A0003A49884200D30846502141430024394B2F
:1016B000009404E0A41C7D20C000844263D018681C
:1016C000334A8618009F02E0AA1A8A4229D21A6871
:1016D000824200D901273D06054600D03546AA1AA8
:1016E0008A421ED21A68824200D901273D06054669
:1016F00000D03546AA1A8A4213D21A68824200D90B
:1017000001273D06054600D03546AA1A8A4208D26E
:101710001A68824200D901273D060546D4D03546D5
:10172000D2E71D681A482E18002702E0801A884266
:10173000C0D21A68AA4200D901273806284600D02C
:101740003046801A8842B5D21A68AA4200D90127C9
:101750003806284600D03046801A8842AAD21A6835
:10176000AA4200D901273806284600D03046801A00
:1017700088429FD21A68AA4200D901273806284613
:10178000D4D03046D2E701B0F0BDC04633330300B9
:10179000FFFFFF0018E000E0F0B58DB0044607AF92
:1017A0000920F870E320B870CA20787002200290F7
:1017B0003870682004213A4602F042FAA321797277
:1017C0003972F971402323405C20C043002B02464C
:1017D00001D03D22D243FA70002B024601D03722BD
:1017E000D243BA703F250593002B024600D0EA434E
:1017F00001957A703970012635022A4680322240DE
:10180000014601D03921C943B971002A014601D0EE
:101810003321C94379710692002A01D03B20C0438D
:10182000387174480F300A213A4602F009FA032051
:10183000272120400490039101D0202000E0C843DC
:1018400038706C481E3031463A4602F0F9F997205C
:10185000C000A10605D4C7210C9169490B916949C3
:1018600004E05D210C9164490B9164490A910921BE
:101870000AAA02F0E5F90698002821D0254001D0F7
:10188000642000E06F20C04307AAD070002D01D073
:10189000492000E04B20C0439070002D01D07420FF
:1018A00000E07F20C0435070002D01D04D2000E0AB
:1018B0004F20C04310704F480A30042102F0C0F995
:1018C0008B200001E10704D107AAD8211170012162
:1018D00049E007AAF82111700126314602F0B0F95B
:1018E0000720FA2100F0F8FA0AAA019810702920BE
:1018F000C7003846314602F0A3F90AAA0025157040
:10190000F81D314602F09CF90AAA14205070157097
:1019100038469630029E314602F092F90AAA6420B7
:101920005070157038469230314602F089F90AAA93
:101930009020D070F92090708E205070157038462D
:101940001430042102F07CF90AAA082050701570A6
:1019500038461230314602F073F90AAA56701570F3
:1019600010373846314602F06BF9059D0399A00700
:1019700002D52620C04300E0C84307AA10702248C1
:10198000012102F05DF9600701D4214800E01F4801
:101990000A9004210AAA174802F052F901F0B8F996
:1019A000E00601D41C4800E01A480A901148801D46
:1019B00004210AAA02F044F901F0AAF9069A0820C3
:1019C000204386490880002D00D00625002A00D03B
:1019D000AD1D1420044201D01020054304980028B6
:1019E00000D02D1D01F094F97B48057000200DB04A
:1019F000F0BDC046980A0000B4980D35B8AAB38D62
:101A0000B088C3C5B8AAAAAA3D070000C0C2C4C610
:101A10008B8B8B8B20283038A3A3A3A380B5012008
:101A2000820203480349C82300F018FF80BDC04666
:101A3000F60B0000964F0000F0B58DB003931546ED
:101A40000C460490129F00263E806348007805A94A
:101A5000139A01F0F5F8F143002800D0B9E002979D
:101A60005E48038814200342049F48D000910193EC
:101A70000598000605AA517809040F18D0789378C4
:101A80001B021818C01928600698000653791B0419
:101A90001B18D079967936023018C01868600798FC
:101AA0000006567A36043618D07A917A0902081858
:101AB0008019A86008980006517B09040818D17B9A
:101AC000927B120251180918E960191449433A141B
:101AD00052435118321452438918001440430818D5
:101AE000F121090641180120420691426BD80002FB
:101AF000029A1188014311801026019B049F580609
:101B000002D43146029C20E00120304305A9085C44
:101B10008A5D12021018208003203043085C0222E4
:101B200032438A5C12021018608005203043085C42
:101B300004223243895C09020818A080029C208894
:101B40000821014321800621314301200002803019
:101B50000342039E17D005A842181D465378405CE7
:101B60000002C0183880D07893781B0218182B46D2
:101B700078805079127912021018B880208870226B
:101B800002432280891D980718D005A84518EC78D3
:101B90006878C1070AD012490A68002A06D00720CF
:101BA0002040411CA006400F90476878000705D5EB
:101BB0000C480168002901D0A0098847304602F08E
:101BC000FBF8002105E001F0A3F80020029908804D
:101BD000009908460DB0F0BD86002020800020202E
:101BE0007400202078002020F0B58BB0054607ACAB
:101BF000204600F0F5FCB748068830090C21069114
:101C0000084005952A58F00500D55242D317208880
:101C1000C403002120460491FEF78CFA03900F467E
:101C2000880908ADA872880B6872880D2872700840
:101C30000699084005990A58B00600D55242D317B4
:101C4000029420460499FEF775FA01900C46880923
:101C5000A871880B6871880D2871B007000F05996D
:101C60000A58700700D55242D31702980499FEF71C
:101C700061FA8A09AA708A0B6A708A0D2A70BA0002
:101C8000039B9B0F9A18EA72A200019B9B0F9A1864
:101C9000EA718900800F4018E870A520800006993D
:101CA0002A4601F0CDFF0BB0F0BDC046F0B585B0BF
:101CB00004461348049013480390134802900027E9
:101CC000FD43C82C18D86E463770E1B2C820FEF725
:101CD000D8FC401E70700D480221324601F0B0FF62
:101CE000002809D10A480C2102AA01F0A9FF002806
:101CF00002D1084804803D46284605B0F0BDC046E4
:101D0000BBAFDFDFAAF1DFDFFEF2ABC416020000DB
:101D1000C10A000084002020F0B585B06D490C8810
:101D2000A107090F03904058610700D54042C11731
:101D3000324A00263346FEF7FDF98A0904AFBA702D
:101D40008A0B7A708A0D3A708900800F4018F870FB
:101D500020090C25284003990858E10500D5404288
:101D6000C117264A3346FEF7E5F902900191600853
:101D700028400399085803903D2005010421284676
:101D80003A4601F05DFFF643002834D1039B019FE2
:101D90000299A00605D518465842184A2C460D4609
:101DA00003E0164A2C460D461846C1170023FEF7DD
:101DB000C1F98B0904AA93708B0B53708B0D1370B0
:101DC0008900800F4018D070201D042101F038FFD9
:101DD000002810D1B800A90F081804AAD070010A71
:101DE0009170010C5170000E1070083404212046CF
:101DF00001F026FF0646304605B0F0BD09E3CA02F1
:101E0000F0B583B00446032108402D4B1D5C02AAA7
:101E100015702C4D285C01AE30702006800F1F5CC1
:101E20009770E706BF0FDB5D5370285CB070E85D0C
:101E30007070254E304601F003FF0027FD43002857
:101E400029D1301D032101AA01F0FAFE002822D178
:101E50001E4801901E48029060071FD4A00625D49A
:101E6000E00505D501A86721817002A8772181705E
:101E700030461A30032102AA01F0E2FE00280AD1FE
:101E80000B36032101AA304601F0DAFE002802D108
:101E9000104804803D46284603B0F0BD01A8272124
:101EA000017002A837210170A006D9D501A84721E9
:101EB000417002A857214170E005D3D4D8E7C0464D
:101EC0008B4F0000884F0000260400002646660065
:101ED000365676007C002020F0B585B00E460546CB
:101EE0000021CC431920800186426FD8072028406A
:101EF0006CD0019103AF384600F05AFB3046FEF734
:101F000070FB3D49FEF7D1F93A78D107921E52088D
:101F10008A18072A5AD88D21CE0538497A44127971
:101F2000520097440E0353075353530B23214E067D
:101F3000354906E08B21CE05324902E045210E06E7
:101F40002F4902940746FEF773F9FEF751FB04464A
:101F500031462E4604ADE8703846FEF769F9FEF7C3
:101F600047FB6870210AA970000A2870AF1CF007AF
:101F700006D1B00718D47007029C2AD4019C25E032
:101F80003C46492087003846B030022104AA01F0BF
:101F900057FE002819D1022138462746224601F073
:101FA0004FFE002811D1E4E7492084002046B430D8
:101FB000022104AA01F044FE002806D1201D0221BE
:101FC0003A4601F03DFE0028D5D0029C204605B0DF
:101FD000F0BD492085002846B830022104AA01F04E
:101FE0002FFE0028F2D10835022128463A4601F09A
:101FF00027FE0028EAD1C1E7000048430000404620
:102000000000C044000040450000C04507490A6880
:10201000D20708D00A68D20705D00A68D20702D0D2
:102020000A68D207F3D1C2B28A61704708911040A2
:10203000F0B58BB006920C46074608AA00265670EB
:1020400001201070E148C568E14909C9817C187810
:10205000C8230793009340000223A847F1430028B8
:1020600000D002E104940591D84D6969079C20468F
:10207000884708AA1670ED68D54909C9C17B187848
:10208000009440000123A847002800D0ECE003960C
:10209000CE48C568CE4E05CE41791078079A009299
:1020A000400008AA0123083EA847002800D0DBE032
:1020B000C648C56805CE817C1078079A009240001A
:1020C00008AA0123083EA847002800D0CCE0BF485A
:1020D000C56805CEC17D1078079A0092400008AA15
:1020E0000123083EA847002800D0BDE0B748C568D6
:1020F00005CE01791078079A0092400008AA0123C2
:10210000083EA847002800D0AEE008AA0C201070B6
:10211000AE48C56809CE01791878079B0093400046
:102120000123083EA847002800D09DE0A74D69691B
:102130000F208847B06A407A08AA1070ED6809CE6F
:1021400081781878079B009340000123083EA84738
:10215000002800D088E0B06A007A08AA10709B4876
:10216000C56809CE41781878079B00934000012389
:10217000083EA847002877D1B06A807A06990029DE
:1021800001D0E0210843914908AA1070CD6809CE1A
:1021900081791878079B009340000123083EA847E7
:1021A000002861D10698002805D01F20C143B06ADD
:1021B000C07A084300E0182008AA1070FB48C568E0
:1021C00009CEC1791878079B009340000123083E8F
:1021D000A847002848D10698002803D0F348416951
:1021E000C820884708AA40201070F048C56809CE6A
:1021F00001791878079B009340000123083EA84707
:10220000002831D108AA78201070E848C56809CEA6
:1022100041791878079B009340000123083EA847A6
:10222000002821D1E14D69693220884708AA039826
:102230001070ED6809CE41791878079B0093400033
:1022400001230293083EA84700280DD1D74805690D
:1022500005CE817A1078079A0092400008AA0223DE
:10226000083EA847002803D0059908460BB0F0BDEA
:102270003846039939607960B9600498016041601B
:10228000816008A8008840BA52494143C80CC0B2D6
:102290000690002837D0C548056905CEC17A107868
:1022A000079A0092400008AA0C23083EA84700287D
:1022B000DAD10898C0BA049B196808181860099800
:1022C000C0BA996808189860586808A94A88D2BAAC
:1022D000801858600A98C0BA3B467A6815187D6025
:1022E0004889C0BABA681018B860C988C9BA3A68CB
:1022F00051180C4639600399491C0391C9B2069ADA
:102300009142C8D303E0384630CF3868083F010C0B
:10231000C217120451180004832207920026334684
:10232000FDF7E2FE069A3346FDF7DEFE0197B86040
:10233000280CE917090409182804079F3A46334670
:10234000FDF7D2FE069D2A463346FDF7CDFE0199E4
:102350004860200CE1170904091820043A46334666
:10236000FDF7C2FE2C462A463346FDF7BDFE019915
:102370000860049D2868C10EC2175201511840011F
:1023800022463346FDF7B0FE28606868C10EC217CA
:1023900052015118400122463346FDF7A5FE686000
:1023A000A868C10EC2175201511840012246354695
:1023B0003346FDF799FE002802DC0299090400E08B
:1023C000054908180499886029464EE7080020202E
:1023D00024002020ABAA00000000FFFF84B0FFF71C
:1023E000FFF80120C0031449086014490860FEF793
:1023F0008DFEFEF7CBFCFEF735FF11480068FEF7B7
:1024000010F905460E460F480068FEF70AF9074620
:102410000C460D480068FEF704F9024600A8E0C02B
:1024200003940AA00B4601F0C9FC6420FEF756FE97
:102430000A20FFF733F9DEE780E200E000E100E088
:10244000580020205C002020540020205069746334
:10245000683A252E326C6609526F6C6C3A252E3222
:102460006C66095961773A252E326C660D0A0000B8
:10247000F0B581B01A481B4901601B4981204860B2
:102480001A48801E08601A4D02272F602F6300260D
:102490002F6001242046FFF701F928461038076015
:1024A0002046FFF7FBF813480068C00703D1701CF3
:1024B000632E0646ECD30A4A0A4810600A4B0B48C2
:1024C0001860586060061968014319605968014333
:1024D0005960101F08490160FEF7E2FF01B0F0BD2E
:1024E00004080F40030000B1048042408300040050
:1024F000A0120A4080130A4001000026F0B587B000
:1025000005462420C04E305C002801D0002449E05C
:10251000B07A0024E743002843D0FE210D40284034
:10252000317C3074A84200D0E443002D15D1307DB9
:10253000002812D106AA00201070B248C56809CE42
:10254000C17B1878C823009340000123083EA847A8
:10255000002827D10698707424E0707C002818D1D8
:1025600005AA01231370A748C0680390306804913E
:102570007168C07B02900878C821009140000299E0
:102580000297039FB847029F0499002801D105983C
:102590007074002D06D00D4600F0BAFB002801D063
:1025A00035743C46204607B0F0BDC04608002020E8
:1025B00010B501460020944B5A7A032A0AD8D2005B
:1025C000054CD4400C70DB7C002B02D0034BD34075
:1025D0000B7010BDC04310BD020408100408102089
:1025E00010B501460920094A13560020032B0AD8CA
:1025F0005B0007A4E45A0C80D27C002A02D006A219
:10260000D25A0A8010BDC04310BDC046240020200D
:1026100000409C1F001000080020CE0F000800049E
:1026200010B501460020EA4A137A032B09D8094A5B
:102630007B441B795B009F440A010609084A0A6033
:1026400010BDC04310BD054A0A6010BD024A0A60B1
:1026500010BDC0460000034333338341333303428C
:1026600000008342F0B587B004AA8020107065484E
:10267000C468654D09CD817C1878C8260096400055
:102680000123083DA0470027F943002820D10391EA
:102690005C4C61696420884704AA1770E46809CD1E
:1026A000817C187800964000029701273B46083D40
:1026B000A04700280BD15348046905CD817D1078CF
:1026C0000096400004AA0623A047002803D00399DF
:1026D000084607B0F0BD354604A841783940427934
:1026E000D207520FC078C007800F801841180AD057
:1026F0003B460129039A434C2BD00229029F71D1FA
:102700002E463D4628E03F48006901903E4905C9F4
:10271000C17810780095400004AA01263346019C38
:10272000A0470028D3D101962E4604A801780F2097
:1027300008400428039A5BD0002802980546314CD3
:102740003B46074608D13948144602F06FFB214644
:10275000BEE72E46029F0D46FF202B498874087461
:102760003348C881CD740B738A6018044F618F6140
:10277000CF61086208460830077747778777C777C1
:1027800006AA18201070E4680D4681C9817938784E
:1027900000964000A047002899D106A80078C008FC
:1027A0002872022000F0B8FF002890D12A2001F002
:1027B0000DF900288BD1322001F048F9002886D18C
:1027C0000020FFF79BFE002881D10025284600F05D
:1027D000E5FF0028039900D07AE7284601F0B2F916
:1027E000294675E713A0144601F0E8FA21466FE781
:1027F00006A0154602F01AFB2A46024C3B46029FF1
:10280000019DA9E7080020202400202048616C6673
:102810002073656E7369746976697479207061726A
:102820007420666F756E642E0D000000EB5B000077
:10283000FFFF0000556E737570706F7274656420D1
:10284000736F6674776172652070726F64756374FC
:10285000207265762025642E0A000000F0B593B042
:1028600006462524F448055D0220C043002D02D011
:10287000801C13B0F0BD002900D193E006910392B3
:10288000019402930490002E75D000250596A8B2FD
:102890000B90331A102B00DB1023E74A907A0028A4
:1028A00000D182E012A84570290A0A910170E8B2AD
:1028B00099B208910C18506841898C4275D8DF494B
:1028C000CF681168097E0078C8260096400012AAD9
:1028D0000D930223B8470D9BD74F002865D10C9567
:1028E000099406980B994218D448C0680B9021CFE0
:1028F000417D287834460096DDB2400007922B4691
:102900000B9E083FB04700284FD1B87A00284FD01F
:102910000A98C0B212A90C9A4A7008707868418966
:10292000099A8A4244D82646F849CC683968097E13
:1029300000780096400012AA0223A047F24900281E
:1029400036D1F248046905C9417D107800964000EF
:102950000EAA2B46A04700282AD10EA90798089A4C
:10296000FDF700FC00282FD10D980C9D2D18A8B262
:10297000059EB0428BD312AA03985070000A1070C3
:10298000E248C468E04D09CD817E1878C8230093E1
:1029900040000223083DA04700280DD00498C01E27
:1029A00013B0F0BD401C13B0F0BD049813B0F0BDDF
:1029B0000498401E13B0F0BD01200199685402989C
:1029C000E884002013B0F0BD0498801E13B0F0BD61
:1029D00024002020F0B58BB005460020C743282DE9
:1029E00000D926E1002D0BD0019002972327C64B7A
:1029F000D85D01283AD0987C002818D0322117E001
:102A00002325C14C605D002800D1FFE0A07C411E61
:102A100002468A41510004AA11702221615C0029FA
:102A200000D1E3E0002800D1DCE07D20DBE03021B4
:102A300005AA11702221595C002907D0002801D075
:102A40004D2000E04F20C04305A90870AF48C4687E
:102A500005CB017D1078C8220092400005AA01260E
:102A60003346A047A84B002800D1DE5503A82021FB
:102A70000170012D20D103A800214170987A00280F
:102A8000029F17D006A806210170D87A062811D017
:102A90009E48C46805CB81781078C8220092400017
:102AA00006AA083B1D460123A0472B46002801D15A
:102AB0000698D872072063E0052D029F1FD803A84F
:102AC00001214170987A002817D007A806210170CB
:102AD000D87A062811D0F648C46805CB81781078DA
:102AE000C8220092400007AA083B1D460123A047C8
:102AF0002B46002801D10798D872472040E0142DBA
:102B00001FD803A802214170987A002817D008A87E
:102B100005210170D87A052811D0E548C46805CB95
:102B200081781078C8220092400008AA083B1D4610
:102B30000123A0472B46002801D10898D87287208E
:102B40001EE003A803214170987A002817D009A835
:102B500004210170D87A042811D0D548C46805CB67
:102B600081781078C8220092400009AA083B1D46CF
:102B70000123A0472B46002801D10998D872C7200D
:102B800003AA5070CA48C46818681D465B68817CF7
:102B90001878C826009640000223A047002848D194
:102BA00001232B75019F2F730820A8722420285C15
:102BB00000283ED100272F74687C002839D10AAA4A
:102BC0001370BB48C068029003CDC47B08780096A0
:102BD00040002146029C083DA047002829D10A98C0
:102BE000687426E07F20C04304A90870B048C66816
:102BF00005CC017D1078C8220092400004AA012370
:102C0000083CB047002801D1002060550720000291
:102C100003AA1080A648C56809CC817C1878C8230F
:102C2000009340000223083CA847002801D1002758
:102C3000277538460BB0F0BD240020200800202066
:102C4000F0B587B02423994FFB5C0024E543002BAB
:102C500056D0BB7A002B53D0059502910490039275
:102C60009348056905CF817A1078C8260096400000
:102C700006AA0223083FA847002801D0059D3FE08F
:102C800006A84178007800024318049A934204D2BF
:102C9000002003990870059D32E078684188490852
:102CA0008B42019311D982490D693968497C0078BA
:102CB0000096400006AA0123A8470028DED106A8F6
:102CC0000078C006049A17D4786879490D69396884
:102CD000C97A007800961746D3B24000029AA847F6
:102CE0000028059D0CD101983946FDF7CAFC401E0D
:102CF00003990870254603E000F00AF8059D6D1E53
:102D0000284607B0F0BDC04624002020080020203F
:102D1000F0B585B00026F043644DA97A002900D1B2
:102D2000C2E0039004AA16706148C46809CDC17B53
:102D30001878C827009740000123083DA0470028C5
:102D400019D102965A4EF46805CD41791078009752
:102D5000400004AA0123083DA04700280BD1F468D5
:102D600005CD017910780097400004AA0123083DA1
:102D7000A047002802D0039805B0F0BD2420285CAD
:102D8000002814D004AA0C2010704948C46809CD4A
:102D900001791878009740000123083DA0470028DA
:102DA000E9D13E46A87AC0074AD01F2049E004AACC
:102DB000042010703E48C46809CD01791878009746
:102DC00040000123083DA0470028D4D1A97A402023
:102DD000C907014600D060213E46AA7C002A00D0E7
:102DE000014604AA1170324FFC6809CD01791878A8
:102DF0003746009640000123083DA0470028BAD17D
:102E0000687C411E884104AA1070294EF46809CDDF
:102E1000C17B1878009740000123083DA047002897
:102E2000A9D1F46805CD41791078009708354000A4
:102E300001232A46A04700280398029E34D132E09D
:102E40003F20C0431A4904AA1070CC6809CD01790B
:102E500018783746009640000123083DA047002817
:102E600089D1687C411E8841400004AA1070104836
:102E7000C46809CDC17B1878009740000123083D44
:102E8000A047002800D076E704AA029E16700848E2
:102E9000C46809CD41791878009740000123A04704
:102EA0000028039800D1304605B0F0BD2400202052
:102EB00008002020F0B5A1B0199118902420F94EF7
:102EC000305C1790002802D0002000F0FFFC0820A2
:102ED0000E90305600220328174602D84000F249CF
:102EE0000F5A092030560328114608D88000F17C7B
:102EF000002901D0EDA100E0F0A1081801681191AE
:102F0000F07A0628129215461446134614D87F21EB
:102F10000840411E4A424A413E23C34001210B4022
:102F20001E24C4400C400E25C5400D4013970627B3
:102F3000C7400F401297139F09A838C00F92307CEA
:102F40001690B07A1590F089149000251898199968
:102F50002A46FFF76DF8002808D0189819992A46D4
:102F6000FFF766F800282C4600D002E31DA81AA936
:102F700001220D92FFF75CF8002808D01DA81AA9BD
:102F80000122FFF755F800282C4600D0F1E2089501
:102F9000CE48046970680078C8210791009140000C
:102FA0000D2120AA0423A0470028139700D0BBE0DE
:102FB00020A9C878032203460592134010938A780B
:102FC000D3081C2213400C934978CB081340010707
:102FD000890F02930191591804912099CB0813404D
:102FE0008006800FC1180025002906952FD04E1E9F
:102FF0000BD03246059C22400343981E002A06D07F
:10300000012A06D18E1EB24D0DE0B24D1FE0B14D2A
:1030100009E0022A01D0B04D00E0B04D022A01D0F3
:103020000E1F00E0CE1E032811D3AD4C28462146CA
:10303000FDF7FEF82146FDF7FBF82146FDF7F8F80D
:103040002146FDF7F5F80546361F3006EED11098FB
:103050000C9908180390049A002A069C31D0571E38
:103060000DD03946059801400298019B1843801EF7
:10307000002906D0012906D1971E954C0DE0954CEC
:103080001FE0944C09E0022901D0934C00E0934CDE
:10309000022901D0171F00E0D71E032811D3904E3C
:1030A00020463146FDF7C4F83146FDF7C1F83146F8
:1030B000FDF7BEF83146FDF7BBF804463F1F380662
:1030C000EED1039B002B2FD05F1E0CD0059A3A4007
:1030D00010980C990143891E002A06D0012A06D1B6
:1030E0009F1E7B480DE07B481DE07A4809E0022ADC
:1030F00001D0794800E07948022A01D01F1F00E082
:10310000DF1E03290FD3764E3146FDF791F8314685
:10311000FDF78EF83146FDF78BF83146FDF788F85C
:103120003F1F3906F0D10690199800681A99401A85
:10313000C1174840401AFDF749FA6F21C90510919F
:10314000FDF776F80646002128460F46FDF730FACF
:10315000002812D130462946FDF7A7F86149FDF74E
:103160000EF80125E90788435F49FDF7F7F90028C4
:103170003E46139F11D12E460FE05C493046FDF7C5
:1031800009FA0546401E854159493046FDF7F4F9D4
:1031900000280D9E00D12E46139F199840681B9958
:1031A000401AC1174840401AFDF710FA1099FDF770
:1031B0003FF8054600212046FDF7FAF9002812D114
:1031C00028462146FDF771F84649FCF7D8FF012152
:1031D000C90788434449FDF7C1F9002800D1B61C4E
:1031E0000C96089D13E041492846FDF7D3F90446A3
:1031F000401E84413E492846FDF7BEF900280D983F
:1032000000D120460028089D00D0B61C0C961998C5
:1032100080681C99401AC1174840401AFDF7D6F93A
:103220001099FDF705F804460021069E30461991D5
:10323000FDF7BEF9002822D120463146FDF735F8CA
:103240002849FCF79CFF0121C90788432649FDF75F
:1032500085F9002802D10C98001D0C901B480469C8
:103260001048406800780799009140000D2120AA7D
:1032700003263346A04700283CD0072072E11B49B3
:103280002046FDF787F90546401E8541184920462E
:10329000FDF772F900280D9800D128460028089DF6
:1032A000D9D1DBE7240020208E4F0000040000006D
:1032B00008000000100000002000000002000000D4
:1032C000040000000800000010000000080020209A
:1032D000ADFFB33E7B14AE3E5E72C03E631EBA3E8F
:1032E0001D5A843F000080BF295C0F3E3333733F7B
:1032F0009A99993E189800681D99401AC11748403C
:10330000401AFDF763F91099FCF792FF20AA917813
:103310001F2554782C4012782A4007910DD0059033
:103320000695551E1DD02B463340901E002B1AD0FB
:10333000012B1AD1F049054621E00696F2490646CE
:10334000FDF728F90746401E8741F0493046FDF752
:1033500013F900280D9800D1384619902846069E8A
:1033600031E0E4491FE0E34909E0022B01D0E449E0
:1033700000E0E249022B01D0151F00E0D51E032812
:1033800011D3E04F08463946FCF752FF3946FCF7A7
:103390004FFF3946FCF74CFF3946FCF749FF014621
:1033A0002D1F2806EED10598FCF77FFFCF49FCF7CB
:1033B000E6FE0125E9078843CD49FDF7CFF800284F
:1033C000069800D11995079D0540189840681E99E8
:1033D000401AC1174840401AFDF7F8F81099FCF759
:1033E00027FF002C0DD006900795651E1FD02A469A
:1033F0003240A01E002A1CD0012A1CD1BE4905461D
:1034000023E0C1490446FDF7C5F80746401E874141
:10341000BE492046FDF7B0F800280D9800D1384687
:10342000002802D01998801C1990139F34E0B149EC
:103430001FE0B04909E0022A01D0B14900E0AF49DC
:10344000022A01D0251F00E0E51E032811D3AD4F4D
:1034500008463946FCF7ECFE3946FCF7E9FE3946EA
:10346000FCF7E6FE3946FCF7E3FE01462D1F280671
:10347000EED10698FCF719FF9C49FCF780FE01216C
:10348000C90788439A49FDF769F8002802D11998BD
:10349000801C1990139F079D189880681F99401AE7
:1034A000C1174840401AFDF791F81099FCF7C0FE8B
:1034B0000446002D0AD06F1E1CD03E40A81E002ED0
:1034C0001AD0012E1AD18C49074621E08E49204698
:1034D000FDF760F80546401E85418C492046FDF702
:1034E0004BF8002800D10D950D98002838D0199878
:1034F000001D32E07F491FE07E4909E0022E01D025
:103500007F4900E07D49022E01D02F1F00E0EF1E11
:10351000032811D37B4D08462946FCF789FE29462E
:10352000FCF786FE2946FCF783FE2946FCF780FE61
:1035300001463F1F3806EED12046FCF7B6FE6B4928
:10354000FCF71DFE0121C90788436949FDF706F80C
:10355000002804D11998001D139F089D02E0139FB5
:10356000089D1998444244410C98002800D1A41C9D
:103570005D4EFF2030746648F08128460125357382
:10358000C043B0606348874208DCFA2F10D07D202A
:103590008000874227D120A80E990EE07D20C1002F
:1035A0008F4208D0000187421DD120A8182104E0D5
:1035B00020A8002101E020A810210170C248C7689E
:1035C00005CE81791078C8220092400020AA0123FC
:1035D000083EB847002803D120A80078C008307200
:1035E000B07A00286DD0FE2011990840801E400856
:1035F000C907081807282DD8784400794000874467
:103600000307290B2929291020A8002505700CE0A3
:1036100020A80E99017008E020A810210170022551
:1036200003E020A8182101700325707AA84211D068
:10363000E548C56805CEC1791078C82200924000DF
:1036400020AA0123083EA847002803D120A800781B
:10365000C0087072B07A002833D00F98002802D0CA
:1036600020A9012019E01298002802D020A90220E8
:1036700013E00B98002802D020A903200DE00A983F
:10368000002802D020A9042007E00998002802D0D1
:1036900020A9052001E020A906200870F17A8142C6
:1036A0000FD0E948C56805CE81781078C82200920D
:1036B000400020AA0123083EA847002801D12098F5
:1036C000F072149800F0C2F9159800F03BFA1698C1
:1036D000FEF714FF1798002802D0012000F0F6F83A
:1036E000204621B0F0BDC04624002020000080BF4D
:1036F000295C0F3E0000C8413333D141BDD2DA41CD
:103700009AE3E44154E3853F0000D24200002041A7
:10371000FFFF0000E7030000F0B583B00025EC4395
:10372000C84EB17A002935D0C107801E400808185C
:1037300007282FD8784400794000874403072B0CD2
:103740002B2B2B1102A9002008700DE002A80821E4
:103750000170012008E002A810210170022003E09E
:1037600002A8182101700320717A814211D0F44817
:10377000C76805CEC1791078C8220092400002AA1D
:103780000123083EB847002804D102A80078C008E9
:1037900070722C46204603B0F0BDC046F0B585B02F
:1037A0000446E64EB07CA04201D1002589E0E44801
:1037B000056905CE01791078C8270097400004AA52
:1037C0000123083EA8470021CD43002C23D0002828
:1037D00077D1029104AA1078DF2101401170D848F6
:1037E000C068039009CE0179187800974000012342
:1037F0000197039F083EB847002862D1019FD04837
:1038000041690320884731460831887E00283CD032
:103810007D20C0433AE0002853D1029104AA1078D9
:10382000DF210140B07AC007800E08181070C4482C
:10383000C068039009CE01791878009740000123F1
:10384000039EB04700283CD1FB48416903208847CC
:10385000FA4E31460831887E421E03469341DA0112
:1038600004AB1A70002801D07F20C043C97E002914
:1038700003D03021084304A90870EF48C0680390C2
:1038800005CE017D1078009711E002203B4604AA86
:103890001070C97E0029E84A03D03021084304A9EA
:1038A0000870D068039005CE017D10780093083E23
:1038B000400004AA0123039FB847002801D1B47433
:1038C000029D284605B0F0BD08002020F0B587B065
:1038D0002427F94EF15D0025814271D0002845D0A2
:1038E00002952520305C0025002868D0002902D1EF
:1038F000B07A002810D004AA1570F048C46809CE28
:10390000C17B1878C823009340000123083EA047DC
:10391000002801D1049870742846FFF73FFFF08C0F
:1039200000F094F803AA1570E448C068019070682C
:103930000078C82400944000232101252B46019ED5
:10394000B047DD4EF55505AA02201070DB48C76868
:1039500009CEC17B1878009440002B46083EB8473A
:10396000002801D105987074029D25E0002902D13C
:10397000B07A002811D006AA00201070CF48C46881
:1039800009CEC17B1878C823009340000123083E6C
:10399000A047002801D106987074307C03AA1070EB
:1039A000C648C46870680078C8210091400023218F
:1039B0000123A0470020F055FFF7AAF900E0ED43EE
:1039C000284607B0F0BDC04608002020F0B583B0FF
:1039D0000025EC43B84EB17A00292FD0BC2802D381
:1039E00002A9012015E0622802D302A9022010E0FA
:1039F0002A2802D302A903200BE0142802D302A92B
:103A0000042006E00A2802D302A9052001E002A949
:103A100006200870F17A81420FD0A848C76805CE09
:103A200081781078C8220092400002AA0123083E43
:103A3000B847002802D10298F0722C46204603B005
:103A4000F0BDC0462400202008002020F0B585B03D
:103A50000546994F0026F443B87A00286AD02420FE
:103A6000385C002866D1387D00280AD0681E80B2F4
:103A7000272803D8E8B2FEF7ADFF5AE00020FEF792
:103A8000A9FF02967D20C600B54200D33546042D1D
:103A900000D8042530462946FCF7F3FD401E03AA52
:103AA00010708648C56809CF41781878C8230193FB
:103AB0000093400001273B46A84700283AD103A8BD
:103AC0000478611C3046FCF7DCFD7B4DE881A87A68
:103AD0000028029E7949019B2BD0012C01D804A813
:103AE00015E0042C02D804A8022710E00A2C02D802
:103AF00004A803270BE0182C02D804A8042706E02A
:103B0000312C02D804A8052701E004A80627077075
:103B1000E87AB8420DD0CC6805CD81781078009352
:103B2000400004AA0123083DA047002801D10498C1
:103B3000E8723446204605B0F0BDC046240020207F
:103B400008002020F0B585B004464006400F02D0A2
:103B500003A8012106E0002C02D003A8002101E007
:103B600003A8402101705548C768534E05CE817C9B
:103B70001078C8250095400003AA0123083EB847E5
:103B800000281FD110212140484248412209042128
:103B90009143A20600D4891C0818210700D43830AC
:103BA00003AA11781070BF20084030734348C768DB
:103BB00009CEC17C1878009540000123083EB84723
:103BC000002805D00020B072C543284605B0F0BDDE
:103BD000F720044227D023200290305C002822D016
:103BE000B07C411E02468A41510004AA1170222174
:103BF000715C0029314A07D0002801D07D2000E007
:103C00007F20C04304A90870D76805CE017D1078D5
:103C10000095400004AA0123083EB847002802D1BD
:103C200000200299705400253575B472234841690B
:103C300032208847C9E7C046080020202400202001
:103C4000F0B585B00027FC43002A31D015461A4B49
:103C50009A7A002A2CD004AE7070020A3270C0B278
:103C6000461858684289964222D801911349C9687A
:103C700003911968097E0078C822029200924000E0
:103C800004AA0223039EB047002811D10B48C46840
:103C9000094905C9417D1078029A0092019AD3B270
:103CA00040002A46A047002801D1044600E0FC431A
:103CB000204605B0F0BDC04624002020080020208A
:103CC000F0B583B014460127FA43002C65D0019269
:103CD000344A15461C3D2960114628392025029199
:103CE0000D60314DAF611746243F3E68B60608D4DB
:103CF0003E68B60605D43E68B60602D43E68B606EF
:103D0000F1D516462C3E376828493940400008183E
:103D1000401C3060029E306825490140200408188C
:103D2000C01D3060002702E02868C00729D1106854
:103D30000007F9D0104620380068A742F4D2D855C1
:103D40007F1CF1E7104620380568A74201D2DD55F7
:103D50007F1C1168090717D00568A74201D2DD55FD
:103D60007F1C116809070FD00568A74201D2DD55F5
:103D70007F1C1168090707D00068A74201D2D855F7
:103D80007F1C10680007DDD1002535600948FCF76D
:103D900023FFA74202D0019D00E0551C284603B036
:103DA000F0BDC0463C120F4030100F4000F8FFFF3E
:103DB000F8FF00F000000F40704700000FB410B58E
:103DC00003A9044B044A029800F07EF910BC08BC19
:103DD00004B018470D200000000020202021020C14
:103DE00001D010211046020A01D0104608390209FC
:103DF00001D01046091F820801D01046891E4208D2
:103E000001D0881E7047081A704700004900CA0296
:103E10000243100000D004204A0D01D001221043BB
:103E2000044A490D914201D102210843012800D1E1
:103E300005207047FF070000F8B504464F1EC80074
:103E40000838211815461E46086849683A46062370
:103E50009A4310D02A463346FCF718FB3A46D20064
:103E6000083AA3181A687F1E5B68FCF75DFA062201
:103E70003B469343EED1022F23D0042F11D0062FBF
:103E80002FD12A463346FCF701FBE36AA26AFCF70E
:103E90004BFA2A463346FCF7F9FA636A226AFCF7C2
:103EA00043FA2A463346FCF7F1FAE369A269FCF7C4
:103EB0003BFA2A463346FCF7E9FA63692269FCF7C4
:103EC00033FA2A463346FCF7E1FAE368A268FCF7C6
:103ED0002BFA2A463346FCF7D9FA63682268FCF7C6
:103EE00023FAF8BD10B50122FCF756FD10BD10B540
:103EF000FCF71AFA10BD002210B513461046114601
:103F0000FCF7D2FC10BD0000034A10B500201107D9
:103F1000FCF742FD10BD000001FDFFFF00000000A6
:103F200002E008C8121F08C1002AFAD17047000039
:103F30007047000000000000002001E001C1121FD6
:103F4000002AFBD17047000001490860704700005B
:103F500004002020F0B51FB486B00998089A030D1C
:103F60000021024314D05148514A181850430514F7
:103F70001198012810981AD0281A401C00264D4F7D
:103F80004D49009601910490002812DA444211E054
:103F90001198012449A3012801D11098C143069822
:103FA000119A84600360C26041600BB0F0BD404272
:103FB000E4E70446210500203F4A001C51410391DB
:103FC000029012E0E00707D032463B460199009884
:103FD000FCF75CFA0191009032463B4610461946C8
:103FE000FCF754FA06460F466410002CEAD10498F8
:103FF000039B0028029A0999089806DAFCF746FA0A
:10400000019B009AFCF742FA05E0FCF74DFC019B8E
:10401000009AFCF749FC04460E460022284BFCF7A8
:1040200005FD03D80020C043014607E00022254BD0
:1040300020463146FCF778F9FCF7C4FC102409E06F
:10404000002C0ADB0A220023FCF73AFB079B3032E4
:104050001A55641E02460A43F2D11122641C079BC2
:10406000121B1C19119B012B03D0012308430ED1F5
:104070000AE0084304D0112010900020119077E747
:104080001098151A6D1E0BE01098824202DD002375
:104090006D1C03E0824201DA00236D1E002BEED07E
:1040A000069811998260C16030C07EE701FCFFFF75
:1040B000104D0000000014400000F03F30000000F0
:1040C0000000F0430000E03FFFB597B00646002532
:1040D00018E2252877D100242746FD49049400E002
:1040E0000443761C32780120203A90400842F7D1F0
:1040F00030782A280ED0022230780146303909293A
:1041000016D804990A235943303940181443761CB1
:104110000490F1E7189802C804911890002904DA75
:104120000120400304434842049002200443761CCB
:1041300030782E2814D1042004437078761C2A2865
:1041400009D11898761C80C8189009E00A214F43BD
:10415000303FC719761C3078014630390929F5D926
:1041600030786C2810D006DC4C281AD068280ED085
:104170006A2817D104E0742813D07A2812D110E0ED
:104180000120400504430CE00121090501E0032161
:1041900009050C437178814203D1012000052418E0
:1041A000761C761C3078119066280BD013DC5828CA
:1041B0007DD009DC00287BD04528F6D04628F4D0F5
:1041C00047281AD1A5E118E0632835D0642870D0BB
:1041D000652812D19DE170286CD008DC6728F1D0E9
:1041E00069287BD06E280DD06F2806D1BAE07328DD
:1041F0002ED0752871D0782859D01A9A19999047DD
:104200006D1C7EE16002400F022809D003280DD00A
:104210000428189801680DD00D60001D189070E1F9
:104220001898EA1701680D604A60F6E71898016867
:104230000D80F2E70D70F0E718986A460178117268
:10424000001D18900020507202A80090012005E087
:10425000189802C8189000200091C04361070DD53E
:10426000002101E00199491C0191B94212DA814211
:10427000F8DB009A515C0029F4D10BE0002101E049
:104280000199491C01918142FADB019A0099895CEC
:104290000029F5D1019904981A9B471A21463846FE
:1042A000199A00F097FA0199401945180BE04FE070
:1042B0002CE113E04EE0009800990078491C009131
:1042C0001A9A199990470198401E0190401CF2D10A
:1042D000214638461A9B199A10E137E00A2000213E
:1042E000009001916002410F022907D0189A01CA7B
:1042F0001892C2179446032908D00AE01898C01DE6
:10430000C108C90005C91891944607E000B2C21758
:104310009446042902D140B2C1178C46002261465E
:10432000944506DA0A460021404291418C462D21EF
:1043300002E0210504D52B216A461173012103E017
:10434000E10701D02021F7E7029155E00A200AE0B9
:10435000102008E010200090002104200443019167
:10436000082703E008200021019100906002410F1E
:10437000022907D0189A01CA1892002294460329EC
:1043800008D008E01898C01DC108C90005C91891D7
:10439000944603E080B2042900D1C0B2002102910A
:1043A000210729D51199702906D0009A1021019B67
:1043B0004A401A4305D00EE040216A46117301219C
:1043C00008E06146014306D030216A461173119915
:1043D000517302210291009A0821019B4A401A431D
:1043E0000AD16146014301D1610705D530216A46F2
:1043F000117301217F1E02911199582904D035A112
:104400000E910DA90D910DE037A1F9E76146019BD1
:10441000009AFCF755F90E9B8C469B5C0D9A521E38
:104420000D92137061460143F0D10D9805A9081A49
:1044300020300190600703D501200004844300E090
:1044400001270198874201DD381A00E00020019918
:1044500000904118029809180498401A0490E0034B
:1044600006D421461A9B199A049800F0B3F945190D
:10447000002706E003A81A9AC05D199990476D1CA1
:104480007F1C02988742F5DBE0030CD521461A9B7E
:10449000199A049800F09EF9451904E01A9A302000
:1044A000199990476D1C0099481E00900029F5DC71
:1044B00008E00D980D990078491C0D911A9A1999E8
:1044C00090476D1C0199481E01900029F1DC63E1C1
:1044D00009280100303132333435363738396162DA
:1044E000636465660000000030313233343536379E
:1044F00038394142434445460000000000F05AF973
:104500004519761C3078002800D0E2E528461BB01B
:10451000F0BD600700D406271898C01DC108C90067
:1045200048680A680831C30FDB071891190001D0E9
:104530009CA108E0210501D59BA104E0E10701D081
:104540009AA100E09AA1430011985B081091652898
:104550000CD006DC452809D046281DD0472841D17B
:1045600041E0662818D067283CD13CE00021112F9B
:1045700001DB112000E0781C0191009008A911A82E
:10458000FFF7E8FC139905910021119A15927F1C01
:1045900012980197009150E00120C007039001207C
:1045A000019008A9009711A8FFF7D4FC139A149959
:1045B00005920022119B009212981593059A019280
:1045C000002901D0104602E0791C40180190381AE9
:1045D00001D5019804E04042401E0090781C0190F3
:1045E000C01B029043E0012F00DA01270021112FA8
:1045F00001DD112000E038460191009008A911A8C2
:10460000FFF7A8FC13990591119A002112981592B1
:104610000091019721070CD40599B94201DB01995A
:1046200000E00191012904DD159A491E515C3029F1
:1046300006D0B84201DA011D05DA0121029115E028
:104640000199491EEDE7002805DC00994118009109
:104650000199091A03E0019A411C914200DD019180
:104660000099401A401C02900120C00703902007C7
:1046700006D402990198814202DB0020C0430290D7
:1046800000206946C87707AF012103980337C9079F
:10469000884224D0022011902B20129003980028E9
:1046A0000CDA404203902D20129007E00A21039873
:1046B000FBF7E7FF30317F1E039039701199481ED8
:1046C00011900029F2DC03980028EFD1791E12988E
:1046D00008703078202108404530BF1E387006A889
:1046E000C01BC01D039010980078002800D0012046
:1046F000019941180298C0170918039809180498DD
:10470000401A401E0490E00306D421461A9B199AD1
:10471000049800F05FF8451910980078002803D03D
:104720001A9A199990476D1CE00324D521461A9BCB
:10473000199A049800F04EF845191CE000980028DA
:1047400007DB00990598884203DD1598405C1999AC
:1047500001E0199930201A9A904700986D1C401C6E
:1047600000900298401E0290002804D11A9A2E2030
:10477000199990476D1C0199481E01900029DDDCB4
:1047800005E038781A9A7F1C199990476D1C039997
:10479000481E03900029F4DC21461A9B199A0498BC
:1047A000ACE600002D0000002B00000020000000FF
:1047B00000000000F8B5044600251E461746880490
:1047C00004D405E039462020B0476D1C641EF9D59D
:1047D0002846F8BDFFB50446002581B01E46C80333
:1047E00001D5302700E02027880404D505E03846AD
:1047F0000399B0476D1C641EF9D5284605B0F0BD7D
:10480000F0B504464F008E488FB07F080D460D91DD
:10481000874228DB4042381820430CD08948874221
:1048200003DC874218D1002C16D020462946FFF71A
:1048300059FB0FB0F0BD844A844B20462946FBF754
:1048400025FE07460E46824A824B20462946FBF744
:104850001DFE3A46334649E00120FFF775FBFFF79E
:104860004AFB0FB0F0BD7C48874243DAF92080054F
:1048700087420BDA20462946FFF7C8FA042801D1FF
:10488000FFF742FB204629460FB0F0BD22462B46DB
:1048900010462946FBF7FAFD064602466F480F46CA
:1048A0000B4606217844FFF7C7FA32463B46FBF732
:1048B000EDFD06906A48079132463B460421784454
:1048C000FFF7BAFA32463B46FBF7E0FD00225C4BAD
:1048D000FBF72AFD02460B4607990698FBF7E4FF13
:1048E00022462B46FBF7D2FD22462B46FBF71CFD4A
:1048F0000FB0F0BD2046524C690049080022234603
:10490000FBF7BCFD0022D243FCF746F80546024601
:1049100054480E460B4606217844FFF78DFA2A4686
:104920003346FBF7B3FD06904F4807912A463346BE
:1049300004217844FFF780FA2A463346FBF7A6FDA8
:1049400000222346FBF7F0FC0591049028463146EF
:1049500000F07CFA089045480C46874219DB059B1D
:10496000049A07990698FBF79FFF02460B462146DB
:104970000898FBF78BFD2346089AFBF7D5FC01222C
:10498000FCF70AF8304A314BFBF772FD304A314BE5
:104990004AE000273A460B460898FBF7C5FC3A4622
:1049A00023460A910E9010461946FBF76FFD2A46E2
:1049B0003346FBF763FD0A9B0E9AFBF775FF05462E
:1049C0000E46059B049A07990698FBF76DFF009128
:1049D0000490012228463146FBF7DEFF1A4A1B4BA2
:1049E000FBF74CFD0E460546012221460898FBF7D1
:1049F000D3FF009B049AFBF749FD2A463346FBF799
:104A000037FD05460E46012238462146FBF7C4FF16
:104A10000F4C174F22463B46FBF730FD2A463346E4
:104A2000FBF72CFD22463B46FBF728FD0D9A002A9A
:104A300000DD5DE70122D20751400FB0F0BD00005C
:104A40000000F03F0000F07F075C143326A6913C85
:104A5000182D4454FB21F93F0000E03FF005000011
:104A6000060600007C050000920500003333EF3F8E
:104A7000FB21E93FF0B589B004460D464800069198
:104A800072494008884215DB7149884203DC88423C
:104A900007D1002C05D020462946FFF723FA09B09C
:104AA000F0BD6C48002D02DD6B4909B0F0BD6B49CB
:104AB00009B0F0BD6A49884211DA6A4988420BDAC6
:104AC00020462946FFF7A2F9042801D1FFF71CFA76
:104AD0002046294609B0F0BD0026F6435DE06D0092
:104AE00061496D08884232DA6049884219DA002645
:104AF000012332469B0720462946FBF715FC074653
:104B00000191012220462946FBF746FF0022584B1F
:104B1000FBF7AEFC3A46019BFBF7C6FE04460D468A
:104B20003BE001260022524B20462946FBF7FCFBC6
:104B30000746009100224E4B20462946FBF798FC81
:104B40003A46009BFBF7B0FE04460D4625E0494976
:104B5000884219DA02260022474B20462946FBF7F5
:104B600095FC0022424BFBF7DFFB07460291002237
:104B7000414B20462946FBF77BFC3A46029BFBF75C
:104B800093FE04460D4608E0032622462B460020ED
:104B90003A49FBF789FE04460D4622462B4610464D
:104BA0001946FBF773FC07460B4602460191FBF7DB
:104BB0006DFC0246029032480B4603910621784470
:104BC000FFF73AF93A46019BFBF760FC00902D484D
:104BD000019105217844039B029AFFF72DF9039B6D
:104BE000029AFBF753FC02460B4601990098002EEF
:104BF0000BDAFBF799FB22462B46FBF747FC2246D4
:104C00002B46FBF73BFC09B0F0BDFBF78DFB2246C2
:104C10002B46FBF73BFC1C4AF6007A4493191A68B2
:104C20005B68FBF725FC22462B46FBF721FC174A65
:104C30007A4493191A685B68FBF720FC069A002AED
:104C4000E1DA0122D207514009B0F0BD0000104462
:104C50000000F07F182D4454FB21F93FFB21F9BFE0
:104C60000000DC3F0000203E0000F33F0000E63F74
:104C70000000F03F008003400000F83F0000F0BF5C
:104C80008E03000050030000EA020000B40200009E
:104C9000F0B51FB4039A029D53006E422E43944612
:104CA000F40F5B084A00574E52081C438E46B4422C
:104CB00005D847420743FC0F1443B44205D92A469E
:104CC0006346FFF714F905B0F0BD4F4E66442E431E
:104CD0000AD0CC0F6646B61702273E40264304464C
:104CE0004A4F144304D00BE0FFF7C4FE05B0F0BDFB
:104CF000002EFBD0012EF9D0022E32D0032E34D05C
:104D00001C462C430BD03F4CA34216D1A2420AD1E1
:104D1000012189078B438A43114603930DE07046B6
:104D200000280FDB25E03A4D7D44002E0ED0012EE9
:104D300010D0022E15D0032E17D0A2421DD17046DE
:104D4000002816DA3148334905B0F0BD6968286893
:104D500005B0F0BD01226968D2072868514005B04E
:104D6000F0BD38462C4905B0F0BD38462B4905B09A
:104D7000F0BD26482A4905B0F0BDD21A12153C2ACA
:104D800002DD224D264C12E06346002B05DA3C235F
:104D9000DA4202DA00252C4609E0039B029AFBF76F
:104DA00083FD49004908FFF765FE05460C46002EC5
:104DB00012D0012E0DD01B4A1B4B022E2846214635
:104DC00018D0FBF755FB3A46134BFBF751FB05B0E8
:104DD000F0BD0120C007444000221346284621466A
:104DE000FBF710FE02D10220FFF7AEF8284621465D
:104DF00005B0F0BDFBF73CFB3A46074BFBF73EFB2B
:104E000005B0F0BD0000F07F000010C0182D445424
:104E100054020000FB21F9BFFB210940FB2109C01E
:104E2000FB21F93F075C143326A6A13C10B50446CC
:104E300001E0FDF7EBF82078641C03490028F8D165
:104E40000A20FDF7E3F810BD00002020F8B5064663
:104E50000C46FBF72AFE051E0F4600D00120014339
:104E600049000B484908411AC90F0DD0002E01D046
:104E7000012100E000210C4361004908401AC00FE5
:104E800002D10120FFF760F828463946F8BD00003E
:104E90000000F07F00000000555555555555C53FA1
:104EA0007D6FEB0312D6D4BF5544880E55C1C93F60
:104EB0003B8F68B52882A4BF88B20175E0EF493FF7
:104EC00009F7FD0DE13D023F4B2D8A1C273A03C037
:104ED000C88A599CE52A004059018D1B6C06E6BF23
:104EE00082922EB1C5B8B33F4FBB610567ACDD3FC1
:104EF000182D4454FB21E93F9BF681D20B73EF3F01
:104F0000182D4454FB21F93FE2652F227F2B7A3C78
:104F1000075C143326A6813CBDCBF07A8807703C31
:104F2000075C143326A6913CC4EB98999999C9BFA4
:104F3000711623FEC671BCBF6D9A74AFF2B0B3BFD9
:104F40009AFDDE522DDEADBF2F6C6A2C44B4A2BF99
:104F50000D5555555555D53FFF8300922449C23F05
:104F60006E204CC5CD45B73F513DD0A0660DB13F39
:104F7000EB0D76244B7BA93F11DA22E33AAD903F4B
:104F800000000000000000000CC92C4CCD6CFA00A1
:104F9000F401E803D00700007000000000240000C6
:104FA00000020003000000650054FFEF0000FA80DB
:104FB000000B12820001030C30C30E8C8CE914D557
:104FC000400213710F8E3883F8833000F883258EEA
:104FD000F8833000F883FFFFFFFF0FFEA9D62400FF
:104FE00004001A8279A10000003CFFFF00000010BD
:104FF000000038836FA2003E03304000000002CA68
:10500000E3093E8000002000000000000000400096
:10501000000060000000000C0000000C186E000092
:1050200006920A16C0DFFFFF0256FD8CD377FFE120
:10503000C496E0C5BEAA00000000FFFF0B2B0000D5
:105040001657000003594000000000001DFA00023E
:105050006C1D000000003FFFDFEB003EB3B6000D0B
:10506000227800002F3C00000000001942B500002B
:1050700039A20000B365D90E9FC91DCF4C34300052
:105080000000500000003BB67AE80064000000C851
:10509000000000000000100000001000FA92100054
:1050A000225E000D229F0001000000320000FF463A
:1050B000000063D400001000000004D6000004CCFF
:1050C000000004CC0000000010720000004000004E
:1050D00000000000000000060002000500070000BC
:1050E0000000006400000000000000000005000552
:1050F000006400200000000000000000000000002C
:1051000040000000030000000032F8980000FF6536
:105110000000830F0000FF9BFC0000000000000067
:10512000000000000000000000000000000000007F
:10513000000000000000000000000000000000006F
:105140000000000010004000000000000006000009
:10515000B26A000200000001FB830068000000D971
:10516000FC007CF1FF83000000000065000000648B
:1051700003E800640028000000250000000016A0DD
:1051800000000000100000001000002F00000000D0
:1051900001F40000100000280000FFFF4581FFFF20
:1051A000FA72000000000000000000440005000545
:1051B000BAC6004778A2000000010000000000000D
:1051C0000600000000140000254D002F706D000047
:1051D00005AE000C02D0000000000000000000003E
:1051E000000000000000001B0000000000000000A4
:1051F0000000000000000064000000080000000043
:10520000000000000000000000000000000000009E
:10521000000000000000000000000000000000008E
:10522000000000000000000000000000000000007E
:10523000000000000000000000000000000000006E
:10524000000000000000000000000000000000005E
:10525000000000000000001B000000000000000033
:105260000000000E000E00000AC70004000000004D
:105270000032FFFFFF9C00000B2B0000000200002B
:10528000000100000064FFE50000000000000000D5
:10529000000000000000000000010000000000010C
:1052A00000000000000000018000000180000001FB
:1052B0008000002426D3000000000000000000064B
:1052C00000100096003C00000000000000000000FC
:1052D0000000000000000C0A4E68CDCF7709501680
:1052E0006759C619CE8200000000000000000000CF
:1052F000000000000000000000000000000017D7C0
:105300008400030000000000000000000000C793BC
:105310008F9D1E1B1C1900000000000000000000F3
:105320000000000000000000000000000000020378
:10533000188500004000000000030000000300008A
:10534000000000000000400000000000000000001D
:10535000000000000000000000000000000000004D
:10536000000000000000000000000000000000003D
:1053700000000000000000000000677DDF7E7290EA
:105380002E554CF6E68800000000000000000000EA
:10539000000000000000D8DCB4B8B0D8B9ABF3F816
:1053A000FAB3B7BB8E9EAEF132F51BF1B4B8B08044
:1053B00097F1A9DFDFDFAADFDFDFF2AAC5CDC7A93A
:1053C0000CC92C97F1A989264666B28999A92D5551
:1053D0007DB0B08AA896365676F1BAA3B4B280C032
:1053E000B8A89711B28398BAA3F02408441064189F
:1053F000B2B9B49883F1A329557DBAB5B1A383930B
:10540000F0002850F5B2B6AA839328547CF1B9A3D2
:10541000829361BAA2DADEDFDB819AB9AEF5606809
:1054200070F1DABAA2DFD9BAA2FAB9A38292DB315B
:10543000BAA2D9BAA2F8DF85A4D0C1BBAD83C2C5D8
:10544000C7B8A2DFDFDFBAA0DFDFDFD8D8F1B8AAA4
:10545000B38DB4980D355DB2B6BAAF8C96198F9FE7
:10546000A70E161EB49AB8AA872C547CBAA4B08A88
:10547000B691325676B28494A4C808CDD8B8B4B0E8
:10548000F19982A82D557D98A80E161EA22C547C49
:1054900092A4F02C5078F184A898C4CDFCD80DDBF0
:1054A000A8FC2DF3D9BAA6F8DABAA6DED8BAB2B6F5
:1054B0008696A6D0F3C841DAA6C8F8D8B0B4B882A8
:1054C000A892F52C548898F135D9F418D8F1A2D0C7
:1054D000F8F9A884D9C7DFF8F883C5DADF69DF8374
:1054E000C1D8F40114F1A8824EA884F311D182F539
:1054F000D992289788F109F41C1CD884A8F3C0F924
:10550000D1D99782F129F40DD8F3F9F9D1D982F4E0
:10551000C203D8DEDF1AD8F1A2FAF9A88498D9C755
:10552000DFF8F8F883C7DADF69DFF883C3D8F4015E
:1055300014F198A8822EA884F311D182F5D9925043
:105540009788F109F41CD884A8F3C0F8F9D1D99749
:1055500082F149F40DD8F3F9F9D1D982F4C403D812
:10556000DEDFD8F1AD8898CCA809F9D98292A8F5E8
:105570007CF1883ACF944A6E98DB6931DAADF2DE7D
:10558000F9D88795A8F221D1DAA5F9F417D9F1AEA7
:105590008ED0C0C3AE82C684C3A88595C8A588F244
:1055A000C0F1F4010EF18E9EA8C63E56F554F18866
:1055B00072F40115F19845856EF58E9E0488F142CE
:1055C000985A8E9E068869F4011CF1981E1108D025
:1055D000F504F11E970202983625DBF9D985A5F36B
:1055E000C1DA85A5F3DFD88595A8F309DAA5FAD83D
:1055F0008292A8F578F1881A849F26889821DAF497
:105600001DF3D8879F39D1AFD9DFDFFBF9F40CF355
:10561000D8FAD0F8DAF9F9D0DFD9F9D8F40BD8F301
:10562000879F39D1AFD9DFDFF41DF3D8FAFCA86921
:10563000F9F9AFD0DADEFAD9F88F9FA8F1CCF39858
:10564000DB45D9AFDFD0F8D8F18F9FA8CAF388091E
:10565000DAAF8FCBF8D8F2AD978D0CD9A5DFF9BAB8
:10566000A6F3FAF412F2D8950DD1D9BAA6F3FADA64
:10567000A5F2C1BAA6F3DFD8F1BAB2B68696A6D023
:10568000CAF349DAA6CBF8D8B0B4B8D8AD84F2C022
:10569000DFF18FCBC3A8B2B68696C8C1CBC3F3B037
:1056A000B48898A821DB718D9D71859521D9ADF2C3
:1056B000FAD88597A828D9F408D8F28D29DAF40504
:1056C000D9F285A4C2F2D8A88D9401D1D9F411F2EF
:1056D000D88721D8F40AD8F28498A8C801D1D9F47F
:1056E00011D8F3A4C8BBAFD0F2DEF8F8F8F8F8F898
:1056F000F8F8D8F1B8F6B5B9B08A95A3DE3CA3D9CD
:10570000F8D85CA3D9F8D87CA3D9F8D8F8F9D1A5F2
:10571000D9DFDAFAD8B18530F7D9DED8F830ADDA8A
:10572000DED8F2B48C99A32D557DA083DFDFDFB5E1
:1057300091A0F629D9FBD8A0FC29D9FAD8A0D0513C
:10574000D9F8D8FC51D9F9D879D9FBD8A0D0FC79AF
:10575000D9FAD8A1F9F9F9F9F9A0DADFDFDFD8A190
:10576000F8F8F8F8F8ACDEF8ADDE8393AC2C547C96
:10577000F1A8DFDFDFF69D2CDAA0DFD9FADB2DF808
:10578000D8A850DAA0D0DED9D0F8F8F8DB55F8D890
:10579000A878DAA0D0DFD9D0FAF8F8F8F8DB7DF8ED
:1057A000D89CA88CF530DB38D9D0DEDFA0D0DEDF86
:1057B000D8A848DB58D9DFD0DEA0DFD0DED8A86873
:1057C000DB70D9DFDFA0DFDFD8F1A888902C547C14
:1057D00098A8D05C38D1DAF2AE8CDFF9D8B087A8BF
:1057E000C1C1B188A8C6F9F9DA36D8A8F9DA36D82D
:1057F000A8F9DA36D8A8F9DA36D8A8F9DA36D8F717
:105800008D9DADF818DAF2AEDFD8F7ADFA30D9A435
:10581000DEF9D8F2AEDEFAF983A7D9C3C5C7F1889D
:105820009BA77AADF7DEDFA4F8849408A797F3006E
:10583000AEF29819A488C6A39488F632DFF2839357
:10584000DB09D9F2AADFD8D8AEF8F9D1DAF3A4DEB1
:10585000A7F1889B7AD8F38494AE19F9DAAAF1DF1C
:10586000D8A881C0C3C5C7A39283F628ADDED9F8F6
:10587000D8A350ADD9F8D8A378ADD9F8D8F8F9D1D4
:10588000A1DADEC3C5C7D8A18194F818F2B089ACFB
:10589000C3C5C7F1D8B8B4B09786A8319B0699079D
:1058A000AB9728889BF00C201440B0B4B8F0A88ABD
:1058B0009A285078B79BA82951792470594469389F
:1058C000644831F1BBAB88002C547CF0B38BB8A892
:1058D00004285078F1B088B49726A85998BBABB388
:1058E0008B02264666B0B8F08A9CA82951798B298C
:1058F00051798A2470598B2058718A4469388B39C0
:1059000040688A6448318B30496088F1AC002C547F
:105910007CF08CA804285078F1889726A85998AC78
:105920008C02264666F0899CA82951792470594436
:105930006938644831A98809205970AB1138406929
:10594000A8193148608CA83C415C207C00F1879804
:105950001986A86E767EA999882D557DD8B1B5B9DE
:10596000A3DFDFDFAED0DFAAD0DEF2ABF8F9D9B02B
:1059700087C4AAF1DFDFBBAFDFDFB9D8B1F1A397EE
:105980008E60DFB084F2C8F8F9D9DED89385F14A89
:10599000B183A308B5839A0810B79F10D8F1B0BAA5
:1059A000AEB08AC2B2B68E9EF1FBD9F41DD8F9D939
:1059B0000CF1D8F8F8AD61D9AEFBD8F40CF1D8F8F9
:1059C000F8AD19D9AEFBDFD8F416F1D8F8AD8D617A
:1059D000D9F4F4ACF59C9C8DDF2BBAB6AEFAF8F492
:1059E0000BD8F1AED0F8AD51DAAEFAF8F1D8B9B1C2
:1059F000B6A3839C08B9B1839AB5AAC0FD3083B71A
:105A00009F10B58B93F20202D1ABDADED8F1B080F1
:105A1000BAABC0C3B284C1C3D8B1B9F38BA391B63A
:105A200009B4D9ABDEB0879CB9A3DDF1B38B8B8B06
:105A30008B8BB087A3A3A3A3B28BB69BF2A3A3A324
:105A4000A3A3A3A3A3A3A3F1B087B59AA3F39BA396
:105A5000A3DCBAACDFB9A3A3A3A3A3A3A3A3A3A36B
:105A6000A3A3A3A3A3A3D8D8D8BBB3B7F1AAF9DA49
:105A7000FFD9809AAA28B48098A720B79787A866EC
:105A800088F07951F1902C870CA781976293F0717F
:105A9000716085940129517990A5F1284C6C870C8F
:105AA00095188578A38390284C6C886CD8F3A282D3
:105AB00000F210A8921980A2F2D926D8F188A84D38
:105AC000D948D896A83980D93CD89580A839A686D7
:105AD00098D92CDA87A72CD8A8899519A980D93804
