:020000040000FA
:10000000D8152020D5000000D9000000DB0000003A
:1000100000000000000000000000000000000000E0
:10002000000000000000000000000000DD000000F3
:100030000000000000000000DF000000E100000000
:10004000E3000000051E0000E3000000E3000000E4
:10005000E3000000E3000000E3000000E300000014
:1000600000000000E3000000E300000000000000CA
:1000700000000000E3000000E3000000E3000000D7
:10008000D1320000E3000000E3000000E3000000C4
:10009000E3000000E300000000000000000000009A
:1000A000E3000000E300000000000000000000008A
:1000B000E300000000000000E3000000E300000097
:1000C0000348854600F0A8FC00480047794C000032
:1000D000D815202003480047FEE7FEE7FEE7FEE7CD
:1000E000FEE7FEE7C1000000F8B500242546002920
:1000F00004DA0E46012400214042B141002B04DA0B
:100100001E46002352420125B34100F0E5FA8C4619
:1001100017461E46AC4203D0002540428D41AC46F6
:10012000002C02D0002657429E4161463A46334693
:1001300001B0F0BD30B5434351435C18010C130CC2
:100140000D465D432C1980B292B20546554351438A
:100150000A0C09044D1962415843010C000440196E
:10016000514130BD30B504460020034600E05B1C21
:10017000934203D2E05CCD5C401BF8D030BDF8B5B3
:1001800002464A40D40F42004B0052085B089A4294
:1001900002D20246084611464A0023D0C30D4A0047
:1001A000DDB2120EAD1A202D35DA49020126490AB8
:1001B000F6058A19002C00D0524220214F1B11460F
:1001C000B9402A411018C20D9A4221D0002C17D0F4
:1001D000012D08DCDA05801AD20F8019D207DBB2B4
:1001E00000F0D5FAF8BDDA05801A012340001B069D
:1001F000C01880185A428018CA0F1043490007E0FF
:100200004908C2071143DA05801A8019400880188E
:1002100000F0B5FAF8BD61000122511A001BF7E7A2
:100220000122D2075140AAE70122D2075040A6E797
:10023000024670B54A40D30FDB0740002DD04A007C
:100240002AD0010E140E000212020919400A520AA5
:100250008418E50104465443000A120A2E04504350
:10026000A4194219200CC543AA18120C0125AD038C
:10027000521C521912047F39240400D0521C10431E
:1002800001D44000491EC2B20C06C0092018401C0F
:100290004008802A02D003E0002070BD40084000E2
:1002A000002900DA0020184370BD70B502464A40AC
:1002B000D50F40004A00ED0740085208002814D02E
:1002C000002A12D0C40DD30D41020120C0055202F4
:1002D000490A520AE41A091812187D34914201D3CE
:1002E000641C00E04900002C01DA002070BD0023EE
:1002F000914201D3891A0343400849000028F7D1ED
:1003000000290AD0914202D10121C90705E091429A
:1003100001D2012101E00121C943E005C0184019C3
:1003200000F02DFA70BD0000F0B5074608465840B1
:1003300087B0C00F049048000E4659004008490895
:10034000BC1A884105D2384631461E4617460B4630
:1003500002465800400810434CD0300D0390400531
:100360005900400D490D0590401A0290402872DA5C
:1003700018030121000B090508430190049800921D
:10038000002805D001995242002088410092019036
:10039000029840210A1A0199009800F0CDF905460B
:1003A0000C466B4607CB00F0D7F9C0197141039A90
:1003B0000E0D0023D71756401A467A40164344D0F4
:1003C000049A002A2DD0029A012A039A15DC1205FC
:1003D000C01A914101263605001C7141D20F059EBD
:1003E000D2070093019202962A46234600F015FA9E
:1003F00007B0F0BD38463146FAE71605224A0F46E7
:10040000B218C01AB74101210905001C4F4100185C
:100410007F41114618187941E20F10436D1964416C
:1004200013E0E2076D0815436408C2071443039AFA
:1004300001261205C01A91413605001C7141CE07F4
:10044000400830434908C01851412A46234600F06D
:10045000D7F9CDE7FFE7049801224000C117121A2F
:1004600000238B4104983146C417381AA141EEE7A6
:1004700030B40124E407634030BC55E730B40124B4
:10048000E407614030BC4FE70000E0FFF0B51FB467
:1004900088B00B990998002448400999C00F490079
:1004A00049080991C0070B990090490049080B9130
:1004B00009990898A64608431CD00B990A98084346
:1004C00018D0099801244000420D4800410D0998B8
:1004D00024050003000B204309900B980003000B38
:1004E00020430B9050181C494018002201901446DC
:1004F000104605E0002001460DB0F0BD032801DAEA
:10050000034600E003239C46C11A0AAE0AE05F00DE
:1005100008ADED5B4F00F75B7D430027AA187C41D7
:10052000491C5B1E6145F2DD410004AB5A522104B7
:10053000120C0A43240C401C0828DFDB01980290AF
:100540000099704601910090059B049A07990698BE
:1005500000F063F9D0E700000DFCFFFF0122D20795
:10056000002800DB101A002900DB511A814201D853
:1005700001207047002070470122D207002800DBCD
:10058000101A002900DB511A814201D20120704764
:10059000002070470122D207002800DB101A002932
:1005A00000DB511A814201D30120704700207047BF
:1005B0000122D207002800DB101A002900DB511AA3
:1005C000814201D10120704700207047C217C10F3E
:1005D000504010B54018CA079623002100F0D7F804
:1005E00010BD10B500229623114600F0D0F810BDC2
:1005F000C20F410040020123400ADB05D207090E69
:10060000C0187F2901DA00207047962903DC962361
:10061000591AC84001E096398840002AF4D0404277
:100620007047C20FD207400040080BD0C10D07230E
:10063000DB01C91840020905400A1143C2084007FE
:100640001143704700200146704770B504460029E9
:1006500003D000202022012310E0002801D0002038
:10066000C043C046C0460DE02546D5408D4205D367
:100670000D469540641B1D46954040191546521E77
:10068000002DF1DC214670BD70B5002504462E46D4
:10069000002911D0002C01DA01254442002901DA99
:1006A000012649422046FFF7D0FFB54200D0404224
:1006B000002D00D0494270BD002C02DA0121C9078B
:1006C00002E0002C00DD03490846C046C046214632
:1006D00070BD0000FFFFFF7FF0B51FB4064600208D
:1006E00082B005464024019100901BE0019922460A
:1006F0000F46304600F0A8F9049A059B801A9941EC
:1007000010D310461946224600F016F8361A8F41CB
:100710000197224601200021009F00F00DF83818B3
:100720004D4100902046641E0028DFDC019B0098AC
:100730002946324607B0F0BD10B5202A04DB014639
:10074000203A9140002010BD914020239C1A03467E
:10075000E3401943904010BD10B5202A06DBCB17AB
:100760000846203A1041C1170B4306E00B461341DF
:10077000D0402024A21A91400843194610BD0029F8
:1007800004DA401C490001D140084000704770B4B1
:100790000024050C05D11024000402D1002921D029
:1007A0001124050E01D100020834050F01D100010A
:1007B000241D850F01D18000A41C002801DB40000E
:1007C000641C002908D020252E1B0D46F540A140B1
:1007D00000D001212943084301061B1B000ADB1D31
:1007E00002D5002070BC7047DB051818801800295E
:1007F000F8DA401C4900F5D170BC40084000704751
:1008000010B5002B08DA0024401C614192185B41AE
:100810001A4301D14008400010BDF0B51FB482B0AA
:1008200005460C0003D0084605F0CAFE02E005F0BC
:10083000C7FE20300246009021462846FFF77CFF85
:10084000049B059A04460F4618431143084314D0ED
:10085000184610431BD0009840210A1A18460599E3
:1008600000F0F2F805460E46009A05990498FFF745
:1008700063FF084305D0012004E02046394607B055
:10088000F0BD0020C11705430E432C4337430099A8
:100890000E986305401A7905E40A00220C43FD0A0C
:1008A0000A3002D500200146E9E701051019694127
:1008B0000C9C0D9D00196941FFF7A2FFDFE70000C6
:1008C000F0B50C465C4085B0E40FE40703944C009F
:1008D00000266408590094464908024602962243BD
:1008E00021D062460A431ED06200570D4A000E0313
:1008F0002303550D012402462C492405781B1B0BAC
:10090000360B401823432643614600901C46501A7C
:10091000B44103D30098401C009002E09218009864
:100920005B41002803DA0020014605B0F0BD00203D
:10093000012109050746864611E064461D46141B41
:10094000B54106D36546521BB341744607430C4379
:10095000A646CD0740084908284392185B41054642
:100960000D43EAD11046184313D060461946504053
:100970007140084306D06046101AB34106D20122E6
:10098000002306E000220123DB0702E00122D2431C
:100990005310009874460105381C6141029C039D68
:1009A00000196941FFF72CFFBFE70000FD030000BD
:1009B0004A0009030123090B1B0519430A4B10B513
:1009C000520D9A4202DA0020014610BD064B343324
:1009D0009A4203DC9A1A00F037F810BD034BD21884
:1009E000FFF7AAFE10BD0000FF030000CDFBFFFFD4
:1009F00010B5002904DB0124E40740428C41214664
:100A0000002B04DB1C460123DB075242A341994221
:100A100000D1904210BD00001CB509480090094863
:100A2000019005460126009C05E0E36807CC3343AE
:100A30000C3C98471034AC42F7D3FFF745FB00005D
:100A40001C8800003C88000010B5202A04DB084602
:100A5000203AD040002110BD0B46D340D040202486
:100A6000A21A91400843194610BD000070B58AB023
:100A70000120029041046948019000F08DFA02992A
:100A80000246019853425A41654B05931A60090486
:100A900000F082FA014602984A425141614A0492AA
:100AA000116001036048039000F076FA0299024653
:100AB000039853425A415D4C2260C90600F06CFA1B
:100AC000049B059A41424841594908600868C000A2
:100AD0002568AD0028431D686D002843156828432C
:100AE00009900D680220C04368432568401B1D68BB
:100AF000401916680325754345194E480560096875
:100B0000246809191B68C91812688A184A490A60BA
:100B100000680968FFF7B8FD08900898FFF756FDD0
:100B200046490968FFF784FBFFF762FD07900998C3
:100B300006900C2870D80698810001A0405887467E
:100B4000750B0000C50B0000AF0B0000030C00008C
:100B5000830B0000190C0000DB0B0000190C0000D7
:100B6000990B0000190C0000190C0000190C000072
:100B7000ED0B0000324800683249096801F0A8FE18
:100B80004AE02F480168079808182E4A12682E4B31
:100B90001B6801F0C0FE3FE029480168079808186B
:100BA000284A1268284B1B6801F0B5FE34E024483F
:100BB000016807980818234A1268234B1B6801F044
:100BC000AAFE29E01E480168079808181D4A126805
:100BD0001D4B1B6801F09FFE1EE019480068194973
:100BE0000968194A126801F081FE15E0144801688D
:100BF00007980818134A1268134B1B6801F08BFE04
:100C00000AE00F480168079808180E4A12680E4B50
:100C10001B6801F080FEFFE70AB070BD00200A40AB
:100C2000A8052020A405202000000A40A0052020BF
:100C30009C0520207C002020780020200C00202013
:100C400030002020D0042020D404202082B0019045
:100C50000199881E001F00BFFCD2009002B07047AF
:100C600084B003900291019203980068009000986C
:100C700001998843009000980299019A1140084315
:100C80000399086004B0704784B003900291019208
:100C9000039800680090009801998843009000989C
:100CA0000299019A114008430399086004B0704703
:100CB00084B003900291019203980068009000981C
:100CC00001998843009000980299019A11400843C5
:100CD0000399086004B0704784B0039002910192B8
:100CE000039800680090009801998843009000984C
:100CF0000299019A114008430399086004B07047B3
:100D000084B00390029101920398006800900098CB
:100D100001998843009000980299019A1140084374
:100D20000399086004B0704782B001900091009B65
:100D30000199D44A88581843885002B07047C04679
:100D400082B001900091009B0199CE4A88581843C7
:100D5000885002B07047C04682B001900091009860
:100D6000019995225201885002B0704782B00190DB
:100D700000910098019995225201885002B0704765
:100D800082B00190009100980199952252018850FB
:100D900002B0704782B001900091009801999522AD
:100DA0005201885002B0704782B0019000910098C3
:100DB000019995225201885002B0704781B000908D
:100DC00000988100734A885801235B0618438850B5
:100DD00001B0704781B00090009881006D4A88583A
:100DE00001235B061843885001B0704782B0019020
:100DF0000091009B0199034A88581843885002B01B
:100E00007047C0462810000082B001900091009801
:100E10000199074A885002B07047C04682B00190DD
:100E2000009100980199024A885002B07047C0466C
:100E3000D012000081B0009000990120C202AD489C
:100E4000885001B07047C04682B00190009101986F
:100E5000024940580099084002B07047381000001D
:100E600081B00090009881004A4A1848885001B02B
:100E70007047C04610B584B0069C03900291019261
:100E80000093029801990843009908430699084382
:100E90000E490843039989003E4A885004B010BDAA
:100EA00010B584B0069C03900291019200930298C1
:100EB00001990843009908430699084303490843E8
:100EC00003998900334A885004B010BD81000400A2
:100ED00081B00090009881002E4A8120885001B096
:100EE0007047C04681B0009000988100294A812057
:100EF000885001B07047C04682B0019000910098C0
:100F00001D49084301998900224A885002B0704760
:100F100010B584B0079C069C039002910192009347
:100F200002980199084300990843069908430799D4
:100F300008431149084303998900164A885004B0B0
:100F400010BDC04610B584B0079C069C039002916A
:100F50000192009302980199084300990843069969
:100F60000843079908430449084303998900094A3B
:100F7000885004B010BDC0468000040082B00190CB
:100F8000009100988021084301998900014A885006
:100F900002B070470480424082B0019000910198F5
:100FA0002721C90140580099084002B0704782B01B
:100FB0000190009101982721C901405800990840EB
:100FC00002B0704782B00190009101982721C901B9
:100FD00040580099084002B0704782B001900091DB
:100FE00001982721C90140580099084002B0704774
:100FF00081B000900099934A9348885001B070479F
:1010000082B001900091009801990C4A885002B07A
:101010007047C04682B00190009100980199074A3C
:10102000885002B07047C04682B00190009100988D
:101030000199024A885002B07047C04690120000E1
:1010400082B001900091009B01999D204201885837
:101050001843885002B0704782B001900091009808
:101060000199024A885002B07047C046B012000091
:1010700082B00190009100980199024A885002B014
:101080007047C0464810000081B0009000990920C8
:101090004202885801231B021843885001B0704750
:1010A00081B000900099084A88580123184388505D
:1010B00001B0704781B000900099034A885804231A
:1010C0001843885001B070472812000081B000908A
:1010D00000990120C2020748885001B07047C046FD
:1010E00081B0009000990120C2020248885001B0EE
:1010F0007047C0460100002680B584B0039002917D
:1011000001A80280694600200880FFE76846008841
:1011100001A90988884215DAFFE7039800F06AF808
:10112000002808D1FFE7039802996A461288895C73
:1011300000F030F900E005E0FFE70098401C694648
:101140000880E3E76846008804B080BD80B582B0BF
:101150000190019800F008F9FFE7019800F03AF8D3
:10116000002801D1FFE7F8E7019800F007F902B085
:1011700080BD000081B0009000980249405801B045
:101180007047C0461812000082B00190009101988B
:10119000024940580099084002B0704730100000E2
:1011A00082B0019001980449405802210840009003
:1011B0006846007802B070473412000081B0009099
:1011C0000098124940580F2108404142484101B05F
:1011D0007047C04681B0009000980C4940580F21DC
:1011E00009020840024940184142484101B0704795
:1011F00000F8FFFF81B000900098044940580F218B
:10120000090208404142484101B070473C120000C9
:1012100081B00090009802494058C0B201B07047B8
:101220001C12000081B000900099064A06488850C0
:1012300001B0704781B000900099024A024888507E
:1012400001B0704704080000030000B181B00090B5
:101250000099434A0020885001B0704780B584B09F
:10126000019101460198039102A90880039809227F
:1012700052028018098803225202FFF7F1FC04B0E1
:1012800080BD000080B582B00190009101980949AD
:101290004018009909780C22FFF71EFD01980121E2
:1012A00009034018009949780722FFF715FD02B09D
:1012B00080BDC0460410000080B584B00191014695
:1012C0000198039102A908800398314A801809887F
:1012D00007221202FFF7C4FC04B080BD80B584B0C1
:1012E000019101460198039102A908700398284AC8
:1012F000801809780722FFF7B3FC04B080BDC04610
:1013000082B001906846017000780199014A8850C6
:1013100002B070472412000010B586B00192024658
:1013200001980592049103AA107002A80380059801
:10133000094940180499490012781143074AFFF7F8
:10134000DFFC05980649401802990904C91D054AA1
:10135000FFF7D6FC06B010BD10120000FF0700001A
:10136000141200000700FF0F81B000900099084A96
:10137000885880231843885001B0704781B000908E
:101380000099034A885880239843885001B07047D9
:101390003812000082B0019068460170007801990F
:1013A00091225201885002B0704782B00190684685
:1013B00001700078019991225201885002B0704763
:1013C000F0B584B001242202344B19680392914392
:1013D000196062490D686D04FCD5457E25409E6903
:1013E000A64374199C612024045D03252C40DE690A
:1013F000AE433419DC611F4C256805262660466A19
:1014000037681F6276685E6207262E402660C469D0
:101410007F252D02DE69AE436406640C3419DC615D
:101420000768456882680092C6680269019242694D
:1014300002929A69104C14403A07120B2D03ADB278
:10144000AA183243009D2D072D0D1543019A15430F
:10145000029A1543007E2843084A024010199861F9
:101460001868039A1043186008688005FCD504B01A
:10147000F0BDC046001340408D00F0FF72FF0F002A
:1014800006490868012290430860704703490868CC
:1014900001221202904308607047C04608010B40C9
:1014A0002D49086801221203104308607047C046A6
:1014B00081B0009000980349086003490348086020
:1014C00001B0704700030B4004030B40010000E42F
:1014D00081B001466846017000780249086001B099
:1014E0007047C04608030B4080B582B0014601A892
:1014F000018001880F2002021748FFF7B1FB02B0FC
:1015000080BDC04680B582B0014601A80170017857
:1015100002480322FFF7A4FB02B080BD00010B408C
:1015200080B582B0014601A8017001780A483022D6
:10153000FFF796FB02B080BD074988600748026844
:101540009202FCD5012212040B6813430B60016860
:10155000C906FCD57047C04604010B4004020B408D
:1015600009490868052210430860704781B000905F
:101570000549042008600098401E04490860044999
:101580000020086001B0704710E000E014E000E0C7
:1015900018E000E080B58CB00B900A910A98407971
:1015A000C00700285CD0FFE70A9800790790002860
:1015B00004D0FFE7079820280CD018E00B9888216A
:1015C0000691022200F0B8F906990B98032200F068
:1015D000B3F919E00B98212109010591022200F0CD
:1015E000ABF905990B98032200F0A6F90CE00B98D3
:1015F0000521C9010491022200F09EF904990B987B
:10160000032200F099F9FFE70B98002202920223CF
:101610000193114600F0AAF9029A0B980323039351
:10162000114600F0A3F90199029B0B98009119460D
:101630001A4600F0D3F9029B03990B9800911946C2
:101640001A4600F0CBF9019B029A0B98114600F064
:10165000ABF9029A039B0B98114600F0A5F9FFE73E
:101660000A98006808900A98007908A908710A98F1
:10167000807948710B9800F031F80CB080BD000003
:1016800081B000900099024A0120885001B0704753
:101690000811000082B001900091009B0199034A5B
:1016A00088581843885002B07047C0462810000080
:1016B00081B0009000990120C2020248885001B018
:1016C0007047C0460100002681B00090009881213B
:1016D00049014058C0B201B07047000080B58AB0DF
:1016E00009900891089800790790002804D0FFE736
:1016F0000798202812D029E0099808990968491EFE
:1017000000F0C6F9099888210691002200F014F92A
:1017100006990998012200F00FF92AE00998089922
:101720000968491E00F0B4F909982D490491002276
:1017300000F002F9049909980122059200F0FCF8E2
:1017400005990998490700F095F912E00998089958
:101750000968490800F09CF909980521C90103911D
:10176000002200F0E9F803990998012200F0E4F85A
:10177000FFE709980023019319461A4600F0F6F88E
:10178000019A099801230293114600F0EFF8019B9A
:101790000998009319461A4600F020F9019B029916
:1017A0000998009119461A4600F018F9019B09980A
:1017B00019461A4600F0F8F8019A029B099811465A
:1017C00000F0F2F80998BD494018089A1179527949
:1017D000114302221143034AFFF76AFA0AB080BD9F
:1017E00001040000BFFF003080B584B00390029177
:1017F00003980299496800F04BF90298007801902B
:10180000222856D80198810001A040588746C0463A
:10181000A9180000B3180000A9180000B3180000B0
:10182000B3180000B3180000B3180000B31800008C
:10183000B3180000B3180000B3180000B31800007C
:10184000B3180000B3180000B3180000B31800006C
:101850009D180000B31800009D180000B318000088
:10186000B3180000B3180000B3180000B31800004C
:10187000B3180000B3180000B3180000B31800003C
:10188000B3180000B3180000B3180000B31800002C
:101890009D180000B31800009D1800000398012156
:1018A000490700F0E7F805E00398002100F0E2F8AE
:1018B00000E0FFE70398029909690022009200F016
:1018C000ADF8009B03980299C9681A4600F04EF8DB
:1018D00002990878097A08430399784A885004B035
:1018E00080BDC04681B000900099AE4AAE48885095
:1018F00001B0704782B001900091009801991122C7
:101900001202885002B0704780B584B003900291F3
:1019100001A802700399224A891800910178009861
:101920008900401800900098029907229204FFF75E
:10193000BFF904B080BDC04680B584B00390029169
:1019400001A802700399074A89180091017800984C
:1019500089004018009000980299034AFFF7A8F9FF
:1019600004B080BD70180000DB06C00F10B586B053
:1019700005900491039202A803700599084A8918FA
:10198000019101780198890040180190019804990B
:10199000039A1143034AFFF78BF906B010BDC04606
:1019A000301800007777020010B586B005900491DA
:1019B000039202A8037005993122D201891801917E
:1019C0000178019889004018019001980499039AC0
:1019D00011438F22FFF76CF906B010BD10B587B028
:1019E0000091044600980999069405900492039387
:1019F00002A801700699084A891801910178019896
:101A000089004018019005980499084303990843F8
:101A10000199086007B010BD5018000084B0039011
:101A2000029101A802700399064A89180091017871
:101A3000009889004018009002980099086004B04E
:101A40007047C0461018000082B0019000910098C5
:101A500000780199704A88500098407801990122D5
:101A600012038850009880780199864A885002B005
:101A70007047C04680B582B00190009101980F492F
:101A80004018009903221207FFF712F902B080BD37
:101A900082B00190009100980199024A885002B0EA
:101AA0007047C0460818000081B000900099034AB2
:101AB000885801231843885001B07047041800006B
:101AC00081B00090009911200202885801239843A8
:101AD000885001B0704781B0009000991120020237
:101AE000885801231843885001B0704781B0009096
:101AF000009911200202885801235B041843885082
:101B000001B0704781B000900099112002028858FE
:101B100004231843885001B07047000081B0009042
:101B200000990120C2020248885001B07047C046A7
:101B30000100002680B582B0019000910198FFF766
:101B4000BFFF0198112109024018009A118893786B
:101B5000194392881143084AFFF796F801982549DE
:101B60004018009A9179D3791943127A11437E2251
:101B7000FFF78AF802B080BD1867020081B00090BC
:101B80000098034940580121084001B07047C04601
:101B90000811000081B000900099024A0248885064
:101BA00001B0704704080000030000B180B584B0A4
:101BB00003900291019203980B49401802990B4A35
:101BC000FFF74EF803980A49401801993F22FFF7A2
:101BD00047F80399074A8818895801221140FFF7EE
:101BE0003FF804B080BDC04610110000FFFF0000A8
:101BF000141100000411000082B0019000910098BF
:101C000000780199044A885000984078019901228F
:101C10001203885002B070470810000080B582B0EF
:101C200001900091019811210902401800990322A6
:101C3000D203FFF715F802B080BD000080B584B074
:101C4000019101460198039102A9087003980D4A79
:101C5000801809787022FFF703F804B080BDC046F1
:101C600080B584B0019101460198039102A90870E2
:101C70000398044A801809780722FEF7F1FF04B0A0
:101C800080BDC0460C11000082B001906846017012
:101C90000078019989225201885002B070470000F3
:101CA00080B584B003A90020087002AB01931870BE
:101CB00068207521012202F057FF494804F05CFCBE
:101CC00001980078682804D0FFE70320FFF7F0FBB5
:101CD000FFE703F0C3F9002871D1FFE7782004F093
:101CE0002DF9002804D1FFE73D4804F045FC03E04E
:101CF00003A901200870FFE7782003F017F80028F7
:101D000004D1FFE7374804F037FC03E003A90120C2
:101D10000870FFE7C82004F09BF8002804D1FFE713
:101D2000314804F029FC03E003A901200870FFE713
:101D300001F07AFF002804D1FFE72C4804F01CFCD6
:101D400003E003A901200870FFE7294802F02AFFF9
:101D500002F0E2F8002804D1FFE7264804F00CFC6A
:101D600003E003A901200870FFE7FF20743001F0B1
:101D7000CDFD002804D1FFE71F4804F0FDFB03E080
:101D800003A901200870FFE7C82001F0DDFF00284B
:101D900004D1FFE7194804F0EFFB03E003A9012099
:101DA0000870FFE704F03AFB012003F0DDFE002895
:101DB00004D1FFE7124804F0DFFBFFE703E0032054
:101DC000FFF776FBFFE703A80078002806D0FFE7BF
:101DD00002F07CFF0320FFF76BFBFFE704B080BD40
:101DE000D2870000AD87000019870000C28600007E
:101DF0003400202087870000F48600003F87000021
:101E00006387000080B582B0032041063F48FFF79A
:101E10001BF83F4901910860112001053D48FFF77B
:101E200013F8014601983C4A1160C07880070028E9
:101E300013D5FFE7012081063448FFF7C3F80028D7
:101E400005D1FFE735490868401E086004E03349C2
:101E50000868401C0860FFE719E02D48C07840077B
:101E6000002813D5FFE7012041062848FFF7AAF80C
:101E7000002805D1FFE729490868401C086004E0F4
:101E800026490868401E0860FFE7FFE7FFE7224891
:101E90008078C006002813D5FFE7012001061D4801
:101EA000FFF790F8002805D1FFE71D490868401E9C
:101EB000086004E01A490868401C0860FFE719E060
:101EC0001548C078C007002813D0FFE7012001059E
:101ED0001048FFF777F8002805D1FFE71049086898
:101EE000401C086004E00E490868401E0860FFE7D7
:101EF000FFE7FFE7032041060448FEF721FF11201A
:101F000001050448FEF71CFF02B080BD00000A4036
:101F10009405202000200A409805202084002020DD
:101F20008000202010B584B003AC2080029101A86D
:101F300002800093002004B010BD10B584B003AC43
:101F40002080029101A802800093002004B010BDFF
:101F500010B588B00191014601980A9C06AC218019
:101F600005A90880049203AA138001200290069814
:101F7000400809781278049BC0B204F01DF9029061
:101F80000298002804D1FFE707A90020087003E0A9
:101F900007A901200870FFE707A8007808B010BD66
:101FA00010B588B00091014600980A9C06AC2180CB
:101FB00005A90880049203AA138002AB01930120B3
:101FC00018700698400809781278049BC0B204F093
:101FD0007DF90146019801700078002804D1FFE7DF
:101FE00007A90020087003E007A901200870FFE797
:101FF00007A8007808B010BD80B582B0014601A8DE
:102000000180008801F0FEFB02B080BD80B505486C
:10201000FFF7C6F8002803D1FFE702F057FEFFE7FD
:1020200080BDC04600000F40B0B586B00193144695
:10203000019A0B46014605A8017004A90B7003AB79
:102040001C700292534A12681469007840000978A3
:10205000029A1B78C8250095A04706B0B0BDC046BF
:1020600010B588B00C46014607A8017006A90C708F
:1020700005AC227004AA02921370464A12681469D1
:10208000007840000978C822009203AA0123A047E3
:1020900002980078002809D0FFE703A8007805A976
:1020A0000A78012191400843019008E003A80078D4
:1020B00005A90A780121914088430190FFE7019822
:1020C00003AA107033480068C46807A8007840006D
:1020D00006A90978C82300930123A04708B010BDC2
:1020E000B0B58AB014460D4601460E9A08A8017094
:1020F00007A90D7006AD2C7005AC237004AB1A70E7
:10210000244A12681469007840000978C8220092B5
:1021100003AA0123A047002833D1FFE706A80578CA
:10212000691CFF231A468A4005A90C78641BE41D2C
:10213000E3401A4302AB1A700A780821891A049AFC
:102140008A4004A90A7002780720821A0878D040D1
:10215000087002990398084003AA10700499039824
:10216000084310700B480068C46808A80078400055
:1021700007A90978C82300930123A04709A908707B
:1021800003E009A901200870FFE709A800780AB058
:10219000B0BDC0464400202080B596B00A20129001
:1021A00001F05EFA0146129815AA1392117001F01F
:1021B000B9FA0146139814AA1170007801281DD1AC
:1021C000FFE7A2480068002806D1FFE7A149086898
:1021D00042425041086010E09C480068012805D048
:1021E000FFE79A480068022806D1FFE79849087877
:1021F000424250410870FFE7FFE712E015A800785F
:1022000002280DD1FFE791480168491C0160006870
:10221000032804DBFFE78D4900200860FFE7FFE7A4
:10222000FFE714A80078012800D0DBE087480068A9
:1022300001284AD1FFE788480078002813D1FFE73A
:10224000834801788A488B4A10920029119001D165
:102250001098119011998A480F900068FDF78FFF30
:102260000F99086018E07C480078022813D1FFE736
:10227000774801787A487B4A0D9200290E9001D167
:102280000D980E900E997D480C900068FDF777FF31
:102290000C990860FFE7FFE7794800680021FEF726
:1022A00079F9002804D1FFE7754900200860FFE7AD
:1022B000724800680021FEF76DF9002804D1FFE79D
:1022C0006E4900200860FFE78BE060480068022844
:1022D0006FD1FFE760480078002813D1FFE75C4822
:1022E00001786348634A0A9200290B9001D10A9849
:1022F0000B900B99604809900068FDF740FF099921
:10230000086031E054480078012813D1FFE75048B5
:1023100001785348534A07920029089001D1079841
:1023200008900899514806900068FDF728FF069923
:10233000086018E048480078022813D1FFE74448B5
:1023400001784748474A04920029059001D1049832
:1023500005900599444803900068FDF710FF039924
:102360000860FFE7FFE7FFE7434800680021FEF74A
:1023700011F9002804D1FFE73F4900200860FFE77A
:102380003A4800680021FEF705F9002804D1FFE76C
:10239000364900200860FFE7334800680021FEF757
:1023A000F9F8002804D1FFE72F4900200860FFE773
:1023B00016E026480068002811D1FFE7244801787C
:1023C0000020C043019001200029029001D1019812
:1023D0000290029A2149086880180860FFE7FFE729
:1023E000FFE731E014A8007802282CD1FFE7174856
:1023F0000068012807D1FFE7174908784242504199
:10240000400008701EE01148006802280DD1FFE767
:1024100011480178491C01700078032804DBFFE7AC
:102420000D4900200870FFE70BE00848006800280D
:1024300006D1FFE706490878424250410870FFE79D
:10244000FFE7FFE7FFE7FFE716B080BD8C00202025
:102450007400202004002020BE0420203000202012
:102460000AD7233C0AD723BC94042020280020202C
:10247000CDCCCC3DCDCCCCBD2C00202008002020E4
:102480000C00202080B582B0014601A801800088A0
:10249000002803D1FFE700F017F810E00949088889
:1024A000401C088080B201A90988884206D1FFE754
:1024B00000F012F8034900200880FFE7FFE702B0B0
:1024C00080BDC0468800202080B50120410206481A
:1024D000FEF74CFC80BDC04680B501204102024899
:1024E000FEF7BAFD80BDC04600200A4080B582B02C
:1024F000054B0193682075210122FFF795FD019896
:10250000007802B080BDC046A804202080B582B00B
:10251000FFF7ECFF682804D0FFE70320FEF7C8FFB1
:10252000FFE7022000F012F8032000F02DF8002051
:10253000019000F01AF8019800F04FF8019800F0AF
:102540003FF8019800F02FF802B080BD80B582B04E
:10255000014601A801700078009068206B210222DA
:102560000323FFF7BDFD02B080BD80B582B00146F8
:1025700001A801700078009068201C210422022329
:10258000FFF7AEFD02B080BD80B582B0014601A864
:1025900001700078009068201B2104220223FFF7BD
:1025A0009FFD02B080BD80B582B0014601A80170D8
:1025B0000378682037210122FFF752FD02B080BD69
:1025C00080B582B0014601A80170037868206A21B5
:1025D0000522FFF745FD02B080BD80B582B00146FF
:1025E00001A80170037868206B210622FFF738FDEF
:1025F00002B080BD80B5A4B000F0A2F99448006894
:102600002390002809D0FFE7239801284FD0FFE747
:102610002398022800D1A2E016E1A2480268A2484D
:10262000036891481E90A14903F0B6FF1E9A00214D
:102630001F91084600F074FB1E989D490A689D4949
:102640000B689D4903F0A8FF1E9A1F98102100F007
:1026500067FB1E9899490A6899490B68994903F0E4
:102660009BFF1E9A1F98202100F05AFB1E98964946
:102670000A68964903F090FF1E9A1F983021209116
:1026800000F04EFB7E4801787E487F4A2192002967
:10269000229001D1219822901E98229A7B4903F022
:1026A0007BFF20991E9A642000F03AFBCCE0784A28
:1026B00000211791084600F033FB76480068FDF7CB
:1026C000B0FF1890199165481A90017864481B90E2
:1026D000644A1C9200291D9001D01C981D90199BE2
:1026E000189A1D980090604813906B4903F054FFAE
:1026F000139A1798102100F013FB68480068FDF743
:1027000090FF02461B9814920A461A99159209786E
:102710000229169001D01C9816901398159B149AB4
:10272000169900915E4903F037FF139A17982021FC
:1027300000F0F6FA524801785248534A11920029A3
:10274000129001D1119812901398129A4F4903F0E8
:1027500023FF1799139A642000F0E2FA74E03D4ACF
:1027600000210A91084600F0DBFA3B480068FDF7BB
:1027700058FF0B900C9139480D90017838480E9015
:10278000384A0F920029109001D00F9810900C9B9E
:102790000B9A1098009034480690344903F0FCFEE0
:1027A000069A0A98102100F0BBFA31480068FDF73C
:1027B00038FF02460E9807920A460D99089209784A
:1027C0000129099001D00F9809900698089B079A53
:1027D00009990091274903F0DFFE069A0A98202103
:1027E00000F09EFA24480068FDF71BFF02460E9891
:1027F00003920A460D99049209780229059001D0A6
:102800000F9805900698049B039A059900911B491F
:1028100003F0C2FE069A0A98302100F081FA1848A7
:1028200001781848184A01920029029001D10198B4
:1028300002900698029A154903F0AEFE0A99069A8C
:10284000642000F06DFAFFE700F082F924B080BD4B
:102850008C002020B38500002C002020BE04202006
:10286000B1850000AB850000AC0520202586000066
:10287000280020201B8600009404202011860000E0
:1028800074002020AD850000AF8500000C8600009C
:10289000BB8500000C002020F485000008002020EB
:1028A00000860000D0042020D4042020DD85000014
:1028B0009C052020A0052020C1850000A405202023
:1028C000A8052020CF85000030002020E7850000EB
:1028D00080B584B00390029103996420484301902D
:1028E0000198002100F068FC04B080BD80B586B07E
:1028F0000590049103920598049900F01DFD029043
:102900000598039900F06EFD01900298019900F07E
:1029100053FC06B080BD80B586B00590049103924B
:102920000293059A6420014651430191049948435A
:1029300000900198009900F03FFC06B080BD0000B7
:1029400080B582B001A900200870FFE701A80078D7
:1029500007281EDCFFE7694600200870FFE768468D
:1029600000787F280FDCFFE768460078C1009648B2
:10297000411801A8027800208854FFE70098401C05
:1029800069460870EBE7FFE70198401C01A9087051
:10299000DCE700F0DDF802B080BDC04686B003463B
:1029A00005A8037004AB197003A90A706A460021D8
:1029B000117000787F2805DCFFE704A80078402824
:1029C00001DBFFE72DE004A90878C2080720821A7E
:1029D00002AB1A700A78024001A90A700978411AFC
:1029E000012088406946087003A8007800280CD0B0
:1029F000FFE7009B05A80078C1007348411802A8B2
:102A00000278885C184388540BE0009B05A8007886
:102A1000C1006D48411802A80278885C9843885428
:102A2000FFE706B07047C04680B582B000F06EF890
:102A3000782000F0E7FE00F071F8AE20002101914F
:102A400000F0ABF90199D52000F0A7F901995020C9
:102A500000F0A3F90199A82000F09FF901993F2007
:102A600000F09BF90199D32000F097F901990846ED
:102A700000F093F90199402000F08FF901998D2021
:102A800000F08BF90199142000F087F901992020BA
:102A900000F083F90199022000F07FF90199A1204B
:102AA00000F07BF90199C02000F077F90199DA2054
:102AB00000F073F90199122000F06FF9019981205B
:102AC00000F06BF90199EF2000F067F90199D92026
:102AD00000F063F90199F12000F05FF90199DB2022
:102AE00000F05BF90199302000F057F90199A4201A
:102AF00000F053F90199A62000F04FF90199AF2099
:102B000000F04BF9FFF71CFF02B080BD80B501203B
:102B100081030E48FEF73EF980BDC04680B5012016
:102B200081030A48FEF776FA80BDC04680B50120D1
:102B3000C1030648FEF72EF980BDC04680B50120CE
:102B4000C1030248FEF766FA80BDC04600200A4075
:102B500080B584B003A900200870FFE703A80078BF
:102B600007282FDCFFE70398B030C0B200210191A5
:102B700000F013F90199084600F00FF901991020AF
:102B800000F00BF9019802A90870FFE702A800788D
:102B90007F2811DCFFE702A80078C1000A4840182E
:102BA00003A90978405C012100F0F7F8FFE70298DB
:102BB000401C02A90870E9E7FFE70398401C03A93D
:102BC0000870CBE704B080BD9400202080B50120C0
:102BD0000107E148FEF7DEF880BDC04680B5012060
:102BE0000107DD48FEF716FA80BDC04680B501201A
:102BF000C107D948FEF7CEF880BDC04680B5012098
:102C0000C107D548FEF706FA80BDC046B0B58AB008
:102C100004460E9809AD2C7008AC217007A90A7003
:102C200006AA137005AA1070089801AA10700798D8
:102C30002038087003A900200870FFE703A8007877
:102C400006A90978884264DAFFE706A800780C280C
:102C50000CD1FFE707A800780C2141432F4840180A
:102C600003A90978405C04A908700AE007A8007865
:102C700001012948401803A90978405C04A908709B
:102C8000FFE702A900200870FFE702A800780728E4
:102C900039DCFFE704A800780006002809D5FFE723
:102CA00009A8007808A9097805AA1278FFF776FE26
:102CB0000AE009A8007808A9097805AA1278534201
:102CC0005A41FFF76BFEFFE70498400004A9087023
:102CD0000898411C08A80170007801A90978401AD9
:102CE00006A90978884208D1FFE7019808A9087069
:102CF0000998401C09A9087005E0FFE70298401CEC
:102D000002A90870C1E7FFE70398401C03A90870F7
:102D100094E70AB0B0BDC046A07F00002C7B000045
:102D200080B586B005AB187004A801700392FFE768
:102D30000398007800282ED0FFE705A800787B28AC
:102D400008DBFFE705A9002008700498103004A9EB
:102D50000870FFE704A800783B2808DBFFE705A917
:102D60000020087004A90870FFF7EAFDFFE705A836
:102D70000290007804A90978039A1278012300933D
:102D80000C23FFF743FF0299059808300870039859
:102D9000401C0390CCE706B080BD80B584B003AA88
:102DA000107002A801700078002803D0FFE7FFF739
:102DB000C5FE02E0FFF7BAFEFFE701A90020087098
:102DC000FFE701A8007807281ADCFFE7FFF7FEFEFF
:102DD00003A800780006002803D5FFE7FFF70EFFE1
:102DE00002E0FFF703FFFFE7FFF7F8FE039840005C
:102DF00003A90870FFE70198401C01A90870E0E7EB
:102E0000FFF79CFE04B080BD80B58EB00E20082177
:102E10000291FEF7B3F8E5480C900421FDF7F4FFAA
:102E200002990F20FEF7AAF802990C98FDF7ECFF23
:102E300000230593019300930321089118461A4635
:102E4000FEF766F8059B0899019300930120049012
:102E50001A46FEF75DF80598FDF7B0FF0498FDF7F8
:102E6000ADFF142002210391FEF788F80399152085
:102E7000FEF742F82720FDF7F3FF1920FEF728F8A8
:102E80001E20FEF725F81F20FEF722F80398FEF714
:102E90001FF805200790FEF71BF82A20FDF7E0FF3A
:102EA0002020FDF7DDFF2120FDF7DAFF3B20FDF7B5
:102EB000D7FF2520FEF70CF82620FEF709F823207F
:102EC000FEF706F82220FEF703F83620FDF7C8FFCC
:102ED0003A20FDF7C5FF2F20FDF7C2FF3320FDF795
:102EE000BFFF0498059B0093420418201946FDF784
:102EF000C1FFF248099019490691FDF72DFF069987
:102F00000998FDF781FF079909988904FEF798F859
:102F10000899099849060A91FDF706FF09980A9948
:102F2000FDF764FF0C98612149020B91FDF714FF36
:102F30000B990C98FDF768FF0C980949FEF780F88B
:102F40000C98112109050D91FDF7EEFE0C980D99D5
:102F5000FDF74CFF0EB080BD00000A4000600390FA
:102F60000001010080B582B0124991480190FEF73E
:102F700089F9019803214902FEF770F90198FEF7DB
:102F800083F80198FEF762F901980921FEF7B8F974
:102F9000019800210091FEF7A1F900990198FEF730
:102FA0008BF90198FEF786F80198FEF779F802B0E0
:102FB00080BDC046C47A000080B584B01B49C048BB
:102FC0000390FEF741FD03981949FEF7E3FA0398D1
:102FD000002201921146FEF721FD019B0398009308
:102FE00019461A46FEF7FAFC019A03981146FEF7B5
:102FF0008BFC0199039801220292FEF70FFD019BC1
:1030000002990398009119461A46FEF7E7FC0199C8
:10301000029A0398FEF778FC0398FEF731FB0398B9
:103020000321FEF767FC04B080BDC046C67A0000ED
:10303000CC7A000080B582B000200190FEF748FAFB
:10304000012000904002FEF74FFA0198FEF75AFA6D
:10305000FEF716FAFEF71AFA0848FEF7B1F9102043
:10306000FEF75EFAFEF71CFA0198FEF765FA009883
:10307000019900F045FA02B080BDC046D47A000044
:1030800080B501200006FEF771FAFEF769FA80BDEF
:1030900080B582B00849A2480190FEF7D5FC01989E
:1030A0000649FEF7A1FB01980121FEF7F3FA01980A
:1030B000FEF7E6FA02B080BDFC7A0000007B00005B
:1030C00080B582B012493B480190FEF795FD01980A
:1030D0001049FEF72FFD01980021FEF79FFD019892
:1030E00015212D22FEF762FD0198FEF7FFFC0198E5
:1030F0007021FEF7A3FD01980221FEF7B1FD0198B2
:10310000FEF700FD0198FEF7E6FC02B080BDC04668
:10311000147B0000167B000080B500F015F8FFF767
:1031200073FEFFF787FFFFF747FFFFF7B1FFFFF7DA
:1031300019FFFFF7C5FFFFF7A3FF0249B8220020E0
:10314000885480BDD804202080B586B05B480090AC
:10315000FDF74EFF15480190FDF74AFF58480290D1
:10316000FEF7C0FB6E480390FEF7BCFB10480490CE
:10317000FEF758F80F480590FEF70CFD0098FDF794
:1031800059FE0198FDF756FE0298FEF791FA039852
:10319000FEF78EFA0498FDF799FF0598FEF7BEFC3E
:1031A0001020FDF753FD06B080BDC04600200A4048
:1031B00000000F400080104080B58EB00D900C9143
:1031C0000C9801281DDBFFE701200A9001043B4811
:1031D0000B90FDF715FF0A990B984904FDF7D0FDF8
:1031E0000C98012803DBFFE70C98099003E00C988A
:1031F00040420990FFE7099931480022FEF70EFC92
:103200001CE00120079041042C480890FDF7F8FECF
:10321000079908980904FDF7B3FD0C98012803DB12
:10322000FFE70C98069003E00C9840420690FFE7F9
:10323000069923480022FEF7F1FBFFE70D980128CD
:103240001DDBFFE70120049081031C480590FDF77A
:10325000D7FE049905984903FDF792FD0D980128C2
:1032600003DBFFE70D98039003E00D9840420390C5
:10327000FFE7039912480122FEF7D0FB1CE0012072
:10328000019041030D480290FDF7BAFE01990298A2
:103290008903FDF775FD0D98012803DBFFE70D9805
:1032A000009003E00D9840420090FFE70099044829
:1032B0000122FEF7B3FBFFE70EB080BD00000A401D
:1032C00000208640014800687047C04618E000E0D2
:1032D00080B51348FEF7F8F900281FD0FFE76420F7
:1032E000FFF7D0F8FEF758FF0E49086840420E4A33
:1032F00010600E4A10680E4B1860002010600860C5
:103300000C480068002803D1FFE7FDF7AFFB04E09D
:1033100000210846FFF750FFFFE7FFE780BDC046EA
:103320000040084080002020D0042020840020207D
:10333000D40420200400202080B58CB00B900A918A
:103340000B980A99401A09904F4800680490099810
:103350000190224907910968401AFDF737F90146A3
:10336000019803914A4909680291FDF72FF9014636
:103370000298FCF75DFF0399024604980592FCF75A
:1033800057FF0599FCF7FBFE06901548089000686A
:10339000FDF71CF90699FCF7F2FEFDF729F9079AEB
:1033A0000146089801600999116000683A4988420D
:1033B00004DBFFE70A493B4808600AE00848006868
:1033C0003649884204DCFFE7054935480860FFE7D5
:1033D000FFE7034800680CB080BDC0469C04202075
:1033E0009804202080B58CB00B900A910B980A9914
:1033F000401A0990244800680490099801902349D4
:1034000007910968401AFDF7E1F801460198039118
:103410001F4909680291FDF7D9F801460298FCF7A7
:1034200007FF0399024604980592FCF701FF0599EE
:10343000FCF7A5FE0690174808900068FDF7C6F84F
:103440000699FCF79CFEFDF7D3F8079A0146089809
:1034500001600999116000680F49884204DBFFE7A9
:103460000C49104808600AE00A4800680B49884285
:1034700004DCFFE707490A480860FFE7FFE7054863
:1034800000680CB080BDC04628002020A404202085
:103490002C002020A0042020591B0000A7E4FFFFDF
:1034A000A8E4FFFF581B000081B001466846017088
:1034B00000214056002809D4FFE7684601781F2004
:1034C00001400120884002490860FFE701B07047D1
:1034D00080E200E081B0014668460170002140565C
:1034E000002809D4FFE7684601781F200140012029
:1034F000884002490860FFE701B0704700E100E042
:1035000070B582B0024601A80270009100214056B9
:10351000002816D4FFE7002401A908570322D3434B
:103520001840174A805809578C07E50EFF24AC4015
:10353000A043009CA401E4B2AC4020431940885051
:103540001AE001A908780F24204008380322D34349
:1035500018400A4A8058002549578D07EE0EFF256E
:10356000B540A843009DAD01EDB2B54028432140D0
:10357000083919408850FFE702B070BD1CED00E02B
:1035800000E400E080B58AB0099008910020009026
:10359000069003A800F088FF00980790FFE70798BF
:1035A000022856DCFFE7099807998A008058089995
:1035B0008958401AC1174840401AFDF707F88F2173
:1035C000C905FCF772FE02900798810003A84058D5
:1035D0000021FCF7EDFF00281ED1FFE702980799B4
:1035E0008A0003A98958FCF760FE1C49FCF7C7FD57
:1035F000019001980121C90788431749496AFCF7DE
:10360000ADFF002807D1FFE7079801218140069808
:1036100008430690FFE717E002980F49C969FCF7D5
:10362000ABFF002808D1FFE702980B49096AFCF7B5
:1036300095FF002807D1FFE70798012181400698F0
:1036400008430690FFE7FFE7FFE70798401C079055
:10365000A5E706980AB080BDF4870000000080BF8F
:1036600080B584B002A90870012081042A48FDF7C2
:103670009EFC411E884101A90870284800780090EE
:10368000002808D0FFE70098012811D0FFE7009834
:1036900002281AD037E001A80078002807D0FFE7F9
:1036A0001E49012008701E4900200880FFE72AE01B
:1036B00001A80078002807D1FFE718490220087008
:1036C000174900200880FFE71DE001A800780028C6
:1036D00007D0FFE711490020087003A902200870F5
:1036E00015E00F490888401C088080B202A90978BB
:1036F000884207DDFFE709490020087003A901207F
:10370000087004E0FFE703A900200870FFE703A8A2
:10371000007804B080BDC04600000A40B6042020F6
:10372000B804202080B584B002A9088001200102DD
:103730003048FDF73CFC4142484101A908702E4841
:1037400000780090002808D0FFE70098012813D0E7
:10375000FFE7009802281CD044E001A80078002868
:1037600009D0FFE7244901200870244A0021118074
:1037700023490870FFE735E001A80078002807D149
:10378000FFE71D49022008701C4900200880FFE760
:1037900028E001A80078002809D0FFE7164900209A
:1037A00008701749087003A9022008701EE013482A
:1037B0000188491C0180008802A90988884210DD1F
:1037C000FFE70D49002008700D480078002807D059
:1037D000FFE70B490020087003A90120087005E0ED
:1037E000FFE7FFE703A900200870FFE703A80078C0
:1037F00004B080BD00200A40BB042020BC0420206F
:10380000BA04202080B582B0019000200090FFE72C
:1038100000980749884208DCFFE7019800F00AF8A1
:10382000FFE70098401C0090F2E702B080BDC04660
:10383000E703000080B586B0059005981E498842D0
:1038400003D3FFE71D480590FFE705995020484343
:103850000590002000900490FFF734FD0146009889
:103860000391029001A90870FFE7FFF72BFD02907A
:1038700002980399884204D9FFE701A90120087042
:10388000FFE701A80078002807D0FFE70398029916
:10389000401A0B494018049004E003980299401A1A
:1038A0000490FFE704980599884201D3FFE700E000
:1038B000DBE706B080BDC04634330300333303007A
:1038C000FFFFFF0080B582B0014601A801700078BB
:1038D00000280AD0FFE76946202008702820487099
:1038E000302088703820C87002E006480090FFE75A
:1038F000054804216A4602F0B9FB01F029FE02B036
:1039000080BDC046A3A3A3A39E0A000080B58AB0D1
:1039100009A90591088006AA049202201070CA2005
:103920005070E32090700920D0706820042102F0CC
:103930009DFB049A0598A321117000884006002879
:1039400008D5FFE706A9C0204870C8208870C220AB
:10395000C87005E006A9A32048708870C870FFE70A
:1039600009A80088C005800F002808D0FFE706A935
:10397000C4200871CC204871C620887105E006A9D2
:10398000A320087148718871FFE706AAA320D071AF
:103990001072507275480A2102F068FB09A800886D
:1039A0008007002804D0FFE706A92020087003E064
:1039B00006A9D8200870FFE76D48012106AA02F089
:1039C00055FB09A800888006002804D5FFE70120E0
:1039D00000F0D6F803E0002000F0D2F8FFE709A8D5
:1039E0000088C005800F002820D0FFE709A80088C4
:1039F000C00500280AD5FFE706A9B22008708B2071
:103A00004870B62088709B20C87009E006A9B020D5
:103A1000087080204870B42088709020C870FFE73C
:103A20005448042106AA02F021FBFFE709A80088F8
:103A3000C007002826D0FFE706AAF82010708B20C8
:103A400000010121039102F011FB07200290FA21ED
:103A500000F0C8FB029800F06FFB039800F09FFB9A
:103A6000642000F0DBFC7D20800000F0EFFC424889
:103A7000C82100F00DFB282000F02CFB0A2000F0EC
:103A800042FB08E006AAD82010708B20000101211B
:103A900002F0ECFAFFE709A800888007002804D5A7
:103AA000FFE706A9D920087003E006A9D82008700E
:103AB000FFE73248012106AA02F0D8FA09A80088D7
:103AC0004007002804D5FFE7012000F089F803E053
:103AD000002000F085F8FFE709A80088C00600284C
:103AE00004D5FFE70120FFF7EDFE03E00020FFF71C
:103AF000E9FEFFE7099808210843B8490191488188
:103B000001F026FD01990020887309A8008840066D
:103B1000002805D5FFE7B149887B801D8873FFE742
:103B200009A80088C005800F002805D0FFE7F849E4
:103B3000887B801D8873FFE709A80088142108424C
:103B400005D0FFE7F249887B10308873FFE709A8AA
:103B500000888007002805D0FFE7ED49887B001D1D
:103B60008873FFE700200AB080BDC046A70A0000A6
:103B7000B60A0000A20A000009E3CA023D070000DD
:103B800080B588B0014606A80170007800280ED0E4
:103B9000FFE703AA5D2010720F4804900F480390BE
:103BA0009720C000092102F061FA07900DE06A46F3
:103BB000C720107206480190064800909720C00068
:103BC000092102F053FA0790FFE7079808B080BD7B
:103BD000B088C3C5B8AAAAAAB4980D35B8AAB38D3F
:103BE00080B582B0014601A80170007800280AD093
:103BF000FFE76946C0200870C2204870C420887062
:103C0000C620C87002E006480090FFE7054804217E
:103C10006A4602F02BFA01F09BFC02B080BDC04660
:103C20008B8B8B8B980A000080B50449012082029F
:103C30000348C82301F01CFB80BDC046CE6E0000C7
:103C4000F60B000080B58CB00B9001A8009001F03D
:103C500003F900980088C0030021039102900B999A
:103C6000AB4802899207120F8958089100894007D2
:103C7000002804D5FFE7089840420890FFE70B9919
:103C8000A348028952080C231A40895809910089D7
:103C90008006002804D5FFE7099840420990FFE715
:103CA0000B99FA48028912090C231A4089580A9183
:103CB0000089C005002804D5FFE70A9840420A9011
:103CC000FFE70898C117029A039BFCF733FA8900B3
:103CD000800F401808900998C117029A039BFCF7BF
:103CE00029FA8900800F401809900A98C117029A92
:103CF000039BFCF71FFA8900800F40180A9008A860
:103D0000C17805AA1170418851700899090A91700B
:103D10000899D170C1791171C18851710999090A45
:103D200091710999D171C17A1172408950720A98C2
:103D3000000A90720A98D072A52080000C2102F02F
:103D400095F90CB080BDC04680B588B0014606A884
:103D500001801D4905911D4904911D490391008869
:103D6000C92804DBFFE70020C043079029E006A82C
:103D70000188C820FCF769FC411E02A80180407838
:103D80006A461070029850701248022102F06EF9D3
:103D9000002804D0FFE70020C043079011E00E4840
:103DA0000C2103AA02F062F9002804D0FFE70020EA
:103DB000C043079005E00698B44988810020079029
:103DC000FFE7079808B080BDBBAFDFDFAAF1DFDFF8
:103DD000FEF2ABC416020000C10A0000C00420209D
:103DE00080B588B006900699A84802899207120FFC
:103DF0008958039100894007002804D5FFE70398FC
:103E000040420390FFE70699A048028952080C231C
:103E10001A408958049100898006002804D5FFE7DC
:103E2000049840420490FFE70699984802891209D5
:103E30000C231A40895805910089C005002804D533
:103E4000FFE7059840420590FFE70398C117314A04
:103E5000009200230193FCF76DF9009A019B890001
:103E6000800F401803900498C117FCF763F9009A7B
:103E7000019B8900800F401804900598C117FCF73A
:103E800059F98900800F4018059003A8C17802AA4B
:103E90001170408850700398000A90700398D07099
:103EA0003D200001042102F0E1F8002804D0FFE7E2
:103EB0000020C043079028E003A8C17902AA11702E
:103EC000C08850700498000A90700498D070F52053
:103ED0008000042102F0CAF8002804D0FFE7002087
:103EE000C043079011E003A8C17A02AA117040896B
:103EF00050700598000A90700598D0707B20C00023
:103F0000042102F0B3F80790FFE7079808B080BDDE
:103F1000C004202009E3CA02B0B588B006AB1880FF
:103F200003AC6C20A0705248208002A82C21817024
:103F30005049018001AA762191704F4911806A464B
:103F4000662191704D4911801A8803210A40A55CB1
:103F500005AA1570069DED06AD0F655D5570069DB1
:103F60002D06AD0F645D94701B880B40C45C04ABE0
:103F70001C70069CE406A40F045D5C70069C24067D
:103F8000A40F005D98703E4802F070F8002804D03D
:103F9000FFE70020C043079066E03A48032104AAE7
:103FA00002F064F8002804D0FFE70020C043079027
:103FB0005AE0019805A9088001A8807888706846B1
:103FC000807804A988700098088006A800884007B7
:103FD00000280AD5FFE705980121084305AA1070BB
:103FE0000498084304A90870FFE706A80088800623
:103FF00000280AD5FFE705A9487801221043487038
:1040000004A9487810434870FFE706A80088C00557
:1040100000280AD5FFE705A9887801221043887097
:1040200004A9887810438870FFE7112080010321DC
:1040300005AA02F01BF8002804D0FFE70020C043C7
:10404000079011E01048032104AA02F00FF800289D
:1040500004D0FFE70020C043079005E006980B4915
:10406000088100200790FFE7079808B0B0BDC04660
:104070004CCD00000CC9000036560000264600005A
:10408000260400002A04000031040000C00420209F
:1040900080B586B0059004A80190018005987D2127
:1040A000C900FCF7F1FA01460198008848430290E4
:1040B00002A8C17803AA1170408850700298000AC3
:1040C00090700298D07057208000042101F0CEFF3C
:1040D00006B080BD80B584B0014603A80190018080
:1040E00000880521FCF7B1FA01460198018040786B
:1040F00002AA107003985070AD204000022101F018
:10410000B5FF04B080BD80B584B0014603A801901E
:10411000018000880521FCF798FA0146019801808A
:10412000407802AA1070039850702B20C000022122
:1041300001F09CFF04B080BD80B582B0014601A8AB
:1041400001706A46002111700078C007002806D06F
:10415000FFE700983021084369460870FFE701A88F
:1041600000788007002806D5FFE700980C21084357
:1041700069460870FFE701A800784007002806D5C7
:10418000FFE700980321084369460870FFE72920EC
:10419000C00001216A4601F069FF02B080BD80B510
:1041A00082B0014601A801700078002804DCFFE716
:1041B00001A90120087009E001A80078052804DBA6
:1041C000FFE701A904200870FFE7FFE70198401E00
:1041D0006A461070FF205030012101F047FF02B005
:1041E00080BD000080B58AB0024608A8027007AA08
:1041F000118000784007002806D0FFE707A8008854
:104200008049884204DBFFE70020C0430990F5E0C5
:1042100007A80088FCF7E5F97B49FCF746F804900D
:1042200005A8009000F0E0FD00980078801E019045
:104230000E286BD80198810001A040588746C046DF
:104240007D4200000D430000A14200000D4300002C
:104250000D4300000D430000C54200000D43000067
:104260000D4300000D4300000D4300000D4300000E
:104270000D4300000D430000E942000004988D2129
:10428000C905FBF7D5FFFCF7B3F903A9088004982B
:104290006149FBF7CDFFFCF7ABF902A9088039E0D3
:1042A000049823214906FBF7C3FFFCF7A1F903A9F2
:1042B000088004985749FBF7BBFFFCF799F902A95E
:1042C000088027E004988B21C905FBF7B1FFFCF7B4
:1042D0008FF903A9088004984D49FBF7A9FFFCF763
:1042E00087F902A9088015E0049845210906FBF723
:1042F0009FFFFCF77DF903A9088004984349FBF769
:1043000097FFFCF775F902A9088003E00020C0437D
:10431000099073E003A8407806A9087003984870D4
:1043200002A8407888700298C87008A80078C00772
:1043300000281CD0FFE775208000022106AA01F0AA
:1043400095FE002804D0FFE70020C043099055E007
:1043500006A8821C49208000022101F087FE002867
:1043600004D0FFE70020C043099047E0FFE708A81A
:104370000078800700281CD5FFE73B20C000022101
:1043800006AA01F073FE002804D0FFE70020C04316
:10439000099033E006A8821C2520C000022101F00C
:1043A00065FE002804D0FFE70020C043099025E007
:1043B000FFE708A80078400700281CD5FFE7772012
:1043C0008000022106AA01F051FE002804D0FFE778
:1043D0000020C043099011E006A8821C4B208000F9
:1043E000022101F043FE002804D0FFE70020C04373
:1043F000099003E0FFE700200990FFE709980AB061
:1044000080BDC04641060000000048430000C04493
:10441000000040450000C0450000404680B584B023
:10442000014603A8018000880521FCF70EF901462A
:1044300002A80180407801AA107002985070EF2005
:104440004000022101F012FE04B080BD80B584B0AE
:10445000014603A8018000880521FCF7F6F8014613
:1044600002A80180407801AA107002985070ED20D7
:104470004000022101F0FAFD04B080BD80B582B099
:1044800001900091FFE70748FDF778FB002801D075
:10449000FFE7F8E701A801780248FDF7F5FB01986E
:1044A00002B080BD00801040B0B588B0069036489C
:1044B000406800780D21042205AB01F075FF00284B
:1044C00003D0FFE7072007905BE005AA1078E02300
:1044D0001840C008D178302421400909401804A9A7
:1044E000087050781840C008D4780C252C40A408D7
:1044F0000019487090781840C008D27803231A40F9
:104500008018887003A900200870FFE703A80078CE
:10451000022833DCFFE703A8017804A8405C0028E8
:1045200007D1FFE7069903A8007882000020885091
:104530001FE0069903A80078820014488850FFE71E
:1045400003A8027804A9885C401E8854000600284D
:104550000ED0FFE70698029003A90978890001911F
:1045600040580B49FBF764FE019A02998850E7E72F
:10457000FFE70398401C03A90870C7E700200790D5
:10458000FFE7079808B0B0BD480020207B14AE3E7E
:104590001D5A843F70B598B01690159114A80270FA
:1045A00011AB0120187000205870D9494868007874
:1045B0000968897C022201F013FF002804D0FFE77C
:1045C0000020C04317902FE2C82001F0E1FE11AB9C
:1045D00000201870CE49486800780968C97B01221C
:1045E00001F0FEFE002804D0FFE70020C043179032
:1045F0001AE2C7494868007809684979012211AB75
:1046000001F0EEFE002804D0FFE70020C043179021
:104610000AE2BF49486800780968897C012211AB29
:1046200001F0DEFE002804D0FFE70020C043179011
:10463000FAE1B749486800780968C97D012211ABE1
:1046400001F0CEFE002804D0FFE70020C043179001
:10465000EAE1F7494868007809680979012211AB55
:1046600001F0BEFE002804D0FFE70020C0431790F1
:10467000DAE111AB0C201870ED4948680078096840
:104680000979012201F0ACFE002804D0FFE70020E8
:10469000C0431790C8E10F2001F07AFEE449886A10
:1046A000407A11AB1870486800780968897801224F
:1046B00001F096FE002804D0FFE70020C0431790C9
:1046C000B2E1DB49886A007A11AB1870486800785B
:1046D00009684978012201F083FE002804D0FFE731
:1046E0000020C04317909FE114A80078002808D04C
:1046F000FFE7CF48806A807AE021084311A908705B
:1047000005E0CB48806A807A11A90870FFE7C849A4
:104710004868007809688979012211AB01F060FED0
:10472000002804D0FFE70020C04317907CE114A8C4
:104730000078002808D0FFE7BD48806AC07AE021F1
:10474000084311A9087003E011A918200870FFE7B9
:10475000B749486800780968C979012211AB01F0AE
:104760003FFE002804D0FFE70020C04317905BE124
:1047700014A80078002804D0FFE7C82001F008FE44
:10478000FFE711AB40201870F249486800780968CB
:104790000979012201F024FE002804D0FFE700205F
:1047A000C043179040E111AB78201870E949486880
:1047B000007809684979012201F012FE002804D02E
:1047C000FFE70020C04317902EE1322001F0E0FD0A
:1047D00011AB00201870DF494868007809684979F2
:1047E000012201F0FDFD002804D0FFE70020C043B6
:1047F000179019E1D749486800780968897A022238
:1048000011AB01F0D1FD002804D0FFE70020C04328
:10481000179009E11198000211A9497841180EA8D2
:10482000018000880C21FBF710FF10A90870169971
:10483000002088601699486016990860159988606C
:1048400015994860159908600FA90870FFE70FA82F
:10485000007810A9097888425CDAFFE7BD4948680A
:1048600000780968C97A0C2211AB01F09DFD00287F
:1048700004D0FFE70020C0431790D5E01198000254
:1048800011AD0995697841180CA80180A978090231
:10489000EA7889184180129909026A798918818019
:1048A0000023C45E159A1168091911600222865E00
:1048B000159C6168891961600421465E159CA06899
:1048C0008019A060A8790002EC7904190AA8048074
:1048D000139C24026E7AA4194480AC7A2402ED7AE7
:1048E00064198480C55E169C23685B192360845E0E
:1048F000169B5A6812195A60425E16998868801889
:104900008860FFE70F98401C0FA908709FE7C0461A
:1049100048002020169800900068C117020C090476
:10492000891800048322029200230793FBF7DCFB23
:10493000079B10AA06921278FBF7D6FB0099029A01
:10494000079B0860169801904068C117040C090481
:1049500009190004FBF7C8FB069A079B1278FBF7BE
:10496000C3FB0199029A079B4860169803908068E0
:10497000C117040C090409190004FBF7B5FB069ADA
:10498000079B1278FBF7B0FB0399069A079B886098
:10499000159804900068C117040C09040919000453
:1049A0006405C00A0019C9121278FBF79DFB04992F
:1049B000069A079B0860159805904068C117040C7B
:1049C0000904091900046405C00A0019C912127803
:1049D000FBF78AFB0599069A079B48601598089093
:1049E0008068C117040C0904091900046405C00A91
:1049F0000019C9121278FBF777FB0899886015989F
:104A00008068012806DBFFE715998868094A801845
:104A1000886006E015998868012212048018886071
:104A2000FFE700201790FFE7179818B070BDC04649
:104A3000480020200000FFFF80B58AB00890079151
:104A400000200590E748406800780D21032204AB60
:104A500001F0AAFC002803D0FFE70720099075E0C9
:104A600004A908781F221040087048781040487048
:104A700088781040887000200690FFE7069802288A
:104A800061DCFFE7089806998A00805807998958E1
:104A9000401AC1174840401AFBF798FD8F21C905FD
:104AA000FBF703FC0290069904A8405C00282DD077
:104AB000FFE72A480390FFE7069A04A9885C401E96
:104AC00088540006002806D0FFE703982549FBF725
:104AD000AFFB0390F0E702980399FBF7E6FB204950
:104AE000FBF74DFB019001980121C90788431A4942
:104AF0008969FBF733FD002807D1FFE706980121FC
:104B00008140059808430590FFE717E00298124995
:104B10000969FBF731FD002808D1FFE702980E492B
:104B20004969FBF71BFD002807D1FFE70698012123
:104B30008140059808430590FFE7FFE7FFE70698E7
:104B4000401C06909AE705980990FFE709980AB07B
:104B500080BDC04648002020F48700000000C84106
:104B6000000080BF54E3853FB0B586B00193144682
:104B7000019A0B46014605A8017004A90B7003AB0E
:104B80001C700292064A1268146900784000097885
:104B9000029A1B78C8250095A04706B0B0BDC04654
:104BA0004400202080B584B00390039800F019F8E9
:104BB00002A9019108800398C01C00F012F8019925
:104BC000C2000298104308800398801D00F009F885
:104BD000014601988A01029911430180008804B0BE
:104BE00080BD82B00190019800214056012804DB6D
:104BF000FFE76946002008803AE00198002140560E
:104C0000002804D5FFE76946042008802FE00198BA
:104C100001214056012804DBFFE769460120088096
:104C200024E0019801214056002804D5FFE7694699
:104C30000520088019E0019802214056012804DB74
:104C4000FFE76946022008800EE0019802214056E5
:104C5000002804D5FFE769460620088003E069467E
:104C600007200880FFE7FFE7FFE7FFE7FFE7FFE731
:104C70006846008802B0704780B584B00020039079
:104C80000290FEF749FA1048FCF70EFF0120009051
:104C9000FEF70AFC0098FEF707FC0098FEF71AFCE6
:104CA0000098FEF717FC10200190FEF7FDFB01981D
:104CB000FEF710FCFDF7B8FEFDF728FCFCF7F0FF4F
:104CC000FFE7FDF797FCFCE70020864080B584B045
:104CD00003A90020087001F027FAFFE712480190AD
:104CE00002210091FCF760F801200290FEF78AFD96
:104CF00000990198FCF798F90298FEF783FD019856
:104D00000299FCF76AF9002801D0FFE708E0FFE705
:104D10000398401C03A90870C0B26428DEDBFFE7DB
:104D200001F022FA04B080BD00000A4080B584B0D2
:104D300002A90870002000900878FE221040087038
:104D4000C5482421405C002803D0FFE700200390E1
:104D500045E0C148807A002804D1FFE70020C04325
:104D600003903CE0BC48017C01AA11700299827A50
:104D700011400174007C02A90978884204D0FFE741
:104D80000020C043009002E000200090FFE702A84E
:104D90000078002805D1FFE7AF48007D002804D047
:104DA000FFE7012001F07EFB03E0002001F07AFB29
:104DB000FFE702A8007800280DD0FFE700F0C8FB4D
:104DC000002807D0FFE70198A34908740020C043DA
:104DD000039004E0FFE7FFE700980390FFE70398E4
:104DE00004B080BD4800202083B001909A48407AEA
:104DF000009003281CD80098810001A040588746E5
:104E0000114E0000194E0000214E0000294E0000F6
:104E10000199022008700FE00199042008700BE04E
:104E200001990820087007E001991020087003E03C
:104E30000020C04302900CE08748C07C002805D0C9
:104E4000FFE70199087840000870FFE70020029012
:104E5000FFE7029803B0704783B001907E48407A24
:104E6000009003281FD80098810001A04058874671
:104E7000814E00008B4E0000934E00009D4E0000BE
:104E8000019901208003088011E0019910480880F1
:104E90000DE0019901200003088008E0019901203C
:104EA000C002088003E00020C04302900CE0EB4801
:104EB000C07C002805D0FFE70199088840080880D9
:104EC000FFE700200290FFE7029803B07047C0465A
:104ED0009C1F000081B00090E048007C00990870A1
:104EE000002001B07047C04682B00190DB48007AD4
:104EF000009003281FD80098810001A040588746E1
:104F0000114F0000194F0000234F00002D4F0000EB
:104F10000199FA20088012E001997D208000088024
:104F20000DE001997D20C000088008E001997D20F6
:104F30000001088003E0019900200880FFE70020BD
:104F400002B0704783B00190C448007A00900328F3
:104F50001CD80098810001A0405887466D4F000082
:104F6000754F00007D4F0000854F000001990F48EC
:104F700008600FE001990C4808600BE001990948AE
:104F8000086007E001990648086003E00020C0437C
:104F9000029002E000200290FFE7029803B0704701
:104FA0003333834133330342000083420000034321
:104FB00082B00190F648C07A009007282DD800985A
:104FC000810001A04058874619500000E94F0000B9
:104FD000F14F0000F94F000001500000095000009F
:104FE00011500000195000000199BC20088018E001
:104FF00001996220088014E001992A20088010E0BD
:105000000199142008800CE001990A20088008E02A
:1050100001990520088004E0FFE70199002008803D
:10502000FFE7002002B0704782B00090D8482421EA
:10503000405C002804D0FFE70020C043019007E057
:10504000D348C08900990880FFE700200190FFE75E
:10505000019802B07047C0464800202080B588B053
:1050600005AB80201870CA49486800780968897CB7
:10507000012201F0B5F9002804D0FFE70020C04369
:105080000790E8E0642001F083F905AB0020187078
:10509000BF49486800780968897C012201F0A0F9BD
:1050A000002804D0FFE70020C0430790D3E0FC496C
:1050B000486800780968897D062205AB01F074F91B
:1050C000002804D0FFE70020C0430790C3E005A9F3
:1050D0004879C007400FCA78D207920F80184978E4
:1050E00001221140411804A80170007800281DD049
:1050F000FFE704A80078012804D1FFE7E849012070
:10510000C87412E004A80078022804D1FFE7E4493B
:105110000020C87408E004A80178534801F02CFA74
:105120000020C043079096E0FFE732E0DC49486882
:1051300000780968C978012205AB01F035F900282B
:1051400004D0FFE70020C043079084E005A8017861
:105150000F20014004A801700078002807D1FFE764
:105160003F4801F009FA0020C043079073E004A80B
:105170000078042807D1FFE73A4801F0FDF9F34928
:105180000120C87403E0F1490020C874FFE7FFE77D
:10519000FFE7EE490291FF2088720A460832087242
:1051A0004872C872314BCB8108748874012008732F
:1051B000907600200390D076487508750884C883DF
:1051C000888348830883C88210775077C8847D20FD
:1051D000000100F025FD002804D0FFE70020C043B7
:1051E000079038E0022000F07DFB002804D0FFE7A4
:1051F0000020C04307902EE02A2000F0C1FD0028C7
:1052000004D0FFE70020C043079024E0322000F0E4
:105210001FFE002804D0FFE70020C04307901AE0DB
:105220000020FFF783FD002804D0FFE70020C043E3
:10523000079010E0002000F0C7FB002804D0FFE733
:105240000020C043079006E00020019000F076FEA9
:1052500001980790FFE7079808B080BD480020201C
:105260002F8600007D8600009C860000FFFF000066
:1052700010B58EB00CAC20800B910AA8028009A852
:105280000380B2482521405C002804D0FFE70020BD
:10529000C0430D9079E00B98002804D1FFE701206E
:1052A000C0430D9071E00020019008A90880FFE73D
:1052B00008A800880CA90988884248DAFFE70CA8EA
:1052C000008808A90988401A112803DBFFE710208D
:1052D000009006E00CA8008808A90988401A0090F0
:1052E000FFE7009807A9088008A8008809880B9A9A
:1052F000121800F0BBFE002804D0FFE70220C043D4
:105300000D9042E008A8008807A9098803AA00F0C8
:10531000C9F8002804D0FFE70320C0430D9034E013
:105320000B9808A90988401807A90A8803A9FAF761
:1053300019FF002804D0FFE70420C0430D9024E0AB
:10534000FFE707990898401808A90880B0E70AA85D
:10535000407802AB18700A9858707C494868007809
:105360000968897E022201F03BF8002804D0FFE79B
:105370000520C0430D9008E0FC49252201208854F7
:105380000998C88400200D90FFE70D980EB010BD5D
:105390004800202080B586B0014604A8017000783E
:1053A000292804DBFFE70020C043059075E004A82E
:1053B000007800281DD1FFE70020029000F092FC49
:1053C000029803AB187007205870E84948680078C5
:1053D0000968897C022201F003F8002804D0FFE765
:1053E0000020C043059058E0E04900200875059072
:1053F00053E0012000F076FC03A92020087004A8E7
:105400000078012807D1FFE703A900204870052094
:1054100000F0B6FC20E004A80078052807DCFFE7D0
:1054200003A901204870052000F0AAFC13E004A89D
:105430000078142807DCFFE703A9022048700A203F
:1054400000F09EFC06E003A903204870142000F041
:1054500097FCFFE7FFE7FFE703AB58788001C01D2B
:105460005870C249486800780968897C022200F0B7
:10547000B7FF002804D0FFE70020C04305900CE0F0
:10548000BA4A082090720020019010730121117512
:10549000FFF74CFC01980590FFE7059806B080BD2A
:1054A0004800202080B586B004AB188003A8018096
:1054B00002920298002804D1FFE70020C043059023
:1054C00040E0AA48807A002804D1FFE70120C043C9
:1054D000059037E004A8417801A801700499417053
:1054E000407803A909884018FC49496849898842DD
:1054F00004DDFFE70220C043059023E0F749486838
:1055000000780968097E022201AB00F069FF0028DB
:1055100004D0FFE70320C043059013E0EF4948683B
:1055200000780968497D03AA1278029B00F03CFFCD
:10553000002804D0FFE70420C043059002E00020CB
:105540000590FFE7059806B080BDC04648002020C2
:1055500080B582B0E148807A002804D1FFE70020BE
:10556000C0430190FEE06B4600201870DB4948689C
:1055700000780968C97B012200F032FF002804D0BE
:10558000FFE70020C0430190ECE0D4494868007870
:105590000968497901226B4600F022FF002804D0F7
:1055A000FFE70020C0430190DCE0CC494868007868
:1055B0000968097901226B4600F012FF002804D027
:1055C000FFE70020C0430190CCE0FE482421405C6E
:1055D000002861D0FFE76B460C201870F949486835
:1055E000007809680979012200F0FAFE002804D049
:1055F000FFE70020C0430190B4E06946C020087076
:10560000F048807AC007002806D0FFE700982021E4
:10561000084369460870FFE7EA4948680078096866
:10562000097901226B4600F0DBFE002804D0FFE779
:105630000020C043019095E0E248407C002804D05F
:10564000FFE769460220087003E069460020087001
:10565000FFE7DC49486800780968C97B01226B468E
:1056600000F0BEFE002804D0FFE70020C0430190F8
:1056700078E06B4600201870D249486800780968C5
:105680004979012200F0ACFE002804D0FFE7002099
:10569000C043019066E062E06B4604201870C9497F
:1056A0004868007809680979012200F099FE00280D
:1056B00004D0FFE70020C043019053E0C148807C44
:1056C000002806D1FFE7BF48807AC007002804D130
:1056D000FFE769464020087003E0694660200870D3
:1056E000FFE7B849486800780968097901226B46E4
:1056F00000F076FE002804D0FFE70020C0430190B0
:1057000030E0B048407C002804D0FFE76946012023
:10571000087003E0694600200870FFE7A94948685F
:1057200000780968C97B01226B4600F059FE002809
:1057300004D0FFE70020C043019013E0A14B58685C
:105740000078196849791033012200F049FE0028D9
:1057500004D0FFE70020C043019003E0FFE70020F2
:105760000190FFE7019802B080BDC04648002020AC
:1057700080B594B01390129111A902200870F948D5
:105780002421405C002807D0FFE7002000F0ECF95E
:1057900069460120087003E0694600200870FFE7B1
:1057A00003A8FFF7A1FB06A8FFF71EFB01A8FFF760
:1057B000FFFB02A8FFF738FCEA48807A04A90870CA
:1057C00005A8FFF787FB00200890FFE7089801284D
:1057D0000EDCFFE7139812990022FEF7DBFE00288B
:1057E00001D1FFE704E0FFE70898401C0890EDE7CF
:1057F0000898022803D1FFE7002007903EE0002030
:105800000890FFE7089801280EDCFFE70EA80BA917
:105810000122FEF7BFFE002801D1FFE704E0FFE709
:105820000898401C0890EDE70898022803D1FFE78C
:105830000020079022E012980BA9FDF7A3FE0AA909
:10584000087013980EA9FFF7F7F8014609A8017030
:10585000002107910078002805D1FFE70798012172
:1058600008430790FFE70AA80078002805D1FFE762
:105870000798022108430790FFE7FFE7E749FF2069
:1058800008724872C872164ACA8188720874012068
:10589000087303A8008800F0C3F906A8007800F098
:1058A00021F801A8008800F06BFA02A8008800F037
:1058B000CFFA04A8007800F041FB05A80078FFF7B4
:1058C00035FA68460078002804D0FFE7012000F090
:1058D0004BF9FFE7079814B080BDC0464800202070
:1058E000FFFF000080B584B002A90870FC48807AF0
:1058F000002804D1FFE70020C04303905FE002A826
:105900000078801E00900E2832D80098810001A0F7
:1059100040588746515900007159000059590000FC
:10592000715900007159000071590000615900005F
:10593000715900007159000071590000715900003F
:105940007159000071590000715900006959000037
:1059500001A9002008700FE001A9082008700BE0E1
:1059600001A91020087007E001A91820087003E0C1
:105970000020C043039022E0D948407A01A9097869
:10598000C908884203D1FFE70020039017E0FB49D4
:10599000486800780968C979012201AB00F020FD50
:1059A000002804D0FFE70020C043039007E001A8CF
:1059B0000078C008F149487200200390FFE703987F
:1059C00004B080BD4800202080B584B002A90870D2
:1059D000EA48807C0978884203D1FFE700200390E1
:1059E000BDE002A80078002853D0FFE7E3494868EB
:1059F000007809680979012201AB00F0D5FC002884
:105A000004D0FFE70020C0430390A8E001AB187862
:105A1000DF2108401870D949486800780968097979
:105A2000012200F0DDFC002804D0FFE70020C04385
:105A3000039094E0032000F0ABFC01A90220087061
:105A4000CE482221405C002806D0FFE70198802143
:105A5000084301A90870FFE7FC482321405C0028A7
:105A600006D0FFE701983021084301A90870FFE73D
:105A7000F649486800780968097D012201AB00F009
:105A8000AFFC002804D0FFE70020C043039066E08D
:105A90005FE0EE494868007809680979012201ABA6
:105AA00000F082FC002804D0FFE70020C0430390F0
:105AB00055E0E648807AC007002806D0FFE7019845
:105AC0002021084301A9087005E001A90878DF2218
:105AD00010400870FFE7DD494868007809680979D7
