:020000040000FA
:10000000A0032020D5000000D9000000DB00000084
:1000100000000000000000000000000000000000E0
:10002000000000000000000000000000DD000000F3
:100030000000000000000000DF000000E100000000
:10004000E3000000E3000000E3000000E300000024
:10005000E3000000E3000000E3000000E300000014
:1000600000000000E3000000E300000000000000CA
:1000700000000000E3000000E30000008D0B000022
:10008000E3000000E3000000750B0000E300000047
:10009000E3000000E300000000000000000000009A
:1000A000E3000000E300000000000000000000008A
:1000B000E300000000000000E3000000E300000097
:1000C0000348854600F074F9004800470D0E000013
:1000D000A003202003480047FEE7FEE7FEE7FEE717
:1000E000FEE7FEE7C1000000F8B502464A40D40F23
:1000F00042004B0052085B089A4202D20246084670
:1001000011464A0023D0C30D4A00DDB2120EAD1ACB
:10011000202D35DA49020126490AF6058A19002CF4
:1001200000D0524220214F1B1146B9402A411018DD
:10013000C20D9A4221D0002C17D0012D08DCDA051F
:10014000801AD20F8019D207DBB200F0F6F8F8BDA2
:10015000DA05801A012340001B06C01880185A4295
:100160008018CA0F1043490007E04908C20711432D
:10017000DA05801A80194008801800F0D6F8F8BD1A
:1001800061000122511A001BF7E70122D2075140FA
:10019000AAE70122D2075040A6E7024670B54A40BE
:1001A000D30FDB0740002DD04A002AD0010E140ED9
:1001B000000212020919400A520A8418E501044695
:1001C0005443000A120A2E045043A4194219200C69
:1001D000C543AA18120C0125AD03521C5219120472
:1001E0007F39240400D0521C104301D44000491E22
:1001F000C2B20C06C0092018401C4008802A02D058
:1002000003E0002070BD40084000002900DA002013
:10021000184370BD70B502464A40D50F40004A00F1
:10022000ED0740085208002814D0002A12D0C40D4F
:10023000D30D41020120C0055202490A520AE41AB4
:10024000091812187D34914201D3641C00E0490062
:10025000002C01DA002070BD0023914201D3891ADD
:100260000343400849000028F7D100290AD09142F1
:1002700002D10121C90705E0914201D2012101E02B
:100280000121C943E005C018401900F04EF870BDC7
:100290000122D207002800DB101A002900DB511AC6
:1002A000814201D90120704700207047C217C10F59
:1002B000504010B54018CA079623002100F03DF8C1
:1002C00010BD10B500229623114600F036F810BD7F
:1002D000C20F410040020123400ADB05D207090E8C
:1002E000C0187F2901DA00207047962903DC962385
:1002F000591AC84001E096398840002AF4D040429B
:100300007047410040020122400AD205090E8018C0
:100310007F2901DA00207047962903DC9622511AC2
:10032000C8407047963988407047002904DA401C5D
:10033000490001D140084000704770B40024050C0A
:1003400005D11024000402D1002921D01124050E6A
:1003500001D100020834050F01D10001241D850FD1
:1003600001D18000A41C002801DB4000641C00298E
:1003700008D020252E1B0D46F540A14000D00121BC
:100380002943084301061B1B000ADB1D02D5002080
:1003900070BC7047DB05181880180029F8DA401C7B
:1003A0004900F5D170BC40084000704700000000D3
:1003B0001CB5094800900948019005460126009C9B
:1003C00005E0E36807CC33430C3C98471034AC425B
:1003D000F7D3FFF779FE0000200F0000400F000068
:1003E000811E091F00BFFCD270470000B0B55368E2
:1003F00094681C4393892343146955691C43D3892A
:100400002B431B0123430C01041909256D02635181
:10041000137852781A43BF231A40890040180349C1
:1004200044589C43A2184250B0BDC0461011000071
:1004300070B582B00B794A79002A24D0174A21245A
:100440002401202B00D070348218002B00D1882486
:10045000156C3F4E35402D191564556C35402C19DF
:1004600054641468774D2C40146054682C405460D8
:100470000024146254628F24E443156D25401565F1
:10048000556D254055656A4613718B79537109681E
:100490000091114600F004F802B070BD3818000059
:1004A000F0B5664A8218294BC318087920280DD068
:1004B00000281DD10C68641E5460D56E244C254064
:1004C0008835D5661646703688251DE00C68641E92
:1004D0005460D46E1E4D2C401E4EA419D466146F69
:1004E0002C40A4191467012465071B4C16460BE029
:1004F0000C6864085460D66E154C26400525ED0145
:100500007619D66616467036376827402F4337600F
:10051000D46A4C4D2C40D462146B2C4014630024DC
:10052000D46414658F24E443D56F2540D5671D68D6
:1005300025401D6049790143BD2008401168074BE3
:100540000B40C018801C1060F0BDC046841800002D
:1005500024F93FF001040000FFFFFFCF4000FFCF70
:10056000B0B5364A80184A6842600A78222A57D8BD
:10057000930001A4E3589F461706000021060000DF
:1005800017060000210600002106000021060000D9
:1005900021060000210600002106000021060000BF
:1005A00021060000210600002106000021060000AF
:1005B00021060000210600000506000021060000BB
:1005C00005060000210600002106000021060000AB
:1005D000210600002106000021060000210600007F
:1005E000210600002106000021060000210600006F
:1005F000210600002106000005060000210600007B
:100600000506000003231B0704689C4301235B07C6
:10061000E318036004E003231B0704689C430460A1
:100620000B69C360CB68064C1C40C36A054D1D4076
:100630002B19C362097A11430160B0BD0418000090
:10064000777702008888FDFF10B507239B041940C7
:1006500092008018024A84589C436118815010BD52
:100660003018000010B5029CA40000191143194372
:10067000014A815010BDC0465018000092008018F9
:10068000014A81507047C0461018000010B5012281
:10069000120383180C789C604B7883508978014A48
:1006A000815010BD0C110000B0B511221202835808
:1006B0000124A34383508B780C881C438B882343ED
:1006C000094C1C408358094D1D402B1983508B79D0
:1006D000CC791C43097A21437E2319408018426853
:1006E0009A4351184160B0BD18670000E798FDFFBC
:1006F00010B50122120383180C789C604978815050
:1007000010BD0000F0B581B0024608461146FFF763
:100710003CFD06460F4807680660244801683046DD
:10072000FFF73BFD224C2146FFF774FD054630469E
:100730003946FFF72AFD01461E480068FFF72DFDE8
:100740002146FFF767FD01462846FFF7CDFC01B0C3
:10075000F0BDC04620002020F0B581B0024608461A
:100760001146FFF712FD06460F48076806600F485E
:1007700001683046FFF711FD0D4C2146FFF74AFD99
:10078000054630463946FFF700FD01460948006836
:10079000FFF703FD2146FFF73DFD01462846FFF721
:1007A000A3FC01B0F0BDC046240020200C00202096
:1007B0000000C8420800202080B503480021034AF9
:1007C000FFF714FE80BDC04600A04240C00E0000EE
:1007D00080B5FFF7F1FF80BD0C48852181650121BF
:1007E0004A040B4B1A6086220263090419608221B5
:1007F0000160084A42608160C2600749C1640748DD
:10080000016810220A4302607047C046548042408B
:10081000D0320A408200040081000500A0130A4083
:10082000B0B582B0D14C10492046FFF72FFF0F49D9
:100830002046FFF7FDFD0025204629462A46FFF702
:100840001DFF0095204629462A462B46FFF70AFF42
:10085000204629462A46FFF7F7FE05480121816018
:10086000016002B0B0BDC046D80E0000DC0E000032
:100870000031864070B582B0BD4C10492046FFF76C
:1008800005FF0F492046FFF70BFE002601252046F5
:1008900031462A46FFF7F2FE0095204631463246A1
:1008A0003346FFF7DFFE204631462A46FFF7CCFEEF
:1008B000044885600221016002B070BDE40E0000B2
:1008C000E80E000000B186400C48002101600320C2
:1008D000C1430B480246083A13680B401360016895
:1008E000012291430160110203688B4303601103ED
:1008F000001F02680A4302607047C04608030B40AD
:1009000008010B400548042101601F2141600021BE
:100910008160016805220A430260704710E000E030
:1009200010B5084C08492046FFF7B0FE074920469D
:10093000FFF716FE064801680122114301600548D1
:10094000026010BD00008640F00E0000F40E0000B2
:10095000281086400811864010B5144C14492046D2
:10096000FFF7C6FE13492046FFF79EFE0321CA0388
:10097000114803689343036002692E4B13401A33F6
:10098000036142690A433C218A4342614168012272
:10099000114043689343591841609102074B1C680A
:1009A0000C431C6001681143016010BD00801040C1
:1009B000080F00000A0F000000911040289010401E
:1009C000B0B5184C18492046FFF792FE174920464B
:1009D000FFF76AFE0320C103154802688A430260DC
:1009E000026914490A40D032026142691523134357
:1009F0002A2293434361436801221340446894438D
:100A0000E318436093020C4C25681D432560FF31B9
:100A10000A4B1C680C40910361181960016811436E
:100A20000160B0BD00001040140F0000160F000060
:100A3000001110400000FFFF281010400CE400E0FF
:100A400080B500F023F8FFF7C7FEFFF73DFFFFF783
:100A5000E7FEFFF70FFFFFF763FFFFF77DFFFFF7ED
:100A6000AFFFFFF7B5FEFFF74DFF742004490022EA
:100A70000A54B82003490A5403490A5480BDC046A9
:100A8000E4002020280020205C012020F0B581B067
:100A90000D480E4941600E4A51600E4B59600E4C94
:100AA00061600E4D69600E4E71600E4F79600E49A7
:100AB0000160116019602160296031603960102087
:100AC000FFF78EFC01B0F0BD00080A40030000B142
:100AD00000280A400028864000A88640000886407A
:100AE000008810400008104001000026F0B581B0D9
:100AF0000D46FFF7DBFB0146E1480068FFF7F4FA1B
:100B0000FFF7E6FB0446184EB04200D334464120BE
:100B1000C700BC4200D83C462046FFF7D2FBD8496C
:100B200008602846FFF7C2FB0146D84D2868FFF74A
:100B3000DBFAFFF7CDFBB04200D33046B84200D815
:100B40003846FFF7BEFB2860A04800222146FFF789
:100B500095FD2868FFF7D5FB01469D480122FFF768
:100B60008DFD01B0F0BDC046C409000000208640E4
:100B700000A0864080B504480068000603D000F05D
:100B800035F800F027F980BD2010864010B51248D6
:100B90000068C0B20B281ED11048C169104A1388E2
:100BA0007E2B13D813885C1C14800E4AD154026823
:100BB000D20708D00268D20705D00268D20702D057
:100BC0000268D207F3D1C9B2816101E00020108030
:100BD00005480121017010BD20901040089110407F
:100BE0009A022020180220209802202070B50E4D75
:100BF0002868400301D4002070BD01208604012430
:100C0000204600F013F82868304208D028683042A7
:100C100005D02868304202D028683042F3D12046FF
:100C200000F004F8204670BD80130A40B0B57D2165
:100C3000090241430E480368262206E0E41A051F14
:100C40002D686419A2188A4210D21C460368A34278
:100C500008D10368A34205D10368A34202D1036807
:100C6000A342F3D09C42E9D9E41AEBE7B0BDC046F9
:100C700018E000E0F0B58DB00C920390022900DA84
:100C800097E0881E02907D2080000B9000204B4F43
:100C9000019005E0029804998142059800D188E00E
:100CA000C400039E31590490401C0590C500705942
:100CB0000991FFF76AFA0890301941687019406885
:100CC0000791FFF762FA0690019E16E028463E491A
:100CD000FFF763FA394F3946FFF79CFAFFF7F8FA46
:100CE0000B99401881B201223948FFF7C7FC142044
:100CF000FFF79CFF761C1F2ECCD03046FFF7D6FAAC
:100D00002D49FFF787FA0A900899FFF746FA0999E3
:100D1000FFF7EAF90C99FFF77DFA3946FFF73DFA3C
:100D20002749FFF777FA2749FFF7DEF904463946E6
:100D3000FFF7AEFA002800D12746002438462146A6
:100D4000FFF7A6FA002800D1074638461E49FFF7EC
:100D500024FA1A4D2946FFF75DFAFFF7B9FA0B9905
:100D6000401881B219482246FFF788FC0A98069974
:100D7000FFF713FA0799FFF7B7F90C99FFF74AFA4B
:100D80002946FFF70AFA0E49FFF744FA01460D48D3
:100D9000FFF7FBF907462946FFF77AFA002800D14A
:100DA0003D4628462146FFF773FA00288ED10546B6
:100DB0008CE70DB0F0BDC0460000F04100003443A8
:100DC000D00F49400000B4420000FA4400208640A1
:100DD00000A0864080B58AB009480990089009496A
:100DE0000791069005910491039002910190009063
:100DF00068460521044AFFF73DFF0AB080BDC046A2
:100E00000000A041000070420000C842FFF718FE39
:100E10001648016801221143016015480168114319
:100E20000160D0031349086053030B6092040A6009
:100E3000114908600A600B6010480168104800689A
:100E4000FFF760FCFFF744FA0E4C20600E48016883
:100E50000E480068FFF780FCFFF73AFA01460C489D
:100E600001602068FFF742FEFEE7C0460438864076
:100E700004B8864080E200E000E100E0100020209D
:100E80000000202018002020140020200400202032
:100E90001C0020200000000002E008C8121F08C14A
:100EA000002AFAD1704700007047000000000000DF
:100EB000002001E001C1121F002AFBD17047000091
:100EC000130000000000000000000000000200020B
:100ED000000000000000000008001F00204E00007D
:100EE0002001010008001F00204E0000200100002A
:100EF0000807C700020000006300000001000000B6
:100F000000000000000000000400000018000000C5
:100F10000030000008000000180000000030000051
:100F2000400F00000000202018000000980E000074
:100F3000580F00001800202088030000B00E0000A9
:100F40000080BB440080BB44000040400000C04023
:080F50000080BB440080BB449B
:04000005000000C136
:00000001FF
