:020000040000FA
:10000000A8032020D5000000D9000000DB0000007C
:1000100000000000000000000000000000000000E0
:10002000000000000000000000000000DD000000F3
:100030000000000000000000DF000000E100000000
:10004000E3000000E3000000E3000000E300000024
:10005000E3000000E3000000E3000000E300000014
:1000600000000000E3000000E300000000000000CA
:1000700000000000E3000000E3000000E50B0000CA
:10008000E3000000E3000000CD0B0000E3000000EF
:10009000E3000000E300000000000000000000009A
:1000A000E3000000E300000000000000000000008A
:1000B000E300000000000000E3000000E300000097
:1000C0000348854600F094F900480047F90D000008
:1000D000A803202003480047FEE7FEE7FEE7FEE70F
:1000E000FEE7FEE7C1000000F8B502464A40D40F23
:1000F00042004B0052085B089A4202D20246084670
:1001000011464A0023D0C30D4A00DDB2120EAD1ACB
:10011000202D35DA49020126490AF6058A19002CF4
:1001200000D0524220214F1B1146B9402A411018DD
:10013000C20D9A4221D0002C17D0012D08DCDA051F
:10014000801AD20F8019D207DBB200F0F6F8F8BDA2
:10015000DA05801A012340001B06C01880185A4295
:100160008018CA0F1043490007E04908C20711432D
:10017000DA05801A80194008801800F0D6F8F8BD1A
:1001800061000122511A001BF7E70122D2075140FA
:10019000AAE70122D2075040A6E7024670B54A40BE
:1001A000D30FDB0740002DD04A002AD0010E140ED9
:1001B000000212020919400A520A8418E501044695
:1001C0005443000A120A2E045043A4194219200C69
:1001D000C543AA18120C0125AD03521C5219120472
:1001E0007F39240400D0521C104301D44000491E22
:1001F000C2B20C06C0092018401C4008802A02D058
:1002000003E0002070BD40084000002900DA002013
:10021000184370BD70B502464A40D50F40004A00F1
:10022000ED0740085208002814D0002A12D0C40D4F
:10023000D30D41020120C0055202490A520AE41AB4
:10024000091812187D34914201D3641C00E0490062
:10025000002C01DA002070BD0023914201D3891ADD
:100260000343400849000028F7D100290AD09142F1
:1002700002D10121C90705E0914201D2012101E02B
:100280000121C943E005C018401900F04EF870BDC7
:100290000122D207002800DB101A002900DB511AC6
:1002A000814201D90120704700207047C217C10F59
:1002B000504010B54018CA079623002100F03DF8C1
:1002C00010BD10B500229623114600F036F810BD7F
:1002D000C20F410040020123400ADB05D207090E8C
:1002E000C0187F2901DA00207047962903DC962385
:1002F000591AC84001E096398840002AF4D040429B
:100300007047410040020122400AD205090E8018C0
:100310007F2901DA00207047962903DC9622511AC2
:10032000C8407047963988407047002904DA401C5D
:10033000490001D140084000704770B40024050C0A
:1003400005D11024000402D1002921D01124050E6A
:1003500001D100020834050F01D10001241D850FD1
:1003600001D18000A41C002801DB4000641C00298E
:1003700008D020252E1B0D46F540A14000D00121BC
:100380002943084301061B1B000ADB1D02D5002080
:1003900070BC7047DB05181880180029F8DA401C7B
:1003A0004900F5D170BC40084000704710B54100CD
:1003B0000DD04100090E962909DC7E290ADC07DBF5
:1003C000410205D0C00F7F21C007C905401810BDEC
:1003D000002010BD9622541A20210A1B014691408C
:1003E000E040FFF7A2FFA04010BD000000000000A9
:1003F0001CB5094800900948019005460126009C5B
:1004000005E0E36807CC33430C3C98471034AC421A
:10041000F7D3FFF759FE0000B0120000D012000021
:10042000420005D04200120E52428A4201DB0020F7
:100430007047C90508187047811E091F00BFFCD20C
:1004400070470000B0B5536894681C4393892343F8
:10045000146955691C43D3892B431B0123430C01A9
:10046000041909256D026351137852781A43BF238A
:100470001A4089004018034944589C43A21842502E
:10048000B0BDC0461011000070B582B00B794A793A
:10049000002A24D0174A21242401202B00D07034B4
:1004A0008218002B00D18824156C3F4E35402D1941
:1004B0001564556C35402C1954641468774D2C40E4
:1004C000146054682C4054600024146254628F24D9
:1004D000E443156D25401565556D254055656A4603
:1004E00013718B79537109680091114600F004F87B
:1004F00002B070BD38180000F0B5664A8218294B6A
:10050000C318087920280DD000281DD10C68641E5E
:100510005460D56E244C25408835D5661646703615
:1005200088251DE00C68641E5460D46E1E4D2C405E
:100530001E4EA419D466146F2C40A419146701240C
:1005400065071B4C16460BE00C6864085460D66EB9
:10055000154C26400525ED017619D66616467036EF
:10056000376827402F433760D46A4C4D2C40D46203
:10057000146B2C4014630024D46414658F24E4436A
:10058000D56F2540D5671D6825401D604979014319
:10059000BD2008401168074B0B40C018801C10603C
:1005A000F0BDC0468418000024F93FF001040000AB
:1005B000FFFFFFCF4000FFCFB0B5364A80184A6832
:1005C00042600A78222A57D8930001A4E3589F4634
:1005D0006F060000790600006F0600007906000033
:1005E000790600007906000079060000790600000F
:1005F00079060000790600007906000079060000FF
:1006000079060000790600007906000079060000EE
:100610005D060000790600005D0600007906000016
:1006200079060000790600007906000079060000CE
:1006300079060000790600007906000079060000BE
:1006400079060000790600007906000079060000AE
:100650005D060000790600005D06000003231B070D
:1006600004689C4301235B07E318036004E0032351
:100670001B0704689C4304600B69C360CB68064C8D
:100680001C40C36A054D1D402B19C362097A1143F2
:100690000160B0BD04180000777702008888FDFF74
:1006A00010B507239B04194092008018024A845811
:1006B0009C436118815010BD3018000010B5029C99
:1006C000A400001911431943014A815010BDC046CE
:1006D0005018000092008018014A81507047C046AF
:1006E0001018000010B50122120383180C789C60CA
:1006F0004B7883508978014A815010BD0C1100005D
:10070000B0B51122120283580124A34383508B7881
:100710000C881C438B882343094C1C408358094D8B
:100720001D402B1983508B79CC791C43097A2143C6
:100730007E231940801842689A4351184160B0BD29
:1007400018670000E798FDFF10B501221203831817
:100750000C789C604978815010BD0000F0B581B0E4
:10076000024608461146FFF710FD06460F48076887
:100770000660244801683046FFF70FFD224C2146F1
:10078000FFF748FD054630463946FFF7FEFC0146B7
:100790001E480068FFF701FD2146FFF73BFD0146BB
:1007A0002846FFF7A1FC01B0F0BDC046280020207C
:1007B000F0B581B0024608461146FFF7E6FC064652
:1007C0000F48076806600F4801683046FFF7E5FCF0
:1007D0000D4C2146FFF71EFD054630463946FFF712
:1007E000D4FC014609480068FFF7D7FC2146FFF713
:1007F00011FD01462846FFF777FC01B0F0BDC04669
:100800002C002020100020200000C8420C002020D6
:1008100080B503480021034AFFF714FE80BDC0469F
:1008200000A042405012000080B5FFF7F1FF80BDEC
:100830000C488521816501214A040B4B1A608622F0
:1008400002630904196082210160084A42608160E4
:10085000C2600749C1640748016810220A43026068
:100860007047C04654804240D0320A4082000400A3
:1008700081000500A0130A40B0B582B0D14C1049E8
:100880002046FFF72FFF0F492046FFF7FDFD00250B
:10089000204629462A46FFF71DFF00952046294697
:1008A0002A462B46FFF70AFF204629462A46FFF72D
:1008B000F7FE054801218160016002B0B0BDC0466D
:1008C000681200006C1200000031864070B582B0E2
:1008D000BD4C10492046FFF705FF0F492046FFF7A2
:1008E0000BFE00260125204631462A46FFF7F2FE80
:1008F00000952046314632463346FFF7DFFE20465C
:1009000031462A46FFF7CCFE04488560022101608B
:1009100002B070BD741200007812000000B1864071
:100920000C48002101600320C1430B480246083AED
:1009300013680B40136001680122914301601102AA
:1009400003688B4303601103001F02680A430260BF
:100950007047C04608030B4008010B4005480421BE
:1009600001601F21416000218160016805220A4366
:100970000260704710E000E010B5084C08492046BE
:10098000FFF7B0FE07492046FFF716FE064801684C
:100990000122114301600548026010BD000086403D
:1009A0008012000084120000281086400811864042
:1009B00010B5144C14492046FFF7C6FE13492046D3
:1009C000FFF79EFE0321CA031148036893430360A7
:1009D00002692E4B13401A33036142690A433C21DA
:1009E0008A43426141680122114043689343591888
:1009F00041609102074B1C680C431C600168114365
:100A0000016010BD00801040981200009A12000092
:100A10000091104028901040B0B5184C184920465D
:100A2000FFF792FE17492046FFF76AFE0320C10335
:100A3000154802688A430260026914490A40D032AC
:100A400002614269152313432A2293434361436899
:100A50000122134044689443E318436093020C4C12
:100A600025681D432560FF310A4B1C680C4091032B
:100A700061181960016811430160B0BD00001040A9
:100A8000A4120000A6120000001110400000FFFF99
:100A9000281010400CE400E080B500F023F8FFF7C8
:100AA000C7FEFFF73DFFFFF7E7FEFFF70FFFFFF77A
:100AB00063FFFFF77DFFFFF7AFFFFFF7B5FEFFF71F
:100AC0004DFF7420044900220A54B82003490A54F7
:100AD00003490A5480BDC046EC002020300020208D
:100AE00064012020F0B581B00D480E4941600E4AE6
:100AF00051600E4B59600E4C61600E4D69600E4E98
:100B000071600E4F79600E490160116019602160BB
:100B10002960316039601020FFF78EFC01B0F0BD14
:100B200000080A40030000B100280A40002886405F
:100B300000A8864000088640008810400008104049
:100B400001000026F0B581B00D46FFF7AFFB01466E
:100B5000C6480068FFF7C8FAFFF7BAFB0446184E0C
:100B6000B04200D334464120C700BC4200D83C46C6
:100B70002046FFF7A6FBBD4908602846FFF796FB15
:100B80000146BD4D2868FFF7AFFAFFF7A1FBB04261
:100B900000D33046B84200D83846FFF792FB2860B1
:100BA000944800222146FFF795FD2868FFF7A9FB2E
:100BB00001468F480122FFF78DFD01B0F0BDC04610
:100BC000C40900000020864000A0864080B504488B
:100BD0000068000603D000F035F800F077F880BD1B
:100BE0002010864010B512480068C0B20B281ED1F4
:100BF0001048C169104A13887E2B13D813885C1CD7
:100C000014800E4AD1540268D20708D00268D20775
:100C100005D00268D20702D00268D207F3D1C9B268
:100C2000816101E00020108005480121017010BDA4
:100C30002090104008911040A20220202002202085
:100C4000A002202070B50E4D2868400301D400207A
:100C500070BD012086040124204600F013F82868A6
:100C6000304208D02868304205D02868304202D08F
:100C700028683042F3D1204600F004F8204670BDC9
:100C800080130A40B0B57D21090241430E48036834
:100C9000262206E0E41A051F2D686419A2188A426C
:100CA00010D21C460368A34208D10368A34205D1B1
:100CB0000368A34202D10368A342F3D09C42E9D95E
:100CC000E41AEBE7B0BDC04618E000E0F0B583B031
:100CD0007D20800002900024404F16E030464249BB
:100CE000FFF75BFA3D4F3946FFF794FAFFF7F0FA4A
:100CF0000299401881B23F482A46FFF7EBFC1420C6
:100D0000FFF7C0FF641CC82C61D02046FFF7CEFA65
:100D10003049FFF77FFA304D2946FFF73EFA064685
:100D20002946FFF777FA3946FFF737FA2C49FFF7DC
:100D300071FA2C49FFF7D8F905463946FFF7A8FAAA
:100D4000002800D12F46002138460191FFF7A0FA74
:100D5000002800D1074638462349FFF71EFA1F4DE9
:100D60002946FFF757FAFFF7B3FA0299401887B2FE
:100D700030461E49FFF711FA00F098F906460122A5
:100D80001B483946FFF7A6FC3046134E3146FFF7A5
:100D900004FA3146FFF73EFA2946FFF7FEF91049FB
:100DA000FFF738FA01460F48FFF7EFF907462946E3
:100DB000FFF76EFA00282E4600D13E463046019DD0
:100DC0002946FFF765FA002888D1064686E703B072
:100DD000F0BDC046000048430000C8420000344354
:100DE000D00F49400000B4420000FA4473D9A03E3D
:100DF00000A0864000208640FFF74EFE164801689E
:100E00000122114301601548016811430160D003BC
:100E10001349086053030B6092040A60114908608B
:100E20000A600B601048016810480068FFF796FCE4
:100E3000FFF74EFA0E4C20600E4801680E4800681D
:100E4000FFF7B6FCFFF744FA01460C480160206842
:100E5000FFF778FEFEE7C0460438864004B88640B7
:100E600080E200E000E100E01400202004002020E7
:100E7000200020201800202008002020240020200E
:100E8000F0B4040C8BB2264682B25E430D0C1046C1
:100E9000370C5843360480190021794116466E43B9
:100EA000370C36048019794126466E438919F0BC07
:100EB00070474100080200D004200A0E01D0012230
:100EC0001043090EFF2901D102210843012800D156
:100ED0000520704710B50121FFF7A2FA10BD10B52B
:100EE00000210846FFF796F910BD5E2110B5C943F1
:100EF0000807FFF795FA10BDF0B50E4614465100ED
:100F0000FF22120687B0914203D31116316007B059
:100F1000F0BD01202502C0070543E00D7838C20668
:100F2000D20E2020871A6000000E78384011810010
:100F30004D4878440B189C464358002A14D060460C
:100F4000406893400146F840034360468068914002
:100F50008646F8400143039160467146C06891405F
:100F6000F84001430F4603E06046416803918768FB
:100F700018462946FFF784FF0291049029460398FA
:100F8000FFF77EFF0391069038462946FFF778FF6A
:100F90000F460698029B3D18049A0399BD4201D260
:100FA000012700E000278818C019002F02D08842CE
:100FB00002D903E0884201D2012100E00021591842
:100FC0000A4620329709C20C890652034003376053
:100FD000114301900846FFF769F902900198FFF765
:100FE00070F91221C943FFF71BFA01902846FFF759
:100FF00068F92521C943FFF713FA00900199029877
:10100000FFF772F80099FFF76FF80121C902401845
:10101000050B2D0328460299FFF7B7F80199FFF752
:10102000B4F80099FFF7B5F81049FFF7B6F800904B
:101030000F492846FFF7B1F80099FFF755F80090DF
:101040000C492846FFF7A9F80099FFF74DF8002C46
:1010500000DB5CE701210907C91B31600121C907D9
:10106000484007B0F0BD0000FA020000DB0FC92FB6
:1010700022AAFD290000C92F02E008C8121F08C1DA
:10108000002AFAD1704700007047000000000000FD
:10109000002001E001C1121F002AFBD170470000AF
:1010A000014908607047000000002020F0B50246AA
:1010B0000446514B83B040006946984209D27321DF
:1010C0000906884202D20020C04300E000200090C0
:1010D00030E05000494B400898426BD248491046D6
:1010E000FFF75BF8FFF762F90746FFF7F1F88007B3
:1010F000800F009043493846FFF74FF8019042496E
:101100003846FFF74AF8064640493846FFF745F8A3
:1011100005463F493846FFF740F82146FFF739F8C2
:101120002946FFF732F83146FFF72FF80199FFF70C
:101130002CF804462546009C002C3FDBE007354E8A
:10114000294608461AD0FFF728F805463249FFF726
:1011500024F83249FEF7C8FF2946FFF71EF8304948
:10116000FEF7C2FF2946FFF718F87F21C905FEF7F1
:10117000BBFFA10700D5704003B0F0BDFFF70DF82D
:1011800007462849FFF709F82749FEF7ADFF39461A
:10119000FFF703F82549FEF7A7FF3946FEF7FDFFE5
:1011A0002946FEF7FAFF2946FEF79EFFA107E2D483
:1011B00003B0F0BD1046FFF79FFEBAE7FF216800BD
:1011C0000906884209D22846FFF773FE042801D198
:1011D000FFF78BFE284603B0F0BD884206D1012000
:1011E000FFF75EFFFFF77BFE03B0F0BD2846FFF779
:1011F00071FE03B0F0BD0000B61F927E490E494655
:1012000083F9223F1A61342C0020A23300A0FD395B
:101210000000C93F00000080B93AB2BACA9F2A3D17
:10122000DDFFFFBE336D4CB9DA82083CA0AA2ABEAE
:10123000000000006E83F9A22915444ED15727FC07
:10124000C0DD34F5999562DB4190433CAB6351FEC0
:101250001300000000000000000000000002000277
:10126000000000000000000008001F00204E0000E9
:101270002001010008001F00204E00002001000096
:101280000807C70002000000630000000100000022
:101290000000000000000000040000001800000032
:1012A00000300000080000001800000000300000BE
:1012B000D012000000002020200000007810000064
:1012C000F012000020002020880300009010000091
:1012D000000000000080BB440080BB440000404090
:1012E0000000C0400080BB440080BB440000000000
:04000005000000C136
:00000001FF
