:020000040000FA
:1000000010162020D5000000D9000000DB00000001
:1000100000000000000000000000000000000000E0
:10002000000000000000000000000000DD000000F3
:100030000000000000000000DF000000E100000000
:10004000E3000000E51D0000E3000000E300000005
:10005000E3000000E3000000E3000000E300000014
:1000600000000000E3000000E300000000000000CA
:1000700000000000E3000000E3000000E3000000D7
:10008000CD360000E3000000E3000000E3000000C4
:10009000E3000000E300000000000000000000009A
:1000A000E3000000E300000000000000000000008A
:1000B000E300000000000000E3000000E300000097
:1000C0000348854600F014FD00480047C95200006F
:1000D0001016202003480047FEE7FEE7FEE7FEE794
:1000E000FEE7FEE7C1000000F8B500242546002920
:1000F00004DA0E46012400214042B141002B04DA0B
:100100001E46002352420125B34100F025FB8C46D8
:1001100017461E46AC4203D0002540428D41AC46F6
:10012000002C02D0002657429E4161463A46334693
:1001300001B0F0BD30B5434351435C18010C130CC2
:100140000D465D432C1980B292B20546554351438A
:100150000A0C09044D1962415843010C000440196E
:10016000514130BD30B504460020034600E05B1C21
:10017000934203D2E05CCD5C401BF8D030BDF8B5B3
:1001800002464A40D40F42004B0052085B089A4294
:1001900002D20246084611464A0023D0C30D4A0047
:1001A000DDB2120EAD1A202D35DA49020126490AB8
:1001B000F6058A19002C00D0524220214F1B11460F
:1001C000B9402A411018C20D9A4221D0002C17D0F4
:1001D000012D08DCDA05801AD20F8019D207DBB2B4
:1001E00000F015FBF8BDDA05801A012340001B065C
:1001F000C01880185A428018CA0F1043490007E0FF
:100200004908C2071143DA05801A8019400880188E
:1002100000F0F5FAF8BD61000122511A001BF7E762
:100220000122D2075140AAE70122D2075040A6E797
:10023000024670B54A40D30FDB0740002DD04A007C
:100240002AD0010E140E000212020919400A520AA5
:100250008418E50104465443000A120A2E04504350
:10026000A4194219200CC543AA18120C0125AD038C
:10027000521C521912047F39240400D0521C10431E
:1002800001D44000491EC2B20C06C0092018401C0F
:100290004008802A02D003E0002070BD40084000E2
:1002A000002900DA0020184370BD70B502464A40AC
:1002B000D50F40004A00ED0740085208002814D02E
:1002C000002A12D0C40DD30D41020120C0055202F4
:1002D000490A520AE41A091812187D34914201D3CE
:1002E000641C00E04900002C01DA002070BD0023EE
:1002F000914201D3891A0343400849000028F7D1ED
:1003000000290AD0914202D10121C90705E091429A
:1003100001D2012101E00121C943E005C0184019C3
:1003200000F06DFA70BD0000F0B507460846584071
:1003300087B0C00F049048000E4659004008490895
:10034000BC1A884105D2384631461E4617460B4630
:1003500002465800400810434CD0300D0390400531
:100360005900400D490D0590401A0290402872DA5C
:1003700018030121000B090508430190049800921D
:10038000002805D001995242002088410092019036
:10039000029840210A1A0199009800F00DFA0546CA
:1003A0000C466B4607CB00F017FAC0197141039A4F
:1003B0000E0D0023D71756401A467A40164344D0F4
:1003C000049A002A2DD0029A012A039A15DC1205FC
:1003D000C01A914101263605001C7141D20F059EBD
:1003E000D2070093019202962A46234600F055FA5E
:1003F00007B0F0BD38463146FAE71605224A0F46E7
:10040000B218C01AB74101210905001C4F4100185C
:100410007F41114618187941E20F10436D1964416C
:1004200013E0E2076D0815436408C2071443039AFA
:1004300001261205C01A91413605001C7141CE07F4
:10044000400830434908C01851412A46234600F06D
:1004500017FACDE7FFE7049801224000C117121AEE
:1004600000238B4104983146C417381AA141EEE7A6
:1004700030B40124E407634030BC55E730B40124B4
:10048000E407614030BC4FE70000E0FFF0B51FB467
:1004900088B00B990998002448400999C00F490079
:1004A00049080991C0070B990090490049080B9130
:1004B00009990898A64608431CD00B990A98084346
:1004C00018D0099801244000420D4800410D0998B8
:1004D00024050003000B204309900B980003000B38
:1004E00020430B9050181C494018002201901446DC
:1004F000104605E0002001460DB0F0BD032801DAEA
:10050000034600E003239C46C11A0AAE0AE05F00DE
:1005100008ADED5B4F00F75B7D430027AA187C41D7
:10052000491C5B1E6145F2DD410004AB5A522104B7
:10053000120C0A43240C401C0828DFDB01980290AF
:100540000099704601910090059B049A07990698BE
:1005500000F0A3F9D0E700000DFCFFFF0122D20755
:10056000002800DB101A002900DB511A814201D853
:1005700001207047002070470122D207002800DBCD
:10058000101A002900DB511A814201D20120704764
:10059000002070470122D207002800DB101A002932
:1005A00000DB511A814201D30120704700207047BF
:1005B0000122D207002800DB101A002900DB511AA3
:1005C000814201D901207047002070470122D207E3
:1005D000002800DB101A002900DB511A814201D1EA
:1005E000012070470020704710B5002904DB0C463D
:1005F0000121C9074042A141002B04DB1C46012315
:10060000DB075242A341801A994101D3012010BD5A
:10061000002010BDC217C10F504010B54018CA07C6
:100620009623002100F0F3F810BD10B500229623A8
:10063000114600F0ECF810BDC20F4100400201234A
:10064000400ADB05D207090EC0187F2901DA002015
:100650007047962903DC9623591AC84001E0963961
:100660008840002AF4D040427047C20FD2074000B1
:1006700040080BD0C10D0723DB01C9184002090552
:10068000400A1143C2084007114370470020014649
:100690007047CB0FDB07490010B5490802460A43F3
:1006A00007D00A0D07240903E401090B121B002AD5
:1006B00001DC002010BDC900440F0C43C100E0184C
:1006C000D205801800F09BF810BD70B504460029D3
:1006D00003D000202022012310E0002801D00020B8
:1006E000C043C046C0460DE02546D5408D4205D3E7
:1006F0000D469540641B1D46954040191546521EF7
:10070000002DF1DC214670BD70B5002504462E4653
:10071000002911D0002C01DA01254442002901DA18
:10072000012649422046FFF7D0FFB54200D04042A3
:10073000002D00D0494270BD002C02DA0121C9070A
:1007400002E0002C00DD03490846C046C0462146B1
:1007500070BD0000FFFFFF7FF0B51FB4064600200C
:1007600082B005464024019100901BE00199224689
:100770000F46304600F0D4F9049A059B801A99413F
:1007800010D310461946224600F016F8361A8F414B
:100790000197224601200021009F00F00DF8381833
:1007A0004D4100902046641E0028DFDC019B00982C
:1007B0002946324607B0F0BD10B5202A04DB0146B9
:1007C000203A9140002010BD914020239C1A0346FE
:1007D000E3401943904010BD10B5202A06DBCB172B
:1007E0000846203A1041C1170B4306E00B4613415F
:1007F000D0402024A21A91400843194610BD002978
:1008000004DA401C490001D140084000704770B430
:100810000024050C05D11024000402D1002921D0A8
:100820001124050E01D100020834050F01D1000189
:10083000241D850F01D18000A41C002801DB40008D
:10084000641C002908D020252E1B0D46F540A14030
:1008500000D001212943084301061B1B000ADB1DB0
:1008600002D5002070BC7047DB05181880180029DD
:10087000F8DA401C4900F5D170BC400840007047D0
:1008800010B5002B08DA0024401C614192185B412E
:100890001A4301D14008400010BDF0B51FB482B02A
:1008A00005460C0003D0084606F040FA02E006F0C8
:1008B0003DFA20300246009021462846FFF77CFF93
:1008C000049B059A04460F4618431143084314D06D
:1008D000184610431BD0009840210A1A1846059963
:1008E00000F01EF905460E46009A05990498FFF798
:1008F00063FF084305D0012004E02046394607B0D5
:10090000F0BD0020C11705430E432C433743009927
:100910000E986305401A7905E40A00220C43FD0A8B
:100920000A3002D500200146E9E7010510196941A6
:100930000C9C0D9D00196941FFF7A2FFDFE7000045
:10094000F0B50C465C4085B0E40FE40703944C001E
:10095000002664085900944649080246029622433C
:1009600021D062460A431ED06200570D4A000E0392
:100970002303550D012402462C492405781B1B0B2B
:10098000360B401823432643614600901C46501AFC
:10099000B44103D30098401C009002E092180098E4
:1009A0005B41002803DA0020014605B0F0BD0020BD
:1009B000012109050746864611E064461D46141BC1
:1009C000B54106D36546521BB341744607430C43F9
:1009D000A646CD0740084908284392185B410546C2
:1009E0000D43EAD11046184313D0604619465040D3
:1009F0007140084306D06046101AB34106D2012266
:100A0000002306E000220123DB0702E00122D2439B
:100A10005310009874460105381C6141029C039DE7
:100A200000196941FFF72CFFBFE70000FD0300003C
:100A300070B54B005B0803430BD04B005C0D0026E8
:100A400033466542B341D417AD1AA34102DB0020FF
:100A5000014670BD12053018514170BD4A000903AE
:100A60000123090B1B0519430A4B10B5520D9A427D
:100A700002DA0020014610BD064B34339A4203DCF3
:100A80009A1A00F04DF810BD034BD218FFF794FEF0
:100A900010BD0000FF030000CDFBFFFF10B50029D3
:100AA00004DB0124E40740428C412146002B04DB97
:100AB0001C460123DB075242A3418B4200D18242F4
:100AC00010BD000010B5002904DB0124E4074042FA
:100AD0008C412146002B04DB1C460123DB075242DC
:100AE000A341994200D1904210BD000000000000D7
:100AF0001CB5094800900948019005460126009C54
:100B000005E0E36807CC33430C3C98471034AC4213
:100B1000F7D3FFF7D9FA00001C9800003C980000BA
:100B200010B5202A04DB0846203AD040002110BD31
:100B30000B46D340D0402024A21A914008431946C6
:100B400010BDFEB500231A461B1A8A4103DB0020A4
:100B5000014603B0F0BD4A000D0301212D0B09052C
:100B6000520D0D43D10702D100186D41521E511094
:100B7000FF31FF310131002704463E4638460097D9
:100B800001910246012100200905FFF7C9FFC319A1
:100B90007141F818324684468E464A4161462846DD
:100BA000611A904104D36046241A954176461F4647
:100BB000241900986D41401C00903428E1DDF9199A
:100BC00030467041091BA84103D20022D24313468C
:100BD00001E00022134601980105381C7141FFF71E
:100BE0004FFEB6E780B586B013480168002002F0DA
:100BF000A1FD0590114801900168642002904843CE
:100C0000FFF708FD0599FFF70BFBFFF715FD0199AD
:100C100002460298049209684843FFF7FBFC0599D5
:100C2000FFF7ADFAFFF708FD03900498039902F06F
:100C3000C1FC06B080BDC046B0042020400020208A
:100C400082B001900199881E001F00BFFCD2009065
:100C500002B0704784B0039002910192039800683B
:100C60000090009801998843009000980299019A99
:100C7000114008430399086004B0704784B00390A2
:100C800002910192039800680090009801998843AE
:100C9000009000980299019A114008430399086056
:100CA00004B0704784B003900291019203980068E9
:100CB0000090009801998843009000980299019A49
:100CC000114008430399086004B0704784B0039052
:100CD000029101920398006800900098019988435E
:100CE000009000980299019A114008430399086006
:100CF00004B0704784B00390029101920398006899
:100D00000090009801998843009000980299019AF8
:100D1000114008430399086004B0704782B0019005
:100D20000091009B0199CF4A88581843885002B01F
:100D30007047C04682B001900091009B0199C94A5A
:100D400088581843885002B07047C04682B001905E
:100D500000910098019995225201885002B0704785
:100D600082B001900091009801999522520188501B
:100D700002B0704782B001900091009801999522CD
:100D80005201885002B0704782B0019000910098E3
:100D9000019995225201885002B0704782B00190AB
:100DA00000910098019995225201885002B0704735
:100DB00081B0009000988100734A885801235B0637
:100DC0001843885001B0704781B0009000988100AE
:100DD0006D4A885801235B061843885001B070475C
:100DE00082B001900091009B0199034A88581843F2
:100DF000885002B07047C0462810000082B00190B1
:100E0000009100980199074A885002B07047C04687
:100E100082B00190009100980199024A885002B076
:100E20007047C046D012000081B0009000990120A8
:100E3000C202A848885001B07047C04682B00190F5
:100E400000910198024940580099084002B070474B
:100E50003810000081B00090009881004A4A18487C
:100E6000885001B07047C04610B584B0069C03900E
:100E70000291019200930298019908430099084356
:100E8000069908430E490843039989003E4A885051
:100E900004B010BD10B584B0069C0390029101927D
:100EA0000093029801990843009908430699084362
:100EB0000349084303998900334A885004B010BDA0
:100EC0008100040081B00090009881002E4A8120AA
:100ED000885001B07047C04681B0009000988100F2
:100EE000294A8120885001B07047C04682B00190E5
:100EF000009100981D49084301998900224A8850B1
:100F000002B0704710B584B0079C069C0390029114
:100F100001920093029801990843009908430699A9
:100F20000843079908431149084303998900164A61
:100F3000885004B010BDC04610B584B0079C069C14
:100F4000039002910192009302980199084300993D
:100F5000084306990843079908430449084303993D
:100F60008900094A885004B010BDC04680000400C2
:100F700082B0019000910098802108430199890076
:100F8000014A885002B070470480424082B001900C
:100F9000009101982721C90140580099084002B0EA
:100FA000704782B00190009101982721C9014058F3
:100FB0000099084002B0704782B0019000910198FA
:100FC0002721C90140580099084002B0704700002D
:100FD00081B000900099934A9348885001B07047BF
:100FE00082B001900091009801990C4A885002B09B
:100FF0007047C04682B00190009100980199074A5D
:10100000885002B07047C04682B0019000910098AD
:101010000199024A885002B07047C0469012000001
:1010200082B001900091009B01999D204201885857
:101030001843885002B0704782B001900091009828
:101040000199024A885002B07047C046B0120000B1
:1010500082B00190009100980199024A885002B034
:101060007047C0464810000081B0009000990920E8
:101070004202885801231B021843885001B0704770
:1010800081B000900099084A88580123184388507D
:1010900001B0704781B000900099034A885804233A
:1010A0001843885001B070472812000081B00090AA
:1010B00000990120C2020748885001B07047C0461D
:1010C00081B0009000990120C2020248885001B00E
:1010D0007047C0460100002680B584B0039002919D
:1010E00001A80280694600200880FFE76846008862
:1010F00001A90988884215DAFFE7039800F06AF829
:10110000002808D1FFE7039802996A461288895C93
:1011100000F030F900E005E0FFE70098401C694668
:101120000880E3E76846008804B080BD80B582B0DF
:101130000190019800F008F9FFE7019800F03AF8F3
:10114000002801D1FFE7F8E7019800F007F902B0A5
:1011500080BD000081B0009000980249405801B065
:101160007047C0461812000082B0019000910198AB
:10117000024940580099084002B070473010000002
:1011800082B0019001980449405802210840009023
:101190006846007802B070473412000081B00090B9
:1011A0000098124940580F2108404142484101B07F
:1011B0007047C04681B0009000980C4940580F21FC
:1011C00009020840024940184142484101B07047B5
:1011D00000F8FFFF81B000900098044940580F21AB
:1011E000090208404142484101B070473C120000EA
:1011F00081B00090009802494058C0B201B07047D9
:101200001C12000081B000900099064A06488850E0
:1012100001B0704781B000900099024A024888509E
:1012200001B0704704080000030000B181B00090D5
:101230000099434A0020885001B0704780B584B0BF
:10124000019101460198039102A90880039809229F
:1012500052028018098803225202FFF7FBFC04B0F7
:1012600080BD000080B582B00190009101980949CD
:101270004018009909780C22FFF728FD01980121F8
:1012800009034018009949780722FFF71FFD02B0B3
:1012900080BDC0460410000080B584B001910146B5
:1012A0000198039102A908800398314A801809889F
:1012B00007221202FFF7CEFC04B080BD80B584B0D7
:1012C000019101460198039102A908700398284AE8
:1012D000801809780722FFF7BDFC04B080BDC04626
:1012E00082B001906846017000780199014A8850E7
:1012F00002B070472412000010B586B00192024679
:1013000001980592049103AA107002A80380059821
:10131000094940180499490012781143074AFFF718
:10132000E9FC05980649401802990904C91D054AB7
:10133000FFF7E0FC06B010BD10120000FF07000030
:10134000141200000700FF0F81B000900099084AB6
:10135000885880231843885001B0704781B00090AE
:101360000099034A885880239843885001B07047F9
:101370003812000082B0019068460170007801992F
:1013800091225201885002B0704782B001906846A5
:1013900001700078019991225201885002B0704783
:1013A000F0B584B001242202344B196803929143B2
:1013B000196062490D686D04FCD5457E25409E6923
:1013C000A64374199C612024045D03252C40DE692A
:1013D000AE433419DC611F4C256805262660466A39
:1013E00037681F6276685E6207262E402660C469F1
:1013F0007F252D02DE69AE436406640C3419DC617E
:101400000768456882680092C6680269019242696D
:1014100002929A69104C14403A07120B2D03ADB298
:10142000AA183243009D2D072D0D1543019A15432F
:10143000029A1543007E2843084A02401019986119
:101440001868039A1043186008688005FCD504B03A
:10145000F0BDC046001340408D00F0FF72FF0F004A
:1014600006490868012290430860704703490868EC
:1014700001221202904308607047C04608010B40E9
:101480002D49086801221203104308607047C046C6
:1014900081B0009000980349086003490348086040
:1014A00001B0704700030B4004030B40010000E44F
:1014B00081B001466846017000780249086001B0B9
:1014C0007047C04608030B4080B582B0014601A8B2
:1014D000018001880F2002021748FFF7BBFB02B012
:1014E00080BDC04680B582B0014601A80170017878
:1014F00002480322FFF7AEFB02B080BD00010B40A3
:1015000080B582B0014601A8017001780A483022F6
:10151000FFF7A0FB02B080BD07498860074802685A
:101520009202FCD5012212040B6813430B60016880
:10153000C906FCD57047C04604010B4004020B40AD
:1015400009490868052210430860704781B000907F
:101550000549042008600098401E044908600449B9
:101560000020086001B0704710E000E014E000E0E7
:1015700018E000E080B58CB00B900A910A98407991
:10158000C00700285CD0FFE70A9800790790002880
:1015900004D0FFE7079820280CD018E00B9888218A
:1015A0000691022200F0B8F906990B98032200F088
:1015B000B3F919E00B98212109010591022200F0ED
:1015C000ABF905990B98032200F0A6F90CE00B98F3
:1015D0000521C9010491022200F09EF904990B989B
:1015E000032200F099F9FFE70B98002202920223F0
:1015F0000193114600F0AAF9029A0B980323039372
:10160000114600F0A3F90199029B0B98009119462D
:101610001A4600F0D3F9029B03990B9800911946E2
:101620001A4600F0CBF9019B029A0B98114600F084
:10163000ABF9029A039B0B98114600F0A5F9FFE75E
:101640000A98006808900A98007908A908710A9811
:10165000807948710B9800F031F80CB080BD000023
:1016600081B000900099024A0120885001B0704773
:101670000811000082B001900091009B0199034A7B
:1016800088581843885002B07047C04628100000A0
:1016900081B0009000990120C2020248885001B038
:1016A0007047C0460100002681B00090009881215B
:1016B00049014058C0B201B07047000080B58AB0FF
:1016C00009900891089800790790002804D0FFE756
:1016D0000798202812D029E0099808990968491E1E
:1016E00000F0C6F9099888210691002200F014F94B
:1016F00006990998012200F00FF92AE00998089943
:101700000968491E00F0B4F909982D490491002296
:1017100000F002F9049909980122059200F0FCF802
:1017200005990998490700F095F912E00998089978
:101730000968490800F09CF909980521C90103913D
:10174000002200F0E9F803990998012200F0E4F87A
:10175000FFE709980023019319461A4600F0F6F8AE
:10176000019A099801230293114600F0EFF8019BBA
:101770000998009319461A4600F020F9019B029936
:101780000998009119461A4600F018F9019B09982A
:1017900019461A4600F0F8F8019A029B099811467A
:1017A00000F0F2F80998BD494018089A1179527969
:1017B000114302221143034AFFF774FA0AB080BDB5
:1017C00001040000BFFF003080B584B00390029197
:1017D00003980299496800F04BF90298007801904B
:1017E000222856D80198810001A040588746C0465B
:1017F0008918000093180000891800009318000051
:10180000931800009318000093180000931800002C
:10181000931800009318000093180000931800001C
:10182000931800009318000093180000931800000C
:101830007D180000931800007D1800009318000028
:1018400093180000931800009318000093180000EC
:1018500093180000931800009318000093180000DC
:1018600093180000931800009318000093180000CC
:101870007D180000931800007D18000003980121D6
:10188000490700F0E7F805E00398002100F0E2F8CE
:1018900000E0FFE70398029909690022009200F036
:1018A000ADF8009B03980299C9681A4600F04EF8FB
:1018B00002990878097A08430399784A885004B055
:1018C00080BDC04681B000900099AE4AAE488850B5
:1018D00001B0704782B001900091009801991122E7
:1018E0001202885002B0704780B584B00390029114
:1018F00001A802700399224A891800910178009882
:101900008900401800900098029907229204FFF77E
:10191000C9F904B080BDC04680B584B0039002917F
:1019200001A802700399074A89180091017800986C
:1019300089004018009000980299034AFFF7B2F915
:1019400004B080BD70180000DB06C00F10B586B073
:1019500005900491039202A803700599084A89181A
:10196000019101780198890040180190019804992B
:10197000039A1143034AFFF795F906B010BDC0461C
:10198000301800007777020010B586B005900491FA
:10199000039202A8037005993122D201891801919E
:1019A0000178019889004018019001980499039AE0
:1019B00011438F22FFF776F906B010BD10B587B03E
:1019C00000910446009809990694059004920393A7
:1019D00002A801700699084A8918019101780198B6
:1019E0008900401801900598049908430399084319
:1019F0000199086007B010BD5018000084B0039032
:101A0000029101A802700399064A89180091017891
:101A1000009889004018009002980099086004B06E
:101A20007047C0461018000082B0019000910098E5
:101A300000780199704A88500098407801990122F5
:101A400012038850009880780199864A885002B025
:101A50007047C04680B582B00190009101980F494F
:101A60004018009903221207FFF71CF902B080BD4D
:101A700082B00190009100980199024A885002B00A
:101A80007047C0460818000081B000900099034AD2
:101A9000885801231843885001B07047041800008B
:101AA00081B00090009911200202885801239843C8
:101AB000885001B0704781B0009000991120020257
:101AC000885801231843885001B0704781B00090B6
:101AD000009911200202885801235B0418438850A2
:101AE00001B0704781B0009000991120020288581F
:101AF00004231843885001B07047000081B0009063
:101B000000990120C2020248885001B07047C046C7
:101B10000100002680B582B0019000910198FFF786
:101B2000BFFF0198112109024018009A118893788B
:101B3000194392881143084AFFF7A0F801982549F4
:101B40004018009A9179D3791943127A11437E2271
:101B5000FFF794F802B080BD1867020081B00090D2
:101B60000098034940580121084001B07047C04621
:101B70000811000081B000900099024A0248885084
:101B800001B0704704080000030000B180B584B0C4
:101B900003900291019203980B49401802990B4A55
:101BA000FFF758F803980A49401801993F22FFF7B8
:101BB00051F80399074A8818895801221140FFF704
:101BC00049F804B080BDC04610110000FFFF0000BE
:101BD000141100000411000082B0019000910098DF
:101BE00000780199044A88500098407801990122B0
:101BF0001203885002B070470810000080B582B010
:101C000001900091019811210902401800990322C6
:101C1000D203FFF71FF802B080BD000080B584B08A
:101C2000019101460198039102A9087003980D4A99
:101C3000801809787022FFF70DF804B080BDC04607
:101C400080B584B0019101460198039102A9087002
:101C50000398044A801809780722FEF7FBFF04B0B6
:101C600080BDC0460C11000082B001906846017032
:101C70000078019989225201885002B07047000013
:101C800080B584B003A90020087002AB01931870DE
:101C900068207521012203F08FFA494805F022F8E7
:101CA00001980078682804D0FFE70320FFF7F0FBD5
:101CB000FFE703F003FD002871D1FFE7782004F06F
:101CC000EFFC002804D1FFE73D4805F00BF803E0E6
:101CD00003A901200870FFE7782003F057FB0028D4
:101CE00004D1FFE7374804F0FDFF03E003A901201A
:101CF0000870FFE7C82004F05DFC002804D1FFE76E
:101D0000314804F0EFFF03E003A901200870FFE76A
:101D100002F0B6F9002804D1FFE72C4804F0E2FFF6
:101D200003E003A901200870FFE7294803F062FAE5
:101D300002F01AFC002804D1FFE7264804F0D2FF85
:101D400003E003A901200870FFE7FF20743002F0D0
:101D500007F8002804D1FFE71F4804F0C3FF03E0A1
:101D600003A901200870FFE7C82002F015FB002836
:101D700004D1FFE7194804F0B5FF03E003A90120EF
:101D80000870FFE704F000FF012004F09FFA00282C
:101D900004D1FFE7124804F0A5FFFFE703E00320AA
:101DA000FFF776FBFFE703A80078002806D0FFE7DF
:101DB00003F0BCFA0320FFF76BFBFFE704B080BD24
:101DC000D3970000AE9700001A970000C39600005A
:101DD0004400202088970000F596000040970000FE
:101DE0006497000080B582B0032041063F48FFF7AA
:101DF00025F83F4901910860112001053D48FFF792
:101E00001DF8014601983C4A1160C07880070028FF
:101E100013D5FFE7012081063448FFF7C2F80028F8
:101E200005D1FFE735490868401E086004E03349E2
:101E30000868401C0860FFE719E02D48C07840079B
:101E4000002813D5FFE7012041062848FFF7A9F82D
:101E5000002805D1FFE729490868401C086004E014
:101E600026490868401E0860FFE7FFE7FFE72248B1
:101E70008078C006002813D5FFE7012001061D4821
:101E8000FFF78FF8002805D1FFE71D490868401EBD
:101E9000086004E01A490868401C0860FFE719E080
:101EA0001548C078C007002813D0FFE701200105BE
:101EB0001048FFF776F8002805D1FFE710490868B9
:101EC000401C086004E00E490868401E0860FFE7F7
:101ED000FFE7FFE7032041060448FEF72BFF112030
:101EE00001050448FEF726FF02B080BD00000A404D
:101EF000B805202000200A40BC05202094002020A6
:101F00009000202010B584B003AC2080029101A87D
:101F100002800093002004B010BD10B584B003AC63
:101F20002080029101A802800093002004B010BD1F
:101F300010B588B00191014601980A9C06AC218039
:101F400005A90880049203AA138001200290069834
:101F5000400809781278049BC0B204F0DFFC0290BC
:101F60000298002804D1FFE707A90020087003E0C9
:101F700007A901200870FFE707A8007808B010BD86
:101F800010B588B00091014600980A9C06AC2180EB
:101F900005A90880049203AA138002AB01930120D3
:101FA00018700698400809781278049BC0B204F0B3
:101FB0003FFD0146019801700078002804D1FFE739
:101FC00007A90020087003E007A901200870FFE7B7
:101FD00007A8007808B010BD80B582B0014601A8FE
:101FE0000180008801F038FE02B080BD80B5054850
:101FF000FFF7C6F8002803D1FFE703F097F9FFE7E2
:1020000080BDC04600000F40B0B586B001931446B5
:10201000019A0B46014605A8017004A90B7003AB99
:102020001C700292534A12681469007840000978C3
:10203000029A1B78C8250095A04706B0B0BDC046DF
:1020400010B588B00C46014607A8017006A90C70AF
:1020500005AC227004AA02921370464A12681469F1
:10206000007840000978C822009203AA0123A04703
:1020700002980078002809D0FFE703A8007805A996
:102080000A78012191400843019008E003A80078F4
:1020900005A90A780121914088430190FFE7019842
:1020A00003AA107033480068C46807A8007840008D
:1020B00006A90978C82300930123A04708B010BDE2
:1020C000B0B58AB014460D4601460E9A08A80170B4
:1020D00007A90D7006AD2C7005AC237004AB1A7007
:1020E000244A12681469007840000978C8220092D6
:1020F00003AA0123A047002833D1FFE706A80578EB
:10210000691CFF231A468A4005A90C78641BE41D4C
:10211000E3401A4302AB1A700A780821891A049A1C
:102120008A4004A90A7002780720821A0878D040F1
:10213000087002990398084003AA10700499039844
:10214000084310700B480068C46808A80078400075
:1021500007A90978C82300930123A04709A908709B
:1021600003E009A901200870FFE709A800780AB078
:10217000B0BDC0465800202080B59EB00A201A90FD
:1021800001F04CFC01461A981DAA1B92117001F037
:10219000A7FC01461B981CAA11700078012822D1C7
:1021A000FFE7E9480068002806D1FFE7E84908682A
:1021B00042425041086015E0E348006801280AD017
:1021C000FFE7E1480068022805D0FFE7DE48006825
:1021D000032806D1FFE7DD490878424250410870E4
:1021E000FFE7FFE712E01DA8007802280DD1FFE706
:1021F000D5480168491C01600068042804DBFFE73A
:10220000D14900200860FFE7FFE7FFE71CA800783E
:10221000012800D051E1CC48006801284AD1FFE7ED
:10222000CC480078002813D1FFE7C8480178D1488E
:10223000D14A18920029199001D11898199019992A
:10224000D04817900068FDF79AFF1799086018E0CA
:10225000C0480078022813D1FFE7BC480178BE4887
:10226000BE4A15920029169001D11598169016991C
:10227000C34814900068FDF782FF14990860FFE7D7
:10228000FFE7C04800680021FEF784F9002804D168
:10229000FFE7BC4900200860FFE7B948006800215B
:1022A000FEF778F9002804D1FFE7B549002008605F
:1022B000FFE701E1A448006802286FD1FFE7A548C5
:1022C0000078002813D1FFE7A0480178A948AA4A5E
:1022D00012920029139001D1129813901399A748D4
:1022E00011900068FDF74BFF1199086031E09948A3
:1022F0000078012813D1FFE7944801789648974A5F
:102300000F920029109001D10F98109010999848C1
:102310000E900068FDF733FF0E99086018E08D48B5
:102320000078022813D1FFE7884801788A488B4A51
:102330000C9200290D9001D10C980D900D998B48AD
:102340000B900068FDF71BFF0B990860FFE7FFE7A4
:10235000FFE78A4800680021FEF71CF9002804D135
:10236000FFE7864900200860FFE7814800680021F8
:10237000FEF710F9002804D1FFE77D49002008602E
:10238000FFE77A4800680021FEF704F9002804D12D
:10239000FFE7764900200860FFE78CE06A480068A4
:1023A000002811D1FFE7694801780020C043099057
:1023B000012000290A9001D109980A900A9A6A49D5
:1023C00008688018086075E05F480068032870D1CD
:1023D000FFE760480078002814D1FFE75B480178E8
:1023E000FF2080055F4A07920029089001D10798D5
:1023F000089008995A4806900068FDF7C0FE0699B3
:10240000086031E053480078012813D1FFE74F48B6
:1024100001785148514A04920029059001D104984D
:10242000059005994E4803904068FDF7A8FE039972
:10243000486018E047480078022813D1FFE7434876
:1024400001784548454A01920029029001D101983E
:1024500002900299424800908068FDF790FE009932
:102460008860FFE7FFE7FFE73D4800680021FEF7CF
:1024700091F8002804D1FFE7394900200860FFE700
:10248000374840680021FEF785F8002804D1FFE7AF
:10249000334900204860FFE7314880680021FEF79B
:1024A00079F8002804D1FFE72D4900208860FFE774
:1024B000FFE7FFE7FFE7FFE744E01CA800780228FA
:1024C0003FD1FFE720480068012807D1FFE72149F5
:1024D0000878424250414000087031E01A480068D4
:1024E00002280DD1FFE71B480178491C01700078D4
:1024F000032804DBFFE7174900200870FFE71EE010
:1025000011480068002806D1FFE7104908784242C8
:102510005041087012E00C48006803280DD1FFE715
:102520000C480178491C01700078032804DBFFE7A0
:10253000084900200870FFE7FFE7FFE7FFE7FFE734
:10254000FFE7FFE71EB080BD9C0020208800202010
:1025500014002020E00420200AD7233C0AD723BC03
:10256000080020200000C0BF40002020AC04202034
:1025700038002020CDCCCC3DCDCCCCBD3C002020A3
:10258000180020201C00202080B582B0014601A840
:1025900001800088002803D1FFE700F017F810E061
:1025A00009490888401C088080B201A9098888422E
:1025B00006D1FFE700F012F8034900200880FFE78A
:1025C000FFE702B080BDC0469800202080B5012002
:1025D00041020648FEF7C4FB80BDC04680B501201D
:1025E00041020248FEF728FD80BDC04600200A4097
:1025F00080B582B0054B0193682075210122FFF759
:1026000003FD0198007802B080BDC046CA042020B6
:1026100080B582B0FFF7ECFF682804D0FFE7032005
:10262000FEF736FFFFE7022000F012F8032000F06B
:102630002DF80020019000F01AF8019800F04FF8F2
:10264000019800F03FF8019800F02FF802B080BD2B
:1026500080B582B0014601A8017000780090682022
:102660006B2102220323FFF72BFD02B080BD80B552
:1026700082B0014601A801700078009068201C21FA
:1026800004220223FFF71CFD02B080BD80B582B09A
:10269000014601A801700078009068201B210422E7
:1026A0000223FFF70DFD02B080BD80B582B0014668
:1026B00001A801700378682037210122FFF7C0FCD0
:1026C00002B080BD80B582B0014601A801700378D8
:1026D00068206A210522FFF7B3FC02B080BD80B5F7
:1026E00082B0014601A80170037868206B210622A0
:1026F000FFF7A6FC02B080BD80B5B6B000F0FCF9D3
:10270000D94800683590032800D9A9E1359881009F
:1027100001A040588746C04629270000DB2700005B
:102720008B28000075290000E6480268E648036827
:10273000D3483090E54904F0E5FA309A0021319110
:10274000084600F0CBFBE2480068FDF78EFF02462A
:1027500030980B46DF4904F0D5FA3199309A46207B
:1027600000F0BCFB3098DC490A68DC490B68DC49A6
:1027700004F0C8FA309A3198102100F0AFFB30987D
:10278000D8490A68D8490B68D84904F0BBFA309A8E
:102790003198202100F0A2FB3098D5490A68D5492C
:1027A00004F0B0FA309A31983021329100F096FB63
:1027B000B7480178B748B84A33920029349001D11C
:1027C000339834903098349AB44904F09BFA329993
:1027D000309A642000F082FB42E1B54A0021299141
:1027E000084600F07BFBB3480068FDF73EFF2A90E7
:1027F0002B91A0482C9001789F482D909F4A2E92B3
:1028000000292F9001D02E982F902B9B2A9A2F9839
:1028100000909B482590A84904F074FA259A2998BD
:10282000102100F05BFBA5480068FDF71EFF024683
:102830002D9826920A462C992792097802292890E9
:1028400001D02E9828902598279B269A28990091A8
:102850009B4904F057FA259A2998202100F03EFB65
:102860008B4801788B488C4A23920029249001D10F
:10287000239824902598249A884904F043FA2999AA
:10288000259A642000F02AFBEAE0854A00211C9189
:10289000084600F023FB83480068FDF7E6FE1D9024
:1028A0001E9174481F90017873482090734A2192BA
:1028B0000029229001D0219822901E9B1D9A2298D7
:1028C00000906F4818906F4904F01CFA189A1C98F1
:1028D000102100F003FB74480068FDF7C6FE0246B5
:1028E000209819920A461F991A92097801291B907B
:1028F00001D021981B9018981A9B199A1B99009146
:10290000614904F0FFF9189A1C98202100F0E6FABA
:1029100066480068FDF7A9FE0246209815920A460F
:102920001F99169209780229179001D021981790C3
:102930001898169B159A17990091544904F0E2F9DA
:10294000189A1C98302100F0C9FA51480178514872
:10295000514A13920029149001D113981490189899
:10296000149A4E4904F0CEF91C99189A642000F08C
:10297000B5FA75E03D4A00210B91084600F0AEFA29
:102980003B480C900068FDF770FE0D900E913948A1
:102990000F90017838481090384A1192002912900F
:1029A00001D0119812900E9B0D9A12980090344805
:1029B0000790344904F0A6F9079A0B98102100F00B
:1029C0008DFA0C984068FDF750FE02461098089268
:1029D0000A460F990992097801290A9001D01198A5
:1029E0000A900798099B089A0A990091264904F0D1
:1029F00089F9079A0B98202100F070FA0C988068EA
:102A0000FDF733FE0246109804920A460F9905928C
:102A100009780229069001D0119806900798059B25
:102A2000049A06990091194904F06CF9079A0B98D9
:102A3000302100F053FA164801781648164A0292DF
:102A40000029039001D1029803900798039A134933
:102A500004F058F90B99079A642000F03FFAFFE759
:102A600000F052F936B080BD9C002020A3950000F4
:102A700008002020E0042020A19500009B95000084
:102A8000E6052020269600001C9600001296000005
:102A9000880020209D9500009F9500000D96000065
:102AA000AD9500003C00202038002020AC04202000
:102AB000B59500001C002020F5950000180020208E
:102AC00001960000F4042020F8042020D79500008F
:102AD000B0042020EE950000C8052020CC05202061
:102AE000BB950000D0052020D4052020C99500000A
:102AF00040002020E195000080B582B001A90020AF
:102B00000870FFE701A8007807281EDCFFE7694688
:102B100000200870FFE7684600787F280FDCFFE799
:102B200068460078C1009648411801A80278002044
:102B30008854FFE70098401C69460870EBE7FFE700
:102B40000198401C01A90870DCE700F0DDF802B034
:102B500080BDC04686B0034605A8037004AB19705B
:102B600003A90A706A460021117000787F2805DCED
:102B7000FFE704A80078402801DBFFE72DE004A967
:102B80000878C2080720821A02AB1A700A7802403D
:102B900001A90A700978411A012088406946087025
:102BA00003A8007800280CD0FFE7009B05A8007858
:102BB000C1007348411802A80278885C1843885401
:102BC0000BE0009B05A80078C1006D48411802A8E1
:102BD0000278885C98438854FFE706B07047C04687
:102BE00080B582B000F06EF8782001F035F800F082
:102BF00071F8AE200021019100F0ADF90199D520C6
:102C000000F0A9F90199502000F0A5F90199A82038
:102C100000F0A1F901993F2000F09DF90199D3201E
:102C200000F099F90199084600F095F901994020C2
:102C300000F091F901998D2000F08DF9019914208F
:102C400000F089F90199202000F085F9019902200E
:102C500000F081F90199A12000F07DF90199C020CF
:102C600000F079F90199DA2000F075F90199122044
:102C700000F071F90199812000F06DF90199EF20C0
:102C800000F069F90199D92000F065F90199F12066
:102C900000F061F90199DB2000F05DF90199302025
:102CA00000F059F90199A42000F055F90199A620E6
:102CB00000F051F90199AF2000F04DF9FFF71CFF2A
:102CC00002B080BD80B5012081030E48FEF75CF89C
:102CD00080BDC04680B5012081030A48FEF78AF90D
:102CE00080BDC04680B50120C1030648FEF74CF800
:102CF00080BDC04680B50120C1030248FEF77AF9C5
:102D000080BDC04600200A4080B584B003A90020E1
:102D10000870FFE703A8007807282FDCFFE7039877
:102D2000B030C0B20021019100F015F901990846B8
:102D300000F011F90199102000F00DF9019802A995
:102D40000870FFE702A800787F2811DCFFE702A8DF
:102D50000078C1000A48401803A90978405C0121A5
:102D600000F0F9F8FFE70298401C02A90870E9E7B3
:102D7000FFE70398401C03A90870CBE704B080BDAF
:102D8000A400202080B5012001070E48FDF7FCFFBC
:102D900080BDC04680B5012001070A48FEF72AF928
:102DA00080BDC04680B50120C1070648FDF7ECFF95
:102DB00080BDC04680B50120C1070248FEF71AF960
:102DC00080BDC04600000A40B0B58AB004460E98E7
:102DD00009AD2C7008AC217007A90A7006AA1370FF
:102DE00005AA1070089801AA10700798203808707A
:102DF00003A900200870FFE703A8007806A9097856
:102E0000884264DAFFE706A800780C280CD1FFE7B7
:102E100007A800780C2141432F48401803A90978DE
:102E2000405C04A908700AE007A80078010129485D
:102E3000401803A90978405C04A90870FFE702A9BB
:102E400000200870FFE702A80078072839DCFFE7B8
:102E500004A800780006002809D5FFE709A8007833
:102E600008A9097805AA1278FFF774FE0AE009A8F4
:102E7000007808A9097805AA127853425A41FFF749
:102E800069FEFFE70498400004A908700898411CF7
:102E900008A80170007801A90978401A06A90978E4
:102EA000884208D1FFE7019808A908700998401CDA
:102EB00009A9087005E0FFE70298401C02A9087004
:102EC000C1E7FFE70398401C03A9087094E70AB024
:102ED000B0BDC046908F00001C8B000080B586B04E
:102EE00005AB187004A801700392FFE703980078FF
:102EF00000282ED0FFE705A800787B2808DBFFE735
:102F000005A9002008700498103004A90870FFE794
:102F100004A800783B2808DBFFE705A9002008701B
:102F200004A90870FFF7E8FDFFE705A80290007804
:102F300004A90978039A1278012300930C23FFF760
:102F400043FF02990598083008700398401C0390CD
:102F5000CCE706B080BD80B584B003AA107002A88B
:102F600001700078002803D0FFE7FFF7C3FE02E0FE
:102F7000FFF7B8FEFFE701A900200870FFE701A8EE
:102F8000007807281ADCFFE7FFF7FCFE03A80078AB
:102F90000006002803D5FFE7FFF70CFF02E0FFF76C
:102FA00001FFFFE7FFF7F6FE0398400003A9087052
:102FB000FFE70198401C01A90870E0E7FFF79AFEBF
:102FC00004B080BDB0B5A8B026A80190814821907A
:102FD00000908148814922AA27AB01F05FF821982F
:102FE0000088C005002800D4F2E02298FDF712FB0B
:102FF0009D21C9050391FDF758F97949149108609D
:103000002398FDF707FB0399FDF74FF975491191D7
:1030100008602498FDF7FEFA0399FDF746F9724916
:10302000129108602598FDF7F5FA0399FDF73DF92F
:10303000014611986D4A13921160006803218907B7
:103040000991FDF7F5F8139902461498059209685D
:10305000049101680846FDF792F812990968FDF796
:10306000E7F80499024605980692FDF7E1F80699FB
:10307000FDF785F8FDF7F9FA04F070FB5C4A209241
:103080005C4B1F93FDF702FAFDF703FB0146129814
:10309000594A116001680A910846FDF770F81399C2
:1030A000024614980B920968079101680846FDF7DB
:1030B00066F8119909680C91FDF7BAF8079902466C
:1030C0000B980892FDF7B4F80899FDF758F8FDF74A
:1030D000CCFA02460C980F920A4609991092FDF715
:1030E000A7F80A9902460B980D92FDF7A1F80C99E2
:1030F00002460D980E92FDF79BF80E99FDF790F899
:103100007F21C905FDF73BF8FDF7AFFA02460F989E
:103110000B46109904F06AFD1F9B209AFDF7B6F943
:10312000FDF7B7FA119B129A139904461498334D80
:103130002C601B6816931268199200681790096832
:103140001B91FDF775F81999024616981592FDF72F
:103150006FF81599FDF713F801460846FDF70FF8CB
:10316000FDF783FA1D90084616991E900846FDF754
:103170005FF8179918900846FDF75AF81899FCF768
:10318000FEFF19991A900846FDF752F801461A9861
:10319000FDF746F81B991C900846FDF749F80146D3
:1031A0001C98FDF73DF8FDF760FA02461D980B46A6
:1031B0001E9904F01BFD1F9B209AFDF767F9209ACA
:1031C0000F4BFDF7B1F8FDF764FA0E490860FFE711
:1031D00028B0B0BDE4052020C0052020C404202074
:1031E00050002020D8052020DC052020E0052020EC
:1031F0006666666666A64C40A8042020A4042020CB
:1032000066663340B004202080B58EB00E200821C1
:103210000291FDF7ADFEE4480C900421FDF7EEFDB0
:1032200002990F20FDF7A4FE02990C98FDF7E6FD28
:1032300000230593019300930321089118461A4631
:10324000FDF760FE059B089901930093012004900F
:103250001A46FDF757FE0598FDF7AAFD0498FDF7FD
:10326000A7FD142002210391FDF782FE039915208A
:10327000FDF73CFE2720FDF7EDFD1920FDF722FEAE
:103280001E20FDF71FFE1F20FDF71CFE0398FDF713
:1032900019FE05200790FDF715FE2A20FDF7DAFD3F
:1032A0002020FDF7D7FD2120FDF7D4FD3B20FDF7C1
:1032B000D1FD2520FDF706FE2620FDF703FE232085
:1032C000FDF700FE2220FDF7FDFD3620FDF7C2FDD3
:1032D0003A20FDF7BFFD2F20FDF7BCFD3320FDF7A1
:1032E000B9FD0498059B0093420418201946FDF788
:1032F000BBFDF148099018490691FDF727FD069995
:103300000998FDF77BFD079909988904FDF788FE68
:103310000899099849060A91FDF700FD09980A994C
:10332000FDF75EFD0C98612149020B91FDF70EFD42
:103330000B990C98FDF762FD0C980849FDF770FE9B
:103340000C98112109050D91FDF7E8FC0C980D99D9
:10335000FDF746FD0EB080BD006003900001010046
:1033600080B582B0124991480190FDF77BFF01982A
:1033700003214902FDF762FF0198FDF775FE0198F0
:10338000FDF754FF01980921FDF7AAFF01980021DC
:103390000091FDF793FF00990198FDF77DFF0198DB
:1033A000FDF778FE0198FDF76BFE02B080BDC046C8
:1033B000B68A000080B584B01B49C0480390FEF770
:1033C00033FB03981949FEF7D5F8039800220192C0
:1033D0001146FEF713FB019B0398009319461A460A
:1033E000FEF7ECFA019A03981146FEF77DFA01996F
:1033F000039801220292FEF701FB019B02990398B8
:10340000009119461A46FEF7D9FA0199029A0398D3
:10341000FEF76AFA0398FEF723F903980321FEF7F3
:1034200059FA04B080BDC046B88A0000BC8A0000CA
:1034300080B582B000200190FEF73AF8012000909C
:103440004002FEF741F80198FEF74CF8FEF708F845
:10345000FEF70CF80848FDF7A3FF1020FEF750F820
:10346000FEF70EF80198FEF757F80098019900F062
:1034700025FA02B080BDC046C48A000080B5012094
:103480000006FEF763F8FEF75BF880BD80B582B0FA
:103490000849A2480190FEF7C7FA01980649FEF7CD
:1034A00093F901980121FEF7E5F80198FEF7D8F8A5
:1034B00002B080BDEC8A0000F08A000080B582B0C6
:1034C00012493B480190FEF787FB01981049FEF72F
:1034D00021FB01980021FEF791FB019815212D2277
:1034E000FEF754FB0198FEF7F1FA01987021FEF700
:1034F00095FB01980221FEF7A3FB0198FEF7F2FA73
:103500000198FEF7D8FA02B080BDC046048B0000D7
:10351000068B000080B500F015F8FFF775FEFFF789
:1035200087FFFFF747FFFFF7B1FFFFF719FFFFF72F
:10353000C5FFFFF7A3FF0249B8220020885480BDD1
:10354000FC04202080B586B05B480090FDF740FD6C
:1035500015480190FDF73CFD58480290FEF7B2F97E
:103560006E480390FEF7AEF910480490FDF74AFE4E
:103570000F480590FEF7FEFA0098FDF755FC0198FC
:10358000FDF752FC0298FEF783F80398FEF780F8E7
:103590000498FDF78BFD0598FEF7B0FA1020FDF7B3
:1035A0004FFB06B080BDC04600200A4000000F401F
:1035B0000080104080B58EB00D900C910C980128C1
:1035C0001DDBFFE701200A9001043B480B90FDF74B
:1035D00007FD0A990B984904FDF7CCFB0C980128CC
:1035E00003DBFFE70C98099003E00C984042099038
:1035F000FFE7099931480022FEF700FA1CE001209C
:10360000079041042C480890FDF7EAFC07990898B8
:103610000904FDF7AFFB0C98012803DBFFE70C98CA
:10362000069003E00C9840420690FFE70699234875
:103630000022FEF7E3F9FFE70D9801281DDBFFE705
:103640000120049081031C480590FDF7C9FC0499F2
:1036500005984903FDF78EFB0D98012803DBFFE772
:103660000D98039003E00D9840420390FFE7039903
:1036700012480122FEF7C2F91CE00120019041032B
:103680000D480290FDF7ACFC019902988903FDF703
:1036900071FB0D98012803DBFFE70D98009003E014
:1036A0000D9840420090FFE7009904480122FEF780
:1036B000A5F9FFE70EB080BD00000A40002086405B
:1036C000014800687047C04618E000E080B5134824
:1036D000FDF7EAFF00281FD0FFE76420FEF754FF44
:1036E000FEF74AFD0E49086840420E4A10600E4A35
:1036F00010680E4B18600020106008600C480068CD
:10370000002803D1FFE7FDF76DFA04E00021084629
:10371000FFF750FFFFE7FFE780BDC04600400840CD
:1037200090002020F404202094002020F804202081
:103730001400202080B592B01190109101200B90C0
:1037400080070C900F9010983F490968FCF768FDBE
:103750000D900D98FCF789FF0B9A0C9BD2079143B3
:103760000022FCF741FF002812D1FFE70D9800214D
:10377000FCF71EFF014601208007032292070992F1
:1037800000290A9001D109980A900A980D90FFE744
:1037900010992D48016000680D99FCF7F0FC10901D
:1037A00011981099FCF73CFD0E900E99274808904F
:1037B0000068FCF7E4FC01460898016000682449B1
:1037C000FCF7CCFE002804D1FFE720492048086020
:1037D0000CE01E4800681F49FCF7DCFE002804D1FD
:1037E000FFE71A491B480860FFE7FFE70E981A49F0
:1037F00001910968FCF714FD0199184A05921060BF
:103800000E98086016480690016803910E9902917F
:1038100040680E490968FCF70BFD029902460398BF
:103820000492FCF705FD0499FCF7A9FC05990246F2
:103830000698079280680968FCF7FAFC0799FCF77C
:103840009EFC12B080BDC046C0042020B8042020D9
:103850000000FA430000FAC3BC042020B404202076
:103860000800202081B001466846017000214056C2
:10387000002809D4FFE7684601781F200140012095
:10388000884002490860FFE701B0704780E200E02D
:1038900081B001466846017000214056002809D4D5
:1038A000FFE7684601781F20014001208840024957
:1038B0000860FFE701B0704700E100E070B582B03A
:1038C000024601A80270009100214056002816D43B
:1038D000FFE7002401A908570322D3431840174AE1
:1038E000805809578C07E50EFF24AC40A043009C8C
:1038F000A401E4B2AC402043194088501AE001A969
:1039000008780F24204008380322D34318400A4A7D
:103910008058002549578D07EE0EFF25B540A84376
:10392000009DAD01EDB2B540284321400839194052
:103930008850FFE702B070BD1CED00E000E400E03D
:1039400080B58AB00990089100200090069003A8E5
:1039500001F0D2F800980790FFE70798022856DC9C
:10396000FFE7099807998A00805808998958401AF2
:10397000C1174840401AFCF74DFE8F21C905FCF7DE
:1039800094FC02900798810003A840580021FCF79E
:103990001DFE00281ED1FFE7029807998A0003A99F
:1039A0008958FCF782FC1C49FCF7E9FB019001985F
:1039B0000121C90788431749496AFCF7CFFD002850
:1039C00007D1FFE707980121814006980843069038
:1039D000FFE717E002980F49C969FCF7CDFD002801
:1039E00008D1FFE702980B49096AFCF7B7FD0028E8
:1039F00007D1FFE707980121814006980843069008
:103A0000FFE7FFE7FFE70798401C0790A5E7069848
:103A10000AB080BDF4970000000080BF80B584B07C
:103A200002A90870012081042A48FDF7AFFA411E5F
:103A3000884101A90870284800780090002808D023
:103A4000FFE70098012811D0FFE7009802281AD05C
:103A500037E001A80078002807D0FFE71E490120C1
:103A600008701E4900200880FFE72AE001A80078BE
:103A7000002807D1FFE718490220087017490020E5
:103A80000880FFE71DE001A80078002807D0FFE7C5
:103A900011490020087003A90220087015E00F49A1
:103AA0000888401C088080B202A90978884207DD96
:103AB000FFE709490020087003A90120087004E00D
:103AC000FFE703A900200870FFE703A8007804B00F
:103AD00080BDC04600000A40D8042020DA0420201F
:103AE00080B584B002A90880012001023048FDF7AA
:103AF0004DFA4142484101A908702E4800780090D3
:103B0000002808D0FFE70098012813D0FFE70098AD
:103B100002281CD044E001A80078002809D0FFE763
:103B2000244901200870244A00211180234908708B
:103B3000FFE735E001A80078002807D1FFE71D491D
:103B4000022008701C4900200880FFE728E001A837
:103B50000078002809D0FFE71649002008701749AF
:103B6000087003A9022008701EE013480188491C50
:103B70000180008802A90988884210DDFFE70D490D
:103B8000002008700D480078002807D0FFE70B4997
:103B90000020087003A90120087005E0FFE7FFE797
:103BA00003A900200870FFE703A8007804B080BDD7
:103BB00000200A40DD042020DE042020DC04202038
:103BC00080B586B005900598C078C021084003A94B
:103BD00008700598C0783F21084004A9087005982E
:103BE0004078C007002819D0FFE704A80178C90869
:103BF00002AA1170007807210840401C01A9087032
:103C0000F4480068002808D0FFE7F248026802A8DC
:103C1000007801A909789047FFE7FFE70598407809
:103C2000000700280DD5FFE7EA484068002807D0C4
:103C3000FFE7E848416803A8007880098847FFE764
:103C4000FFE7002006B080BD80B582B001900198EA
:103C500000F002F802B080BD80B582B00190002073
:103C60000090FFE700980749884208DCFFE70198C9
:103C700000F00AF8FFE70098401C0090F2E702B05D
:103C800080BDC046E703000080B586B0059005986A
:103C90001E49884203D3FFE71D480590FFE70599B9
:103CA000502048430590002000900490FFF708FD45
:103CB000014600980391029001A90870FFE7FFF701
:103CC000FFFC029002980399884204D9FFE701A9FA
:103CD00001200870FFE701A80078002807D0FFE75F
:103CE00003980299401A0B494018049004E0039885
:103CF0000299401A0490FFE704980599884201D37D
:103D0000FFE700E0DBE706B080BDC04634330300C8
:103D100033330300FFFFFF0080B582B0014601A8E6
:103D20000170007800280AD0FFE76946202008705B
:103D300028204870302088703820C87002E006487B
:103D40000090FFE7054804216A4602F041FD01F0BA
:103D5000B1FF02B080BDC046A3A3A3A39E0A00008A
:103D600080B58AB009A90591088006AA04920220AC
:103D70001070CA205070E32090700920D070682025
:103D8000042102F025FD049A0598A32111700088F2
:103D90004006002808D5FFE706A9C0204870C820C3
:103DA0008870C220C87005E006A9A32048708870FA
:103DB000C870FFE709A80088C005800F002808D058
:103DC000FFE706A9C4200871CC204871C62088717D
:103DD00005E006A9A320087148718871FFE706AACB
:103DE000A320D0711072507275480A2102F0F0FCC5
:103DF00009A800888007002804D0FFE706A9202032
:103E0000087003E006A9D8200870FFE76D4801217B
:103E100006AA02F0DDFC09A800888006002804D567
:103E2000FFE7012000F0D8F803E0002000F0D4F80C
:103E3000FFE709A80088C005800F002820D0FFE711
:103E400009A80088C00500280AD5FFE706A9B22006
:103E500008708B204870B62088709B20C87009E0DD
:103E600006A9B020087080204870B4208870902087
:103E7000C870FFE75448042106AA02F0A9FCFFE736
:103E800009A80088C007002826D0FFE706AAF82066
:103E900010708B2000010121039102F099FC072092
:103EA0000290FA2100F0C6FC029800F06DFC039825
:103EB00000F09DFC642000F0D9FD7D20800000F022
:103EC000EDFD4248C82100F00BFC282000F02AFC40
:103ED0000A2000F040FC08E006AAD82010708B20D1
:103EE0000001012102F074FCFFE709A800888007A7
:103EF000002804D5FFE706A9D920087003E006A929
:103F0000D8200870FFE73248012106AA02F060FCC1
:103F100009A800884007002804D5FFE7012000F029
:103F20008BF803E0002000F087F8FFE709A800887D
:103F3000C006002804D5FFE70120FFF7EDFE03E0EF
:103F40000020FFF7E9FEFFE7099808210843CE4962
:103F50000191488101F0AEFE01990020887309A803
:103F600000884006002805D5FFE7C749887B801DEB
:103F70008873FFE709A80088C005800F002805D0D6
:103F8000FFE7C149887B801D8873FFE709A8008887
:103F90001421084205D0FFE7FE49887B1030887362
:103FA000FFE709A800888007002805D0FFE7F94946
:103FB000887B001D8873FFE700200AB080BDC046E3
:103FC000A70A0000B60A0000A20A000009E3CA021C
:103FD0003D070000E404202080B588B0014606A813
:103FE0000170007800280ED0FFE703AA5D20107250
:103FF0000F4804900F4803909720C000092102F059
:10400000E7FB07900DE06A46C72010720648019052
:10401000064800909720C000092102F0D9FB0790C4
:10402000FFE7079808B080BDB088C3C5B8AAAAAAA0
:10403000B4980D35B8AAB38D80B582B0014601A8F9
:104040000170007800280AD0FFE76946C020087098
:10405000C2204870C4208870C620C87002E006489C
:104060000090FFE7054804216A4602F0B1FB01F029
:1040700021FE02B080BDC0468B8B8B8B980A00005E
:1040800080B50449012082020348C82301F020FCC6
:1040900080BDC046C07E0000F60B000010B594B095
:1040A000179C169C1290119110920F9306A9002054
:1040B000087016990880DD48807B179A07A901F0DF
:1040C00021FD002804D0FFE70020C0431390D7E073
:1040D000D6484089142108426CD0FFE707980006B3
:1040E00007A900914A78120480188A781202801871
:1040F000CA788018109A1060089800064A7912044D
:1041000080188A7912028018CA798018109A506033
:10411000099800064A7A120480188A7A12028018D6
:10412000CA7A8018109A90600A9800064A7B120496
:1041300080188A7B12028018C97B40181099C860C9
:104140000698103006A9087010980221405E02906F
:1041500010980621405E039010980A21405E04905A
:1041600010980E21405E0590029840430399494300
:104170004018049949434018059949434018019053
:1041800001980F210906884205DBFFE701983F49A6
:10419000884208DBFFE701F08DFD169900200880BA
:1041A000C04313906CE01699088801221202104354
:1041B0000880FFE7EA4840894006002823D5FFE74A
:1041C00006A9087807AA1318105C00025B78C018CB
:1041D000119B18800878831898780002DB78C01843
:1041E000119B588008788218107900025279801843
:1041F000119A90800698801D0870169908880822E8
:1042000010430880FFE7D6484089C005800F00288A
:1042100023D0FFE706A9087807AA1318105C00024C
:104220005B78C018129B1880087883189878000271
:10423000DB78C018129B5880087882181079000229
:1042400052798018129A90800698801D08701699ED
:104250000888702210430880FFE7C1484089800722
:10426000002807D0FFE706A8017807A84018FFF745
:10427000A7FCFFE70F9802F049FC00201390FFE72E
:10428000139814B010BDC046E404202001000011B2
:1042900080B58CB00B9001A8009001F00DF900984A
:1042A0000088C0030021039102900B99AC48028959
:1042B0009207120F8958089100894007002804D5F9
:1042C000FFE7089840420890FFE70B99A44802894D
:1042D00052080C231A408958099100898006002849
:1042E00004D5FFE7099840420990FFE70B99FB4886
:1042F000028912090C231A4089580A910089C005C5
:10430000002804D5FFE70A9840420A90FFE7089882
:10431000C117029A039BFBF70DFF8900800F40181D
:1043200008900998C117029A039BFBF703FF8900C5
:10433000800F401809900A98C117029A039BFBF757
:10434000F9FE8900800F40180A9008A8C17805AAD4
:104350001170418851700899090A91700899D170BB
:10436000C1791171C18851710999090A917109992D
:10437000D171C17A1172408950720A98000A907204
:104380000A98D072A52080000C2102F021FA0CB00E
:1043900080BDC046E404202080B588B0014606A850
:1043A00001801D4905911D4904911D490391008813
:1043B000C92804DBFFE70020C043079029E006A8D6
:1043C0000188C820FCF781F9411E02A801804078CD
:1043D0006A461070029850701248022102F0F8F9F3
:1043E000002804D0FFE70020C043079011E00E48EA
:1043F0000C2103AA02F0ECF9002804D0FFE700200A
:10440000C043079005E00698B449888100200790D2
:10441000FFE7079808B080BDBBAFDFDFAAF1DFDFA1
:10442000FEF2ABC416020000C10A0000E404202022
:1044300080B588B006900699A84802899207120FA5
:104440008958039100894007002804D5FFE70398A5
:1044500040420390FFE70699A048028952080C23C6
:104460001A408958049100898006002804D5FFE786
:10447000049840420490FFE706999848028912097F
:104480000C231A40895805910089C005002804D5DD
:10449000FFE7059840420590FFE70398C117314AAE
:1044A000009200230193FBF745FE009A019B8900CF
:1044B000800F401803900498C117FBF73BFE009A49
:1044C000019B8900800F401804900598C117FBF7E5
:1044D00031FE8900800F4018059003A8C17802AA18
:1044E0001170408850700398000A90700398D07043
:1044F0003D200001042102F06BF9002804D0FFE701
:104500000020C043079028E003A8C17902AA1170D7
:10451000C08850700498000A90700498D070F520FC
:104520008000042102F054F9002804D0FFE70020A5
:10453000C043079011E003A8C17A02AA1170408914
:1045400050700598000A90700598D0707B20C000CC
:10455000042102F03DF90790FFE7079808B080BDFD
:10456000E404202009E3CA02B0B588B006AB188085
:1045700003AC6C20A0705248208002A82C218170CE
:104580005049018001AA762191704F4911806A46F5
:10459000662191704D4911801A8803210A40A55C5B
:1045A00005AA1570069DED06AD0F655D5570069D5B
:1045B0002D06AD0F645D94701B880B40C45C04AB8A
:1045C0001C70069CE406A40F045D5C70069C240627
:1045D000A40F005D98703E4802F0FAF8002804D05D
:1045E000FFE70020C043079066E03A48032104AA91
:1045F00002F0EEF8002804D0FFE70020C043079047
:104600005AE0019805A9088001A88078887068465A
:10461000807804A988700098088006A80088400760
:1046200000280AD5FFE705980121084305AA107064
:104630000498084304A90870FFE706A800888006CC
:1046400000280AD5FFE705A94878012210434870E1
:1046500004A9487810434870FFE706A80088C00501
:1046600000280AD5FFE705A9887801221043887041
:1046700004A9887810438870FFE711208001032186
:1046800005AA02F0A5F8002804D0FFE70020C043E7
:10469000079011E01048032104AA02F099F80028BD
:1046A00004D0FFE70020C043079005E006980B49BF
:1046B000088100200790FFE7079808B0B0BDC0460A
:1046C0004CCD00000CC90000365600002646000004
:1046D000260400002A04000031040000E404202025
:1046E00080B586B0059004A80190018005987D21D1
:1046F000C900FCF709F80146019800884843029078
:1047000002A8C17803AA1170408850700298000A6C
:1047100090700298D07057208000042102F058F861
:1047200006B080BD80B584B0014603A80190018029
:1047300000880521FBF7C9FF0146019801804078F8
:1047400002AA107003985070AD204000022102F0C0
:104750003FF804B080BD80B584B0014603A8019045
:10476000018000880521FBF7B0FF01460198018018
:10477000407802AA1070039850702B20C0000221CC
:1047800002F026F804B080BD80B582B0014601A8D1
:1047900001706A46002111700078C007002806D019
:1047A000FFE700983021084369460870FFE701A839
:1047B00000788007002806D5FFE700980C21084301
:1047C00069460870FFE701A800784007002806D571
:1047D000FFE700980321084369460870FFE7292096
:1047E000C00001216A4601F0F3FF02B080BD80B530
:1047F00082B0014601A801700078002804DCFFE7C0
:1048000001A90120087009E001A80078052804DB4F
:10481000FFE701A904200870FFE7FFE70198401EA9
:104820006A461070FF205030012101F0D1FF02B024
:1048300080BD000080B58AB0024608A8027007AAB1
:10484000118000784007002806D0FFE707A80088FD
:104850008049884204DBFFE70020C0430990F5E06F
:1048600007A80088FBF7E1FE7B49FBF71EFD0490DB
:1048700005A8009000F0E8FD00980078801E0190E7
:104880000E286BD80198810001A040588746C04689
:10489000CD4800005D490000F14800005D4900007E
:1048A0005D4900005D490000154900005D490000B8
:1048B0005D4900005D4900005D4900005D49000060
:1048C0005D4900005D4900003949000004988D21D0
:1048D000C905FBF7ADFCFBF7AFFE03A90880049800
:1048E0006149FBF7A5FCFBF7A7FE02A9088039E0A8
:1048F000049823214906FBF79BFCFBF79DFE03A9C7
:10490000088004985749FBF793FCFBF795FE02A932
:10491000088027E004988B21C905FBF789FCFBF789
:104920008BFE03A9088004984D49FBF781FCFBF737
:1049300083FE02A9088015E0049845210906FBF7CB
:1049400077FCFBF779FE03A9088004984349FBF73D
:104950006FFCFBF771FE02A9088003E00020C04352
:10496000099073E003A8407806A90870039848707E
:1049700002A8407888700298C87008A80078C0071C
:1049800000281CD0FFE775208000022106AA01F054
:104990001FFF002804D0FFE70020C043099055E026
:1049A00006A8821C49208000022101F011FF002886
:1049B00004D0FFE70020C043099047E0FFE708A8C4
:1049C0000078800700281CD5FFE73B20C0000221AB
:1049D00006AA01F0FDFE002804D0FFE70020C04336
:1049E000099033E006A8821C2520C000022101F0B6
:1049F000EFFE002804D0FFE70020C043099025E027
:104A0000FFE708A80078400700281CD5FFE77720BB
:104A10008000022106AA01F0DBFE002804D0FFE797
:104A20000020C043099011E006A8821C4B208000A2
:104A3000022101F0CDFE002804D0FFE70020C04392
:104A4000099003E0FFE700200990FFE709980AB00A
:104A500080BDC04641060000000048430000C0443D
:104A6000000040450000C0450000404680B584B0CD
:104A7000014603A8018000880521FBF726FE0146B8
:104A800002A80180407801AA107002985070EF20AF
:104A90004000022101F09CFE04B080BD80B584B0CE
:104AA000014603A8018000880521FBF70EFE0146A0
:104AB00002A80180407801AA107002985070ED2081
:104AC0004000022101F084FE04B080BD80B582B0B8
:104AD00001900091FFE70748FDF740F8002801D05A
:104AE000FFE7F8E701A801780248FDF7BDF8019853
:104AF00002B080BD00801040B0B588B00690364846
:104B0000406800780D21042205AB02F003F800286C
:104B100003D0FFE7072007905BE005AA1078E023A9
:104B20001840C008D178302421400909401804A950
:104B3000087050781840C008D4780C252C40A40880
:104B40000019487090781840C008D27803231A40A2
:104B50008018887003A900200870FFE703A8007878
:104B6000022833DCFFE703A8017804A8405C002892
:104B700007D1FFE7069903A800788200002088503B
:104B80001FE0069903A80078820014488850FFE7C8
:104B900003A8027804A9885C401E885400060028F7
:104BA0000ED0FFE70698029003A9097889000191C9
:104BB00040580B49FBF73CFB019A02998850E7E704
:104BC000FFE70398401C03A90870C7E7002007907F
:104BD000FFE7079808B0B0BD5C0020207B14AE3E14
:104BE0001D5A843F70B598B01690159114A80270A4
:104BF00011AB0120187000205870D949486800781E
:104C00000968897C022201F0A1FF002804D0FFE797
:104C10000020C04317902FE2C82001F06BFF11ABBA
:104C200000201870CE49486800780968C97B0122C5
:104C300001F08CFF002804D0FFE70020C04317904C
:104C40001AE2C7494868007809684979012211AB1E
:104C500001F07CFF002804D0FFE70020C04317903C
:104C60000AE2BF49486800780968897C012211ABD3
:104C700001F06CFF002804D0FFE70020C04317902C
:104C8000FAE1B749486800780968C97D012211AB8B
:104C900001F05CFF002804D0FFE70020C04317901C
:104CA000EAE1F7494868007809680979012211ABFF
:104CB00001F04CFF002804D0FFE70020C04317900C
:104CC000DAE111AB0C201870ED49486800780968EA
:104CD0000979012201F03AFF002804D0FFE7002003
:104CE000C0431790C8E10F2001F004FFE449886A2F
:104CF000407A11AB187048680078096889780122F9
:104D000001F024FF002804D0FFE70020C0431790E3
:104D1000B2E1DB49886A007A11AB18704868007804
:104D200009684978012201F011FF002804D0FFE74B
:104D30000020C04317909FE114A80078002808D0F5
:104D4000FFE7CF48806A807AE021084311A9087004
:104D500005E0CB48806A807A11A90870FFE7C8494E
:104D60004868007809688979012211AB01F0EEFEEC
:104D7000002804D0FFE70020C04317907CE114A86E
:104D80000078002808D0FFE7BD48806AC07AE0219B
:104D9000084311A9087003E011A918200870FFE763
:104DA000B749486800780968C979012211AB01F058
:104DB000CDFE002804D0FFE70020C04317905BE140
:104DC00014A80078002804D0FFE7C82001F092FE64
:104DD000FFE711AB40201870F24948680078096875
:104DE0000979012201F0B2FE002804D0FFE700207B
:104DF000C043179040E111AB78201870E94948682A
:104E0000007809684979012201F0A0FE002804D049
:104E1000FFE70020C04317902EE1322001F06AFE28
:104E200011AB00201870DF4948680078096849799B
:104E3000012201F08BFE002804D0FFE70020C043D0
:104E4000179019E1D749486800780968897A0222E1
:104E500011AB01F05FFE002804D0FFE70020C04343
:104E6000179009E11198000211A9497841180EA87C
:104E7000018000880C21FBF728FC10A90870169906
:104E80000020886016994860169908601599886016
:104E900015994860159908600FA90870FFE70FA8D9
:104EA000007810A9097888425CDAFFE7BD494868B4
:104EB00000780968C97A0C2211AB01F02BFE00289A
:104EC00004D0FFE70020C0431790D5E011980002FE
:104ED00011AD0995697841180CA80180A9780902DB
:104EE000EA7889184180129909026A7989188180C3
:104EF0000023C45E159A1168091911600222865EAA
:104F0000159C6168891961600421465E159CA06842
:104F10008019A060A8790002EC7904190AA804801D
:104F2000139C24026E7AA4194480AC7A2402ED7A90
:104F300064198480C55E169C23685B192360845EB7
:104F4000169B5A6812195A60425E16998868801832
:104F50008860FFE70F98401C0FA908709FE7C046C4
:104F60005C002020169800900068C117020C09040C
:104F7000891800048322029200230793FBF7B4F8F8
:104F8000079B10AA06921278FBF7AEF80099029AD6
:104F9000079B0860169801904068C117040C09042B
:104FA00009190004FBF7A0F8069A079B1278FBF793
:104FB0009BF80199029A079B4860169803908068B5
:104FC000C117040C090409190004FBF78DF8069AAF
:104FD000079B1278FBF788F80399069A079B88606D
:104FE000159804900068C117040C090409190004FD
:104FF0006405C00A0019C9121278FBF775F8049904
:10500000069A079B0860159805904068C117040C24
:105010000904091900046405C00A0019C9121278AC
:10502000FBF762F80599069A079B48601598089067
:105030008068C117040C0904091900046405C00A3A
:105040000019C9121278FBF74FF808998860159873
:105050008068012806DBFFE715998868094A8018EF
:10506000886006E01599886801221204801888601B
:10507000FFE700201790FFE7179818B070BDC046F3
:105080005C0020200000FFFF80B58AB008900791E7
:1050900000200590EB48406800780D21032204AB06
:1050A00001F038FD002803D0FFE70720099075E0E4
:1050B00004A908781F2210400870487810404870F2
:1050C00088781040887000200690FFE70698022834
:1050D00061DCFFE7089806998A008058079989588B
:1050E000401AC1174840401AFBF794FA8F21C905AE
:1050F000FBF7DBF80290069904A8405C00282DD04D
:10510000FFE72A480390FFE7069A04A9885C401E3F
:1051100088540006002806D0FFE703982549FBF7CE
:1051200087F80390F0E702980399FBF7BEF820494F
:10513000FBF725F8019001980121C90788431A4916
:105140008969FBF70BFA002807D1FFE706980121D0
:105150008140059808430590FFE717E0029812493F
:105160000969FBF709FA002808D1FFE702980E4900
:105170004969FBF7F3F9002807D1FFE706980121F9
:105180008140059808430590FFE7FFE7FFE7069891
:10519000401C06909AE705980990FFE709980AB025
:1051A00080BDC0465C002020F49700000000C8418C
:1051B000000080BF54E3853FB0B586B0019314462C
:1051C000019A0B46014605A8017004A90B7003ABB8
:1051D0001C700292064A126814690078400009782F
:1051E000029A1B78C8250095A04706B0B0BDC046FE
:1051F0005800202080B584B00390039800F019F87F
:1052000002A9019108800398C01C00F012F80199CE
:10521000C2000298104308800398801D00F009F82E
:10522000014601988A01029911430180008804B067
:1052300080BD82B00190019800214056012804DB16
:10524000FFE76946002008803AE0019800214056B7
:10525000002804D5FFE76946042008802FE0019864
:1052600001214056012804DBFFE769460120088040
:1052700024E0019801214056002804D5FFE7694643
:105280000520088019E0019802214056012804DB1E
:10529000FFE76946022008800EE00198022140568F
:1052A000002804D5FFE769460620088003E0694628
:1052B00007200880FFE7FFE7FFE7FFE7FFE7FFE7DB
:1052C0006846008802B0704780B584B00020039023
:1052D0000290FEF71FF91348FCF7D6FB012000905F
:1052E000FEF7C0FA0098FEF7BDFA0098FEF7D0FA74
:1052F0000098FEF7CDFA10200190FEF7B3FA01985E
:10530000FEF7C6FAFDF76CFCFDF782F9FCF7B8FC76
:105310000548FEF799FCFFE7FDF754FEFDF7ECF9B1
:10532000FAE7C04600208640983A000080B584B075
:1053300003A90020087001F0A9FAFFE712480190C4
:1053400002210091FBF72AFD01200290FEF784FC68
:1053500000990198FBF758FE0298FEF77DFC019832
:105360000299FBF729FE002801D0FFE708E0FFE7DC
:105370000398401C03A90870C0B26428DEDBFFE775
:1053800001F0A4FA04B080BD00000A4080B584B0EA
:1053900002A90870002000900878FE2210400870D2
:1053A000C5482421405C002803D0FFE7002003907B
:1053B00045E0C148807A002804D1FFE70020C043BF
:1053C00003903CE0BC48017C01AA11700299827AEA
:1053D00011400174007C02A90978884204D0FFE7DB
:1053E0000020C043009002E000200090FFE702A8E8
:1053F0000078002805D1FFE7AF48007D002804D0E1
:10540000FFE7012001F004FC03E0002001F000FCB4
:10541000FFE702A8007800280DD0FFE700F04AFC63
:10542000002807D0FFE70198A34908740020C04373
:10543000039004E0FFE7FFE700980390FFE703987D
:1054400004B080BD5C00202083B001909A48407A6F
:10545000009003281CD80098810001A0405887467E
:1054600071540000795400008154000089540000F8
:105470000199022008700FE00199042008700BE0E8
:1054800001990820087007E001991020087003E0D6
:105490000020C04302900CE08748C07C002805D063
:1054A000FFE70199087840000870FFE700200290AC
:1054B000FFE7029803B0704783B001907E48407ABE
:1054C000009003281FD80098810001A0405887460B
:1054D000E1540000EB540000F3540000FD540000C0
:1054E000019901208003088011E00199104808808B
:1054F0000DE0019901200003088008E001990120D6
:10550000C002088003E00020C04302900CE0EB489A
:10551000C07C002805D0FFE7019908884008088072
:10552000FFE700200290FFE7029803B07047C046F3
:105530009C1F000081B00090E048007C009908703A
:10554000002001B07047C04682B00190DB48007A6D
:10555000009003281FD80098810001A0405887467A
:105560007155000079550000835500008D550000ED
:105570000199FA20088012E001997D2080000880BE
:105580000DE001997D20C000088008E001997D2090
:105590000001088003E0019900200880FFE7002057
:1055A00002B0704783B00190C448007A009003288D
:1055B0001CD80098810001A040588746CD550000B6
:1055C000D5550000DD550000E555000001990F4854
:1055D00008600FE001990C4808600BE00199094848
:1055E000086007E001990648086003E00020C04316
:1055F000029002E000200290FFE7029803B070479B
:1056000033338341333303420000834200000343BA
:1056100082B00190F648C07A009007282DD80098F3
:10562000810001A040588746795600004956000085
:10563000515600005956000061560000695600009E
:1056400071560000795600000199BC20088018E0CE
:1056500001996220088014E001992A20088010E056
:105660000199142008800CE001990A20088008E0C4
:1056700001990520088004E0FFE7019900200880D7
:10568000FFE7002002B0704782B00090D848242184
:10569000405C002804D0FFE70020C043019007E0F1
:1056A000D348C08900990880FFE700200190FFE7F8
:1056B000019802B07047C0465C00202080B588B0D9
:1056C00005AB80201870CA49486800780968897C51
:1056D000012201F03BFA002804D0FFE70020C0437C
:1056E0000790E8E0642001F005FA05AB002018708F
:1056F000BF49486800780968897C012201F026FAD0
:10570000002804D0FFE70020C0430790D3E0FC4905
:10571000486800780968897D062205AB01F0FAF92E
:10572000002804D0FFE70020C0430790C3E005A98C
:105730004879C007400FCA78D207920F801849787D
:1057400001221140411804A80170007800281DD0E2
:10575000FFE704A80078012804D1FFE7E849012009
:10576000C87412E004A80078022804D1FFE7E449D5
:105770000020C87408E004A80178534801F0B2FA88
:105780000020C043079096E0FFE732E0DC4948681C
:1057900000780968C978012205AB01F0BBF900283F
:1057A00004D0FFE70020C043079084E005A80178FB
:1057B0000F20014004A801700078002807D1FFE7FE
:1057C0003F4801F08FFA0020C043079073E004A81F
:1057D0000078042807D1FFE73A4801F083FAC84966
:1057E0000120C87403E0C6490020C874FFE7FFE742
:1057F000FFE7C3490291FF2088720A460832087207
:105800004872C872314BCB810874887401200873C8
:10581000907600200390D076487508750884C88378
:10582000888348830883C88210775077C8847D2096
:10583000000100F0A7FD002804D0FFE70020C043CE
:10584000079038E0022000F0FFFB002804D0FFE7BB
:105850000020C04307902EE02A2000F043FE0028DD
:1058600004D0FFE70020C043079024E0322000F07E
:10587000A1FE002804D0FFE70020C04307901AE0F3
:105880000020FFF783FD002804D0FFE70020C0437D
:10589000079010E0002000F049FC002804D0FFE74A
:1058A0000020C043079006E00020019000F0F8FEC1
:1058B00001980790FFE7079808B080BD5C002020A2
:1058C000309600007E9600009D960000FFFF0000CD
:1058D00010B58EB00CAC20800B910AA8028009A8EC
:1058E0000380F3482521405C002804D0FFE7002016
:1058F000C0430D9079E00B98002804D1FFE7012008
:10590000C0430D9071E00020019008A90880FFE7D6
:1059100008A800880CA90988884248DAFFE70CA883
:10592000008808A90988401A112803DBFFE7102026
:10593000009006E00CA8008808A90988401A009089
:10594000FFE7009807A9088008A8008809880B9A33
:10595000121800F03DFF002804D0FFE70220C043EA
:105960000D9042E008A8008807A9098803AA00F062
:105970004BF9002804D0FFE70320C0430D9034E02A
:105980000B9808A90988401807A90A8803A9FAF7FB
:10599000E9FB002804D0FFE70420C0430D9024E079
:1059A000FFE707990898401808A90880B0E70AA8F7
:1059B000407802AB18700A985870BD494868007862
:1059C0000968897E022201F0C1F8002804D0FFE7AF
:1059D0000520C0430D9008E0B549252201208854D8
:1059E0000998C88400200D90FFE70D980EB010BDF7
:1059F0005C00202080B586B0014604A801700078C4
:105A0000292804DBFFE70020C043059075E004A8C7
:105A1000007800281DD1FFE70020029000F014FD5F
:105A2000029803AB187007205870A14948680078A5
:105A30000968897C022201F089F8002804D0FFE778
:105A40000020C043059058E0994900200875059052
:105A500053E0012000F0F8FC03A92020087004A8FE
:105A60000078012807D1FFE703A90020487005202E
:105A700000F038FD20E004A80078052807DCFFE7E7
:105A800003A901204870052000F02CFD13E004A8B4
:105A90000078142807DCFFE703A9022048700A20D9
:105AA00000F020FD06E003A903204870142000F058
:105AB00019FDFFE7FFE7FFE703AB58788001C01D42
:105AC00058707B49486800780968897C022201F097
:105AD0003DF8002804D0FFE70020C04305900CE00B
