:020000040000FA
:1000000068152020D5000000D9000000DB000000AA
:1000100000000000000000000000000000000000E0
:10002000000000000000000000000000DD000000F3
:100030000000000000000000DF000000E100000000
:10004000E300000061160000E3000000E300000090
:10005000E3000000E3000000E3000000E300000014
:1000600000000000E3000000E300000000000000CA
:1000700000000000E3000000E3000000E3000000D7
:10008000A5290000E3000000E3000000E3000000F9
:10009000E3000000E300000000000000000000009A
:1000A000E3000000E300000000000000000000008A
:1000B000E300000000000000E3000000E300000097
:1000C0000348854600F0F8FB004800478D2E0000ED
:1000D0006815202003480047FEE7FEE7FEE7FEE73D
:1000E000FEE7FEE7C1000000F8B502464A40D40F23
:1000F00042004B0052085B089A4202D20246084670
:1001000011464A0023D0C30D4A00DDB2120EAD1ACB
:10011000202D35DA49020126490AF6058A19002CF4
:1001200000D0524220214F1B1146B9402A411018DD
:10013000C20D9A4221D0002C17D0012D08DCDA051F
:10014000801AD20F8019D207DBB200F0E7FAF8BDAF
:10015000DA05801A012340001B06C01880185A4295
:100160008018CA0F1043490007E04908C20711432D
:10017000DA05801A80194008801800F0C7FAF8BD27
:1001800061000122511A001BF7E70122D2075140FA
:10019000AAE70122D2075040A6E7024670B54A40BE
:1001A000D30FDB0740002DD04A002AD0010E140ED9
:1001B000000212020919400A520A8418E501044695
:1001C0005443000A120A2E045043A4194219200C69
:1001D000C543AA18120C0125AD03521C5219120472
:1001E0007F39240400D0521C104301D44000491E22
:1001F000C2B20C06C0092018401C4008802A02D058
:1002000003E0002070BD40084000002900DA002013
:10021000184370BDF0B507460846584087B0C00F78
:10022000049048000E46590040084908BC1A88410D
:1002300005D2384631461E4617460B460246580040
:10024000400810434CD0300D039040055900400D3C
:10025000490D0590401A0290402872DA18030121D6
:10026000000B09050843019004980092002805D06E
:100270000199524200208841009201900298402149
:100280000A1A0199009800F01EFA05460C466B46C2
:1002900007CB00F028FAC0197141039A0E0D002314
:1002A000D71756401A467A40164344D0049A002A7B
:1002B0002DD0029A012A039A15DC1205C01A914129
:1002C00001263605001C7141D20F059ED20700930E
:1002D000019202962A46234600F066FA07B0F0BD66
:1002E00038463146FAE71605224A0F46B218C01AB8
:1002F000B74101210905001C4F4100187F411146FB
:1003000018187941E20F10436D19644113E0E207B8
:100310006D0815436408C2071443039A01261205A9
:10032000C01A91413605001C7141CE074008304388
:100330004908C01851412A46234600F028FACDE763
:10034000FFE7049801224000C117121A00238B41D5
:1003500004983146C417381AA141EEE730B401249D
:10036000E407634030BC55E730B40124E407614042
:1003700030BC4FE70000E0FFF0B51FB488B00B9928
:100380000998002448400999C00F4900490809917B
:10039000C0070B990090490049080B9109990898EA
:1003A000A64608431CD00B990A98084318D0099810
:1003B00001244000420D4800410D09982405000326
:1003C000000B204309900B980003000B20430B9077
:1003D00050181C494018002201901446104605E0B0
:1003E000002001460DB0F0BD032801DA034600E00D
:1003F00003239C46C11A0AAE0AE05F0008ADED5B1C
:100400004F00F75B7D430027AA187C41491C5B1E07
:100410006145F2DD410004AB5A522104120C0A433B
:10042000240C401C0828DFDB0198029000997046DC
:1004300001910090059B049A0799069800F0B4F981
:10044000D0E700000DFCFFFFF0B50C465C4085B026
:10045000E40FE40703944C00002664085900944616
:10046000490802460296224321D062460A431ED022
:100470006200570D4A000E032303550D0124024666
:100480002C492405781B1B0B360B401823432643AD
:10049000614600901C46501AB44103D30098401C9A
:1004A000009002E0921800985B41002803DA0020D7
:1004B000014605B0F0BD002001210905074686462A
:1004C00011E064461D46141BB54106D36546521B18
:1004D000B341744607430C43A646CD07400849087C
:1004E000284392185B4105460D43EAD11046184354
:1004F00013D06046194650407140084306D060460C
:10050000101AB34106D20122002306E00022012383
:10051000DB0702E00122D243531000987446010524
:10052000381C6141029C039D0019694100F02FF9BC
:10053000BFE70000FD0300000122D207002800DB16
:10054000101A002900DB511A814201D8012070479E
:10055000002070470122D207002800DB101A002972
:1005600000DB511A814201D30120704700207047FF
:100570000122D207002800DB101A002900DB511AE3
:10058000814201D9012070470020704710B5002931
:1005900004DB0C460121C9074042A141002B04DBCA
:1005A0001C460123DB075242A341801A994101D323
:1005B000012010BD002010BDC217C10F504010B562
:1005C0004018CA079623002100F0A8F810BDC20FFA
:1005D000410040020123400ADB05D207090EC01882
:1005E0007F2901DA00207047962903DC9623591AE7
:1005F000C84001E096398840002AF4D04042704754
:10060000C20FD207400040080BD0C10D0723DB0109
:10061000C91840020905400A1143C20840071143A6
:10062000704700200146704770B50446002903D08A
:1006300000202022012310E0002801D00020C04328
:10064000C046C0460DE02546D5408D4205D30D4637
:100650009540641B1D46954040191546521E002DBD
:10066000F1DC214670BDF0B51FB40646002082B013
:1006700005464024019100901BE0019922460F4657
:10068000304600F031F9049A059B801A994110D345
:1006900010461946224600F016F8361A8F41019787
:1006A000224601200021009F00F00DF838184D412E
:1006B00000902046641E0028DFDC019B009829463C
:1006C000324607B0F0BD10B5202A04DB0146203ABF
:1006D0009140002010BD914020239C1A0346E34026
:1006E0001943904010BD10B5202A06DBCB170846F1
:1006F000203A1041C1170B4306E00B461341D0408E
:100700002024A21A91400843194610BD002904DA9A
:10071000401C490001D140084000704770B40024DB
:10072000050C05D11024000402D1002921D0112488
:10073000050E01D100020834050F01D10001241D6E
:10074000850F01D18000A41C002801DB4000641C3F
:10075000002908D020252E1B0D46F540A14000D0D1
:1007600001212943084301061B1B000ADB1D02D59A
:10077000002070BC7047DB05181880180029F8DAD3
:10078000401C4900F5D170BC40084000704710B5CE
:10079000002B08DA0024401C614192185B411A4387
:1007A00001D14008400010BDF0B51FB482B005462D
:1007B0000C0003D0084602F0A9FB02E002F0A6FB01
:1007C00020300246009021462846FFF77CFF049B1C
:1007D000059A04460F4618431143084314D018469F
:1007E00010431BD0009840210A1A1846059900F0C2
:1007F0007BF805460E46009A05990498FFF763FFBB
:10080000084305D0012004E02046394607B0F0BD7A
:100810000020C11705430E432C43374300990E981F
:100820006305401A7905E40A00220C43FD0A0A30E8
:1008300002D500200146E9E70105101969410C9C29
:100840000D9D00196941FFF7A2FFDFE74A00090388
:100850000123090B1B0519430A4B10B5520D9A428F
:1008600002DA0020014610BD064B34339A4203DC05
:100870009A1A00F039F810BD034BD218FFF723FF86
:1008800010BD0000FF030000CDFBFFFF10B50029E5
:1008900004DB0124E40740428C412146002B04DBA9
:1008A0001C460123DB075242A341994200D19042EA
:1008B00010BD0000000000001CB509480090094868
:1008C000019005460126009C05E0E36807CC334310
:1008D0000C3C98471034AC42F7D3FFF7F5FB00000F
:1008E000744300009443000010B5202A04DB08463E
:1008F000203AD040002110BD0B46D340D0402024E8
:10090000A21A91400843194610BD000080B586B078
:1009100013480168002002F079F805901148019011
:100920000168642002904843FFF746FE0599FFF7EF
:100930002CFCFFF74CFE01990246029804920968CC
:100940004843FFF739FE0599FFF7CEFBFFF73FFE5F
:1009500003900498039901F099FF06B080BDC0464A
:10096000400420202000202082B001900199881EA0
:10097000001F00BFFCD2009002B0704784B003900B
:1009800002910192039800680090009801998843B1
:10099000009000980299019A114008430399086059
:1009A00004B0704784B003900291019203980068EC
:1009B0000090009801998843009000980299019A4C
:1009C000114008430399086004B0704784B0039055
:1009D0000291019203980068009000980199884361
:1009E000009000980299019A114008430399086009
:1009F00004B0704784B0039002910192039800689C
:100A00000090009801998843009000980299019AFB
:100A1000114008430399086004B0704782B0019008
:100A20000091009B0199094A88581843885002B0E8
:100A30007047C04682B001900091009B0199034A23
:100A400088581843885002B07047C04648100000CC
:100A500082B001900091009801999522520188502E
:100A600002B0704782B001900091009801999522E0
:100A70005201885002B0704782B0019000910098F6
:100A8000019995225201885002B0704782B00190BE
:100A900000910098019995225201885002B0704748
:100AA00081B00090009881004B4A885801235B0672
:100AB0001843885001B0704782B001900091009BAC
:100AC0000199034A88581843885002B07047C046BD
:100AD0002810000082B00190009100980199024A0C
:100AE000885002B07047C046D012000081B000901C
:100AF00000990120C2027A48885001B07047C04670
:100B000082B0019000910198024940580099084034
:100B100002B070473810000081B00090009881004A
:100B20002D4A0D48885001B07047C04610B584B0BA
:100B3000069C039002910192009302980199084348
:100B4000009908430699084303490843039989001B
:100B5000214A885004B010BD8100040081B000908B
:100B6000009881001C4A8120885001B07047C0461F
:100B700082B00190009100981049084301998900C2
:100B8000154A885002B0704710B584B0079C069C87
:100B900003900291019200930298019908430099F1
:100BA00008430699084307990843044908430399F1
:100BB0008900094A885004B010BDC0468000040076
:100BC00082B001900091009880210843019989002A
:100BD000014A885002B070470480424082B00190C0
:100BE000009101982721C90140580099084002B09E
:100BF000704782B00190009101982721C9014058A7
:100C00000099084002B0704781B000900099394ABD
:100C10003948885001B0704782B001900091009827
:100C200001990C4A885002B07047C04682B00190CA
:100C3000009100980199074A885002B07047C04659
:100C400082B00190009100980199024A885002B048
:100C50007047C0469012000082B001900091009B46
:100C600001999D20420188581843885002B070476E
:100C700082B00190009100980199024A885002B018
:100C80007047C046B012000081B000900099092062
:100C90004202885801231B021843885001B0704754
:100CA00081B000900099084A885801231843885061
:100CB00001B0704781B000900099034A885804231E
:100CC0001843885001B070472812000081B000908E
:100CD00000990120C202F748885001B07047C04611
:100CE0000100002681B000900099024A0248885015
:100CF00001B0704704080000030000B181B000900B
:100D00000099024A0020885001B070471412000078
:100D100080B584B0019101460198039102A9088031
:100D20000398092252028018098803225202FFF711
:100D300025FE04B080BD000080B582B00190009116
:100D4000019809494018009909780C22FFF752FED2
:100D50000198012109034018009949780722FFF7FB
:100D600049FE02B080BDC0460410000080B584B0CA
:100D7000019101460198039102A9088003980D4A48
:100D80008018098807221202FFF7F8FD04B080BD21
:100D900080B584B0019101460198039102A90870C1
:100DA0000398044A801809780722FFF7E7FD04B08A
:100DB00080BDC0463812000082B0019068460170C4
:100DC00000780199014A885002B07047241200004F
:100DD000F0B584B001242202344B19680392914388
:100DE00019605A490D686D04FCD5457E25409E6901
:100DF000A64374199C612024045D03252C40DE6900
:100E0000AE433419DC611F4C256805262660466A0E
:100E100037681F6276685E6207262E402660C469C6
:100E20007F252D02DE69AE436406640C3419DC6153
:100E30000768456882680092C66802690192426943
:100E400002929A69104C14403A07120B2D03ADB26E
:100E5000AA183243009D2D072D0D1543019A154305
:100E6000029A1543007E2843084A024010199861EF
:100E70001868039A1043186008688005FCD504B010
:100E8000F0BDC046001340408D00F0FF72FF0F0020
:100E900006490868012290430860704703490868C2
:100EA00001221202904308607047C04608010B40BF
:100EB0002549086801221203104308607047C046A4
:100EC00081B001466846017000780249086001B0AF
:100ED0007047C04608030B4080B582B0014601A8A8
:100EE000018001880F2002021748FFF747FD02B07A
:100EF00080BDC04680B582B0014601A8017001786E
:100F000002480322FFF73AFD02B080BD00010B400A
:100F100080B582B0014601A8017001780A483022EC
:100F2000FFF72CFD02B080BD0749886007480268C2
:100F30009202FCD5012212040B6813430B60016876
:100F4000C906FCD57047C04604010B4004020B40A3
:100F500009490868052210430860704781B0009075
:100F60000549042008600098401E044908600449AF
:100F70000020086001B0704710E000E014E000E0DD
:100F800018E000E080B58CB00B900A910A98407987
:100F9000C00700285CD0FFE70A9800790790002876
:100FA00004D0FFE7079820280CD018E00B98882180
:100FB0000691022200F0B8F906990B98032200F07E
:100FC000B3F919E00B98212109010591022200F0E3
:100FD000ABF905990B98032200F0A6F90CE00B98E9
:100FE0000521C9010491022200F09EF904990B9891
:100FF000032200F099F9FFE70B98002202920223E6
:101000000193114600F0AAF9029A0B980323039367
:10101000114600F0A3F90199029B0B980091194623
:101020001A4600F0D3F9029B03990B9800911946D8
:101030001A4600F0CBF9019B029A0B98114600F07A
:10104000ABF9029A039B0B98114600F0A5F9FFE754
:101050000A98006808900A98007908A908710A9807
:10106000807948710B9800F031F80CB080BD000019
:1010700081B000900099024A0120885001B0704769
:101080000811000082B001900091009B0199034A71
:1010900088581843885002B07047C0462810000096
:1010A00081B0009000990120C2020248885001B02E
:1010B0007047C0460100002681B000900098812151
:1010C00049014058C0B201B07047000080B58AB0F5
:1010D00009900891089800790790002804D0FFE74C
:1010E0000798202812D029E0099808990968491E14
:1010F00000F0C6F9099888210691002200F014F941
:1011000006990998012200F00FF92AE00998089938
:101110000968491E00F0B4F909982D49049100228C
:1011200000F002F9049909980122059200F0FCF8F8
:1011300005990998490700F095F912E0099808996E
:101140000968490800F09CF909980521C901039133
:10115000002200F0E9F803990998012200F0E4F870
:10116000FFE709980023019319461A4600F0F6F8A4
:10117000019A099801230293114600F0EFF8019BB0
:101180000998009319461A4600F020F9019B02992C
:101190000998009119461A4600F018F9019B099820
:1011A00019461A4600F0F8F8019A029B0998114670
:1011B00000F0F2F80998BD494018089A117952795F
:1011C000114302221143034AFFF700FC0AB080BD1D
:1011D00001040000BFFF003080B584B0039002918D
:1011E00003980299496800F04BF902980078019041
:1011F000222856D80198810001A040588746C04651
:1012000099120000A312000099120000A31200001E
:10121000A3120000A3120000A3120000A3120000FA
:10122000A3120000A3120000A3120000A3120000EA
:10123000A3120000A3120000A3120000A3120000DA
:101240008D120000A31200008D120000A3120000F6
:10125000A3120000A3120000A3120000A3120000BA
:10126000A3120000A3120000A3120000A3120000AA
:10127000A3120000A3120000A3120000A31200009A
:101280008D120000A31200008D12000003980121AE
:10129000490700F0E7F805E00398002100F0E2F8C4
:1012A00000E0FFE70398029909690022009200F02C
:1012B000ADF8009B03980299C9681A4600F04EF8F1
:1012C00002990878097A08430399784A885004B04B
:1012D00080BDC04681B000900099A84AA8488850B7
:1012E00001B0704782B001900091009801991122DD
:1012F0001202885002B0704780B584B0039002910A
:1013000001A802700399224A891800910178009877
:101310008900401800900098029907229204FFF774
:1013200055FB04B080BDC04680B584B003900291E7
:1013300001A802700399074A891800910178009862
:1013400089004018009000980299034AFFF73EFB7D
:1013500004B080BD70180000DB06C00F10B586B069
:1013600005900491039202A803700599084A891810
:101370000191017801988900401801900198049921
:10138000039A1143034AFFF721FB06B010BDC04684
:10139000301800007777020010B586B005900491F0
:1013A000039202A8037005993122D2018918019194
:1013B0000178019889004018019001980499039AD6
:1013C00011438F22FFF702FB06B010BD10B587B0A6
:1013D000009104460098099906940590049203939D
:1013E00002A801700699084A8918019101780198AC
:1013F000890040180190059804990843039908430F
:101400000199086007B010BD5018000084B0039027
:10141000029101A802700399064A89180091017887
:10142000009889004018009002980099086004B064
:101430007047C0461018000082B0019000910098DB
:10144000007801996A4A88500098407801990122F1
:1014500012038850009880780199804A885002B021
:101460007047C04680B582B00190009101980F4945
:101470004018009903221207FFF7A8FA02B080BDB6
:1014800082B00190009100980199024A885002B000
:101490007047C0460818000081B000900099034AC8
:1014A000885801231843885001B070470418000081
:1014B00081B00090009911200202885801239843BE
:1014C000885001B0704781B000900099112002024D
:1014D000885801231843885001B0704781B00090AC
:1014E000009911200202885801235B041843885098
:1014F00001B0704781B00090009911200202885815
:1015000004231843885001B07047000081B0009058
:1015100000990120C2020248885001B07047C046BD
:101520000100002680B582B0019000910198FFF77C
:10153000BFFF0198112109024018009A1188937881
:10154000194392881143084AFFF72CFA01981F4962
:101550004018009A9179D3791943127A11437E2267
:10156000FFF720FA02B080BD1867020081B000903A
:101570000099024A0248885001B0704704080000F0
:10158000030000B180B584B00390029101920398EA
:101590000B49401802990B4AFFF7F0F903980A49E2
:1015A000401801993F22FFF7E9F90399074A881883
:1015B000895801221140FFF7E1F904B080BDC0460F
:1015C00010110000FFFF00001411000004110000C2
:1015D00082B001900091009800780199044A8850E7
:1015E00000984078019901221203885002B0704798
:1015F0000810000080B582B001900091019811217F
:101600000902401800990322D203FFF7B7F902B08C
:1016100080BD000080B584B001910146019803911E
:1016200002A9087003980D4A801809787022FFF704
:10163000A5F904B080BDC04680B584B001910146D3
:101640000198039102A908700398044A8018097848
:101650000722FFF793F904B080BDC0460C110000CB
:1016600080B582B0032041063F48FFF749FA3F4961
:1016700001910860112001053D48FFF741FA01463C
:1016800001983C4A1160C0788007002813D5FFE715
:10169000012081063448FFF7ACFA002805D1FFE7A6
:1016A00035490868401E086004E033490868401C5A
:1016B0000860FFE719E02D48C0784007002813D5DF
:1016C000FFE7012041062848FFF793FA002805D1DB
:1016D000FFE729490868401C086004E026490868BB
:1016E000401E0860FFE7FFE7FFE722488078C0065A
:1016F000002813D5FFE7012001061D48FFF779FAFE
:10170000002805D1FFE71D490868401E086004E075
:101710001A490868401C0860FFE719E01548C078BE
:10172000C007002813D0FFE7012001051048FFF78C
:1017300060FA002805D1FFE710490868401C0860DE
:1017400004E00E490868401E0860FFE7FFE7FFE776
:10175000032041060448FFF76DF9112001050448F4
:10176000FFF768F902B080BD00000A402405202080
:1017700000200A40280520202C00202028002020BE
:1017800080B59EB00A201A9001F046FA01461A98D8
:101790001DAA1B92117001F0A1FA01461B981CAA08
:1017A00011700078012822D1FFE7E948006800287D
:1017B00006D1FFE7E849086842425041086015E059
:1017C000E348006801280AD0FFE7E14800680228E2
:1017D00005D0FFE7DE480068032806D1FFE7DD49B2
:1017E0000878424250410870FFE7FFE712E01DA869
:1017F000007802280DD1FFE7D5480168491C016037
:101800000068042804DBFFE7D14900200860FFE7F7
:10181000FFE7FFE71CA80078012800D051E1CC4881
:10182000006801284AD1FFE7CC480078002813D18E
:10183000FFE7C8480178D148D14A18920029199089
:1018400001D1189819901999D04817900068FEF79F
:101850004BFC1799086018E0C0480078022813D1A3
:10186000FFE7BC480178BE48BE4A15920029169091
:1018700001D1159816901699C34814900068FEF788
:1018800033FC14990860FFE7FFE7C04800680021B7
:10189000FEF760FE002804D1FFE7BC490020086085
:1018A000FFE7B94800680021FEF754FE002804D184
:1018B000FFE7B54900200860FFE701E1A4480068A0
:1018C00002286FD1FFE7A5480078002813D1FFE771
:1018D000A0480178A948AA4A12920029139001D180
:1018E000129813901399A74811900068FEF7FCFB1B
:1018F0001199086031E099480078012813D1FFE779
:10190000944801789648974A0F920029109001D187
:101910000F981090109998480E900068FEF7E4FB1D
:101920000E99086018E08D480078022813D1FFE76F
:10193000884801788A488B4A0C9200290D9001D181
:101940000C980D900D998B480B900068FEF7CCFB1E
:101950000B990860FFE7FFE7FFE78A48006800216E
:10196000FEF7F8FD002804D1FFE786490020086053
:10197000FFE7814800680021FEF7ECFD002804D154
:10198000FFE77D4900200860FFE77A4800680021F2
:10199000FEF7E0FD002804D1FFE77649002008604B
:1019A000FFE78CE06A480068002811D1FFE769482A
:1019B00001780020C0430990012000290A9001D13C
:1019C00009980A900A9A6A4908688018086075E0C0
:1019D0005F480068032870D1FFE76048007800285E
:1019E00014D1FFE75B480178FF2080055F4A07922A
:1019F0000029089001D10798089008995A48069044
:101A00000068FEF771FB0699086031E053480078E2
:101A1000012813D1FFE74F4801785148514A0492F9
:101A20000029059001D10498059005994E4803902E
:101A30004068FEF759FB0399486018E04748007872
:101A4000022813D1FFE7434801784548454A0192EF
:101A50000029029001D10198029002994248009019
:101A60008068FEF741FB00998860FFE7FFE7FFE72A
:101A70003D4800680021FEF76DFD002804D1FFE716
:101A8000394900200860FFE7374840680021FEF729
:101A900061FD002804D1FFE7334900204860FFE7DB
:101AA000314880680021FEF755FD002804D1FFE78A
:101AB0002D4900208860FFE7FFE7FFE7FFE7FFE72A
:101AC00044E01CA8007802283FD1FFE720480068C6
:101AD000012807D1FFE721490878424250414000E0
:101AE000087031E01A48006802280DD1FFE71B4852
:101AF0000178491C01700078032804DBFFE71749CF
:101B000000200870FFE71EE011480068002806D199
:101B1000FFE71049087842425041087012E00C4833
:101B2000006803280DD1FFE70C480178491C0170BB
:101B30000078032804DBFFE7084900200870FFE76E
:101B4000FFE7FFE7FFE7FFE7FFE7FFE71EB080BD26
:101B500034002020240020200C0020205C042020C1
:101B60000AD7233C0AD723BC000020200000C0BFB6
:101B7000200020203C04202018002020CDCCCC3D8B
:101B8000CDCCCCBD1C002020100020201400202033
:101B900080B582B0014601A801800088002803D1E9
:101BA000FFE700F017F810E009490888401C08809A
:101BB00080B201A90988884206D1FFE700F012F837
:101BC000034900200880FFE7FFE702B080BDC04660
:101BD0003000202080B5012041020648FEF742FF78
:101BE00080BDC04680B5012041020248FFF740F8A1
:101BF00080BDC04600200A4080B5B6B000F0FCF9B8
:101C0000D94800683590032800D9A9E135988100AA
:101C100001A040588746C046291C0000DB1C00007C
:101C20008B1D0000751E0000E6480268E648036848
:101C3000D3483090E54901F055F9309A00213191AF
:101C4000084600F0C9FBE2480068FEF7D9FC0246EE
:101C500030980B46DF4901F045F93199309A46201A
:101C600000F0BAFB3098DC490A68DC490B68DC49B3
:101C700001F038F9309A3198102100F0ADFB30981E
:101C8000D8490A68D8490B68D84901F02BF9309A2D
:101C90003198202100F0A0FB3098D5490A68D54939
:101CA00001F020F9309A31983021329100F094FB04
:101CB000B7480178B748B84A33920029349001D127
:101CC000339834903098349AB44901F00BF9329932
:101CD000309A642000F080FB42E1B54A002129914E
:101CE000084600F079FBB3480068FEF789FC2A90AB
:101CF0002B91A0482C9001789F482D909F4A2E92BE
:101D000000292F9001D02E982F902B9B2A9A2F9844
:101D100000909B482590A84901F0E4F8259A29985D
:101D2000102100F059FBA5480068FEF769FC024647
:101D30002D9826920A462C992792097802292890F4
:101D400001D02E9828902598279B269A28990091B3
:101D50009B4901F0C7F8259A2998202100F03CFB07
:101D60008B4801788B488C4A23920029249001D11A
:101D7000239824902598249A884901F0B3F829994A
:101D8000259A642000F028FBEAE0854A00211C9196
:101D9000084600F021FB83480068FEF731FC1D90E7
:101DA0001E9174481F90017873482090734A2192C5
:101DB0000029229001D0219822901E9B1D9A2298E2
:101DC00000906F4818906F4901F08CF8189A1C9891
:101DD000102100F001FB74480068FEF711FC024678
:101DE000209819920A461F991A92097801291B9086
:101DF00001D021981B9018981A9B199A1B99009151
:101E0000614901F06FF8189A1C98202100F0E4FA5B
:101E100066480068FEF7F4FB0246209815920A46D1
:101E20001F99169209780229179001D021981790CE
:101E30001898169B159A17990091544901F052F879
:101E4000189A1C98302100F0C7FA5148017851487F
:101E5000514A13920029149001D1139814901898A4
:101E6000149A4E4901F03EF81C99189A642000F02B
:101E7000B3FA75E03D4A00210B91084600F0ACFA38
:101E80003B480C900068FEF7BBFB0D900E91394863
:101E90000F90017838481090384A1192002912901A
:101EA00001D0119812900E9B0D9A12980090344810
:101EB0000790344901F016F8079A0B98102100F0AA
:101EC0008BFA0C984068FEF79BFB0246109808922C
:101ED0000A460F990992097801290A9001D01198B0
:101EE0000A900798099B089A0A990091264900F0E0
:101EF000F9FF079A0B98202100F06EFA0C98806881
:101F0000FEF77EFB0246109804920A460F9905924E
:101F100009780229069001D0119806900798059B30
:101F2000049A06990091194900F0DCFF079A0B9872
:101F3000302100F051FA164801781648164A0292EC
:101F40000029039001D1029803900798039A13493E
:101F500000F0C8FF0B99079A642000F03DFAFFE7F4
:101F600000F052F936B080BD34002020E442000079
:101F7000000020205C042020E2420000DC4200003F
:101F80003C052020674300005D43000053430000F0
:101F900024002020DE420000E04200004E4300000A
:101FA000EE4200001C002020180020203C042020CD
:101FB000F6420000140020203643000010002020CC
:101FC00042430000600420206404202018430000E5
:101FD000400420202F4300002C0520203005202025
:101FE000FC42000034052020380520200A43000070
:101FF000200020202243000080B582B001A90020EB
:102000000870FFE701A8007807281EDCFFE7694693
:1020100000200870FFE7684600787F280FDCFFE7A4
:1020200068460078C1009648411801A8027800204F
:102030008854FFE70098401C69460870EBE7FFE70B
:102040000198401C01A90870DCE700F0DDF802B03F
:1020500080BDC04686B0034605A8037004AB197066
:1020600003A90A706A460021117000787F2805DCF8
:10207000FFE704A80078402801DBFFE72DE004A972
:102080000878C2080720821A02AB1A700A78024048
:1020900001A90A700978411A012088406946087030
:1020A00003A8007800280CD0FFE7009B05A8007863
:1020B000C1007348411802A80278885C184388540C
:1020C0000BE0009B05A80078C1006D48411802A8EC
:1020D0000278885C98438854FFE706B07047C04692
:1020E00080B582B000F06EF8782000F06FFE00F04E
:1020F00071F8AE200021019100F0ABF90199D520D3
:1021000000F0A7F90199502000F0A3F90199A82047
:1021100000F09FF901993F2000F09BF90199D3202D
:1021200000F097F90199084600F093F901994020D1
:1021300000F08FF901998D2000F08BF9019914209E
:1021400000F087F90199202000F083F9019902201D
:1021500000F07FF90199A12000F07BF90199C020DE
:1021600000F077F90199DA2000F073F90199122053
:1021700000F06FF90199812000F06BF90199EF20CF
:1021800000F067F90199D92000F063F90199F12075
:1021900000F05FF90199DB2000F05BF90199302034
:1021A00000F057F90199A42000F053F90199A620F5
:1021B00000F04FF90199AF2000F04BF9FFF71CFF39
:1021C00002B080BD80B5012081030E48FEF75EFCA1
:1021D00080BDC04680B5012081030A48FEF730FD6E
:1021E00080BDC04680B50120C1030648FEF74EFC05
:1021F00080BDC04680B50120C1030248FEF720FD26
:1022000080BDC04600200A4080B584B003A90020EC
:102210000870FFE703A8007807282FDCFFE7039882
:10222000B030C0B20021019100F013F901990846C5
:1022300000F00FF90199102000F00BF9019802A9A4
:102240000870FFE702A800787F2811DCFFE702A8EA
:102250000078C1000A48401803A90978405C0121B0
:1022600000F0F7F8FFE70298401C02A90870E9E7C0
:10227000FFE70398401C03A90870CBE704B080BDBA
:102280003C00202080B501200107E748FEF7FEFB57
:1022900080BDC04680B501200107E348FEF7D0FCB1
:1022A00080BDC04680B50120C107DF48FEF7EEFBC8
:1022B00080BDC04680B50120C107DB48FEF7C0FCE9
:1022C00080BDC046B0B58AB004460E9809AD2C70EA
:1022D00008AC217007A90A7006AA137005AA10702D
:1022E000089801AA107007982038087003A90020E8
:1022F0000870FFE703A8007806A90978884264DA25
:10230000FFE706A800780C280CD1FFE707A80078A3
:102310000C2141432F48401803A90978405C04A9C7
:1023200008700AE007A8007801012948401803A9AD
:102330000978405C04A90870FFE702A90020087032
:10234000FFE702A80078072839DCFFE704A8007837
:102350000006002809D5FFE709A8007808A9097830
:1023600005AA1278FFF776FE0AE009A8007808A906
:10237000097805AA127853425A41FFF76BFEFFE72E
:102380000498400004A908700898411C08A801702E
:10239000007801A90978401A06A90978884208D16D
:1023A000FFE7019808A908700998401C09A908705E
:1023B00005E0FFE70298401C02A90870C1E7FFE7AB
:1023C0000398401C03A9087094E70AB0B0BDC0464A
:1023D000EC3C00007838000080B586B005AB187082
:1023E00004A801700392FFE70398007800282ED01C
:1023F000FFE705A800787B2808DBFFE705A9002098
:1024000008700498103004A90870FFE704A8007849
:102410003B2808DBFFE705A90020087004A9087025
:10242000FFF7EAFDFFE705A80290007804A9097804
:10243000039A1278012300930C23FFF743FF0299BC
:102440000598083008700398401C0390CCE706B04C
:1024500080BD80B584B003AA107002A80170007816
:10246000002803D0FFE7FFF7C5FE02E0FFF7BAFE42
:10247000FFE701A900200870FFE701A800780728FE
:102480001ADCFFE7FFF7FEFE03A80078000600282D
:1024900003D5FFE7FFF70EFF02E0FFF703FFFFE7BB
:1024A000FFF7F8FE0398400003A90870FFE70198C2
:1024B000401C01A90870E0E7FFF79CFE04B080BD56
:1024C00080B590B00E2008210291FEF779FBEC4810
:1024D0000E9004210391FEF7FDFA02990F20FEF7FA
:1024E0006FFB02990E98FEF7F5FA0023079301930C
:1024F00000930720049009211A46FEF745FB039933
:10250000079B01930093242005901A46FEF73CFB9D
:102510000498FEF7C5FA0598FEF7C2FA14200221C6
:102520000691FEF74DFB06991520FEF721FB2720AB
:10253000FEF7F2FA1920FEF711FB1E20FEF70EFB44
:102540001F20FEF70BFB0698FEF708FB05200990FD
:10255000FEF704FB2A20FEF7DFFA2020FEF7DCFA64
:102560002120FEF7D9FA3B20FEF7D6FA079B00930D
:1025700001200890420418201946FEF7D7FA2520BA
:10258000FEF7ECFA2620FEF7E9FA2320FEF7E6FA3A
:102590002220FEF7E3FA3620FEF7BEFA3A20FEF7D5
:1025A000BBFA2F20FEF7B8FA3320FEF7B5FA0798EA
:1025B000FEF7D4FA0898FEF7D1FAF5480B901B49BC
:1025C000FEF746FA0B9803210A91FEF725FB0B98BC
:1025D0001749FEF77FFA09990B988904FEF73CFB2F
:1025E0000A990B9849060C91FEF718FA0B980C996A
:1025F000FEF762FA0E98612149020D91FEF728FA62
:102600000D990E98FEF766FA0E980A49FEF724FB1C
:102610000E98112109050F91FEF700FA0E980F99F7
:10262000FEF74AFA10B080BD00000A400060039037
:10263000036003900001010080B582B01249914807
:102640000190FEF779FB019803214902FEF760FB38
:102650000198FEF719FB0198FEF750FB019809213C
:10266000FEF7AAFB019800210091FEF791FB00996B
:102670000198FEF77BFB0198FEF71CFB0198FEF723
:102680000FFB02B080BDC0461E38000080B584B08C
:102690001B49C0480390FEF7CFFE03981949FEF787
:1026A00071FC0398002201921146FEF7AFFE019BD8
:1026B0000398009319461A46FEF788FE019A03987C
:1026C0001146FEF719FE0199039801220292FEF7C6
:1026D0009DFE019B02990398009119461A46FEF748
:1026E00075FE0199029A0398FEF706FE0398FEF71D
:1026F000BFFC03980321FEF7F5FD04B080BDC04682
:10270000203800002438000080B582B000200190FD
:10271000FEF7D6FB012000904002FEF7DDFB01989A
:10272000FEF7E8FBFEF7B4FBFEF7B8FB0848FEF740
:102730004FFB1020FEF7ECFBFEF7BAFB0198FEF70B
:10274000F3FB0098019900F025FA02B080BDC04665
:102750002C38000080B501200006FEF7FFFBFEF7D5
:10276000F7FB80BD80B582B00849A2480190FEF712
:1027700063FE01980649FEF72FFD01980121FEF73F
:1027800081FC0198FEF774FC02B080BD5438000053
:102790005838000080B582B012493B480190FEF7DE
:1027A00017FF01981049FEF7BDFE01980021FEF7C2
:1027B00021FF019815212D22FEF7E4FE0198FEF776
:1027C0008DFE01987021FEF725FF01980221FEF78A
:1027D00033FF0198FEF78EFE0198FEF774FE02B0FB
:1027E00080BDC0466C3800006E38000080B500F037
:1027F00015F8FFF765FEFFF787FFFFF747FFFFF7C5
:10280000B1FFFFF719FFFFF7C5FFFFF7A3FF02496D
:10281000B8220020885480BD6804202080B586B08E
:102820005B480090FEF7F0F915480190FEF7ECF9CF
:1028300058480290FEF74EFD6E480390FEF74AFDA1
:1028400010480490FEF74EFA0F480590FEF78EFEF2
:102850000098FEF74BF90198FEF748F90298FEF749
:102860001FFC0398FEF71CFC0498FEF72FFA05984E
:10287000FEF74CFE1020FEF777F806B080BDC0468C
:1028800000200A4000200F400080104080B58EB02C
:102890000D900C910C9801281DDBFFE701200A9098
:1028A00001043B480B90FEF7C1F90A990B984904C3
:1028B000FEF7E2F80C98012803DBFFE70C9809907B
:1028C00003E00C9840420990FFE709993148002243
:1028D000FEF79CFD1CE0012007904104FC48089095
:1028E000FEF7A4F9079908980904FEF7C5F80C98B3
:1028F000012803DBFFE70C98069003E00C984042A8
:102900000690FFE7069923480022FEF77FFDFFE7C8
:102910000D9801281DDBFFE7012004908103EC489E
:102920000590FEF783F9049905984903FEF7A4F88A
:102930000D98012803DBFFE70D98039003E00D9845
:1029400040420390FFE7039912480122FEF75EFD23
:102950001CE0012001904103DD480290FEF766F97A
:10296000019902988903FEF787F80D98012803DB87
:10297000FFE70D98009003E00D9840420090FFE7BC
:10298000009904480122FEF741FDFFE70EB080BD2B
:1029900000000A4000208640014800687047C04699
:1029A00018E000E080B51348FEF786FB00281FD032
:1029B000FFE76420FFF7ECF8FEF7E2FE0E49086837
:1029C00040420E4A10600E4A10680E4B18600020FC
:1029D000106008600C480068002803D1FFE7FDF78D
:1029E00095FF04E000210846FFF750FFFFE7FFE7EF
:1029F00080BDC04600400840280020206004202000
:102A00002C002020640420200C00202080B592B0EF
:102A10001190109101200B9080070C900F9010984E
:102A20003F490968FDF7B1FB0D900D98FDF7E8FDF2
:102A30000B9A0C9BD20791430022FDF7A7FD0028BB
:102A400012D1FFE70D980021FDF792FD014601200C
:102A5000800703229207099200290A9001D1099860
:102A60000A900A980D90FFE710992D4801600068C0
:102A70000D99FDF739FB109011981099FDF785FB22
:102A80000E900E99274808900068FDF72DFB01462F
:102A90000898016000682449FDF74EFD002804D124
:102AA000FFE72049204808600CE01E4800681F49E5
:102AB000FDF750FD002804D1FFE71A491B480860C4
:102AC000FFE7FFE70E981A4901910968FDF75DFBE2
:102AD0000199184A059210600E98086016480690F1
:102AE000016803910E99029140680E490968FDF74B
:102AF00054FB0299024603980492FDF74EFB049999
:102B0000FDF7F2FA0599024606980792806809686F
:102B1000FDF743FB0799FDF7E7FA12B080BDC04609
:102B200050042020480420200000FA430000FAC38B
:102B30004C042020440420200000202081B00146C5
:102B40006846017000214056002809D4FFE7684616
:102B500001781F2001400120884002490860FFE7FA
:102B600001B0704780E200E081B001466846017024
:102B700000214056002809D4FFE7684601781F204D
:102B800001400120884002490860FFE701B070471A
:102B900000E100E070B582B0024601A80270009129
:102BA00000214056002816D4FFE7002401A9085749
:102BB0000322D3431840174A805809578C07E50E63
:102BC000FF24AC40A043009CA401E4B2AC402043ED
:102BD000194088501AE001A908780F2420400838CD
:102BE0000322D34318400A4A8058002549578D07CD
:102BF000EE0EFF25B540A843009DAD01EDB2B540F6
:102C000028432140083919408850FFE702B070BDC1
:102C10001CED00E000E400E080B584B002A908707B
:102C2000012081042A48FDF7D9FF411E884101A9EE
:102C30000870284800780090002808D0FFE7009826
:102C4000012811D0FFE7009802281AD037E001A828
:102C50000078002807D0FFE71E49012008701E49B0
:102C600000200880FFE72AE001A80078002807D1AB
:102C7000FFE7184902200870174900200880FFE785
:102C80001DE001A80078002807D0FFE711490020C7
:102C9000087003A90220087015E00F490888401C3D
:102CA000088080B202A90978884207DDFFE7094958
:102CB0000020087003A90120087004E0FFE703A9C1
:102CC00000200870FFE703A8007804B080BDC0466C
:102CD00000000A40540420205604202080B584B00F
:102CE00002A90880012001023048FDF777FF414228
:102CF000484101A908702E4800780090002808D0AB
:102D0000FFE70098012813D0FFE7009802281CD0A5
:102D100044E001A80078002809D0FFE724490120F9
:102D20000870244A0021118023490870FFE735E02C
:102D300001A80078002807D1FFE71D49022008708C
:102D40001C4900200880FFE728E001A8007800283F
:102D500009D0FFE71649002008701749087003A939
:102D6000022008701EE013480188491C0180008879
:102D700002A90988884210DDFFE70D49002008708C
:102D80000D480078002807D0FFE70B4900200870A5
:102D900003A90120087005E0FFE7FFE703A9002071
:102DA0000870FFE703A8007804B080BD00200A4047
:102DB000590420205A0420205804202080B582B0D5
:102DC0000190019800F002F802B080BD80B582B099
:102DD000019000200090FFE700980749884208DC36
:102DE000FFE7019800F00AF8FFE70098401C009008
:102DF000F2E702B080BDC046E703000080B586B0B0
:102E0000059005981E49884203D3FFE71D480590A9
:102E1000FFE705995020484305900020009004905A
:102E2000FFF7BAFD014600980391029001A90870CE
:102E3000FFE7FFF7B1FD029002980399884204D999
:102E4000FFE701A901200870FFE701A8007800282A
:102E500007D0FFE703980299401A0B4940180490E5
:102E600004E003980299401A0490FFE7049805993A
:102E7000884201D3FFE700E0DBE706B080BDC04633
:102E80003433030033330300FFFFFF0080B584B009
:102E9000002003900290FFF7A9FC1048FEF7FCFA0F
:102EA00001200090FFF74AFE0098FFF747FE0098C8
:102EB000FFF75AFE0098FFF757FE10200190FFF72A
:102EC0003DFE0198FFF750FEFFF70AF90448FFF7AF
:102ED00075FFFFE7FEF790FEFCE7C0460020864046
:102EE000983A00000FB410B504A9074B02AA039842
:102EF00000F0F4F8044602A9002000F08BFC204604
:102F000010BC08BC04B01847153800002021020C82
:102F100001D010211046020A01D0104608390209DA
:102F200001D01046091F820801D01046891E4208B0
:102F300001D0881E7047081A70470000000000008A
:102F400002E008C8121F08C1002AFAD17047000029
:102F50007047000000000000002001E001C1121FC6
:102F6000002AFBD170470000F0B51FB486B0099865
:102F7000089A030D0021024314D05148514A1818F1
:102F8000504305141198012810981AD0281A401C93
:102F900000264D4F4D49009601910490002812DA09
:102FA000444211E01198012449A3012801D110984D
:102FB000C1430698119A84600360C26041600BB0FF
:102FC000F0BD4042E4E70446210500203F4A001CD2
:102FD00051410391029012E0E00707D032463B4690
:102FE00001990098FDF7C8F90191009032463B46DF
:102FF00010461946FDF7C0F906460F466410002C2E
:10300000EAD10498039B0028029A0999089806DAE5
:10301000FDF7B2F9019B009AFDF7AEF905E0FDF767
:1030200013FA019B009AFDF70FFA04460E460022A0
:10303000284BFDF72BFC03D80020C043014607E0D6
:103040000022254B20463146FDF7E4F8FDF7FEFB54
:10305000102409E0002C0ADB0A220023FDF703FB01
:10306000079B30321A55641E02460A43F2D11122E0
:10307000641C079B121B1C19119B012B03D00123FD
:1030800008430ED10AE0084304D01120109000201C
:10309000119077E71098151A6D1E0BE01098824278
:1030A00002DD00236D1C03E0824201DA00236D1E65
:1030B000002BEED0069811998260C16030C07EE787
:1030C00001FCFFFF104D0000000014400000F03F25
:1030D000300000000000F0430000E03FFFB597B073
:1030E0000646002518E2252877D100242746FD4909
:1030F000049400E00443761C32780120203A90408A
:103100000842F7D130782A280ED0022230780146C2
:103110003039092916D804990A23594330394018FF
:103120001443761C0490F1E7189802C80491189093
:10313000002904DA0120400304434842049002209D
:103140000443761C30782E2814D104200443707870
:10315000761C2A2809D11898761C80C8189009E096
:103160000A214F43303FC719761C30780146303969
:103170000929F5D930786C2810D006DC4C281AD0F3
:1031800068280ED06A2817D104E0742813D07A2852
:1031900012D110E00120400504430CE00121090593
:1031A00001E0032109050C437178814203D101201C
:1031B00000052418761C761C3078119066280BD0F8
:1031C00013DC58287DD009DC00287BD04528F6D0B8
:1031D0004628F4D047281AD1A5E118E0632835D055
:1031E000642870D0652812D19DE170286CD008DC6D
:1031F0006728F1D069287BD06E280DD06F2806D1C2
:10320000BAE073282ED0752871D0782859D01A9A30
:10321000199990476D1C7EE16002400F022809D089
:1032200003280DD00428189801680DD00D60001DEA
:10323000189070E11898EA1701680D604A60F6E787
:10324000189801680D80F2E70D70F0E718986A464B
:1032500001781172001D18900020507202A8009091
:10326000012005E0189802C8189000200091C04382
:1032700061070DD5002101E00199491C0191B94276
:1032800012DA8142F8DB009A515C0029F4D10BE09C
:10329000002101E00199491C01918142FADB019A68
:1032A0000099895C0029F5D1019904981A9B471A65
:1032B00021463846199A00F097FA019940194518A5
:1032C0000BE04FE02CE113E04EE00098009900780D
:1032D000491C00911A9A199990470198401E019033
:1032E000401CF2D1214638461A9B199A10E137E06A
:1032F0000A200021009001916002410F022907D0AD
:10330000189A01CA1892C2179446032908D00AE0F5
:103310001898C01DC108C90005C91891944607E056
:1033200000B2C2179446042902D140B2C1178C469C
:1033300000226146944506DA0A4600214042914146
:103340008C462D2102E0210504D52B216A461173FC
:10335000012103E0E10701D02021F7E7029155E0C8
:103360000A200AE0102008E010200090002104202C
:1033700004430191082703E00820002101910090F7
:103380006002410F022907D0189A01CA1892002240
:103390009446032908D008E01898C01DC108C90048
:1033A00005C91891944603E080B2042900D1C0B247
:1033B00000210291210729D51199702906D0009A80
:1033C0001021019B4A401A4305D00EE040216A4675
:1033D0001173012108E06146014306D030216A469D
:1033E00011731199517302210291009A0821019BD6
:1033F0004A401A430AD16146014301D1610705D50C
:1034000030216A46117301217F1E029111995829BA
:1034100004D035A10E910DA90D910DE037A1F9E76A
:103420006146019B009AFDF71EF90E9B8C469B5C42
:103430000D9A521E0D92137061460143F0D10D9802
:1034400005A9081A20300190600703D50120000467
:10345000844300E001270198874201DD381A00E02B
:103460000020019900904118029809180498401A08
:103470000490E00306D421461A9B199A049800F0A0
:10348000B3F94519002706E003A81A9AC05D1999F7
:1034900090476D1C7F1C02988742F5DBE0030CD53A
:1034A00021461A9B199A049800F09EF9451904E0E8
:1034B0001A9A3020199990476D1C0099481E009067
:1034C0000029F5DC08E00D980D990078491C0D9154
:1034D0001A9A199990476D1C0199481E019000296C
:1034E000F1DC63E1092801003031323334353637FD
:1034F0003839616263646566000000003031323340
:1035000034353637383941424344454600000000DF
:1035100000F05AF94519761C3078002800D0E2E511
:1035200028461BB0F0BD600700D406271898C01DC0
:10353000C108C90048680A680831C30FDB07189141
:10354000190001D09CA108E0210501D59BA104E050
:10355000E10701D09AA100E09AA1430011985B080D
:10356000109165280CD006DC452809D046281DD0CE
:10357000472841D141E0662818D067283CD13CE07B
:103580000021112F01DB112000E0781C0191009037
:1035900008A911A8FFF7E8FC139905910021119AD9
:1035A00015927F1C12980197009150E00120C007EE
:1035B00003900120019008A9009711A8FFF7D4FCFF
:1035C000139A149905920022119B00921298159358
:1035D000059A0192002901D0104602E0791C40189A
:1035E0000190381A01D5019804E04042401E009035
:1035F000781C0190C01B029043E0012F00DA0127E4
:103600000021112F01DD112000E0384601910090CA
:1036100008A911A8FFF7A8FC13990591119A002198
:10362000129815920091019721070CD40599B9427F
:1036300001DB019900E00191012904DD159A491E81
:10364000515C302906D0B84201DA011D05DA0121AA
:10365000029115E00199491EEDE7002805DC00996B
:10366000411800910199091A03E0019A411C914205
:1036700000DD01910099401A401C02900120C00712
:103680000390200706D402990198814202DB0020B2
:10369000C043029000206946C87707AF0121039814
:1036A0000337C907884224D0022011902B201290A2
:1036B000039800280CDA404203902D20129007E076
:1036C0000A210398FCF7B0FF30317F1E0390397058
:1036D0001199481E11900029F2DC03980028EFD1BF
:1036E000791E129808703078202108404530BF1E9E
:1036F000387006A8C01BC01D0390109800780028E1
:1037000000D00120019941180298C01709180398A8
:1037100009180498401A401E0490E00306D421467C
:103720001A9B199A049800F05FF8451910980078D0
:10373000002803D01A9A199990476D1CE00324D5EC
:1037400021461A9B199A049800F04EF845191CE07E
:103750000098002807DB00990598884203DD15983A
:10376000405C199901E0199930201A9A9047009805
:103770006D1C401C00900298401E0290002804D14D
:103780001A9A2E20199990476D1C0199481E019094
:103790000029DDDC05E038781A9A7F1C19999047DA
:1037A0006D1C0399481E03900029F4DC21461A9BE6
:1037B000199A0498ACE600002D0000002B000000D0
:1037C0002000000000000000F8B5044600251E4659
:1037D0001746880404D405E039462020B0476D1C04
:1037E000641EF9D52846F8BDFFB50446002581B012
:1037F0001E46C80301D5302700E02027880404D5E1
:1038000005E038460399B0476D1C641EF9D528467B
:1038100005B0F0BD0A68531C0B60107070470800BB
:1038200008000000401F000020000100010000000F
:103830000000000000000000400000000000000048
:103840000000000002000000040000000100000071
:103850002C00C44108001F0002000000D33000000B
:10386000010000000000000000000000080000004F
:103870001800000000300000000000000000000000
:1038800000000000000000003F40000000000000B9
:1038900000003000400030004000000009000BC074
:1038A0003D000BC03D00090018C024407FE02240CD
:1038B00031800000180024C01B000D8032400180C0
:1038C00003801C4027401C8007400040100060001F
:1038D00000000000000000000000000000001F8049
:1038E000204040200000402020401F8000000000B9
:1038F000090006001F800600090000000400040003
:103900003F80040004000000001000600000000080
:103910000000000004000400040004000400000093
:10392000000000400000000000000000002001C076
:1039300006003800400000001F802040204020404A
:103940001F800000000010403FC000400000000049
:1039500018C0214022402440184000001080204020
:10396000244024401B80000002000D0011003FC0D5
:10397000014000003C80244024402440238000007B
:103980001F80244024403440038000003000200089
:1039900027C03800200000001B8024402440244021
:1039A0001B8000001C0022C0224022401F8000001B
:1039B00000000000084000000000000000000000BF
:1039C0000460000000000000000004000A00110074
:1039D000208040400900090009000900090000009A
:1039E00000004040208011000A0004001800200060
:1039F00023402400180000001F8020402740294059
:103A00001F400000004007C039000F0001C0004007
:103A100020403FC0244024401B8000001F802040E5
:103A2000204020403080000020403FC02040204007
:103A30001F80000020403FC024402E4030C00000C6
:103A400020403FC024402E00300000000F001080B6
:103A5000204022403380020020403FC00400040088
:103A60003FC02040204020403FC020402040000078
:103A70000060202020203FC02000200020403FC0C8
:103A800024400B0030C0204020403FC02040004078
:103A9000004000C03FC03C0003C03C003FC00000ED
:103AA00020403FC00C4023003FC020001F8020402A
:103AB000204020401F80000020403FC024402400C0
:103AC000180000001F802140214020E01FA00000BE
:103AD00020403FC02440260019C0004018C02440A8
:103AE0002440224031800000300020403FC0204070
:103AF0003000000020003F80004000403F80200058
:103B000020003E0001C0070038002000380007C038
:103B10003C0007C038000000204039C0060039C012
:103B2000204000002000384007C03840200000003E
:103B3000304021C02640384020C000000000000076
:103B40007FE0402040200000000070000C00038057
:103B5000004000000000402040207FE00000000006
:103B600000002000400020000000000000100010B5
:103B700000100010001000100000000040000000C5
:103B800000000000000002800540054003C0004026
:103B900020003FC004400440038000000000038078
:103BA000044004400640000000000380044024401C
:103BB0003FC0004000000380054005400340000076
:103BC000000004401FC0244024402000000002E008
:103BD000055005500650042020403FC0044004001A
:103BE00003C000400000044027C000400000000067
:103BF00000100010041027E00000000020403FC02B
:103C00000140070004C00440204020403FC0004065
:103C10000040000007C0040007C0040003C000000B
:103C2000044007C00440040003C0004000000380BB
:103C30000440044003800000041007F004500440D6
:103C400003800000000003800440045007F00010CF
:103C5000044007C0024004000400000000000640C9
:103C60000540054004C00000000004001F8004401F
:103C700000400000040007800040044007C00040EE
:103C80000400070004C0018006000400060001C013
:103C9000070001C006000000044006C0010006C085
:103CA000044000000410071004E001800600040036
:103CB0000000044005C00640044000000000000071
:103CC00004007BE040200000000000000000FFF046
:103CD00000000000000040207BE004000000000025
:103CE0004000800040002000200040000000000054
:103CF00000000000000000000000000000000000C4
:103D000000001FCC000C00000000000000000800B4
:103D1000300060000800300060000000022003FC5A
:103D20001E20022003FC1E200220000000000E18AE
:103D300011043FFF10840C78000000000F00108475
:103D40000F3800C0077818840078000000780F84CE
:103D500010C411240E9800E40084000808006800D4
:103D600070000000000000000000000000000000E3
:103D7000000007E018182004400200000000400284
:103D80002004181807E00000000000000240024074
:103D900001800FF00180024002400000008000809E
:103DA00000800FF800800080008000000001000DFE
:103DB000000E000000000000000000000000008075
:103DC0000080008000800080008000800000000CE7
:103DD000000C0000000000000000000000000006D1
:103DE000001800600180060018002000000007F0A5
:103DF000080810041004080807F000000000080478
:103E000008041FFC000400040000000000000E0C69
:103E100010141024104411840E0C000000000C1823
:103E200010041104110412880C700000000000E05E
:103E30000320042408241FFC0024000000001F9815
:103E4000108411041104108810700000000007F0A5
:103E500008881104110418880070000000001C007C
:103E6000100010FC13001C001000000000000E38B1
:103E700011441084108411440E3800000000070023
:103E8000088C10441044088807F00000000000006F
:103E90000000030C030C0000000000000000000004
:103EA000000101060000000000000000000000808A
:103EB0000140022004100808100400000220022023
:103EC0000220022002200220022000000000100434
:103ED00008080410022001400080000000000E00CD
:103EE0001200100C106C10800F00000003E00C1882
:103EF00013E4142417C4082807D000000004003C71
:103F000003C41C40074000E4001C000410041FFC14
:103F10001104110411040E880070000003E00C1855
:103F200010041004100410081C10000010041FFCE2
:103F3000100410041004080807F0000010041FFC0F
:103F40001104110417C410040818000010041FFC09
:103F50001104110017C010000800000003E00C1845
:103F60001004100410441C780040000010041FFCD2
:103F700010840080008010841FFC100400001004D6
:103F800010041FFC100410040000000000030001D6
:103F9000100110011FFE10001000000010041FFC93
:103FA000110403801464181C1004000010041FFC8A
:103FB0001004000400040004000C000010041FFCA6
:103FC0001F0000FC1F001FFC1004000010041FFC59
:103FD0000C04030000E010181FFC100007F0080894
:103FE000100410041004080807F0000010041FFC5F
:103FF00010841080108010800F00000007F0081857
:1040000010241024101C080A07F2000010041FFCE2
:104010001104110011C011300E0C000400000E1C20
:1040200011041084108410441C3800001800100083
:1040300010041FFC100410001800000010001FF8EE
:1040400010040004000410041FF8100010001E00EB
:1040500011E0001C007013801C0010001FC0103CF9
:1040600000E01F0000E0103C1FC000001004180C0E
:10407000163401C001C01634180C100410001C00C6
:10408000130400FC13041C00100000000804101CA2
:104090001064108413041C041018000000000000B9
:1040A00000007FFE4002400240020000000030009D
:1040B0000C0003800060001C0003000000004002B0
:1040C000400240027FFE00000000000000000000EF
:1040D00020004000400040002000000000010001DE
:1040E000000100010001000100010001000040008A
:1040F00040002000000000000000000000000098C8
:10410000012401440144014400FC000410001FFC90
:1041100000880104010400880070000000000070A5
:104120000088010401040104008800000000007000
:1041300000880104010411081FFC0004000000F8BD
:10414000014401440144014400C80000000001048E
:1041500001040FFC1104110411001800000000D626
:1041600001290129012901C90106000010041FFCD1
:10417000008401000100010400FC000400000104AF
:10418000190419FC000400040000000000000003F2
:1041900000010101190119FE0000000010041FFCBC
:1041A0000024004001B4010C0104000000001004D0
:1041B00010041FFC0004000400000000010401FCC6
:1041C0000104010001FC0104010000FC010401FCE8
:1041D000008401000100010400FC0004000000F85C
:1041E000010401040104010400F80000010101FFC1
:1041F00000850104010400880070000000000070C8
:10420000008801040104010501FF0001010401040B
:1042100001FC00840104010001800000000000CCCA
:104220000124012401240124019800000000010060
:10423000010007F80104010400000000010001F87A
:10424000000400040004010801FC000401000180D6
:104250000170000C001001600180010001F0010CF0
:10426000003001C00030010C01F001000000010429
:10427000018C00740170018C0104000001010181B6
:104280000171000E0018016001800100000001842E
:10429000010C013401440184010C00000000000005
:1042A0000000000001003EFC40024002000000004F
:1042B00000000000FFFF00000000000000004002BE
:1042C00040023EFC01000000000000000000600011
:1042D00080008000400040002000200020002B00D3
:1042E0002D003C00416E676C6520504944004361DD
:1042F0007220504944004952205044004952313AFA
:1043000025642C4952323A2564004952333A2564D7
:104310002C4952343A2564004C3A25642C523A25F3
:1043200064004261736553706565643A25640059A1
:104330003A252E3166004B503A252E316620202535
:1043400073004B443A252E32662020257300443AF0
:104350002573004B643A252E32662573004B693A6B
:10436000252E32662573004B703A252E3266257352
:1043700000000000984300000000202028000000FA
:10438000402F0000C04300002800202040150000FE
:10439000582F0000000000000000604200000000F4
:1043A0009A99193F010000000AD7A33C0000004081
:1043B000CDCCCC3E0000803F0A0000000100000090
:04000005000000C136
:00000001FF
