:020000040000FA
:10000000B0152020D5000000D9000000DB00000062
:1000100000000000000000000000000000000000E0
:10002000000000000000000000000000DD000000F3
:100030000000000000000000DF000000E100000000
:10004000E3000000F51C0000E3000000E3000000F6
:10005000E3000000E3000000E3000000E300000014
:1000600000000000E3000000E300000000000000CA
:1000700000000000E3000000E3000000E3000000D7
:10008000D12D0000E3000000E3000000E3000000C9
:10009000E3000000E300000000000000000000009A
:1000A000E3000000E300000000000000000000008A
:1000B000E300000000000000E3000000E300000097
:1000C0000348854600F0E0FC00480047B9490000BD
:1000D000B015202003480047FEE7FEE7FEE7FEE7F5
:1000E000FEE7FEE7C1000000F8B500242546002920
:1000F00004DA0E46012400214042B141002B04DA0B
:100100001E46002352420125B34100F0F3FA8C460B
:1001100017461E46AC4203D0002540428D41AC46F6
:10012000002C02D0002657429E4161463A46334693
:1001300001B0F0BD30B5434351435C18010C130CC2
:100140000D465D432C1980B292B20546554351438A
:100150000A0C09044D1962415843010C000440196E
:10016000514130BD30B504460020034600E05B1C21
:10017000934203D2E05CCD5C401BF8D030BDF8B5B3
:1001800002464A40D40F42004B0052085B089A4294
:1001900002D20246084611464A0023D0C30D4A0047
:1001A000DDB2120EAD1A202D35DA49020126490AB8
:1001B000F6058A19002C00D0524220214F1B11460F
:1001C000B9402A411018C20D9A4221D0002C17D0F4
:1001D000012D08DCDA05801AD20F8019D207DBB2B4
:1001E00000F0E3FAF8BDDA05801A012340001B068F
:1001F000C01880185A428018CA0F1043490007E0FF
:100200004908C2071143DA05801A8019400880188E
:1002100000F0C3FAF8BD61000122511A001BF7E794
:100220000122D2075140AAE70122D2075040A6E797
:10023000024670B54A40D30FDB0740002DD04A007C
:100240002AD0010E140E000212020919400A520AA5
:100250008418E50104465443000A120A2E04504350
:10026000A4194219200CC543AA18120C0125AD038C
:10027000521C521912047F39240400D0521C10431E
:1002800001D44000491EC2B20C06C0092018401C0F
:100290004008802A02D003E0002070BD40084000E2
:1002A000002900DA0020184370BD70B502464A40AC
:1002B000D50F40004A00ED0740085208002814D02E
:1002C000002A12D0C40DD30D41020120C0055202F4
:1002D000490A520AE41A091812187D34914201D3CE
:1002E000641C00E04900002C01DA002070BD0023EE
:1002F000914201D3891A0343400849000028F7D1ED
:1003000000290AD0914202D10121C90705E091429A
:1003100001D2012101E00121C943E005C0184019C3
:1003200000F03BFA70BD0000F0B5074608465840A3
:1003300087B0C00F049048000E4659004008490895
:10034000BC1A884105D2384631461E4617460B4630
:1003500002465800400810434CD0300D0390400531
:100360005900400D490D0590401A0290402872DA5C
:1003700018030121000B090508430190049800921D
:10038000002805D001995242002088410092019036
:10039000029840210A1A0199009800F0DBF90546FD
:1003A0000C466B4607CB00F0E5F9C0197141039A82
:1003B0000E0D0023D71756401A467A40164344D0F4
:1003C000049A002A2DD0029A012A039A15DC1205FC
:1003D000C01A914101263605001C7141D20F059EBD
:1003E000D2070093019202962A46234600F023FA90
:1003F00007B0F0BD38463146FAE71605224A0F46E7
:10040000B218C01AB74101210905001C4F4100185C
:100410007F41114618187941E20F10436D1964416C
:1004200013E0E2076D0815436408C2071443039AFA
:1004300001261205C01A91413605001C7141CE07F4
:10044000400830434908C01851412A46234600F06D
:10045000E5F9CDE7FFE7049801224000C117121A21
:1004600000238B4104983146C417381AA141EEE7A6
:1004700030B40124E407634030BC55E730B40124B4
:10048000E407614030BC4FE70000E0FFF0B51FB467
:1004900088B00B990998002448400999C00F490079
:1004A00049080991C0070B990090490049080B9130
:1004B00009990898A64608431CD00B990A98084346
:1004C00018D0099801244000420D4800410D0998B8
:1004D00024050003000B204309900B980003000B38
:1004E00020430B9050181C494018002201901446DC
:1004F000104605E0002001460DB0F0BD032801DAEA
:10050000034600E003239C46C11A0AAE0AE05F00DE
:1005100008ADED5B4F00F75B7D430027AA187C41D7
:10052000491C5B1E6145F2DD410004AB5A522104B7
:10053000120C0A43240C401C0828DFDB01980290AF
:100540000099704601910090059B049A07990698BE
:1005500000F071F9D0E700000DFCFFFF0122D20787
:10056000002800DB101A002900DB511A814201D853
:1005700001207047002070470122D207002800DBCD
:10058000101A002900DB511A814201D20120704764
:10059000002070470122D207002800DB101A002932
:1005A00000DB511A814201D10120704700207047C1
:1005B000C217C10F504010B54018CA07962300213A
:1005C00000F0F3F810BD10B500229623114600F09C
:1005D000ECF810BDC20F410040020123400ADB05C8
:1005E000D207090EC0187F2901DA0020704796292A
:1005F00003DC9623591AC84001E096398840002A46
:10060000F4D040427047C20FD207400040080BD0E0
:10061000C10D0723DB01C91840020905400A114337
:10062000C208400711437047002001467047CB0FB6
:10063000DB07490010B5490802460A4307D00A0DF6
:1006400007240903E401090B121B002A01DC002026
:1006500010BDC900440F0C43C100E018D20580183A
:1006600000F09BF810BD70B50446002903D00020AF
:100670002022012310E0002801D00020C043C04602
:10068000C0460DE02546D5408D4205D30D46954028
:10069000641B1D46954040191546521E002DF1DC85
:1006A000214670BD70B5002504462E46002911D0A4
:1006B000002C01DA01254442002901DA01264942D1
:1006C0002046FFF7D0FFB54200D04042002D00D0B9
:1006D000494270BD002C02DA0121C90702E0002C5A
:1006E00000DD03490846C046C046214670BD0000F3
:1006F000FFFFFF7FF0B51FB40646002082B005461D
:100700004024019100901BE0019922460F4630469B
:1007100000F0D2F9049A059B801A994110D3104633
:100720001946224600F016F8361A8F4101972246E4
:1007300001200021009F00F00DF838184D41009075
:100740002046641E0028DFDC019B009829463246C3
:1007500007B0F0BD10B5202A04DB0146203A9140D5
:10076000002010BD914020239C1A0346E34019430A
:10077000904010BD10B5202A06DBCB170846203A62
:100780001041C1170B4306E00B461341D040202413
:10079000A21A91400843194610BD002904DA401CF2
:1007A000490001D140084000704770B40024050C96
:1007B00005D11024000402D1002921D01124050EF6
:1007C00001D100020834050F01D10001241D850F5D
:1007D00001D18000A41C002801DB4000641C00291A
:1007E00008D020252E1B0D46F540A14000D0012148
:1007F0002943084301061B1B000ADB1D02D500200C
:1008000070BC7047DB05181880180029F8DA401C06
:100810004900F5D170BC40084000704710B5002B6E
:1008200008DA0024401C614192185B411A4301D14F
:100830004008400010BDF0B51FB482B005460C0062
:1008400003D0084605F0E4FD02E005F0E1FD2030AC
:100850000246009021462846FFF77CFF049B059A3C
:1008600004460F4618431143084314D0184610435A
:100870001BD0009840210A1A1846059900F01CF96F
:1008800005460E46009A05990498FFF763FF084352
:1008900005D0012004E02046394607B0F0BD002015
:1008A000C11705430E432C43374300990E98630547
:1008B000401A7905E40A00220C43FD0A0A3002D5E9
:1008C00000200146E9E70105101969410C9C0D9DC6
:1008D00000196941FFF7A2FFDFE70000F0B50C4601
:1008E0005C4085B0E40FE40703944C0000266408E4
:1008F00059009446490802460296224321D0624696
:100900000A431ED06200570D4A000E032303550D03
:10091000012402462C492405781B1B0B360B40187A
:1009200023432643614600901C46501AB44103D32A
:100930000098401C009002E0921800985B4100284B
:1009400003DA0020014605B0F0BD002001210905B1
:100950000746864611E064461D46141BB54106D382
:100960006546521BB341744607430C43A646CD0768
:1009700040084908284392185B4105460D43EAD1D7
:100980001046184313D06046194650407140084342
:1009900006D06046101AB34106D20122002306E0B9
:1009A00000220123DB0702E00122D243531000980A
:1009B00074460105381C6141029C039D0019694180
:1009C000FFF72CFFBFE70000FD03000070B54B00F0
:1009D0005B0803430BD04B005C0D00263346654299
:1009E000B341D417AD1AA34102DB0020014670BD0C
:1009F00012053018514170BD4A0009030123090B4B
:100A00001B0519430A4B10B5520D9A4202DA002019
:100A1000014610BD064B34339A4203DC9A1A00F0AB
:100A20004BF810BD034BD218FFF794FE10BD000029
:100A3000FF030000CDFBFFFF10B5002904DB0124FC
:100A4000E40740428C412146002B04DB1C46012375
:100A5000DB075242A3418B4200D1824210BD00000D
:100A600010B5002904DB0124E40740428C412146F3
:100A7000002B04DB1C460123DB075242A3419942B1
:100A800000D1904210BD00001CB5094800900948F3
:100A9000019005460126009C05E0E36807CC33433E
:100AA0000C3C98471034AC42F7D3FFF70DFB000025
:100AB000748E0000948E000010B5202A04DB0846D6
:100AC000203AD040002110BD0B46D340D040202416
:100AD000A21A91400843194610BDFEB500231A46DC
:100AE0001B1A8A4103DB0020014603B0F0BD4A0017
:100AF0000D0301212D0B0905520D0D43D10702D124
:100B000000186D41521E5110FF31FF310131002795
:100B100004463E46384600970191024601210020D6
:100B20000905FFF7C9FFC3197141F8183246844619
:100B30008E464A4161462846611A904104D3604678
:100B4000241A954176461F46241900986D41401C91
:100B500000903428E1DDF91930467041091BA841A5
:100B600003D20022D243134601E00022134601982B
:100B70000105381C7141FFF751FEB6E782B00190C4
:100B80000199881E001F00BFFCD2009002B0704780
:100B900084B003900291019203980068009000983D
:100BA00001998843009000980299019A11400843E6
:100BB0000399086004B0704784B0039002910192D9
:100BC000039800680090009801998843009000986D
:100BD0000299019A114008430399086004B07047D4
:100BE00084B00390029101920398006800900098ED
:100BF00001998843009000980299019A1140084396
:100C00000399086004B0704784B003900291019288
:100C1000039800680090009801998843009000981C
:100C20000299019A114008430399086004B0704783
:100C300084B003900291019203980068009000989C
:100C400001998843009000980299019A1140084345
:100C50000399086004B0704782B001900091009B36
:100C60000199C44A88581843885002B07047C0465A
:100C700082B001900091009B0199BE4A88581843A8
:100C8000885002B07047C04682B001900091009831
:100C9000019995225201885002B0704782B00190AC
:100CA00000910098019995225201885002B0704736
:100CB00082B00190009100980199952252018850CC
:100CC00002B0704782B0019000910098019995227E
:100CD0005201885002B0704782B001900091009894
:100CE000019995225201885002B0704781B000905E
:100CF00000988100684A885801235B061843885091
:100D000001B0704781B0009000988100624A885815
:100D100001235B061843885001B0704782B00190F0
:100D20000091009B0199034A88581843885002B0EB
:100D30007047C0462810000082B0019000910098D2
:100D40000199074A885002B07047C04682B00190AE
:100D5000009100980199024A885002B07047C0463D
:100D6000D012000081B0009000990120C2029D487D
:100D7000885001B07047C04682B001900091019840
:100D8000024940580099084002B0704738100000EE
:100D900081B00090009881003F4A0D48885001B012
:100DA0007047C04610B584B0069C03900291019232
:100DB0000093029801990843009908430699084353
:100DC0000349084303998900334A885004B010BD91
:100DD0008100040081B00090009881002E4A81209B
:100DE000885001B07047C04681B0009000988100E3
:100DF000294A8120885001B07047C04682B00190D6
:100E0000009100981D49084301998900224A8850A1
:100E100002B0704710B584B0079C069C0390029105
:100E2000019200930298019908430099084306999A
:100E30000843079908431149084303998900164A52
:100E4000885004B010BDC04610B584B0079C069C05
:100E5000039002910192009302980199084300992E
:100E6000084306990843079908430449084303992E
:100E70008900094A885004B010BDC04680000400B3
:100E800082B0019000910098802108430199890067
:100E9000014A885002B070470480424082B00190FD
:100EA000009101982721C90140580099084002B0DB
:100EB000704782B00190009101982721C9014058E4
:100EC0000099084002B0704782B0019000910198EB
:100ED0002721C90140580099084002B0704700001E
:100EE00081B000900099934A9348885001B07047B0
:100EF00082B001900091009801990C4A885002B08C
:100F00007047C04682B00190009100980199074A4D
:100F1000885002B07047C04682B00190009100989E
:100F20000199024A885002B07047C04690120000F2
:100F300082B001900091009B01999D204201885848
:100F40001843885002B0704782B001900091009819
:100F50000199024A885002B07047C046B0120000A2
:100F600082B00190009100980199024A885002B025
:100F70007047C0464810000081B0009000990920D9
:100F80004202885801231B021843885001B0704761
:100F900081B000900099084A88580123184388506E
:100FA00001B0704781B000900099034A885804232B
:100FB0001843885001B070472812000081B000909B
:100FC00000990120C2020748885001B07047C0460E
:100FD00081B0009000990120C2020248885001B0FF
:100FE0007047C0460100002680B584B0039002918E
:100FF00001A80280694600200880FFE76846008853
:1010000001A90988884215DAFFE7039800F06AF819
:10101000002808D1FFE7039802996A461288895C84
:1010200000F030F900E005E0FFE70098401C694659
:101030000880E3E76846008804B080BD80B582B0D0
:101040000190019800F008F9FFE7019800F03AF8E4
:10105000002801D1FFE7F8E7019800F007F902B096
:1010600080BD000081B0009000980249405801B056
:101070007047C0461812000082B00190009101989C
:10108000024940580099084002B0704730100000F3
:1010900082B0019001980449405802210840009014
:1010A0006846007802B070473412000081B00090AA
:1010B0000098124940580F2108404142484101B070
:1010C0007047C04681B0009000980C4940580F21ED
:1010D00009020840024940184142484101B07047A6
:1010E00000F8FFFF81B000900098044940580F219C
:1010F000090208404142484101B070473C120000DB
:1011000081B00090009802494058C0B201B07047C9
:101110001C12000081B000900099064A06488850D1
:1011200001B0704781B000900099024A024888508F
:1011300001B0704704080000030000B181B00090C6
:101140000099434A0020885001B0704780B584B0B0
:10115000019101460198039102A908800398092290
:1011600052028018098803225202FFF711FD04B0D1
:1011700080BD000080B582B00190009101980949BE
:101180004018009909780C22FFF73EFD01980121D3
:1011900009034018009949780722FFF735FD02B08E
:1011A00080BDC0460410000080B584B001910146A6
:1011B0000198039102A908800398314A8018098890
:1011C00007221202FFF7E4FC04B080BD80B584B0B2
:1011D000019101460198039102A908700398284AD9
:1011E000801809780722FFF7D3FC04B080BDC04601
:1011F00082B001906846017000780199014A8850D8
:1012000002B070472412000010B586B00192024669
:1012100001980592049103AA107002A80380059812
:10122000094940180499490012781143074AFFF709
:10123000FFFC05980649401802990904C91D054A92
:10124000FFF7F6FC06B010BD10120000FF0700000B
:10125000141200000700FF0F81B000900099084AA7
:10126000885880231843885001B0704781B000909F
:101270000099034A885880239843885001B07047EA
:101280003812000082B00190684601700078019920
:1012900091225201885002B0704782B00190684696
:1012A00001700078019991225201885002B0704774
:1012B000F0B584B001242202344B196803929143A3
:1012C000196062490D686D04FCD5457E25409E6914
:1012D000A64374199C612024045D03252C40DE691B
:1012E000AE433419DC611F4C256805262660466A2A
:1012F00037681F6276685E6207262E402660C469E2
:101300007F252D02DE69AE436406640C3419DC616E
:101310000768456882680092C6680269019242695E
:1013200002929A69104C14403A07120B2D03ADB289
:10133000AA183243009D2D072D0D1543019A154320
:10134000029A1543007E2843084A0240101998610A
:101350001868039A1043186008688005FCD504B02B
:10136000F0BDC046001340408D00F0FF72FF0F003B
:1013700006490868012290430860704703490868DD
:1013800001221202904308607047C04608010B40DA
:101390002D49086801221203104308607047C046B7
:1013A00081B0009000980349086003490348086031
:1013B00001B0704700030B4004030B40010000E440
:1013C00081B001466846017000780249086001B0AA
:1013D0007047C04608030B4080B582B0014601A8A3
:1013E000018001880F2002021748FFF7D1FB02B0ED
:1013F00080BDC04680B582B0014601A80170017869
:1014000002480322FFF7C4FB02B080BD00010B407D
:1014100080B582B0014601A8017001780A483022E7
:10142000FFF7B6FB02B080BD074988600748026835
:101430009202FCD5012212040B6813430B60016871
:10144000C906FCD57047C04604010B4004020B409E
:1014500009490868052210430860704781B0009070
:101460000549042008600098401E044908600449AA
:101470000020086001B0704710E000E014E000E0D8
:1014800018E000E080B58CB00B900A910A98407982
:10149000C00700285CD0FFE70A9800790790002871
:1014A00004D0FFE7079820280CD018E00B9888217B
:1014B0000691022200F0B8F906990B98032200F079
:1014C000B3F919E00B98212109010591022200F0DE
:1014D000ABF905990B98032200F0A6F90CE00B98E4
:1014E0000521C9010491022200F09EF904990B988C
:1014F000032200F099F9FFE70B98002202920223E1
:101500000193114600F0AAF9029A0B980323039362
:10151000114600F0A3F90199029B0B98009119461E
:101520001A4600F0D3F9029B03990B9800911946D3
:101530001A4600F0CBF9019B029A0B98114600F075
:10154000ABF9029A039B0B98114600F0A5F9FFE74F
:101550000A98006808900A98007908A908710A9802
:10156000807948710B9800F031F80CB080BD000014
:1015700081B000900099024A0120885001B0704764
:101580000811000082B001900091009B0199034A6C
:1015900088581843885002B07047C0462810000091
:1015A00081B0009000990120C2020248885001B029
:1015B0007047C0460100002681B00090009881214C
:1015C00049014058C0B201B07047000080B58AB0F0
:1015D00009900891089800790790002804D0FFE747
:1015E0000798202812D029E0099808990968491E0F
:1015F00000F0C6F9099888210691002200F014F93C
:1016000006990998012200F00FF92AE00998089933
:101610000968491E00F0B4F909982D490491002287
:1016200000F002F9049909980122059200F0FCF8F3
:1016300005990998490700F095F912E00998089969
:101640000968490800F09CF909980521C90103912E
:10165000002200F0E9F803990998012200F0E4F86B
:10166000FFE709980023019319461A4600F0F6F89F
:10167000019A099801230293114600F0EFF8019BAB
:101680000998009319461A4600F020F9019B029927
:101690000998009119461A4600F018F9019B09981B
:1016A00019461A4600F0F8F8019A029B099811466B
:1016B00000F0F2F80998BD494018089A117952795A
:1016C000114302221143034AFFF78AFA0AB080BD90
:1016D00001040000BFFF003080B584B00390029188
:1016E00003980299496800F04BF90298007801903C
:1016F000222856D80198810001A040588746C0464C
:1017000099170000A317000099170000A317000005
:10171000A3170000A3170000A3170000A3170000E1
:10172000A3170000A3170000A3170000A3170000D1
:10173000A3170000A3170000A3170000A3170000C1
:101740008D170000A31700008D170000A3170000DD
:10175000A3170000A3170000A3170000A3170000A1
:10176000A3170000A3170000A3170000A317000091
:10177000A3170000A3170000A3170000A317000081
:101780008D170000A31700008D170000039801219A
:10179000490700F0E7F805E00398002100F0E2F8BF
:1017A00000E0FFE70398029909690022009200F027
:1017B000ADF8009B03980299C9681A4600F04EF8EC
:1017C00002990878097A08430399784A885004B046
:1017D00080BDC04681B000900099AE4AAE488850A6
:1017E00001B0704782B001900091009801991122D8
:1017F0001202885002B0704780B584B00390029105
:1018000001A802700399224A891800910178009872
:101810008900401800900098029907229204FFF76F
:10182000DFF904B080BDC04680B584B0039002915A
:1018300001A802700399074A89180091017800985D
:1018400089004018009000980299034AFFF7C8F9F0
:1018500004B080BD70180000DB06C00F10B586B064
:1018600005900491039202A803700599084A89180B
:10187000019101780198890040180190019804991C
:10188000039A1143034AFFF7ABF906B010BDC046F7
:10189000301800007777020010B586B005900491EB
:1018A000039202A8037005993122D201891801918F
:1018B0000178019889004018019001980499039AD1
:1018C00011438F22FFF78CF906B010BD10B587B019
:1018D0000091044600980999069405900492039398
:1018E00002A801700699084A8918019101780198A7
:1018F000890040180190059804990843039908430A
:101900000199086007B010BD5018000084B0039022
:10191000029101A802700399064A89180091017882
:10192000009889004018009002980099086004B05F
:101930007047C0461018000082B0019000910098D6
:1019400000780199704A88500098407801990122E6
:1019500012038850009880780199864A885002B016
:101960007047C04680B582B00190009101980F4940
:101970004018009903221207FFF732F902B080BD28
:1019800082B00190009100980199024A885002B0FB
:101990007047C0460818000081B000900099034AC3
:1019A000885801231843885001B07047041800007C
:1019B00081B00090009911200202885801239843B9
:1019C000885001B0704781B0009000991120020248
:1019D000885801231843885001B0704781B00090A7
:1019E000009911200202885801235B041843885093
:1019F00001B0704781B00090009911200202885810
:101A000004231843885001B07047000081B0009053
:101A100000990120C2020248885001B07047C046B8
:101A20000100002680B582B0019000910198FFF777
:101A3000BFFF0198112109024018009A118893787C
:101A4000194392881143084AFFF7B6F801982549CF
:101A50004018009A9179D3791943127A11437E2262
:101A6000FFF7AAF802B080BD1867020081B00090AD
:101A70000098034940580121084001B07047C04612
:101A80000811000081B000900099024A0248885075
:101A900001B0704704080000030000B180B584B0B5
:101AA00003900291019203980B49401802990B4A46
:101AB000FFF76EF803980A49401801993F22FFF793
:101AC00067F80399074A8818895801221140FFF7DF
:101AD0005FF804B080BDC04610110000FFFF000099
:101AE000141100000411000082B0019000910098D0
:101AF00000780199044A88500098407801990122A1
:101B00001203885002B070470810000080B582B000
:101B100001900091019811210902401800990322B7
:101B2000D203FFF735F802B080BD000080B584B065
:101B3000019101460198039102A9087003980D4A8A
:101B4000801809787022FFF723F804B080BDC046E2
:101B500080B584B0019101460198039102A90870F3
:101B60000398044A801809780722FFF711F804B097
:101B700080BDC0460C11000082B001906846017023
:101B80000078019989225201885002B07047000004
:101B900080B584B003A90020087002AB01931870CF
:101BA00068207521012202F07FFE494804F020FCE4
:101BB00001980078682804D0FFE70320FFF7F0FBC6
:101BC000FFE703F001F9002871D1FFE7782004F066
:101BD000EDF8002804D1FFE73D4804F009FC03E0DC
:101BE00003A901200870FFE7782002F055FF0028C4
:101BF00004D1FFE7374804F0FBFB03E003A9012011
:101C00000870FFE7C82004F05BF8002804D1FFE764
:101C1000314804F0EDFB03E003A901200870FFE761
:101C200001F0A6FD002804D1FFE72C4804F0E0FBFA
:101C300003E003A901200870FFE7294802F052FEE3
:101C400002F00AF8002804D1FFE7264804F0D0FB90
:101C500003E003A901200870FFE7FF20743001F0C2
:101C6000F7FB002804D1FFE71F4804F0C1FB03E0A5
:101C700003A901200870FFE7C82001F005FF002834
:101C800004D1FFE7194804F0B3FB03E003A90120E6
:101C90000870FFE704F0FEFA012003F09DFE002823
:101CA00004D1FFE7124804F0A3FBFFE703E00320A1
:101CB000FFF776FBFFE703A80078002806D0FFE7D0
:101CC00002F0BAFE0320FFF76BFBFFE704B080BD14
:101CD000288E0000038E00006F8D0000188D00001C
:101CE0002C002020DD8D00004A8D0000958D000025
:101CF000B98D000080B582B0032041063F48FFF750
:101D00003BF83F4901910860112001053D48FFF76C
:101D100033F8014601983C4A1160C07880070028DA
:101D200013D5FFE7012081063448FFF7C2F80028E9
:101D300005D1FFE735490868401E086004E03349D3
:101D40000868401C0860FFE719E02D48C07840078C
:101D5000002813D5FFE7012041062848FFF7A9F81E
:101D6000002805D1FFE729490868401C086004E005
:101D700026490868401E0860FFE7FFE7FFE72248A2
:101D80008078C006002813D5FFE701200106E2484D
:101D9000FFF78FF8002805D1FFE71D490868401EAE
:101DA000086004E01A490868401C0860FFE719E071
:101DB0001548C078C007002813D0FFE701200105AF
:101DC000D548FFF776F8002805D1FFE710490868E5
:101DD000401C086004E00E490868401E0860FFE7E8
:101DE000FFE7FFE7032041060448FEF741FF11200B
:101DF0000105C948FEF73CFF02B080BD00000A4063
:101E00009005202000200A40940520207400202006
:101E10007000202010B584B003AC2080029101A88E
:101E200002800093002004B010BD10B584B003AC54
:101E30002080029101A802800093002004B010BD10
:101E400010B588B00191014601980A9C06AC21802A
:101E500005A90880049203AA138001200290069825
:101E6000400809781278049BC0B204F0DDF80290B3
:101E70000298002804D1FFE707A90020087003E0BA
:101E800007A901200870FFE707A8007808B010BD77
:101E900010B588B00091014600980A9C06AC2180DC
:101EA00005A90880049203AA138002AB01930120C4
:101EB00018700698400809781278049BC0B204F0A4
:101EC0003DF90146019801700078002804D1FFE730
:101ED00007A90020087003E007A901200870FFE7A8
:101EE00007A8007808B010BD80B582B0014601A8EF
:101EF0000180008801F028FA02B080BD80B5054855
:101F0000FFF7C6F8002803D1FFE702F095FDFFE7D1
:101F100080BDC04600000F40B0B586B001931446A6
:101F2000019A0B46014605A8017004A90B7003AB8A
:101F30001C700292534A12681469007840000978B4
:101F4000029A1B78C8250095A04706B0B0BDC046D0
:101F500010B588B00C46014607A8017006A90C70A0
:101F600005AC227004AA02921370464A12681469E2
:101F7000007840000978C822009203AA0123A047F4
:101F800002980078002809D0FFE703A8007805A987
:101F90000A78012191400843019008E003A80078E5
:101FA00005A90A780121914088430190FFE7019833
:101FB00003AA107033480068C46807A8007840007E
:101FC00006A90978C82300930123A04708B010BDD3
:101FD000B0B58AB014460D4601460E9A08A80170A5
:101FE00007A90D7006AD2C7005AC237004AB1A70F8
:101FF000244A12681469007840000978C8220092C7
:1020000003AA0123A047002833D1FFE706A80578DB
:10201000691CFF231A468A4005A90C78641BE41D3D
:10202000E3401A4302AB1A700A780821891A049A0D
:102030008A4004A90A7002780720821A0878D040E2
:10204000087002990398084003AA10700499039835
:10205000084310700B480068C46808A80078400066
:1020600007A90978C82300930123A04709A908708C
:1020700003E009A901200870FFE709A800780AB069
:10208000B0BDC0464000202080B582B0322001F0B3
:1020900081F8014601A801700078012806D1FFE708
:1020A00003490868424250410860FFE702B080BD22
:1020B0000800202080B582B0014601A80180008878
:1020C000002803D1FFE700F017F810E0094908885D
:1020D000401C088080B201A90988884206D1FFE728
:1020E00000F012F8034900200880FFE7FFE702B084
:1020F00080BDC0467800202080B501204102CC4838
:10210000FEF7CCFD80BDC04680B501204102C84825
:10211000FEF71AFF80BDC04600200A4080B582B09D
:10212000054B0193682075210122FFF7F5FE019808
:10213000007802B080BDC046A604202080B582B0E1
:10214000FFF7ECFF682804D0FFE70320FFF728F92A
:10215000FFE7022000F012F8032000F02DF8002025
:10216000019000F01AF8019800F04FF8019800F083
:102170003FF8019800F02FF802B080BD80B582B022
:10218000014601A801700078009068206B210222AE
:102190000323FFF71DFF02B080BD80B582B001466A
:1021A00001A801700078009068201C2104220223FD
:1021B000FFF70EFF02B080BD80B582B0014601A8D6
:1021C00001700078009068201B2104220223FFF791
:1021D000FFFE02B080BD80B582B0014601A801704B
:1021E0000378682037210122FFF7B2FE02B080BDDC
:1021F00080B582B0014601A80170037868206A2189
:102200000522FFF7A5FE02B080BD80B582B0014671
:1022100001A80170037868206B210622FFF798FE61
:1022200002B080BD80B582B001A900200870FFE730
:1022300001A8007807281EDCFFE769460020087027
:10224000FFE7684600787F280FDCFFE768460078E4
:10225000C1009648411801A8027800208854FFE781
:102260000098401C69460870EBE7FFE70198401CA6
:1022700001A90870DCE700F0DDF802B080BDC046BF
:1022800086B0034605A8037004AB197003A90A7051
:102290006A460021117000787F2805DCFFE704A85A
:1022A0000078402801DBFFE72DE004A90878C20888
:1022B0000720821A02AB1A700A78024001A90A703C
:1022C0000978411A012088406946087003A80078FF
:1022D00000280CD0FFE7009B05A80078C1007348D8
:1022E000411802A80278885C184388540BE0009BD0
:1022F00005A80078C1006D48411802A80278885CE2
:1023000098438854FFE706B07047C04680B582B056
:1023100000F06EF8782001F017F800F071F8AE20A8
:102320000021019100F0ADF90199D52000F0A9F943
:102330000199502000F0A5F90199A82000F0A1F919
:1023400001993F2000F09DF90199D32000F099F9FF
:102350000199084600F095F90199402000F091F9A3
:1023600001998D2000F08DF90199142000F089F970
:102370000199202000F085F90199022000F081F9EF
:102380000199A12000F07DF90199C02000F079F9B0
:102390000199DA2000F075F90199122000F071F925
:1023A0000199812000F06DF90199EF2000F069F9A1
:1023B0000199D92000F065F90199F12000F061F947
:1023C0000199DB2000F05DF90199302000F059F906
:1023D0000199A42000F055F90199A62000F051F9C7
:1023E0000199AF2000F04DF9FFF71CFF02B080BD4E
:1023F00080B5012081030E48FEF764FC80BDC04615
:1024000080B5012081030A48FEF77CFD80BDC046EF
:1024100080B50120C1030648FEF754FC80BDC046CC
:1024200080B50120C1030248FEF76CFD80BDC046A7
:1024300000200A4080B584B003A900200870FFE79F
:1024400003A8007807282FDCFFE70398B030C0B25C
:102450000021019100F015F90199084600F011F9E9
:102460000199102000F00DF9019802A90870FFE70A
:1024700002A800787F2811DCFFE702A80078C100DD
:102480000A48401803A90978405C012100F0F9F8D6
:10249000FFE70298401C02A90870E9E7FFE70398EC
:1024A000401C03A90870CBE704B080BD7A0020204F
:1024B00080B5012001070E48FEF704FC80BDC04630
:1024C00080B5012001070A48FEF71CFD80BDC0460B
:1024D00080B50120C1070648FEF7F4FB80BDC04669
:1024E00080B50120C1070248FEF70CFD80BDC04643
:1024F00000000A40B0B58AB004460E9809AD2C70B1
:1025000008AC217007A90A7006AA137005AA1070FA
:10251000089801AA107007982038087003A90020B5
:102520000870FFE703A8007806A90978884264DAF2
:10253000FFE706A800780C280CD1FFE707A8007871
:102540000C2141432F48401803A90978405C04A995
:1025500008700AE007A8007801012948401803A97B
:102560000978405C04A90870FFE702A90020087000
:10257000FFE702A80078072839DCFFE704A8007805
:102580000006002809D5FFE709A8007808A90978FE
:1025900005AA1278FFF774FE0AE009A8007808A9D6
:1025A000097805AA127853425A41FFF769FEFFE7FE
:1025B0000498400004A908700898411C08A80170FC
:1025C000007801A90978401A06A90978884208D13B
:1025D000FFE7019808A908700998401C09A908702C
:1025E00005E0FFE70298401C02A90870C1E7FFE779
:1025F0000398401C03A9087094E70AB0B0BDC04618
:1026000068860000F481000080B586B005AB1870C4
:1026100004A801700392FFE70398007800282ED0E9
:10262000FFE705A800787B2808DBFFE705A9002065
:1026300008700498103004A90870FFE704A8007817
:102640003B2808DBFFE705A90020087004A90870F3
:10265000FFF7E8FDFFE705A80290007804A90978D4
:10266000039A1278012300930C23FFF743FF02998A
:102670000598083008700398401C0390CCE706B01A
:1026800080BD80B584B003AA107002A801700078E4
:10269000002803D0FFE7FFF7C3FE02E0FFF7B8FE14
:1026A000FFE701A900200870FFE701A800780728CC
:1026B0001ADCFFE7FFF7FCFE03A8007800060028FD
:1026C00003D5FFE7FFF70CFF02E0FFF701FFFFE78D
:1026D000FFF7F6FE0398400003A90870FFE7019892
:1026E000401C01A90870E0E7FFF79AFE04B080BD26
:1026F000B0B5A8B026A801908148219000908148EB
:10270000814922AA27AB01F041F821980088C00531
:10271000002800D4F2E02298FDF74AFF9D21C90568
:102720000391FDF7C2FD7949149108602398FDF7E4
:102730003FFF0399FDF7B9FD754911910860249891
:10274000FDF736FF0399FDF7B0FD7249129108605D
:102750002598FDF72DFF0399FDF7A7FD0146119878
:102760006D4A139211600068032189070991FDF7F2
:102770005FFD139902461498059209680491016857
:102780000846FDF7FCFC12990968FDF751FD049914
:10279000024605980692FDF74BFD0699FDF7EFFC02
:1027A000FDF731FF04F044FB5C4A1F925C4B209321
:1027B000FDF76CFEFDF73BFF01461298594A116088
:1027C00001680A910846FDF7DAFC1399024614984D
:1027D0000B920968079101680846FDF7D0FC119932
:1027E00009680C91FDF724FD079902460B980892A1
:1027F000FDF71EFD0899FDF7C2FCFDF704FF024638
:102800000C980F920A4609991092FDF711FD0A994A
:1028100002460B980D92FDF70BFD0C9902460D98A0
:102820000E92FDF705FD0E99FDF7FAFC7F21C90513
:10283000FDF7A5FCFDF7E7FE02460F980B46109941
:1028400004F03EFD1F9A209BFDF720FEFDF7EFFEF2
:10285000119B129A139904461498334D2C601B68EF
:102860001693126819920068179009681B91FDF77A
:10287000DFFC1999024616981592FDF7D9FC1599B7
:10288000FDF77DFC01460846FDF779FCFDF7BBFE30
:102890001D90084616991E900846FDF7C9FC179929
:1028A00018900846FDF7C4FC1899FDF768FC1999C3
:1028B0001A900846FDF7BCFC01461A98FDF7B0FCDB
:1028C0001B991C900846FDF7B3FC01461C98FDF7C8
:1028D000A7FCFDF798FE02461D980B461E9904F0D2
:1028E000EFFC1F9A209BFDF7D1FD00220F4BFDF757
:1028F0001BFDFDF79CFE0E490860FFE728B0B0BD48
:10290000AC05202098052020A0042020380020209D
:10291000A0052020A4052020A80520206666666664
:1029200066A64C4088042020840420200000324009
:102930009C04202080B58EB00E2008210291FEF765
:102940009FFADA480C900421FEF7F6F902990F205D
:10295000FEF796FA02990C98FEF7EEF9002303931E
:10296000019300930321089118461A46FEF752FA84
:10297000039B089901930093012004901A46FEF7E7
:1029800049FA0398FEF7B2F90498FEF7AFF914205C
:1029900002210591FEF774FA05991520FEF72EFA2B
:1029A0002720FEF7F5F91920FEF714FA1E20FEF78E
:1029B00011FA1F20FEF70EFA0598FEF70BFA052014
:1029C0000790FEF707FA2520FEF704FA2620FEF707
:1029D00001FA2320FEF7FEF92220FEF7FBF936204C
:1029E000FEF7D6F93A20FEF7D3F92F20FEF7D0F9FB
:1029F0003320FEF7CDF9F148099018490691FEF70A
:102A000043F906990998FEF797F9079909988904F7
:102A1000FEF78EFA0899099849060A91FEF71CF903
:102A200009980A99FEF77AF90C98612149020B91ED
:102A3000FEF72AF90B990C98FEF77EF90C980849D5
:102A4000FEF776FA0C98112109050D91FEF704F9AD
:102A50000C980D99FEF762F90EB080BD00600390EE
:102A60000001010080B582B0124991480190FEF743
:102A700081FB019803214902FEF768FB0198FEF7EC
:102A80007BFA0198FEF75AFB01980921FEF7B0FB8B
:102A9000019800210091FEF799FB00990198FEF73B
:102AA00083FB0198FEF77EFA0198FEF771FA02B0F7
:102AB00080BDC0468E81000080B584B01B49C048EF
:102AC0000390FEF739FF03981949FEF7DBFC0398E2
:102AD000002201921146FEF719FF019B0398009313
:102AE00019461A46FEF7F2FE019A03981146FEF7C0
:102AF00083FE0199039801220292FEF707FF019BD2
:102B000002990398009119461A46FEF7DFFE0199D3
:102B1000029A0398FEF770FE0398FEF729FD0398CA
:102B20000321FEF75FFE04B080BDC0469081000027
:102B30009481000080B582B000200190FEF740FC37
:102B4000012000904002FEF747FC0198FEF752FC7E
:102B5000FEF70EFCFEF712FC0848FEF7A9FB10205A
:102B6000FEF756FCFEF714FC0198FEF75DFC00989A
:102B7000019900F05FFA02B080BDC0469C81000060
:102B800080B501200006FEF769FCFEF761FC80BD00
:102B900080B582B00849AD480190FEF7CDFE01989E
:102BA0000649FEF799FD01980121FEF7EBFC01981B
:102BB000FEF7DEFC02B080BDC4810000C8810000C9
:102BC00080B582B012493B480190FEF78DFF019815
:102BD0001049FEF727FF01980021FEF797FF0198A3
:102BE00015212D22FEF75AFF0198FEF7F7FE0198F6
:102BF0007021FEF79BFF01980221FEF7A9FF0198C3
:102C0000FEF7F8FE0198FEF7DEFE02B080BDC0467A
:102C1000DC810000DE81000080B500F015F8FFF7D0
:102C200089FEFFF787FFFFF747FFFFF7B1FFFFF7C9
:102C300019FFFFF7C5FFFFF7A3FF0249B8220020E5
:102C4000885480BDD404202080B586B05B480090B5
:102C5000FEF746F915480190FEF742F958480290F0
:102C6000FEF7B8FD79480390FEF7B4FD10480490D4
:102C7000FEF750FA0F480590FEF704FF0098FEF7A4
:102C800071F80198FEF76EF80298FEF789FC039838
:102C9000FEF786FC0498FEF791F90598FEF7B6FE5C
:102CA0001020FDF76BFF06B080BDC04600200A4033
:102CB00000000F400080104080B58EB00D900C9148
:102CC0000D9801281DDBFFE701200A9041043B48D5
:102CD0000B90FEF70DF90A990B980904FDF7E8FF30
:102CE0000C98012803DBFFE70C98099003E00C988F
:102CF00040420990FFE7099931480022FEF706FE9D
:102D00001CE00120079001042C480890FEF7F0F821
:102D1000079908984904FDF7CBFF0C98012803DBBD
:102D2000FFE70C98069003E00C9840420690FFE7FE
:102D3000069923480022FEF7E9FDFFE70C980128D9
:102D40001DDBFFE70120049041031C480590FEF7BE
:102D5000CFF8049905988903FDF7AAFF0D9801287B
:102D600003DBFFE70D98039003E00D9840420390CA
:102D7000FFE7039912480122FEF7C8FD1CE001207D
:102D8000019081030D480290FEF7B2F80199029874
:102D90004903FDF78DFF0D98012803DBFFE70D9830
:102DA000009003E00D9840420090FFE7009904482E
:102DB0000122FEF7ABFDFFE70EB080BD00000A4028
:102DC00000208640014800687047C04618E000E0D7
:102DD00080B582B01D48FEF7EFFB002834D0FFE736
:102DE0006420FFF767F9FFF74FF919490868404277
:102DF000184A1060184A1068184B186000201060BC
:102E0000086017480068002818D1FFE711480168DA
:102E1000714800F02BF840421249019108600F48B8
:102E200001680A2000F078F8014601984A420E49EC
:102E30000A6000680968FFF73FFF04E000210846C8
:102E4000FFF73AFFFFE7FFE702B080BD0040084010
:102E500070002020CC04202074002020D0042020EA
:102E6000080020207C0420208004202080B58CB025
:102E70000B900A910B980A99401A09904F480068E4
:102E8000049009980190224907910968401AFDF7BA
:102E90008FFB0146019803914A4909680291FDF7A9
:102EA00087FB01460298FDF7C3F90399024604988F
:102EB0000592FDF7BDF90599FDF761F906901548F2
:102EC00008900068FDF774FB0699FDF758F9FDF7C7
:102ED00081FB079A01460898016009991160006812
:102EE0003A49884204DBFFE70A493B4808600AE0A8
:102EF000084800683649884204DCFFE70549354840
:102F00000860FFE7FFE7034800680CB080BDC046DB
:102F1000900420208C04202080B58CB00B900A9166
:102F20000B980A99401A099024480068049009985F
:102F30000190234907910968401AFDF739FB0146C2
:102F4000019803911F4909680291FDF731FB014681
:102F50000298FDF76DF90399024604980592FDF772
:102F600067F90599FDF70BF9069017480890006876
:102F7000FDF71EFB0699FDF702F9FDF72BFB079AFB
:102F80000146089801600999116000680F4988425C
:102F900004DBFFE70C49104808600AE00A480068B3
:102FA0000B49884204DCFFE707490A480860FFE74D
:102FB000FFE7054800680CB080BDC0462400202013
:102FC000980420202800202094042020591B000071
:102FD000A7E4FFFFA8E4FFFF581B000081B00146F3
:102FE0006846017000214056002809D4FFE7684672
:102FF00001781F2001400120884002490860FFE756
:1030000001B0704780E200E081B00146684601707F
:1030100000214056002809D4FFE7684601781F20A8
:1030200001400120884002490860FFE701B0704775
:1030300000E100E070B582B0024601A80270009184
:1030400000214056002816D4FFE7002401A90857A4
:103050000322D3431840174A805809578C07E50EBE
:10306000FF24AC40A043009CA401E4B2AC40204348
:10307000194088501AE001A908780F242040083828
:103080000322D34318400A4A8058002549578D0728
:10309000EE0EFF25B540A843009DAD01EDB2B54051
:1030A00028432140083919408850FFE702B070BD1D
:1030B0001CED00E000E400E080B58AB009900891C2
:1030C00000200090069003A801F08EF80098079069
:1030D000FFE70798022856DCFFE7099807998A005E
:1030E000805808998958401AC1174840401AFDF77E
:1030F0005FFA8F21C905FDF7D8F802900798810083
:1031000003A840580021FDF745FA00281ED1FFE72B
:10311000029807998A0003A98958FDF7C6F81C4947
:10312000FDF72DF8019001980121C907884317493F
:10313000496AFDF713FA002807D1FFE70798012134
:103140008140069808430690FFE717E002980F4970
:10315000C969FDF711FA002808D1FFE702980B4969
:10316000096AFDF7FBF9002807D1FFE7079801215D
:103170008140069808430690FFE7FFE7FFE70798BE
:10318000401C0790A5E706980AB080BD4C8E000051
:10319000000080BF80B582B06946087001208104BC
:1031A0004148FDF77BFE002805D0FFE73F4908882E
:1031B000401C088003E03D4900200880FFE7012013
:1031C00081043948FDF76AFE002809D0FFE7384836
:1031D0000078002804D1FFE7354901200870FFE797
:1031E0003448007800281CD1FFE7314800780128D6
:1031F00008D1FFE730490878401C08702D490120AC
:103200000870FFE72C480078032809D1FFE72A4916
:10321000002008702949088001A9022008703FE0B9
:10322000FFE7012081042048FDF738FE002806D181
:10323000FFE71F49002008701E490870FFE71E487D
:103240000078012828D1FFE71C480188491C01802B
:10325000008869460978884210DDFFE71348008836
:1032600069460978884209DAFFE7134900200870A7
:103270001249088001A90120087011E00B4800885C
:1032800069460978884206DDFFE70B49002008708F
:103290000A490880FFE7FFE701A900200870FFE75F
:1032A00001A8007802B080BD00000A40B4042020CC
:1032B000BB042020B6042020BA042020B80420201B
:1032C00080B586B005900598C078C021084003A954
:1032D00008700598C0783F21084004A90870059837
:1032E0004078C007002819D0FFE704A80178C90872
:1032F00002AA1170007807210840401C01A908703B
:10330000F0480068002808D0FFE7EE48026802A8ED
:10331000007801A909789047FFE7FFE70598407812
:10332000000700280DD5FFE7E6484068002807D0D1
:10333000FFE7E448416803A8007880098847FFE771
:10334000FFE7002006B080BD80B582B0019000206C
:103350000090FFE700980749884208DCFFE70198E2
:1033600000F00AF8FFE70098401C0090F2E702B076
:1033700080BDC046E703000080B586B00590059883
:103380001E49884203D3FFE71D480590FFE70599D2
:10339000502048430590002000900490FFF712FD54
:1033A000014600980391029001A90870FFE7FFF71A
:1033B00009FD029002980399884204D9FFE701A908
:1033C00001200870FFE701A80078002807D0FFE778
:1033D00003980299401A0B494018049004E003989E
:1033E0000299401A0490FFE704980599884201D396
:1033F000FFE700E0DBE706B080BDC04634330300E2
:1034000033330300FFFFFF0080B582B0014601A8FF
:103410000170007800280AD0FFE769462020087074
:1034200028204870302088703820C87002E0064894
:103430000090FFE7054804216A4602F04FFD01F0C5
:10344000BFFF02B080BDC046A3A3A3A39E0A000095
:1034500080B58AB009A90591088006AA04920220C5
:103460001070CA205070E32090700920D07068203E
:10347000042102F033FD049A0598A32111700088FD
:103480004006002808D5FFE706A9C0204870C820DC
:103490008870C220C87005E006A9A3204870887013
:1034A000C870FFE709A80088C005800F002808D071
:1034B000FFE706A9C4200871CC204871C620887196
:1034C00005E006A9A320087148718871FFE706AAE4
:1034D000A320D0711072507275480A2102F0FEFCD0
:1034E00009A800888007002804D0FFE706A920204B
:1034F000087003E006A9D8200870FFE76D48012195
:1035000006AA02F0EBFC09A800888006002804D572
:10351000FFE7012000F0D8F803E0002000F0D4F825
:10352000FFE709A80088C005800F002820D0FFE72A
:1035300009A80088C00500280AD5FFE706A9B2201F
:1035400008708B204870B62088709B20C87009E0F6
:1035500006A9B020087080204870B42088709020A0
:10356000C870FFE75448042106AA02F0B7FCFFE741
:1035700009A80088C007002826D0FFE706AAF8207F
:1035800010708B2000010121039102F0A7FC07209D
:103590000290FA2100F0C6FC029800F06DFC03983E
:1035A00000F09DFC642000F0D9FD7D20800000F03B
:1035B000EDFD4248C82100F00BFC282000F02AFC59
:1035C0000A2000F040FC08E006AAD82010708B20EA
:1035D0000001012102F082FCFFE709A800888007B2
:1035E000002804D5FFE706A9D920087003E006A942
:1035F000D8200870FFE73248012106AA02F06EFCCD
:1036000009A800884007002804D5FFE7012000F042
:103610008BF803E0002000F087F8FFE709A8008896
:10362000C006002804D5FFE70120FFF7EDFE03E008
:103630000020FFF7E9FEFFE7099808210843CE497B
:103640000191488101F0BCFE01990020887309A80E
:1036500000884006002805D5FFE7C749887B801D04
:103660008873FFE709A80088C005800F002805D0EF
:10367000FFE7C149887B801D8873FFE709A80088A0
:103680001421084205D0FFE7FE49887B103088737B
:10369000FFE709A800888007002805D0FFE7F9495F
:1036A000887B001D8873FFE700200AB080BDC046FC
:1036B000A70A0000B60A0000A20A000009E3CA0235
:1036C0003D070000BC04202080B588B0014606A854
:1036D0000170007800280ED0FFE703AA5D20107269
:1036E0000F4804900F4803909720C000092102F072
:1036F000F5FB07900DE06A46C7201072064801905E
:10370000064800909720C000092102F0E7FB0790CF
:10371000FFE7079808B080BDB088C3C5B8AAAAAAB9
:10372000B4980D35B8AAB38D80B582B0014601A812
:103730000170007800280AD0FFE76946C0200870B1
:10374000C2204870C4208870C620C87002E00648B5
:103750000090FFE7054804216A4602F0BFFB01F034
:103760002FFE02B080BDC0468B8B8B8B980A000069
:1037700080B50449012082020348C82301F02EFCD1
:1037800080BDC04698750000F60B000010B594B0DF
:10379000179C169C1290119110920F9306A900206D
:1037A000087016990880DD48807B179A07A901F0F8
:1037B0002FFD002804D0FFE70020C0431390D7E07E
:1037C000D6484089142108426CD0FFE707980006CC
:1037D00007A900914A78120480188A78120280188A
:1037E000CA788018109A1060089800064A79120466
:1037F00080188A7912028018CA798018109A50604D
:10380000099800064A7A120480188A7A12028018EF
:10381000CA7A8018109A90600A9800064A7B1204AF
:1038200080188A7B12028018C97B40181099C860E2
:103830000698103006A9087010980221405E029088
:1038400010980621405E039010980A21405E049073
:1038500010980E21405E0590029840430399494319
:10386000401804994943401805994943401801906C
:1038700001980F210906884205DBFFE701983F49BF
:10388000884208DBFFE701F09BFD169900200880C5
:10389000C04313906CE0169908880122120210436D
:1038A0000880FFE7EA4840894006002823D5FFE763
:1038B00006A9087807AA1318105C00025B78C018E4
:1038C000119B18800878831898780002DB78C0185C
:1038D000119B58800878821810790002527980185C
:1038E000119A90800698801D087016990888082201
:1038F00010430880FFE7D6484089C005800F0028A4
:1039000023D0FFE706A9087807AA1318105C000265
:103910005B78C018129B188008788318987800028A
:10392000DB78C018129B5880087882181079000242
:1039300052798018129A90800698801D0870169906
:103940000888702210430880FFE7C148408980073B
:10395000002807D0FFE706A8017807A84018FFF75E
:10396000AFFCFFE70F9802F057FC00201390FFE731
:10397000139814B010BDC046BC04202001000011F3
:1039800080B58CB00B9001A8009001F01BF9009855
:103990000088C0030021039102900B99AC48028972
:1039A0009207120F8958089100894007002804D512
:1039B000FFE7089840420890FFE70B99A448028966
:1039C00052080C231A408958099100898006002862
:1039D00004D5FFE7099840420990FFE70B99FB489F
:1039E000028912090C231A4089580A910089C005DE
:1039F000002804D5FFE70A9840420A90FFE708989C
:103A0000C117029A039BFCF795FB8900800F4018B1
:103A100008900998C117029A039BFCF78BFB890059
:103A2000800F401809900A98C117029A039BFCF76F
:103A300081FB8900800F40180A9008A8C17805AA68
:103A40001170418851700899090A91700899D170D4
:103A5000C1791171C18851710999090A9171099946
:103A6000D171C17A1172408950720A98000A90721D
:103A70000A98D072A52080000C2102F02FFA0CB019
:103A800080BDC046BC04202080B588B0014606A891
:103A900001801D4905911D4904911D49039100882C
:103AA000C92804DBFFE70020C043079029E006A8EF
:103AB0000188C820FCF7D7FD411E02A8018040788C
:103AC0006A461070029850701248022102F006FAFD
:103AD000002804D0FFE70020C043079011E00E4803
:103AE0000C2103AA02F0FAF9002804D0FFE7002015
:103AF000C043079005E00698B449888100200790EC
:103B0000FFE7079808B080BDBBAFDFDFAAF1DFDFBA
:103B1000FEF2ABC416020000C10A0000BC04202063
:103B200080B588B006900699A84802899207120FBE
:103B30008958039100894007002804D5FFE70398BE
:103B400040420390FFE70699A048028952080C23DF
:103B50001A408958049100898006002804D5FFE79F
:103B6000049840420490FFE7069998480289120998
:103B70000C231A40895805910089C005002804D5F6
:103B8000FFE7059840420590FFE70398C117314AC7
:103B9000009200230193FCF7CDFA009A019B890063
:103BA000800F401803900498C117FCF7C3FA009ADD
:103BB000019B8900800F401804900598C117FCF7FD
:103BC000B9FA8900800F4018059003A8C17802AAAD
:103BD0001170408850700398000A90700398D0705C
:103BE0003D200001042102F079F9002804D0FFE70C
:103BF0000020C043079028E003A8C17902AA1170F1
:103C0000C08850700498000A90700498D070F52015
:103C10008000042102F062F9002804D0FFE70020B0
:103C2000C043079011E003A8C17A02AA117040892D
:103C300050700598000A90700598D0707B20C000E5
:103C4000042102F04BF90790FFE7079808B080BD08
:103C5000BC04202009E3CA02B0B588B006AB1880C6
:103C600003AC6C20A0705248208002A82C218170E7
:103C70005049018001AA762191704F4911806A460E
:103C8000662191704D4911801A8803210A40A55C74
:103C900005AA1570069DED06AD0F655D5570069D74
:103CA0002D06AD0F645D94701B880B40C45C04ABA3
:103CB0001C70069CE406A40F045D5C70069C240640
:103CC000A40F005D98703E4802F008F9002804D067
:103CD000FFE70020C043079066E03A48032104AAAA
:103CE00002F0FCF8002804D0FFE70020C043079052
:103CF0005AE0019805A9088001A880788870684674
:103D0000807804A988700098088006A80088400779
:103D100000280AD5FFE705980121084305AA10707D
:103D20000498084304A90870FFE706A800888006E5
:103D300000280AD5FFE705A94878012210434870FA
:103D400004A9487810434870FFE706A80088C0051A
:103D500000280AD5FFE705A988780122104388705A
:103D600004A9887810438870FFE71120800103219F
:103D700005AA02F0B3F8002804D0FFE70020C043F2
:103D8000079011E01048032104AA02F0A7F80028C8
:103D900004D0FFE70020C043079005E006980B49D8
:103DA000088100200790FFE7079808B0B0BDC04623
:103DB0004CCD00000CC9000036560000264600001D
:103DC000260400002A04000031040000BC04202066
:103DD00080B586B0059004A80190018005987D21EA
:103DE000C900FCF75FFC0146019800884843029037
:103DF00002A8C17803AA1170408850700298000A86
:103E000090700298D07057208000042102F066F86C
:103E100006B080BD80B584B0014603A80190018042
:103E200000880521FCF71FFC0146019801804078BD
:103E300002AA107003985070AD204000022102F0D9
:103E40004DF804B080BD80B584B0014603A8019050
:103E5000018000880521FCF706FC014601980180DD
:103E6000407802AA1070039850702B20C0000221E5
:103E700002F034F804B080BD80B582B0014601A8DC
:103E800001706A46002111700078C007002806D032
:103E9000FFE700983021084369460870FFE701A852
:103EA00000788007002806D5FFE700980C2108431A
:103EB00069460870FFE701A800784007002806D58A
:103EC000FFE700980321084369460870FFE72920AF
:103ED000C00001216A4602F001F802B080BD80B541
:103EE00082B0014601A801700078002804DCFFE7D9
:103EF00001A90120087009E001A80078052804DB69
:103F0000FFE701A904200870FFE7FFE70198401EC2
:103F10006A461070FF205030012101F0DFFF02B02F
:103F200080BD000080B58AB0024608A8027007AACA
:103F3000118000784007002806D0FFE707A8008816
:103F40008049884204DBFFE70020C0430990F5E088
:103F500007A80088FCF737FB7B49FCF7A6F904901B
:103F600005A8009000F0F6FD00980078801E0190F2
:103F70000E286BD80198810001A040588746C046A2
:103F8000BD3F00004D400000E13F00004D400000FB
:103F90004D4000004D400000054000004D40000035
:103FA0004D4000004D4000004D4000004D400000DD
:103FB0004D4000004D4000002940000004988D2134
:103FC000C905FCF735F9FCF705FB03A9088004983F
:103FD0006149FCF72DF9FCF7FDFA02A9088039E0E8
:103FE000049823214906FCF723F9FCF7F3FA03A907
:103FF000088004985749FCF71BF9FCF7EBFA02A973
:10400000088027E004988B21C905FCF711F9FCF71B
:10401000E1FA03A9088004984D49FCF709F9FCF777
:10402000D9FA02A9088015E0049845210906FCF791
:10403000FFF8FCF7CFFA03A9088004984349FCF77E
:10404000F7F8FCF7C7FA02A9088003E00020C04394
:10405000099073E003A8407806A908700398487097
:1040600002A8407888700298C87008A80078C00735
:1040700000281CD0FFE775208000022106AA01F06D
:104080002DFF002804D0FFE70020C043099055E031
:1040900006A8821C49208000022101F01FFF002891
:1040A00004D0FFE70020C043099047E0FFE708A8DD
:1040B0000078800700281CD5FFE73B20C0000221C4
:1040C00006AA01F00BFF002804D0FFE70020C04340
:1040D000099033E006A8821C2520C000022101F0CF
:1040E000FDFE002804D0FFE70020C043099025E032
:1040F000FFE708A80078400700281CD5FFE77720D5
:104100008000022106AA01F0E9FE002804D0FFE7A2
:104110000020C043099011E006A8821C4B208000BB
:10412000022101F0DBFE002804D0FFE70020C0439D
:10413000099003E0FFE700200990FFE709980AB023
:1041400080BDC04641060000000048430000C04456
:10415000000040450000C0450000404680B584B0E6
:10416000014603A8018000880521FCF77CFA01467E
:1041700002A80180407801AA107002985070EF20C8
:104180004000022101F0AAFE04B080BD80B584B0D9
:10419000014603A8018000880521FCF764FA014666
:1041A00002A80180407801AA107002985070ED209A
:1041B0004000022101F092FE04B080BD80B582B0C3
:1041C00001900091FFE70748FDF750FC002801D05F
:1041D000FFE7F8E701A801780248FDF7CDFC019858
:1041E00002B080BD00801040B0B588B0069036485F
:1041F000406800780D21042205AB02F011F8002878
:1042000003D0FFE7072007905BE005AA1078E023C2
:104210001840C008D178302421400909401804A969
:10422000087050781840C008D4780C252C40A40899
:104230000019487090781840C008D27803231A40BB
:104240008018887003A900200870FFE703A8007891
:10425000022833DCFFE703A8017804A8405C0028AB
:1042600007D1FFE7069903A8007882000020885054
:104270001FE0069903A80078820014488850FFE7E1
:1042800003A8027804A9885C401E88540006002810
:104290000ED0FFE70698029003A9097889000191E2
:1042A00040580B49FBF7C4FF019A02998850E7E791
:1042B000FFE70398401C03A90870C7E70020079098
:1042C000FFE7079808B0B0BD440020207B14AE3E45
:1042D0001D5A843F70B598B01690159114A80270BD
:1042E00011AB0120187000205870D9494868007837
:1042F0000968897C022201F0AFFF002804D0FFE7A3
:104300000020C04317902FE2C82001F079FF11ABC5
:1043100000201870CE49486800780968C97B0122DE
:1043200001F09AFF002804D0FFE70020C043179057
:104330001AE2C7494868007809684979012211AB37
:1043400001F08AFF002804D0FFE70020C043179047
:104350000AE2BF49486800780968897C012211ABEC
:1043600001F07AFF002804D0FFE70020C043179037
:10437000FAE1B749486800780968C97D012211ABA4
:1043800001F06AFF002804D0FFE70020C043179027
:10439000EAE1F7494868007809680979012211AB18
:1043A00001F05AFF002804D0FFE70020C043179017
:1043B000DAE111AB0C201870ED4948680078096803
:1043C0000979012201F048FF002804D0FFE700200E
:1043D000C0431790C8E10F2001F012FFE449886A3A
:1043E000407A11AB18704868007809688978012212
:1043F00001F032FF002804D0FFE70020C0431790EF
:10440000B2E1DB49886A007A11AB1870486800781D
:1044100009684978012201F01FFF002804D0FFE756
:104420000020C04317909FE114A80078002808D00E
:10443000FFE7CF48806A807AE021084311A908701D
:1044400005E0CB48806A807A11A90870FFE7C84967
:104450004868007809688979012211AB01F0FCFEF7
:10446000002804D0FFE70020C04317907CE114A887
:104470000078002808D0FFE7BD48806AC07AE021B4
:10448000084311A9087003E011A918200870FFE77C
:10449000B749486800780968C979012211AB01F071
:1044A000DBFE002804D0FFE70020C04317905BE14B
:1044B00014A80078002804D0FFE7C82001F0A0FE6F
:1044C000FFE711AB40201870F2494868007809688E
:1044D0000979012201F0C0FE002804D0FFE7002086
:1044E000C043179040E111AB78201870E949486843
:1044F000007809684979012201F0AEFE002804D055
:10450000FFE70020C04317902EE1322001F078FE33
:1045100011AB00201870DF494868007809684979B4
:10452000012201F099FE002804D0FFE70020C043DB
:10453000179019E1D749486800780968897A0222FA
:1045400011AB01F06DFE002804D0FFE70020C0434E
:10455000179009E11198000211A9497841180EA895
:10456000018000880C21FCF77EF810A908701699CC
:10457000002088601699486016990860159988602F
:1045800015994860159908600FA90870FFE70FA8F2
:10459000007810A9097888425CDAFFE7BD494868CD
:1045A00000780968C97A0C2211AB01F039FE0028A5
:1045B00004D0FFE70020C0431790D5E01198000217
:1045C00011AD0995697841180CA80180A9780902F4
:1045D000EA7889184180129909026A7989188180DC
:1045E0000023C45E159A1168091911600222865EC3
:1045F000159C6168891961600421465E159CA0685C
:104600008019A060A8790002EC7904190AA8048036
:10461000139C24026E7AA4194480AC7A2402ED7AA9
:1046200064198480C55E169C23685B192360845ED0
:10463000169B5A6812195A60425E1699886880184B
:104640008860FFE70F98401C0FA908709FE7C046DD
:1046500044002020169800900068C117020C09043D
:10466000891800048322029200230793FBF73CFD84
:10467000079B10AA06921278FBF736FD0099029A62
:10468000079B0860169801904068C117040C090444
:1046900009190004FBF728FD069A079B1278FBF71F
:1046A00023FD0199029A079B486016980390806841
:1046B000C117040C090409190004FBF715FD069A3B
:1046C000079B1278FBF710FD0399069A079B8860F9
:1046D000159804900068C117040C09040919000416
:1046E0006405C00A0019C9121278FBF7FDFC049991
:1046F000069A079B0860159805904068C117040C3E
:104700000904091900046405C00A0019C9121278C5
:10471000FBF7EAFC0599069A079B486015980890F4
:104720008068C117040C0904091900046405C00A53
:104730000019C9121278FBF7D7FC08998860159800
:104740008068012806DBFFE715998868094A801808
:10475000886006E015998868012212048018886034
:10476000FFE700201790FFE7179818B070BDC0460C
:10477000440020200000FFFF80B58AB00890079118
:1047800000200590F248406800780D21032204AB18
:1047900001F046FD002803D0FFE70720099075E0EF
:1047A00004A908781F22104008704878104048700B
:1047B00088781040887000200690FFE7069802284D
:1047C00061DCFFE7089806998A00805807998958A4
:1047D000401AC1174840401AFBF7EAFE8F21C9056D
:1047E000FBF763FD0290069904A8405C00282DD0D9
:1047F000FFE72A480390FFE7069A04A9885C401E59
:1048000088540006002806D0FFE703982549FBF7E7
:104810000FFD0390F0E702980399FBF746FD20494E
:10482000FBF7ADFC019001980121C90788431A49A3
:104830008969FBF793FE002807D1FFE7069801215D
:104840008140059808430590FFE717E00298124958
:104850000969FBF791FE002808D1FFE702980E498D
:104860004969FBF77BFE002807D1FFE70698012185
:104870008140059808430590FFE7FFE7FFE70698AA
:10488000401C06909AE705980990FFE709980AB03E
:1048900080BDC046440020204C8E00000000C8416E
:1048A000000080BF54E3853FB0B586B00193144645
:1048B000019A0B46014605A8017004A90B7003ABD1
:1048C0001C700292064A1268146900784000097848
:1048D000029A1B78C8250095A04706B0B0BDC04617
:1048E0004000202080B584B00390039800F019F8B0
:1048F00002A9019108800398C01C00F012F80199E8
:10490000C2000298104308800398801D00F009F847
:10491000014601988A01029911430180008804B080
:1049200080BD82B00190019800214056012804DB2F
:10493000FFE76946002008803AE0019800214056D0
:10494000002804D5FFE76946042008802FE001987D
:1049500001214056012804DBFFE769460120088059
:1049600024E0019801214056002804D5FFE769465C
:104970000520088019E0019802214056012804DB37
:10498000FFE76946022008800EE0019802214056A8
:10499000002804D5FFE769460620088003E0694641
:1049A00007200880FFE7FFE7FFE7FFE7FFE7FFE7F4
:1049B0006846008802B0704780B584B0002003903C
:1049C0000290FEF729F91748FCF7E6FF0120009056
:1049D000FEF704FB0098FEF701FB0098FEF714FBBE
:1049E0000098FEF711FB10200190FEF7F7FA0198EE
:1049F000FEF70AFBFDF78AFCFDF7A0FBFDF7C8F800
:104A0000FFE7FDF775FE0848016808480268084896
:104A100001F0EEFC074A02210846FDF7F5FDFDF71F
:104A200009FDEEE700208640CC042020D0042020A1
:104A3000738C00007C8C000080B584B003A900203A
:104A4000087001F0A9FAFFE71248019002210091D5
:104A5000FCF742F901200290FEF776FC00990198DC
:104A6000FCF75AFA0298FEF76FFC01980299FCF7DE
:104A70002BFA002801D0FFE708E0FFE70398401C6D
:104A800003A90870C0B26428DEDBFFE701F0A4FAD6
:104A900004B080BD00000A4080B584B002A908704F
:104AA000002000900878FE2210400870C54824219C
:104AB000405C002803D0FFE70020039045E0C14898
:104AC000807A002804D1FFE70020C04303903CE037
:104AD000BC48017C01AA11700299827A11400174CC
:104AE000007C02A90978884204D0FFE70020C04377
:104AF000009002E000200090FFE702A80078002864
:104B000005D1FFE7AF48007D002804D0FFE7012072
:104B100001F004FC03E0002001F000FCFFE702A824
:104B2000007800280DD0FFE700F04AFC002807D0ED
:104B3000FFE70198A34908740020C043039004E0F4
:104B4000FFE7FFE700980390FFE7039804B080BDFC
:104B50004400202083B001909A48407A00900328B6
:104B60001CD80098810001A0405887467D4B00006A
:104B7000854B00008D4B0000954B000001990220F1
:104B800008700FE00199042008700BE001990820DB
:104B9000087007E001991020087003E00020C0436E
:104BA00002900CE08748C07C002805D0FFE70199FF
:104BB000087840000870FFE700200290FFE70298A5
:104BC00003B0704783B001907E48407A009003287C
:104BD0001FD80098810001A040588746ED4B000087
:104BE000F74B0000FF4B0000094C00000199012029
:104BF0008003088011E00199104808800DE00199B8
:104C000001200003088008E001990120C00208800B
:104C100003E00020C04302900CE0EB48C07C002879
:104C200005D0FFE70199088840080880FFE70020C9
:104C30000290FFE7029803B07047C0469C1F000037
:104C400081B00090E048007C00990870002001B01D
:104C50007047C04682B00190DB48007A009003287C
:104C60001FD80098810001A0405887467D4C000065
:104C7000854C00008F4C0000994C00000199FA20EF
:104C8000088012E001997D20800008800DE00199E4
:104C90007D20C000088008E001997D200001088087
:104CA00003E0019900200880FFE7002002B0704770
:104CB00083B00190C448007A009003281CD8009863
:104CC000810001A040588746D94C0000E14C00000B
:104CD000E94C0000F14C000001990F4808600FE01A
:104CE00001990C4808600BE001990948086007E049
:104CF00001990648086003E00020C043029002E0EA
:104D000000200290FFE7029803B0704733338341DD
:104D100033330342000083420000034382B001901A
:104D2000F648C07A009007282DD80098810001A08D
:104D300040588746854D0000554D00005D4D0000F0
:104D4000654D00006D4D0000754D00007D4D00006B
:104D5000854D00000199BC20088018E0019962206F
:104D6000088014E001992A20088010E0019914209D
:104D700008800CE001990A20088008E001990520CC
:104D8000088004E0FFE7019900200880FFE7002089
:104D900002B0704782B00090D8482421405C0028BF
:104DA00004D0FFE70020C043019007E0D348C0894A
:104DB00000990880FFE700200190FFE7019802B00A
:104DC0007047C0464400202080B588B005AB8020E5
:104DD0001870CA49486800780968897C012201F086
:104DE0003BFA002804D0FFE70020C0430790E8E02A
:104DF000642001F005FA05AB00201870BF4948682F
:104E000000780968897C012201F026FA002804D084
:104E1000FFE70020C0430790D3E0FC4948680078D2
:104E20000968897D062205AB01F0FAF9002804D053
:104E3000FFE70020C0430790C3E005A94879C007F9
:104E4000400FCA78D207920F80184978012211408A
:104E5000411804A80170007800281DD0FFE704A8BD
:104E60000078012804D1FFE7E8490120C87412E066
:104E700004A80078022804D1FFE7E4490020C874A0
:104E800008E004A80178534801F0B2FA0020C043BA
:104E9000079096E0FFE732E0DC494868007809684F
:104EA000C978012205AB01F0BBF9002804D0FFE767
:104EB0000020C043079084E005A801780F2001403E
:104EC00004A801700078002807D1FFE73F4801F0EF
:104ED0008FFA0020C043079073E004A800780428EC
:104EE00007D1FFE73A4801F083FAC8490120C874A6
:104EF00003E0C6490020C874FFE7FFE7FFE7C349A6
:104F00000291FF2088720A46083208724872C872FD
:104F1000314BCB810874887401200873907600208F
:104F20000390D076487508750884C88388834883C1
:104F30000883C88210775077C8847D20000100F074
:104F4000A7FD002804D0FFE70020C043079038E009
:104F5000022000F0FFFB002804D0FFE70020C04340
:104F600007902EE02A2000F043FE002804D0FFE73F
:104F70000020C043079024E0322000F0A1FE00286A
:104F800004D0FFE70020C04307901AE00020FFF79D
:104F900083FD002804D0FFE70020C043079010E005
:104FA000002000F049FC002804D0FFE70020C043A7
:104FB000079006E00020019000F0F8FE01980790AD
:104FC000FFE7079808B080BD44002020858C0000D2
:104FD000D38C0000F28C0000FFFF000010B58EB0F3
:104FE0000CAC20800B910AA8028009A80380F3482A
:104FF0002521405C002804D0FFE70020C0430D902D
:1050000079E00B98002804D1FFE70120C0430D9000
:1050100071E00020019008A90880FFE708A8008837
:105020000CA90988884248DAFFE70CA8008808A97B
:105030000988401A112803DBFFE71020009006E0E2
:105040000CA8008808A90988401A0090FFE700987A
:1050500007A9088008A8008809880B9A121800F090
:105060003DFF002804D0FFE70220C0430D9042E03E
:1050700008A8008807A9098803AA00F04BF90028AE
:1050800004D0FFE70320C0430D9034E00B9808A93B
:105090000988401807A90A8803A9FBF763F80028C4
:1050A00004D0FFE70420C0430D9024E0FFE70799F8
:1050B0000898401808A90880B0E70AA8407802AB11
:1050C00018700A985870BD49486800780968897E48
:1050D000022201F0C1F8002804D0FFE70520C043F8
:1050E0000D9008E0B5492522012088540998C8840C
:1050F00000200D90FFE70D980EB010BD4400202059
:1051000080B586B0014604A801700078292804DB28
:10511000FFE70020C043059075E004A80078002850
:105120001DD1FFE70020029000F014FD029803ABB0
:10513000187007205870A149486800780968897C70
:10514000022201F089F8002804D0FFE70020C043C4
:10515000059058E0994900200875059053E001201A
:1051600000F0F8FC03A92020087004A800780128AA
:1051700007D1FFE703A900204870052000F038FDA3
:1051800020E004A80078052807DCFFE703A9012038
:105190004870052000F02CFD13E004A800781428C6
:1051A00007DCFFE703A9022048700A2000F020FD79
:1051B00006E003A903204870142000F019FDFFE762
:1051C000FFE7FFE703AB58788001C01D58707B49AB
:1051D000486800780968897C022201F03DF80028BF
:1051E00004D0FFE70020C04305900CE0FB4A0820F4
:1051F000907200200190107301211175FFF74CFC93
:1052000001980590FFE7059806B080BD4400202076
:1052100080B586B004AB188003910292EF48242138
:10522000405C002804D1FFE70020C04305906EE0F9
:10523000EA48807A002804D1FFE70020C0430590A7
:1052400065E0E649486800780968897A022201AB7E
:1052500000F0E6FF002804D0FFE70020C0430590DF
:1052600055E00198000201A949784118684601807B
:10527000008804A90988884206DAFFE7029900201D
:105280000870C043059042E068460088D3494968E9
:105290004988490888421DDDFFE7D0494868007801
:1052A0000968497C012201AB00F0BAFF002804D054
:1052B000FFE70020C043059029E001A80078C00660
:1052C000002806D5FFE700F07BF80120C0430590D9
:1052D0001DE0FFE7C149486800780968C97A04AA57
:1052E0001278039B00F09CFF002804D0FFE7002009
:1052F000C04305900BE06846008804A90988FBF7C5
:10530000B2F9401E0299087000200590FFE7059849
:1053100006B080BD80B586B004AB188003A80180BC
:1053200002920298002804D1FFE70020C0430590B4
:1053300040E0AA48807A002804D1FFE70120C0435A
:10534000059037E004A8417801A8017004994170E4
:10535000407803A909884018FC494968498988426E
:1053600004DDFFE70220C043059023E0F7494868C9
:1053700000780968097E022201AB00F06DFF002869
:1053800004D0FFE70320C043059013E0EF494868CD
:1053900000780968497D03AA1278029B00F040FF5B
:1053A000002804D0FFE70420C043059002E000205D
:1053B0000590FFE7059806B080BDC0464400202058
:1053C00080B582B0E148807A002804D1FFE7002050
:1053D000C0430190FEE06B4600201870DB4948682E
:1053E00000780968C97B012200F036FF002804D04C
:1053F000FFE70020C0430190ECE0D4494868007802
:105400000968497901226B4600F026FF002804D084
:10541000FFE70020C0430190DCE0CC4948680078F9
:105420000968097901226B4600F016FF002804D0B4
:10543000FFE70020C0430190CCE0FE482421405CFF
:10544000002861D0FFE76B460C201870F9494868C6
:10545000007809680979012200F0FEFE002804D0D6
:10546000FFE70020C0430190B4E06946C020087007
:10547000F048807AC007002806D0FFE70098202176
:10548000084369460870FFE7EA49486800780968F8
:10549000097901226B4600F0DFFE002804D0FFE707
:1054A0000020C043019095E0E248407C002804D0F1
:1054B000FFE769460220087003E069460020087093
:1054C000FFE7DC49486800780968C97B01226B4620
:1054D00000F0C2FE002804D0FFE70020C043019086
:1054E00078E06B4600201870D24948680078096857
:1054F0004979012200F0B0FE002804D0FFE7002027
:10550000C043019066E062E06B4604201870C94910
:105510004868007809680979012200F09DFE00289A
:1055200004D0FFE70020C043019053E0C148807CD5
:10553000002806D1FFE7BF48807AC007002804D1C1
:10554000FFE769464020087003E069466020087064
:10555000FFE7B849486800780968097901226B4675
:1055600000F07AFE002804D0FFE70020C04301903D
:1055700030E0B048407C002804D0FFE769460120B5
:10558000087003E0694600200870FFE7A9494868F1
:1055900000780968C97B01226B4600F05DFE002897
:1055A00004D0FFE70020C043019013E0A14B5868EE
:1055B0000078196849791033012200F04DFE002867
:1055C00004D0FFE70020C043019003E0FFE7002084
:1055D0000190FFE7019802B080BDC0464400202042
:1055E00080B594B01390129111A902200870F94867
:1055F0002421405C002807D0FFE7002000F0ECF9F0
:1056000069460120087003E0694600200870FFE742
:1056100003A8FFF71FFB06A8FFF79CFA01A8FFF7F6
:105620007DFB02A8FFF7B6FBEA48807A04A9087060
:1056300005A8FFF705FB00200890FFE70898012860
:105640000EDCFFE7139812990022FEF743FE0028B4
:1056500001D1FFE704E0FFE70898401C0890EDE760
:105660000898022803D1FFE7002007903EE00020C1
:105670000890FFE7089801280EDCFFE70EA80BA9A9
:105680000122FEF727FE002801D1FFE704E0FFE733
:105690000898401C0890EDE70898022803D1FFE71E
:1056A0000020079022E012980BA9FDF705FD0AA93A
:1056B000087013980EA9FFF75FF8014609A801705A
:1056C000002107910078002805D1FFE70798012104
:1056D00008430790FFE70AA80078002805D1FFE7F4
:1056E0000798022108430790FFE7FFE7E749FF20FB
:1056F00008724872C872164ACA81887208740120FA
:10570000087303A8008800F0C3F906A8007800F029
:1057100021F801A8008800F06BFA02A8008800F0C8
:10572000CFFA04A8007800F041FB05A80078FFF745
:10573000B3F968460078002804D0FFE7012000F0A4
:105740004BF9FFE7079814B080BDC0464400202005
:10575000FFFF000080B584B002A90870FC48807A81
:10576000002804D1FFE70020C04303905FE002A8B7
:105770000078801E00900E2832D80098810001A089
:1057800040588746C1570000E1570000C957000044
:10579000E1570000E1570000E1570000D157000039
:1057A000E1570000E1570000E1570000E157000019
:1057B000E1570000E1570000E1570000D957000011
:1057C00001A9002008700FE001A9082008700BE073
:1057D00001A91020087007E001A91820087003E053
:1057E0000020C043039022E0D948407A01A90978FB
:1057F000C908884203D1FFE70020039017E0FB4966
:10580000486800780968C979012201AB00F024FDDD
:10581000002804D0FFE70020C043039007E001A860
:105820000078C008F149487200200390FFE7039810
:1058300004B080BD4400202080B584B002A9087067
:10584000EA48807C0978884203D1FFE70020039072
:10585000BDE002A80078002853D0FFE7E34948687C
:10586000007809680979012201AB00F0D9FC002811
:1058700004D0FFE70020C0430390A8E001AB1878F4
:10588000DF2108401870D94948680078096809790B
:10589000012200F0E1FC002804D0FFE70020C04313
:1058A000039094E0032000F0ABFC01A902200870F3
:1058B000CE482221405C002806D0FFE701988021D5
:1058C000084301A90870FFE7FC482321405C002839
:1058D00006D0FFE701983021084301A90870FFE7CF
:1058E000F649486800780968097D012201AB00F09B
:1058F000B3FC002804D0FFE70020C043039066E01B
:105900005FE0EE494868007809680979012201AB37
:1059100000F086FC002804D0FFE70020C04303907D
:1059200055E0E648807AC007002806D0FFE70198D6
:105930002021084301A9087005E001A90878DF22A9
:1059400010400870FFE7DD49486800780968097968
:10595000012201AB00F080FC002804D0FFE700200A
:10596000C043039033E0032000F04AFCD3482221D7
:10597000405C002804D0FFE701A98020087003E004
:1059800001A900200870FFE7CC482321405C0028D3
:1059900006D0FFE701983021084301A90870FFE70E
:1059A000C649486800780968097D012201AB00F00A
:1059B00053FC002804D0FFE70020C043039006E01A
:1059C000FFE70298F749887400200390FFE70398E7
:1059D00004B080BD4400202080B588B006A90870BE
:1059E000F0482422805C0978884203D1FFE7002038
:1059F000079047E006A8007800282AD0FFE7E9488A
:105A00002521405C002804D1FFE70020C043079017
:105A100038E00020029000F081FC0298FFF70CFFB4
:105A2000E0480390C08C00F04BF90299039805AB55
:105A300019704068007823210122049200F00CFCC8
:105A4000039904982422885400F068FCFFF7B8FCFE
:105A500015E00020019000F061FCD2480090017C2C
:105A600005AB1970406800782321012200F0F4FB97
:105A70000099019824228854FFF7A2FCFFE7002038
:105A80000790FFE7079808B080BDC046440020207B
:105A900080B584B002A90880C248807A002804D169
:105AA000FFE70020C04303904EE002A8008800906A
:105AB000FA2812D0FFE700987D218900884210D093
:105AC000FFE700987D21C90088420ED0FFE70098CB
:105AD0007D21090188420CD00FE001A90020087047
