:020000040000FA
:1000000008152020D5000000D9000000DB0000000A
:1000100000000000000000000000000000000000E0
:10002000000000000000000000000000DD000000F3
:100030000000000000000000DF000000E100000000
:10004000E300000099130000E3000000E30000005B
:10005000E3000000E3000000E3000000E300000014
:1000600000000000E3000000E300000000000000CA
:1000700000000000E3000000E3000000E3000000D7
:10008000191E0000E3000000E3000000E300000090
:10009000E3000000E300000000000000000000009A
:1000A000E3000000E300000000000000000000008A
:1000B000E300000000000000E3000000E300000097
:1000C0000348854600F020FB00480047212300003C
:1000D0000815202003480047FEE7FEE7FEE7FEE79D
:1000E000FEE7FEE7C1000000F8B502464A40D40F23
:1000F00042004B0052085B089A4202D20246084670
:1001000011464A0023D0C30D4A00DDB2120EAD1ACB
:10011000202D35DA49020126490AF6058A19002CF4
:1001200000D0524220214F1B1146B9402A411018DD
:10013000C20D9A4221D0002C17D0012D08DCDA051F
:10014000801AD20F8019D207DBB200F0DEF8F8BDBA
:10015000DA05801A012340001B06C01880185A4295
:100160008018CA0F1043490007E04908C20711432D
:10017000DA05801A80194008801800F0BEF8F8BD32
:1001800061000122511A001BF7E70122D2075140FA
:10019000AAE70122D2075040A6E7024670B54A40BE
:1001A000D30FDB0740002DD04A002AD0010E140ED9
:1001B000000212020919400A520A8418E501044695
:1001C0005443000A120A2E045043A4194219200C69
:1001D000C543AA18120C0125AD03521C5219120472
:1001E0007F39240400D0521C104301D44000491E22
:1001F000C2B20C06C0092018401C4008802A02D058
:1002000003E0002070BD40084000002900DA002013
:10021000184370BDC217C10F504010B54018CA072F
:100220009623002100F071F810BDC20F410040027A
:100230000123400ADB05D207090EC0187F2901DA25
:1002400000207047962903DC9623591AC84001E024
:1002500096398840002AF4D04042704770B5044671
:10026000002903D000202022012310E0002801D023
:100270000020C043C046C0460DE02546D5408D4213
:1002800005D30D469540641B1D4695404019154603
:10029000521E002DF1DC214670BDF0B51FB406469C
:1002A000002082B005464024019100901BE0019996
:1002B00022460F46304600F04FFA049A059B801AFA
:1002C000994110D310461946224600F035FA361AE5
:1002D0008F410197224601200021009F00F02CFA57
:1002E00038184D4100902046641E0028DFDC019B39
:1002F00000982946324607B0F0BD002904DA401CB8
:10030000490001D140084000704770B40024050C3A
:1003100005D11024000402D1002921D01124050E9A
:1003200001D100020834050F01D10001241D850F01
:1003300001D18000A41C002801DB4000641C0029BE
:1003400008D020252E1B0D46F540A14000D00121EC
:100350002943084301061B1B000ADB1D02D50020B0
:1003600070BC7047DB05181880180029F8DA401CAB
:100370004900F5D170BC400840007047F0B5074611
:100380000846584087B0C00F049048000E465900F8
:1003900040084908BC1A884105D2384631461E46F5
:1003A00017460B4602465800400810434CD0300D0B
:1003B000039040055900400D490D0590401A0290E8
:1003C000402872DA18030121000B09050843019047
:1003D00004980092002805D00199524200208841DB
:1003E00000920190029840210A1A0199009800F0A9
:1003F000A3F905460C466B4607CB00F0BEF9C019C1
:100400007141039A0E0D0023D71756401A467A40C1
:10041000164344D0049A002A2DD0029A012A039A46
:1004200015DC1205C01A914101263605001C7141E8
:10043000D20F059ED2070093019202962A462346C8
:1004400000F0BBF907B0F0BD38463146FAE71605B3
:10045000224A0F46B218C01AB74101210905001CF3
:100460004F4100187F41114618187941E20F10439F
:100470006D19644113E0E2076D0815436408C20773
:100480001443039A01261205C01A91413605001C37
:100490007141CE07400830434908C01851412A46EF
:1004A000234600F07DF9CDE7FFE7049801224000E4
:1004B000C117121A00238B4104983146C417381A09
:1004C000A141EEE730B40124E407634030BC55E7B6
:1004D00030B40124E407614030BC4FE70000E0FF86
:1004E000F0B51FB488B00B990998002448400999C9
:1004F000C00F490049080991C0070B9900904900B5
:1005000049080B9109990898A64608431CD00B99F5
:100510000A98084318D0099801244000420D480069
:10052000410D099824050003000B204309900B9806
:100530000003000B20430B9050181C494018002268
:1005400001901446104605E0002001460DB0F0BDB4
:10055000032801DA034600E003239C46C11A0AAED1
:100560000AE05F0008ADED5B4F00F75B7D430027BD
:10057000AA187C41491C5B1E6145F2DD410004ABB9
:100580005A522104120C0A43240C401C0828DFDBB9
:10059000019802900099704601910090059B049A81
:1005A0000799069800F009F9D0E700000DFCFFFF5D
:1005B000F0B50C465C4085B0E40FE40703944C00B2
:1005C00000266408590094464908024602962243D0
:1005D00021D062460A431ED06200570D4A000E0326
:1005E0002303550D012402462C492405781B1B0BBF
:1005F000360B401823432643614600901C46501A90
:10060000B44103D30098401C009002E09218009877
:100610005B41002803DA0020014605B0F0BD002050
:10062000012109050746864611E064461D46141B54
:10063000B54106D36546521BB341744607430C438C
:10064000A646CD0740084908284392185B41054655
:100650000D43EAD11046184313D060461946504066
:100660007140084306D06046101AB34106D20122F9
:10067000002306E000220123DB0702E00122D2432F
:100680005310009874460105381C6141029C039D7B
:100690000019694100F084F8BFE70000FD03000085
:1006A0004A0009030123090B1B0519430A4B10B526
:1006B000520D9A4202DA0020014610BD064B343337
:1006C0009A4203DC9A1A00F047F810BD034BD21887
:1006D00000F032F810BD0000FF030000CDFBFFFF6B
:1006E00010B5002904DB0124E40740428C41214677
:1006F000002B04DB1C460123DB075242A341994235
:1007000000D1904210BD00001CB509480090094876
:10071000019005460126009C05E0E36807CC3343C1
:100720000C3C98471034AC42F7D3FFF7CDFC0000E7
:100730008C370000AC37000010B5202A04DB0146DE
:10074000203A9140002010BD914020239C1A03467E
:10075000E3401943904010BD10B5202A04DB084641
:10076000203AD040002110BD0B46D340D040202479
:10077000A21A91400843194610BD10B5202A06DB85
:10078000CB170846203A1041C1170B4306E00B4631
:100790001341D0402024A21A91400843194610BDAD
:1007A00010B5002B08DA0024401C614192185B410F
:1007B0001A4301D14008400010BDF0B51FB482B00B
:1007C00005460C0003D0084601F0F4FD02E001F0FC
:1007D000F1FD20300246009021462846FFF7ACFF8D
:1007E000049B059A04460F4618431143084314D04E
:1007F000184610431BD0009840210A1A1846059944
:10080000FFF7AAFF05460E46009A05990498FFF7E0
:1008100093FF084305D0012004E02046394607B085
:10082000F0BD0020C11705430E432C433743009908
:100830000E986305401A7905E40A00220C43FD0A6C
:100840000A3002D500200146E9E701051019694187
:100850000C9C0D9D00196941FFF7A2FFDFE782B0F4
:1008600001900199881E001F00BFFCD2009002B0C9
:10087000704784B003900291019203980068009041
:10088000009801998843009000980299019A1140BC
:1008900008430399086004B0704784B00390029144
:1008A0000192039800680090009801998843009095
:1008B00000980299019A114008430399086004B016
:1008C000704784B0039002910192039800680090F1
:1008D000009801998843009000980299019A11406C
:1008E00008430399086004B07047000082B001908B
:1008F0000091009B0199094A88581843885002B01A
:100900007047C04682B001900091009B0199034A54
:1009100088581843885002B07047C04648100000FD
:1009200082B001900091009801999522520188505F
:1009300002B0704782B00190009100980199952211
:100940005201885002B0704782B001900091009827
:10095000019995225201885002B0704782B00190EF
:1009600000910098019995225201885002B0704779
:1009700082B001900091009B0199034A8858184366
:10098000885002B07047C0462810000082B0019025
:10099000009100980199024A885002B07047C04601
:1009A000D012000081B0009000990120C2020248DC
:1009B000885001B07047C0460100002682B0019007
:1009C00000910198024940580099084002B07047D0
:1009D0003810000081B0009000988100154A02484C
:1009E000885001B07047C0468100040081B000907B
:1009F000009881000F4A8120885001B07047C0469E
:100A000082B0019000910098034908430199890040
:100A1000084A885002B070478000040082B00190FC
:100A2000009100988021084301998900014A88506B
:100A300002B070470480424082B00190009101985A
:100A40002721C90140580099084002B0704782B080
:100A50000190009101982721C90140580099084050
:100A600002B0704781B000900099024A0248885055
:100A700001B0704704080000030000B182B001908B
:100A8000009100980199074A885002B07047C0460B
:100A900082B00190009100980199024A885002B0FA
:100AA0007047C0469012000082B001900091009BF8
:100AB00001999D20420188581843885002B0704720
:100AC00082B00190009100980199024A885002B0CA
:100AD0007047C046B0120000F0B584B00124220275
:100AE000344B19680392914319605A490D686D049B
:100AF000FCD5457E25409E69A64374199C6120243F
:100B0000045D03252C40DE69AE433419DC611F4CC3
:100B1000256805262660466A37681F6276685E6229
:100B200007262E402660C4697F252D02DE69AE436C
:100B30006406640C3419DC610768456882680092B9
:100B4000C66802690192426902929A69104C144087
:100B50003A07120B2D03ADB2AA183243009D2D07A0
:100B60002D0D1543019A1543029A1543007E284323
:100B7000084A0240101998611868039A10431860D7
:100B800008688005FCD504B0F0BDC04600134040A5
:100B90008D00F0FF72FF0F000649086801229043A4
:100BA00008607047034908680122120290430860F8
:100BB0007047C04608010B4025490868012212030E
:100BC000104308607047C04681B001466846017016
:100BD00000780249086001B07047C04608030B4026
:100BE00080B582B0014601A8018001880F20020271
:100BF0001748FFF73EFE02B080BDC04680B582B008
:100C0000014601A80170017802480322FFF731FE76
:100C100002B080BD00010B4080B582B0014601A842
:100C2000017001780A483022FFF723FE02B080BD30
:100C300007498860074802689202FCD50122120425
:100C40000B6813430B600168C906FCD57047C046AA
:100C500004010B4004020B400949086805221043B7
:100C60000860704781B00090054904200860009832
:100C7000401E0449086004490020086001B0704724
:100C800010E000E014E000E018E000E080B58CB077
:100C90000B900A910A984079C00700285CD0FFE7C2
:100CA0000A9800790790002804D0FFE707982028C9
:100CB0000CD018E00B9888210691022200F0B8F9B8
:100CC00006990B98032200F0B3F919E00B98212143
:100CD00009010591022200F0ABF905990B98032256
:100CE00000F0A6F90CE00B980521C901049102223D
:100CF00000F09EF904990B98032200F099F9FFE7A0
:100D00000B980022029202230193114600F0AAF9E7
:100D1000029A0B9803230393114600F0A3F901995B
:100D2000029B0B98009119461A4600F0D3F9029BDA
:100D300003990B98009119461A4600F0CBF9019BD4
:100D4000029A0B98114600F0ABF9029A039B0B989C
:100D5000114600F0A5F9FFE70A98006808900A9884
:100D6000007908A908710A98807948710B9800F0F9
:100D700031F80CB080BD000081B000900099024AAB
:100D80000120885001B070470811000082B0019026
:100D90000091009B0199034A88581843885002B07B
:100DA0007047C0462810000081B0009000990120D3
:100DB000C2020248885001B07047C04601000026B8
:100DC00081B000900098812149014058C0B201B023
:100DD0007047000080B58AB00990089108980079A2
:100DE0000790002804D0FFE70798202812D029E0B8
:100DF000099808990968491E00F0C6F909988821E0
:100E00000691002200F014F906990998012200F0D9
:100E10000FF92AE0099808990968491E00F0B4F909
:100E200009982D490491002200F002F904990998CB
:100E30000122059200F0FCF805990998490700F095
:100E400095F912E0099808990968490800F09CF999
:100E500009980521C9010391002200F0E9F80399DE
:100E60000998012200F0E4F8FFE7099800230193B4
:100E700019461A4600F0F6F8019A099801230293E0
:100E8000114600F0EFF8019B0998009319461A46A5
:100E900000F020F9019B02990998009119461A4621
:100EA00000F018F9019B099819461A4600F0F8F865
:100EB000019A029B0998114600F0F2F80998BD4981
:100EC0004018089A11795279114302221143034ABA
:100ED000FFF7F7FC0AB080BD01040000BFFF00303F
:100EE00080B584B00390029103980299496800F09C
:100EF0004BF9029800780190222856D80198810079
:100F000001A040588746C046A10F0000AB0F00006B
:100F1000A10F0000AB0F0000AB0F0000AB0F0000F3
:100F2000AB0F0000AB0F0000AB0F0000AB0F0000D9
:100F3000AB0F0000AB0F0000AB0F0000AB0F0000C9
:100F4000AB0F0000AB0F0000950F0000AB0F0000CF
:100F5000950F0000AB0F0000AB0F0000AB0F0000BF
:100F6000AB0F0000AB0F0000AB0F0000AB0F000099
:100F7000AB0F0000AB0F0000AB0F0000AB0F000089
:100F8000AB0F0000AB0F0000950F0000AB0F00008F
:100F9000950F000003980121490700F0E7F805E0EC
:100FA0000398002100F0E2F800E0FFE703980299BF
:100FB00009690022009200F0ADF8009B03980299A5
:100FC000C9681A4600F04EF802990878097A084371
:100FD0000399784A885004B080BDC04681B0009023
:100FE0000099AE4AAE48885001B0704782B0019077
:100FF00000910098019911221202885002B07047A6
:1010000080B584B00390029101A802700399224A2E
:101010008918009101780098890040180090009884
:10102000029907229204FFF74CFC04B080BDC04631
:1010300080B584B00390029101A802700399074A19
:101040008918009101780098890040180090009854
:101050000299034AFFF735FC04B080BD7018000008
:10106000DB06C00F10B586B005900491039202A86C
:1010700003700599084A891801910178019889003F
:101080004018019001980499039A1143034AFFF70D
:1010900018FC06B010BDC04630180000777702007B
:1010A00010B586B005900491039202A803700599CB
:1010B0003122D201891801910178019889004018E4
:1010C000019001980499039A11438F22FFF7F9FBCD
:1010D00006B010BD10B587B000910446009809997C
:1010E000069405900492039302A801700699084A99
:1010F000891801910178019889004018019005989C
:1011000004990843039908430199086007B010BD8A
:101110005018000084B00390029101A80270039956
:10112000064A8918009101780098890040180090BB
:1011300002980099086004B07047C046101800007B
:1011400082B001900091009800780199704A88500F
:101150000098407801990122120388500098807805
:101160000199864A885002B07047C04680B582B067
:101170000190009101980F4940180099032212072D
:10118000FFF79FFB02B080BD82B0019000910098F4
:101190000199024A885002B07047C0460818000002
:1011A00081B000900099034A885801231843885061
:1011B00001B070470418000081B000900099112020
:1011C0000202885801239843885001B0704781B0CB
:1011D000009000991120020288580123184388507A
:1011E00001B0704781B00090009911200202885828
:1011F00001235B041843885001B0704781B0009010
:10120000009911200202885804231843885001B025
:101210007047000081B0009000990120C20202488E
:10122000885001B07047C0460100002680B582B0EA
:10123000019000910198FFF7BFFF01981121090269
:101240004018009A11889378194392881143084AEC
:10125000FFF723FB019825494018009A9179D3792B
:101260001943127A11437E22FFF717FB02B080BDAB
:101270001867020081B0009000980349405801218E
:10128000084001B07047C0460811000081B00090CE
:101290000099024A0248885001B0704704080000D3
:1012A000030000B180B584B00390029101920398CD
:1012B0000B49401802990B4AFFF7DBFA03980A49D9
:1012C000401801993F22FFF7D4FA0399074A88187A
:1012D000895801221140FFF7CCFA04B080BDC04606
:1012E00010110000FFFF00001411000004110000A5
:1012F00082B001900091009800780199044A8850CA
:1013000000984078019901221203885002B070477A
:101310000810000080B582B0019000910198112161
:101320000902401800990322D203FFF7A2FA02B083
:1013300080BD000080B584B0019101460198039101
:1013400002A9087003980D4A801809787022FFF7E7
:1013500090FA04B080BDC04680B584B001910146CA
:101360000198039102A908700398044A801809782B
:101370000722FFF77EFA04B080BDC0460C110000C2
:1013800082B001906846017000780199892252016B
:10139000885002B07047000080B582B0032041063B
:1013A0003F48FFF70BFB3F49019108601120010501
:1013B000E748FFF703FB014601983B4A1160C078FC
:1013C0008007002813D5FFE7012081063448FFF786
:1013D0003EFB002805D1FFE734490868401E08603D
:1013E00004E032490868401C0860FFE719E02D4816
:1013F000C0784007002813D5FFE7012041062848A0
:10140000FFF725FB002805D1FFE728490868401CA5
:10141000086004E025490868401E0860FFE7FFE710
:10142000FFE721488078C006002813D5FFE7012098
:101430000106C748FFF70BFB002805D1FFE71C4951
:101440000868401E086004E019490868401C0860EC
:10145000FFE719E01448C078C007002813D0FFE761
:1014600001200105BA48FFF7F2FA002805D1FFE78D
:101470000F490868401C086004E00D490868401ED8
:101480000860FFE7FFE7FFE703204106E048FFF7BA
:1014900039FA11200105AE48FFF734FA02B080BDD9
:1014A00000000A4000052020040520201400202010
:1014B0001000202080B582B0322000F025FE0146C9
:1014C00001A801700078012806D1FFE703490868E8
:1014D000424250410860FFE702B080BD0400202076
:1014E00080B582B0014601A801800088002803D1A0
:1014F000FFE700F017F810E009490888401C088051
:1015000080B201A90988884206D1FFE700F012F8ED
:10151000034900200880FFE7FFE702B080BDC04616
:101520001800202080B5012041028948FFF702FA07
:1015300080BDC04680B5012041028548FFF7C0FA52
:1015400080BDC04680B582B001A900200870FFE7C9
:1015500001A8007807281EDCFFE769460020087014
:10156000FFE7684600787F280FDCFFE768460078D1
:10157000C1009648411801A8027800208854FFE76E
:101580000098401C69460870EBE7FFE70198401C93
:1015900001A90870DCE700F0DDF802B080BDC046AC
:1015A00086B0034605A8037004AB197003A90A703E
:1015B0006A460021117000787F2805DCFFE704A847
:1015C0000078402801DBFFE72DE004A90878C20875
:1015D0000720821A02AB1A700A78024001A90A7029
:1015E0000978411A012088406946087003A80078EC
:1015F00000280CD0FFE7009B05A80078C1007348C5
:10160000411802A80278885C184388540BE0009BBC
:1016100005A80078C1006D48411802A80278885CCE
:1016200098438854FFE706B07047C04680B582B043
:1016300000F06EF8782000F0FDFD00F071F8AE20AB
:101640000021019100F0ADF90199D52000F0A9F930
:101650000199502000F0A5F90199A82000F0A1F906
:1016600001993F2000F09DF90199D32000F099F9EC
:101670000199084600F095F90199402000F091F990
:1016800001998D2000F08DF90199142000F089F95D
:101690000199202000F085F90199022000F081F9DC
:1016A0000199A12000F07DF90199C02000F079F99D
:1016B0000199DA2000F075F90199122000F071F912
:1016C0000199812000F06DF90199EF2000F069F98E
:1016D0000199D92000F065F90199F12000F061F934
:1016E0000199DB2000F05DF90199302000F059F9F3
:1016F0000199A42000F055F90199A62000F051F9B4
:101700000199AF2000F04DF9FFF71CFF02B080BD3A
:1017100080B5012081030E48FFF720F980BDC04647
:1017200080B501208103F848FFF7B2F980BDC046BB
:1017300080B50120C103F448FFF710F980BDC04611
:1017400080B50120C103F048FFF7A2F980BDC04673
:1017500000200A4080B584B003A900200870FFE78C
:1017600003A8007807282FDCFFE70398B030C0B249
:101770000021019100F015F90199084600F011F9D6
:101780000199102000F00DF9019802A90870FFE7F7
:1017900002A800787F2811DCFFE702A80078C100CA
:1017A0000A48401803A90978405C012100F0F9F8C3
:1017B000FFE70298401C02A90870E9E7FFE70398D9
:1017C000401C03A90870CBE704B080BD1A0020209C
:1017D00080B501200107CD48FFF7C0F880BDC046A5
:1017E00080B501200107C948FFF752F980BDC04606
:1017F00080B50120C107C548FFF7B0F880BDC046DD
:1018000080B50120C107C148FFF742F980BDC0463D
:1018100000000A40B0B58AB004460E9809AD2C709D
:1018200008AC217007A90A7006AA137005AA1070E7
:10183000089801AA107007982038087003A90020A2
:101840000870FFE703A8007806A90978884264DADF
:10185000FFE706A800780C280CD1FFE707A800785E
:101860000C2141432F48401803A90978405C04A982
:1018700008700AE007A8007801012948401803A968
:101880000978405C04A90870FFE702A900200870ED
:10189000FFE702A80078072839DCFFE704A80078F2
:1018A0000006002809D5FFE709A8007808A90978EB
:1018B00005AA1278FFF774FE0AE009A8007808A9C3
:1018C000097805AA127853425A41FFF769FEFFE7EB
:1018D0000498400004A908700898411C08A80170E9
:1018E000007801A90978401A06A90978884208D128
:1018F000FFE7019808A908700998401C09A9087019
:1019000005E0FFE70298401C02A90870C1E7FFE765
:101910000398401C03A9087094E70AB0B0BDC04604
:1019200088310000142D000080B586B005AB18701A
:1019300004A801700392FFE70398007800282ED0D6
:10194000FFE705A800787B2808DBFFE705A9002052
:1019500008700498103004A90870FFE704A8007804
:101960003B2808DBFFE705A90020087004A90870E0
:10197000FFF7E8FDFFE705A80290007804A90978C1
:10198000039A1278012300930C23FFF743FF029977
:101990000598083008700398401C0390CCE706B007
:1019A00080BD80B584B003AA107002A801700078D1
:1019B000002803D0FFE7FFF7C3FE02E0FFF7B8FE01
:1019C000FFE701A900200870FFE701A800780728B9
:1019D0001ADCFFE7FFF7FCFE03A8007800060028EA
:1019E00003D5FFE7FFF70CFF02E0FFF701FFFFE77A
:1019F000FFF7F6FE0398400003A90870FFE701987F
:101A0000401C01A90870E0E7FFF79AFE04B080BD12
:101A100080B58AB00E2008210191FEF7FFFFB6487D
:101A200008900421FEF7B2FF01990F20FEF7F6FFA0
:101A300001990898FEF7AAFF142002210291FEF7EF
:101A4000EDFF02991520FEF7DBFF2720FEF7C2FF0E
:101A50001920FEF7CBFF2520FEF7C8FF2620FEF752
:101A6000C5FF2320FEF7C2FF2220FEF7BFFF36206E
:101A7000FEF7B0FF3A20FEF7ADFF2F20FEF7AAFFDA
:101A80003320FEF7A7FF1E20FEF7B0FF1F20FEF752
:101A9000ADFF0298FEF7AAFF05200490FEF7A6FF0F
:101AA000D84805901A490391FEF73AFF0399059823
:101AB000FEF76CFF049905988904FEF7F5FF059879
:101AC000032149060691FEF711FF05980699FEF7D6
:101AD0004FFF0898612149020791FEF721FF0799FE
:101AE0000898FEF753FF08980A49FEF7DDFF0898AB
:101AF000112109050991FEF7F9FE08980999FEF7E9
:101B000037FF0AB080BDC04600200A4000000A40EE
:101B1000006003900001010080B584B01B49BA4801
:101B20000390FFF70DFB03981949FFF7AFF80398EF
:101B3000002201921146FFF7EDFA019B03980093F2
:101B400019461A46FFF7C6FA019A03981146FFF79D
:101B500057FA0199039801220292FFF7DBFA019BE1
:101B600002990398009119461A46FFF7B3FA0199B2
:101B7000029A0398FFF744FA0398FFF7FDF80398D9
:101B80000321FFF733FA04B080BDC046BC2C00002F
:101B9000C02C000080B582B000200190FFF714F83F
:101BA000012000904002FFF71BF80198FFF726F88C
:101BB000FEF7F2FFFEF7F6FF0848FEF78DFF102054
:101BC000FFF72AF8FEF7F8FF0198FFF731F80098C1
:101BD000019900F057FA02B080BDC046C82C000041
:101BE00080B501200006FFF73DF8FFF735F880BD0E
:101BF00080B582B00849A9480190FFF7A1FA019881
:101C00000649FFF76DF901980121FFF7BFF8019828
:101C1000FFF7B2F802B080BDF02C0000F42C0000F9
:101C200080B582B0124935480190FFF761FB0198F9
:101C30001049FFF7FBFA01980021FFF76BFB0198B1
:101C400015212D22FFF72EFB0198FFF7CBFA019803
:101C50007021FFF76FFB01980221FFF77DFB0198D0
:101C6000FFF7CCFA0198FFF7B2FA02B080BDC04688
:101C7000082D00000A2D000080B500F013F8FFF7D2
:101C8000C7FEFFF787FFFFF747FFFFF7B1FFFFF73B
:101C9000C7FFFFF7A5FF0249B8220020885480BD86
:101CA0004404202080B586B056480190FEF7DAFE45
:101CB00011480290FEF7D6FE53480390FFF78EF9C5
:101CC00076480490FFF78AF90C480590FFF7DEFA92
:101CD0000198FEF767FE0298FEF764FE0398FFF78F
:101CE00063F80498FFF760F80598FFF793FA10205F
:101CF000FEF7B5FD06B080BD00200A400080104010
:101D000080B58EB00D900C910D9801281DDBFFE77A
:101D100001200A9041043B480B90FEF7AFFE0A9960
:101D20000B980904FEF710FE0C98012803DBFFE76F
:101D30000C98099003E00C9840420990FFE709993C
:101D400031480022FFF7E6F91CE00120079001046A
:101D50002C480890FEF792FE079908984904FEF770
:101D6000F3FD0C98012803DBFFE70C98069003E0D5
:101D70000C9840420690FFE7069923480022FFF79F
:101D8000C9F9FFE70C9801281DDBFFE7012004904B
:101D900041031C480590FEF771FE049905988903DC
:101DA000FEF7D2FD0D98012803DBFFE70D980390A5
:101DB00003E00D9840420390FFE703991248012287
:101DC000FFF7A8F91CE00120019081030D48029063
:101DD000FEF754FE019902984903FEF7B5FD0D98F0
:101DE000012803DBFFE70D98009003E00D984042C7
:101DF0000090FFE7009904480122FFF78BF9FFE705
:101E00000EB080BD00000A400020864001480068F6
:101E10007047C04618E000E080B582B01F48FEF76A
:101E2000CFFF002837D0FFE76420FFF759FBFFF70B
:101E300041FB1B49086840421A4A10601A4A106860
:101E40001A4B1860002010600860194800680028CC
:101E50001BD1FFE71348016819200001009000F032
:101E60002DF8014600984942124A019211600F492B
:101E7000096800F079F8014601984A420E490A6063
:101E800000680968FFF73CFF04E000210846FFF7FF
:101E900037FFFFE7FFE702B080BDC04600400840C3
:101EA000100020203C04202014002020400420208A
:101EB000040020201C0420202004202080B58CB0A9
:101EC0000B900A910B980A99401A09904F480068A4
:101ED000049009980190224907910968401AFEF779
:101EE00099F90146019803914A4909680291FEF760
:101EF00091F901460298FEF750F9039902460498B9
:101F00000592FEF74AF90599FEF7EEF80690154896
:101F100008900068FEF77EF90699FEF7E5F8FEF7EF
:101F200084F9079A014608980160099911600068D0
:101F30003A49884204DBFFE70A493B4808600AE067
:101F4000084800683649884204DCFFE705493548FF
:101F50000860FFE7FFE7034800680CB080BDC0469B
:101F6000280420202404202080B58CB00B900A91F6
:101F70000B980A99401A099024480068049009981F
:101F80000190234907910968401AFEF743F9014679
:101F9000019803911F4909680291FEF73BF9014638
:101FA0000298FEF7FAF80399024604980592FEF7A4
:101FB000F4F80599FEF798F806901748089000681D
:101FC000FEF728F90699FEF78FF8FEF72EF9079A23
:101FD0000146089801600999116000680F4988421C
:101FE00004DBFFE70C49104808600AE00A48006873
:101FF0000B49884204DCFFE707490A480860FFE70D
:10200000FFE7054800680CB080BDC04608002020EE
:10201000300420200C0020202C042020591B00001C
:10202000A7E4FFFFA8E4FFFF581B000081B00146B2
:102030006846017000214056002809D4FFE7684631
:1020400001781F2001400120884002490860FFE715
:1020500001B0704780E200E081B00146684601703F
:1020600000214056002809D4FFE7684601781F2068
:1020700001400120884002490860FFE701B0704735
:1020800000E100E070B582B0024601A80270009144
:1020900000214056002816D4FFE7002401A9085764
:1020A0000322D3431840174A805809578C07E50E7E
:1020B000FF24AC40A043009CA401E4B2AC40204308
:1020C000194088501AE001A908780F2420400838E8
:1020D0000322D34318400A4A8058002549578D07E8
:1020E000EE0EFF25B540A843009DAD01EDB2B54011
:1020F00028432140083919408850FFE702B070BDDD
:102100001CED00E000E400E080B582B06946087094
:10211000012081044148FEF78FFC002805D0FFE72D
:102120003F490888401C088003E03D4900200880A2
:10213000FFE7012081043948FEF77EFC002809D022
:10214000FFE738480078002804D1FFE7354901202F
:102150000870FFE73448007800281CD1FFE73148B9
:102160000078012808D1FFE730490878401C087042
:102170002D4901200870FFE72C480078032809D179
:10218000FFE72A49002008702949088001A9022098
:1021900008703FE0FFE7012081042048FEF74CFC77
:1021A000002806D1FFE71F49002008701E4908706B
:1021B000FFE71E480078012828D1FFE71C48018866
:1021C000491C0180008869460978884210DDFFE7D4
:1021D0001348008869460978884209DAFFE71349FD
:1021E000002008701249088001A90120087011E040
:1021F0000B48008869460978884206DDFFE70B49ED
:10220000002008700A490880FFE7FFE701A90020C5
:102210000870FFE701A8007802B080BD00000A4006
:10222000340420203B042020360420203A042020BF
:102230003804202080B582B0019000200090FFE794
:1022400000980749884208DCFFE7019800F00AF887
:10225000FFE70098401C0090F2E702B080BDC04646
:10226000E703000080B586B0059005981E498842B6
:1022700003D3FFE71D480590FFE705995020484329
:102280000590002000900490FFF7C0FD01460098E3
:102290000391029001A90870FFE7FFF7B7FD0290D4
:1022A00002980399884204D9FFE701A90120087028
:1022B000FFE701A80078002807D0FFE703980299FC
:1022C000401A0B494018049004E003980299401A00
:1022D0000490FFE704980599884201D3FFE700E0E6
:1022E000DBE706B080BDC046343303003333030060
:1022F000FFFFFF0080B582B001900091FFE7074823
:10230000FEF7B8FF002801D0FFE7F8E701A8017841
:102310000248FFF735F8019802B080BD00801040F8
:1023200080B584B0002003900290FFF7A5FC14480C
:10233000FEF736FF01200090FFF778FE0098FFF7C8
:1023400075FE0098FFF788FE0098FFF785FE1020C5
:102350000190FFF76BFE0198FFF77EFEFFF766F92D
:10236000FFE70848016808480268084800F012F8CA
:10237000074A02210846FFF7D7FAFFF7EBF9F0E723
:10238000002086403C0420204004202078370000B4
:10239000813700000FB410B503A9044B044A02981A
:1023A00000F0F0F810BC08BC04B01847F52200009B
:1023B000000020202021020C01D010211046020A2A
:1023C00001D010460839020901D01046091F8208C1
:1023D00001D01046891E420801D0881E7047081A95
:1023E000704700000000000002E008C8121F08C18A
:1023F000002AFAD17047000070470000000000007A
:10240000002001E001C1121F002AFBD1704700002B
:10241000F0B51FB486B00998089A030D0021024355
:1024200014D05148514A18185043051411980128E6
:1024300010981AD0281A401C00264D4F4D4900967E
:1024400001910490002812DA444211E0119801240D
:1024500049A3012801D11098C1430698119A8460BC
:102460000360C26041600BB0F0BD4042E4E7044647
:10247000210500203F4A001C51410391029012E0C7
:10248000E00707D032463B4601990098FEF728F84E
:102490000191009032463B4610461946FEF720F85F
:1024A00006460F466410002CEAD10498039B0028CE
:1024B000029A0999089806DAFEF712F8019B009A29
:1024C000FEF70EF805E0FEF773F8019B009AFEF7A1
:1024D0006FF804460E460022284BFEF701F903D898
:1024E0000020C043014607E00022254B204631462C
:1024F000FDF744FFFEF7D4F8102409E0002C0ADBB6
:102500000A220023FDF7C9FE079B30321A55641ECC
:1025100002460A43F2D11122641C079B121B1C19AC
:10252000119B012B03D0012308430ED10AE008437D
:1025300004D0112010900020119077E71098151A00
:102540006D1E0BE01098824202DD00236D1C03E03B
:10255000824201DA00236D1E002BEED006981199FD
:102560008260C16030C07EE701FCFFFF104D0000BB
:10257000000014400000F03F300000000000F04375
:102580000000E03FFFB597B00646002518E2252879
:1025900077D100242746FD49049400E00443761CCB
:1025A00032780120203A90400842F7D130782A282A
:1025B0000ED00222307801463039092916D8049904
:1025C0000A235943303940181443761C0490F1E72C
:1025D000189802C804911890002904DA01204003D9
:1025E00004434842049002200443761C30782E288D
:1025F00014D1042004437078761C2A2809D1189835
:10260000761C80C8189009E00A214F43303FC71953
:10261000761C3078014630390929F5D930786C2894
:1026200010D006DC4C281AD068280ED06A2817D1A2
:1026300004E0742813D07A2812D110E0012040055C
:1026400004430CE00121090501E0032109050C43C5
:102650007178814203D1012000052418761C761C74
:102660003078119066280BD013DC58287DD009DC17
:1026700000287BD04528F6D04628F4D047281AD128
:10268000A5E118E0632835D0642870D0652812D100
:102690009DE170286CD008DC6728F1D069287BD0D8
:1026A0006E280DD06F2806D1BAE073282ED0752879
:1026B00071D0782859D01A9A199990476D1C7EE1EB
:1026C0006002400F022809D003280DD00428189872
:1026D00001680DD00D60001D189070E11898EA1780
:1026E00001680D604A60F6E7189801680D80F2E70E
:1026F0000D70F0E718986A4601781172001D189065
:102700000020507202A80090012005E0189802C82D
:10271000189000200091C04361070DD5002101E011
:102720000199491C0191B94212DA8142F8DB009A01
:10273000515C0029F4D10BE0002101E00199491C12
:1027400001918142FADB019A0099895C0029F5D157
:10275000019904981A9B471A21463846199A00F0A5
:1027600097FA0199401945180BE04FE02CE113E06E
:102770004EE0009800990078491C00911A9A199926
:1027800090470198401E0190401CF2D121463846E6
:102790001A9B199A10E137E00A200021009001915C
:1027A0006002410F022907D0189A01CA1892C21775
:1027B0009446032908D00AE01898C01DC108C90032
:1027C00005C91891944607E000B2C217944604293F
:1027D00002D140B2C1178C4600226146944506DA08
:1027E0000A460021404291418C462D2102E02105FC
:1027F00004D52B216A461173012103E0E10701D0C2
:102800002021F7E7029155E00A200AE0102008E0B5
:10281000102000900021042004430191082703E0C8
:1028200008200021019100906002410F022907D089
:10283000189A01CA189200229446032908D008E089
:102840001898C01DC108C90005C91891944603E035
:1028500080B2042900D1C0B200210291210729D5FC
:102860001199702906D0009A1021019B4A401A4301
:1028700005D00EE040216A461173012108E061464F
:10288000014306D030216A46117311995173022118
:102890000291009A0821019B4A401A430AD16146DD
:1028A000014301D1610705D530216A461173012129
:1028B0007F1E02911199582904D035A10E910DA9BE
:1028C0000D910DE037A1F9E76146019B009AFDF7F4
:1028D000E4FC0E9B8C469B5C0D9A521E0D9213706D
:1028E00061460143F0D10D9805A9081A20300190E6
:1028F000600703D501200004844300E0012701980C
:10290000874201DD381A00E000200199009041184B
:10291000029809180498401A0490E00306D421464E
:102920001A9B199A049800F0B3F94519002706E09C
:1029300003A81A9AC05D199990476D1C7F1C0298D4
:102940008742F5DBE0030CD521461A9B199A0498BF
:1029500000F09EF9451904E01A9A30201999904721
:102960006D1C0099481E00900029F5DC08E00D98C8
:102970000D990078491C0D911A9A199990476D1C70
:102980000199481E01900029F1DC63E1092801004A
:1029900030313233343536373839616263646566D5
:1029A0000000000030313233343536373839414297
:1029B000434445460000000000F05AF94519761CD2
:1029C0003078002800D0E2E528461BB0F0BD600753
:1029D00000D406271898C01DC108C90048680A68B5
:1029E0000831C30FDB071891190001D09CA108E042
:1029F000210501D59BA104E0E10701D09AA100E0E7
:102A00009AA1430011985B08109165280CD006DC50
:102A1000452809D046281DD0472841D141E06628E5
:102A200018D067283CD13CE00021112F01DB112098
:102A300000E0781C0191009008A911A8FFF7E8FCBC
:102A4000139905910021119A15927F1C12980197F4
:102A5000009150E00120C00703900120019008A9D7
:102A6000009711A8FFF7D4FC139A1499059200223D
:102A7000119B009212981593059A0192002901D09A
:102A8000104602E0791C40180190381A01D50198CF
:102A900004E04042401E0090781C0190C01B029050
:102AA00043E0012F00DA01270021112F01DD112061
:102AB00000E038460191009008A911A8FFF7A8FC92
:102AC00013990591119A002112981592009101977E
:102AD00021070CD40599B94201DB019900E001916D
:102AE000012904DD159A491E515C302906D0B842EF
:102AF00001DA011D05DA0121029115E00199491E53
:102B0000EDE7002805DC0099411800910199091AA8
:102B100003E0019A411C914200DD01910099401AA5
:102B2000401C02900120C0070390200706D40299A0
:102B30000198814202DB0020C043029000206946D8
:102B4000C87707AF012103980337C907884224D00B
:102B5000022011902B201290039800280CDA40429A
:102B600003902D20129007E00A210398FDF776FBD1
:102B700030317F1E039039701199481E1190002941
:102B8000F2DC03980028EFD1791E12980870307893
:102B9000202108404530BF1E387006A8C01BC01D4C
:102BA000039010980078002800D001200199411866
:102BB0000298C0170918039809180498401A401E73
:102BC0000490E00306D421461A9B199A049800F059
:102BD0005FF8451910980078002803D01A9A1999BF
:102BE00090476D1CE00324D521461A9B199A04983E
:102BF00000F04EF845191CE00098002807DB00990A
:102C00000598884203DD1598405C199901E01999EF
:102C100030201A9A904700986D1C401C0090029832
:102C2000401E0290002804D11A9A2E20199990472C
:102C30006D1C0199481E01900029DDDC05E0387803
:102C40001A9A7F1C199990476D1C0399481E03908E
:102C50000029F4DC21461A9B199A0498ACE600007E
:102C60002D0000002B0000002000000000000000EC
:102C7000F8B5044600251E461746880404D405E02E
:102C800039462020B0476D1C641EF9D52846F8BD92
:102C9000FFB50446002581B01E46C80301D5302784
:102CA00000E02027880404D505E038460399B047A2
:102CB0006D1C641EF9D5284605B0F0BD0800000063
:102CC000401F000020000100010000000000000083
:102CD00000000000400000000000000000000000B4
:102CE0000200000004000000010000002C00C441AC
:102CF00008001F0002000000D330000001000000A7
:102D000000000000000000000800000018000000A3
:102D10000030000000000000000000000000000083
:102D2000000000003F4000000000000000003000F4
:102D3000400030004000000009000BC03D000BC007
:102D40003D00090018C024407FE02240318000008F
:102D5000180024C01B000D803240018003801C40FD
:102D600027401C8007400040100060000000000069
:102D7000000000000000000000001F8020404020F4
:102D80000000402020401F800000000009000600D5
:102D90001F80060009000000040004003F800400BA
:102DA00004000000001000600000000000000000AF
:102DB00004000400040004000400000000000040BF
:102DC0000000000000000000002001C006003800E4
:102DD000400000001F802040204020401F80000055
:102DE000000010403FC000400000000018C021401B
:102DF00022402440184000001080204024402440FD
:102E00001B80000002000D0011003FC001400000C7
:102E10003C80244024402440238000001F80244024
:102E200024403440038000003000200027C03800D8
:102E3000200000001B802440244024401B80000010
:102E40001C0022C0224022401F8000000000000021
:102E500008400000000000000000000004600000C6
:102E600000000000000004000A0011002080404023
:102E700009000900090009000900000000004040A5
:102E8000208011000A0004001800200023402400C4
:102E9000180000001F802040274029401F400000EC
:102EA000004007C039000F0001C0004020403FC073
:102EB000244024401B8000001F80204020402040F0
:102EC0003080000020403FC0204020401F80000094
:102ED00020403FC024402E4030C0000020403FC072
:102EE00024402E00300000000F00108020402240BF
:102EF0003380020020403FC0040004003FC0204057
:102F0000204020403FC020402040000000602020A2
:102F100020203FC02000200020403FC024400B0064
:102F200030C0204020403FC020400040004000C052
:102F30003FC03C0003C03C003FC0000020403FC0F9
:102F40000C4023003FC020001F8020402040204034
:102F50001F80000020403FC02440240018000000D3
:102F60001F802140214020E01FA0000020403FC0E2
:102F70002440260019C0004018C0244024402240AC
:102F800031800000300020403FC020403000000071
:102F900020003F80004000403F80200020003E0095
:102FA00001C0070038002000380007C03C0007C0FF
:102FB00038000000204039C0060039C02040000021
:102FC0002000384007C0384020000000304021C0B9
:102FD0002640384020C00000000000007FE0402074
:102FE00040200000000070000C0003800040000042
:102FF0000000402040207FE0000000000000200092
:103000004000200000000000001000100010001020
:103010000010001000000000400000000000000050
:10302000000002800540054003C0004020003FC072
:10303000044004400380000000000380044004407A
:103040000640000000000380044024403FC00040D0
:1030500000000380054005400340000000000440DC
:103060001FC0244024402000000002E0055005500D
:103070000650042020403FC00440040003C000402C
:103080000000044027C000400000000000100010B5
:10309000041027E00000000020403FC0014007006E
:1030A00004C00440204020403FC0004000400000D9
:1030B00007C0040007C0040003C00000044007C0AC
:1030C0000440040003C000400000038004400440AA
:1030D00003800000041007F0045004400380000047
:1030E000000003800440045007F00010044007C0B3
:1030F00002400400040000000000064005400540B6
:1031000004C00000000004001F80044000400000D4
:10311000040007800040044007C00040040007008E
:1031200004C0018006000400060001C0070001C0C1
:1031300006000000044006C0010006C00440000074
:103140000410071004E001800600040000000440A1
:1031500005C00640044000000000000004007BE0C1
:1031600040200000000000000000FFF00000000010
:10317000000040207BE004000000000040008000D0
:10318000400020002000400000000000000000007F
:1031900000000000000000000000000000001FCC44
:1031A000000C00000000000000000800300060007B
:1031B0000800300060000000022003FC1E200220F6
:1031C00003FC1E200220000000000E1811043FFF27
:1031D00010840C78000000000F0010840F3800C02D
:1031E000077818840078000000780F8410C4112438
:1031F0000E9800E4008400080800680070000000D9
:10320000000000000000000000000000000007E0D7
:103210001818200440020000000040022004181882
:1032200007E00000000000000240024001800FF0B3
:1032300001800240024000000080008000800FF802
:1032400000800080008000000001000D000E0000E2
:1032500000000000000000000000008000800080EE
:1032600000800080008000800000000C000C000046
:1032700000000000000000000000000600180060D0
:103280000180060018002000000007F00808100464
:103290001004080807F000000000080408041FFCE0
:1032A000000400040000000000000E0C10141024A4
:1032B000104411840E0C000000000C1810041104BE
:1032C000110412880C700000000000E003200424A8
:1032D00008241FFC0024000000001F981084110423
:1032E0001104108810700000000007F00888110415
:1032F000110418880070000000001C00100010FC71
:1033000013001C001000000000000E38114410844F
:10331000108411440E38000000000700088C10448F
:103320001044088807F00000000000000000030CB3
:10333000030C000000000000000000000001010676
:10334000000000000000000000000080014002209A
:1033500004100808100400000220022002200220AD
:1033600002200220022000000000100408080410BF
:10337000022001400080000000000E001200100C2E
:10338000106C10800F00000003E00C1813E41424EC
:1033900017C4082807D000000004003C03C41C40E8
:1033A000074000E4001C000410041FFC1104110479
:1033B00011040E880070000003E00C1810041004C3
:1033C000100410081C10000010041FFC100410044E
:1033D0001004080807F0000010041FFC1104110479
:1033E00017C410040818000010041FFC1104110079
:1033F00017C010000800000003E00C1810041004AF
:1034000010441C780040000010041FFC1084008051
:10341000008010841FFC10040000100410041FFC26
:10342000100410040000000000030001100110014E
:103430001FFE10001000000010041FFC1104038088
:103440001464181C1004000010041FFC1004000475
:1034500000040004000C000010041FFC1F0000FC0E
:103460001F001FFC1004000010041FFC0C040300CC
:1034700000E010181FFC100007F0080810041004EA
:103480001004080807F0000010041FFC10841080CE
:10349000108010800F00000007F00818102410247E
:1034A000101C080A07F2000010041FFC1104110090
:1034B00011C011300E0C000400000E1C1104108409
:1034C000108410441C3800001800100010041FFC69
:1034D000100410001800000010001FF81004000471
:1034E000000410041FF8100010001E0011E0001C62
:1034F000007013801C0010001FC0103C00E01F0073
:1035000000E0103C1FC000001004180C163401C06D
:1035100001C01634180C100410001C00130400FC29
:1035200013041C00100000000804101C1064108418
:1035300013041C04101800000000000000007FFEAF
:103540004002400240020000000030000C000380F6
:103550000060001C00030000000040024002400226
:103560007FFE00000000000000000000200040007E
:1035700040004000200000000001000100010001A7
:103580000001000100010001000040004000200097
:103590000000000000000000000000980124014429
:1035A0000144014400FC000410001FFC00880104D9
:1035B0000104008800700000000000700088010411
:1035C000010401040088000000000070008801046C
:1035D000010411081FFC0004000000F8014401442C
:1035E0000144014400C800000000010401040FFC74
:1035F0001104110411001800000000D6012901294E
:10360000012901C90106000010041FFC008401000B
:103610000100010400FC000400000104190419FC6D
:10362000000400040000000000000003000101018C
:10363000190119FE0000000010041FFC00240040C6
:1036400001B4010C010400000000100410041FFC70
:103650000004000400000000010401FC010401005A
:1036600001FC0104010000FC010401FC00840100D4
:103670000100010400FC0004000000F80104010442
:103680000104010400F80000010101FF00850104AC
:103690000104008800700000000000700088010430
:1036A0000104010501FF00010104010401FC008483
:1036B0000104010001800000000000CC012401246D
:1036C000012401240198000000000100010007F816
:1036D0000104010400000000010001F800040004DE
:1036E0000004010801FC0004010001800170000CCD
:1036F000001001600180010001F0010C003001C0E8
:103700000030010C01F0010000000104018C007484
:103710000170018C01040000010101810171000EA2
:10372000001801600180010000000184010C0134D7
:1037300001440184010C00000000000000000000B2
:1037400001003EFC400240020000000000000000BA
:10375000FFFF0000000000000000400240023EFCAD
:1037600001000000000000000000600080008000F8
:1037700040004000200020002564202025640A0D20
:10378000006675636B20796F75000000B03700002C
:103790000000202010000000E8230000C0370000D7
:1037A00010002020F8140000002400000000000099
:1037B0000000000001000000CDCCCC3E0000803FA6
:04000005000000C136
:00000001FF
